:100000006CC500008BC5000089C5000087C50000D5
:1000100085C5000083C5000081C500007FC50000C4
:100020007DC500007BC5000079C5000077C50000D4
:1000300075C5000073C5000071C500006FC50000E4
:100040006DC500000C94B32169C5000067C50000B0
:1000500065C5000063C5000061C500005FC5000004
:100060005DC500000C948F100C94171157C500004B
:1000700055C5000053C5000051C500004FC5000024
:1000800055C700004BC5000049C5000047C500002A
:100090000C9460110C94BF1141C500003FC50000D5
:1000A0003DC500003BC5000039C5000037C5000054
:1000B00035C5000033C5000031C500002FC5000064
:1000C0002DC500002BC5000029C500000C940812A6
:1000D0000C94671223C500000C94B0120C943813D2
:1000E0001DC500000C0D0C0D110D110D160D160D7A
:1000F0001B0D1B0D7D0D7D0D780D780D730D730D92
:100100006E0D6E0D310E310E380E380E3F0E3F0E55
:10011000460E460EBD0EEE0E280F590F930FC40F5C
:1001200002103310391D391D391D841D6D1D811DAF
:10013000391D391D841D6D1D3D26512551255A2718
:100140005A275A275A275A275A275A2741265625C7
:1001500056255A275A275A275A275A275A275A279D
:1001600045265B255B255A275A275A275A275A279F
:100170005A275A274926602560255A275A275A2781
:100180005A275A275A275A274D26652565255A2763
:100190005A275A275A275A275A275A2751266A2553
:1001A0006A255A275A275A275A275A275A275A2739
:1001B00055266F256F255A275A275A275A275A2717
:1001C0005A275A2759267F257F255A275A275A27E3
:1001D0005A275A275A275A275D268F258F255A27AF
:1001E0005A275A275A275A275A275A2761269F25BE
:1001F0009F255A275A275A275A275A275A275A27B4
:100200006526AF25AF255A275A275A275A275A2736
:100210005A275A276926B425B4255A275A275A2718
:100220005A275A275A275A276D26C425C4255A27E4
:100230005A275A275A275A275A275A277126D32529
:10024000D3255A275A275A275A275A275A275A272F
:100250007526E325E3255A275A275A275A275A276E
:100260005A275A277926F325F3255A275A275A273A
:100270005A275A275A275A277D26032603265A2704
:100280005A275A275A275A275A275A278126132688
:1002900013265A275A275A275A275A275A275A279E
:1002A0008526232623265A275A275A275A275A278C
:1002B0005A275A278926332633265A275A275A2758
:1002C0005A275A275A275A278D265A275A275A27F4
:1002D0005A275A275A275A275A275A2791265A27E0
:1002E0005A275A275A275A275A275A275A275A2706
:1002F00095265A275A275A275A275A275A275A27BC
:100300005A275A2799265A275A275A275A275A27A7
:100310005A275A275A275A279D265A275A275A2793
:100320005A275A275A275A275A275A27A8265A2778
:100330005A275A275A275A275A275A275A275A27B5
:10034000AC265A275A275A275A275A275A275A2754
:100350005A275A27B0265A275A275A275A275A2740
:100360005A275A275A275A27B4265A275A275A272C
:100370005A275A275A275A275A275A27B826012771
:1003800025275A275A275A275A275A275A275A279A
:10039000BE2604272B275A275A275A275A275A2777
:1003A0005A275A27C2260A2731275A275A275A2757
:1003B0005A275A275A275A27C626102737275A2737
:1003C0005A275A275A275A275A275A27CA261627FA
:1003D0003D275A275A275A275A275A275A275A2732
:1003E000CE26192743275A275A275A275A275A27EA
:1003F0005A275A27D1265A275A275A275A275A277F
:100400005A275A275A275A27D5261C2749275A27B9
:100410005A275A275A275A275A275A27D8261F2792
:100420004F275A275A275A275A275A275A275A27CF
:10043000DB26222755275A275A275A275A275A2771
:100440005A275A27DE265A275A275A275A275A2721
:100450005A275A275A275A27E2265A275A275A270D
:100460005A275A275A275A275A275A27E6265A27F9
:100470005A275A275A275A275A275A275A275A2774
:10048000EA265A275A275A275A275A275A275A27D5
:100490005A275A27EE265A275A275A275A275A27C1
:1004A0005A275A275A275A27F1265A275A275A27AE
:1004B0005A275A275A275A275A275A27F5265A279A
:1004C0005A275A275A275A275A275A275A275A2724
:1004D000F9265A275A275A275A275A275A275A2776
:1004E0005A275A27FD266E27232823282328232826
:1004F0002328232823282328232870272328232858
:100500002328232823282328232823282328732744
:100510002328232823282328232823282328232883
:100520002328762723282328232823282328232821
:10053000232823282328792723282328232823280E
:10054000232823282328232823287C2723282328FB
:1005500023282328232823282328232823287F27E8
:100560002328232823282328232823282328232833
:1005700023288227232823282328232823282328C5
:1005800023282328232885272328232823282328B2
:10059000232823282328232823288827232823289F
:1005A00023282328232823282328232823288B278C
:1005B00023282328232823282328232823282328E3
:1005C00023288E2723282328232823282328232869
:1005D0002328232823289127232823282328232856
:1005E0002328232823282328232894272328232843
:1005F0002328232823282328232823282328972730
:100600002328232823282328232823282328232892
:1006100023289A272328232823282328232823280C
:100620002328232823289D272328232823282328F9
:1006300023282328232823282328A02723282328E6
:100640002328232823282328232823282328A327D3
:100650002328232823282328232823282328232842
:100660002328A627232823282328232823282328B0
:10067000232823282328A92723282328232823289D
:1006800023282328232823282328AC27232823288A
:100690002328232823282328232823282328AF2777
:1006A00023282328232823282328232823282328F2
:1006B0002328B22723282328232823282328232854
:1006C000232823282328B527232823282328232841
:1006D00023282328232823282328C2272328232824
:1006E0002328232823282328232823282328C52711
:1006F00023282328232823282328232823282328A2
:100700002328C827232823282328232823282328ED
:10071000232823282328CB272328232823282328DA
:1007200023282328232823282328CE2723282328C7
:100730002328232823282328232823282328D327B2
:100740002328232823282328232823282328232851
:100750002328D6272328232823282328232823288F
:10076000232823282328D92723282328232823287C
:1007700023282328232823282328DC272328232869
:100780002328232823282328232823282328DF2756
:100790002328232823282328232823282328232801
:1007A0002328E42723282328232823282328232831
:1007B000232823282328E72723282328232823281E
:1007C00023282328232823282328EC272328232809
:1007D0002328232823282328232823282328F127F4
:1007E000132818281D2823282328232823282328D2
:1007F0002328F627232823282328232823282328CF
:10080000232823282328F9272328232823282328BB
:1008100023282328232823282328FC2723282328A8
:100820002328232823282328232823282328FF2795
:100830002328232823282328232823282328232860
:100840002328022823282328232823282328232871
:10085000232823282328072823282328232823285C
:10086000232823282328232823280A282328232849
:1008700023282328232823282328232823280D2836
:100880002328232823282328232823282328232810
:100890002328102808000000BE922449123EABAA6B
:1008A000AA2ABECDCCCC4C3E00000080BEABAAAA8A
:1008B000AA3E00000000BF000000803F00000000D2
:1008C00000084178D3BB4387D1133D190E3CC3BD0B
:1008D0004282AD2B3E68EC8276BED98FE1A93E4CB8
:1008E00080EFFFBE01C4FF7F3F00000000006E618B
:1008F0006E00696E660000407A10F35A00A0724ED6
:1009000018090010A5D4E80000E87648170000E4B4
:100910000B54020000CA9A3B000000E1F5050000FC
:1009200080969800000040420F000000A086010061
:100930000000102700000000E80300000000640031
:10094000000000000A00000000000100000000009C
:100950002C76D888DC674F0823DFC1DFAE59E1B1C0
:10096000B796E5E3E453C63AE651997696E8E6C2CF
:100970008426EB898C9B62ED407C6FFCEFBC9C9FD6
:1009800040F2BAA56FA5F490055A2AF75C936B6CF8
:10099000F9676DC11BFCE0E40D47FEF520E6B500EC
:1009A000D0ED902E0300943577050080841E08005A
:1009B00000204E0A000000C80C333333330F986E0A
:1009C00012831141EF8D2114893BE65516CFFEE6C7
:1009D000DB18D1844B381BF77C1D901DA4BBE4248D
:1009E000203284725E228100C9F124ECA1E53D270A
:1009F0009A99C9C133336BC13333D3C0CDCCCC3D0D
:100A000048E1A24066662E41000078419A999D41D6
:100A10000000BC41CDCCD8413333F3416666064279
:100A2000666612429A991D4266662842CDCC3242D1
:100A3000CDCC2842666646429A994F426666584235
:100A4000333361429A9969429A99714233337942B8
:100A50009A99804233338442CDCC874266668B427A
:100A600000008F42666692429A999542CDCC984298
:100A700000EA16E00F2EF0EDEF2EF6E0FF2EF02D3F
:100A800080919F06882311F10FB6F8940F92D80138
:100A90001796ED91FC911897C085D185CE010296ED
:100AA00024D38091930681508093930680919F0672
:100AB000815080939F060F900FBE8B8D9C8D75D0BB
:100AC000CE0173D080919F068111DECFF701808126
:100AD000823008F03DD173D2D3CF11241FBECFEFA7
:100AE000D1E2DEBFCDBF00E00CBF16E0A0E0B2E077
:100AF000EAE5FBEB00E00BBF02C007900D92A038C7
:100B0000B107D9F72AE0A0E8B6E001C01D92A73DE1
:100B1000B207E1F70E94D3200C94AB5D71CA621B4F
:100B2000730B840B950B0895FC010FB6F89460913C
:100B3000D30A7091D40A8091D50A9091D60A0FBE3B
:100B4000309721F0608371838283938308958F931C
:100B50008FB78F93F8948091D30A8F5F8093D30AD5
:100B60008091D40A8F4F8093D40A8091D50A8F4FF9
:100B70008093D50A8091D60A8F4F8093D60A8F91A1
:100B80008FBF8F910895CF93DF93EC010E948B1656
:100B9000CE010E94725AEC010E947417209709F44A
:100BA00027D2CE01DF91CF910895CF93DF930097A5
:100BB00041F0EC010E948B16CE010E940A5B0E945C
:100BC0007417DF91CF91089531E1FC0130833197A3
:100BD00022E220833197A3E3A0833197608331978A
:100BE00070833197108231971082319760E860836B
:100BF000319710823197108231971082319762E0DD
:100C00006083319763E06083319764E0608331975C
:100C100065E06083319766E06083319767E06083C9
:100C2000319768E06083319769E06083319760E1D4
:100C3000608331973083319732E13083319733E1EC
:100C40003083319734E13083319735E13083319708
:100C500036E13083319737E13083319738E13083A3
:100C6000319739E13083319730E23083319731E287
:100C7000308331972083319723E22083319740835B
:100C800031975083319726E22083319727E22083E2
:100C9000319728E22083319729E22083319720E39E
:100CA0002083319721E320838997089588EE93E08C
:100CB000A0E0B0E08093670790936807A09369076E
:100CC000B0936A0780936B0790936C07A0936D07AE
:100CD000B0936E071092990089EF809398008BE093
:100CE00080939100E1E7F0E0808182608083A091B1
:100CF000FC06B091FD06CD91CDBFDD91DEBFFF9129
:100D0000EF91DF91CF91BF91AF919F918F917F91A3
:100D10006F915F914F913F912F911F910F91FF9094
:100D2000EF90DF90CF90BF90AF909F908F907F908B
:100D30006F905F904F903F902F901F900F900CBE40
:100D40000F900BBE0F900FBE0F90089581E0089595
:100D50000F920FB6F8940F920BB60F920CB60F923B
:100D60001F9211242F923F924F925F926F927F9227
:100D70008F929F92AF92BF92CF92DF92EF92FF92AB
:100D80000F931F932F933F934F935F936F937F9393
:100D90008F939F93AF93BF93CF93DF93EF93FF9383
:100DA000A091FC06B091FD060DB60D920EB60D9207
:100DB0000E940918A091FC06B091FD06CD91CDBF0F
:100DC000DD91DEBFFF91EF91DF91CF91BF91AF91A8
:100DD0009F918F917F916F915F914F913F912F9153
:100DE0001F910F91FF90EF90DF90CF90BF90AF9049
:100DF0009F908F907F906F905F904F903F902F903B
:100E00001F900F900CBE0F900BBE0F900FBE0F9057
:100E100008950F920FB6F8940F920BB60F920CB67E
:100E20000F921F9211242F923F924F925F926F92D6
:100E30007F928F929F92AF92BF92CF92DF92EF926A
:100E4000FF920F931F932F933F934F935F936F9353
:100E50007F938F939F93AF93BF93CF93DF93EF9342
:100E6000FF93A091FC06B091FD060DB60D920EB653
:100E70000D9213BE80916B0790916C07A0916D0746
:100E8000B0916E070197A109B10980936B07909308
:100E90006C07A0936D07B0936E07892B8A2B8B2B61
:100EA00089F455DE8091670790916807A0916907E2
:100EB000B0916A0780936B0790936C07A0936D07BE
:100EC000B0936E070E949F1681110E940918A0918D
:100ED000FC06B091FD06CD91CDBFDD91DEBFFF9147
:100EE000EF91DF91CF91BF91AF919F918F917F91C2
:100EF0006F915F914F913F912F911F910F91FF90B3
:100F0000EF90DF90CF90BF90AF909F908F907F90A9
:100F10006F905F904F903F902F901F900F900CBE5E
:100F20000F900BBE0F900FBE0F90089572DF1895B3
:100F3000811106C0ECE7F0E080818F7D8083089509
:100F4000ECE7F0E0808180628083089580917A00F0
:100F500086FB882780F90895803218F597E89093EA
:100F60007A0090917C00662311F0906C02C09F770C
:100F70009064907E883040F0EBE7F0E020812860BC
:100F800020838850892B06C0EBE7F0E02081277F83
:100F90002083892B80937C00EAE7F0E080818064E5
:100FA0008083089580917C0085FF04C08091790042
:100FB00090E00895809178009091790008958FEFE6
:100FC00080937E0080937D0080B7877F80BF80B74D
:100FD000806880BF83B7817F83BF0FB6F8940F927C
:100FE00083B7816083BF0F900FBE889513BE0895AD
:100FF000279A2F9A00001F9AFDCF279A2F9A00C098
:101000001F9AFDCFFC010396928381834FEF5FEF20
:10101000BA0143835483658376839087878392875D
:10102000818710820895FC01138612860895CF935C
:10103000DF939C01FB01DC011196CD91DC911297AD
:10104000D583C4838E819F81978386838E819F8180
:10105000DC0115967C936E9314977F836E833387A0
:101060002287F90180818F5F8083DF91CF9108957E
:101070000F931F93CF93DF93EB01088119812A818E
:101080003B810F3F4FEF14072407340721F4FC0185
:10109000A185B28511C0DC01139601C0DF01149651
:1010A000ED91FC9115974081518162817381041704
:1010B00015072607370790F71496ED91FC911597C1
:1010C000FD83EC83D783C683BF83AE831596DC9301
:1010D000CE9314979B878A87FC0120812F5F208302
:1010E000DF91CF911F910F910895CF93DF93FC0172
:1010F000A285B385C481D581868197819F838E83A4
:10110000C681D781848195819D838C8311968D9131
:101110009C911297E817F90731F48681978112960E
:101120009C938E931197138612868C9181508C9389
:101130008C91DF91CF9108950FB6F8940F92FC0136
:10114000968D0F900FBE81E0911180E008950F936E
:101150001F93CF93DF93EC01042F1E8D48A1411103
:101160000CC088819981892B09F042C08A819B81BA
:101170000E942A1A1B821A8242C0011117C050E035
:101180008C819D810E94765C28A18C819D81820F3B
:10119000911D9D838C832A813B818217930750F197
:1011A000888199819D838C8380E029C050E08E8165
:1011B0009F810E94765C88A190E09195819591092C
:1011C0002E813F81280F391F3F832E83488159810B
:1011D0002417350730F42A813B81820F931F9F83A8
:1011E0008E83023049F4112349F0115080E007C08A
:1011F00080E005C080E003C080E001C080E01F5FA8
:101200001E8FDF91CF911F910F910895FC0140A196
:101210004423A9F050E026813781240F351F3783FE
:101220002683828193812817390720F0808191815C
:1012300097838683CB01668177810C94765C0895D1
:10124000EF92FF920F931F93CF938C010FB6F894F8
:101250000F92FC01C2A11C16ACF48389811106C057
:1012600011C0F8018389811105C00CC07801F3E138
:10127000EF0EF11CC7010E94021981110E94AA19E8
:10128000C15079F78FEFF80182A30F900FBE0FB610
:10129000F8940F92C1A11C16ACF48085811106C090
:1012A00011C0F8018085811105C00CC07801F8E0FB
:1012B000EF0EF11CC7010E94021981110E94AA19A8
:1012C000C15079F78FEFF80181A30F900FBECF9136
:1012D0001F910F91FF90EF900895CF93DF93EC0152
:1012E0000FB6F8940F924881598128A130E07F8D84
:1012F000729FC001739F900D1124FA01E80FF91F2E
:10130000FB83EA831E8E5D834C83821B930B840FC9
:10131000951F9F838E838FEF89A38AA361110BC0D2
:101320008885882371F0CE0108960E9402198823CF
:1013300041F00EDD06C0CE01089664DECE01439674
:1013400061DE0F900FBE81E0DF91CF9108950F9382
:101350001F93CF93DF93082F162F6623B1F0869F3C
:10136000C001112483960FDCEC01009739F413C0FF
:101370000F8F18A361E0CE01B0DF0DC08396998373
:101380008883F6CFD983C883F3CF83E290E0FBDB79
:10139000EC01892BB9F7CE01DF91CF911F910F910D
:1013A00008959F92AF92BF92CF92DF92EF92FF92F9
:1013B0000F931F93CF93DF93CDB7DEB729970FB667
:1013C000F894DEBF0FBECDBF7C015B012E833F834F
:1013D0004887598710E0992493946C0188E0C80EDF
:1013E000D11C0FB6F8940F92F701968D878D981740
:1013F00010F00230B1F4402FB501C701A8DEF701AB
:101400009389992341F0C70143960E9402198823CA
:1014100021F09EDC02C081119BDC0F900FBE81E0A9
:1014200052C08E819F81A885B985892B8A2B8B2BF1
:1014300021F40F900FBE80E046C0111105C0CE010F
:1014400001960E944419192D0F900FBE0E948B1611
:101450000FB6F8940F92F70181A18F3F09F411A202
:10146000F70182A18F3F09F412A20F900FBEBE01B7
:101470006A5F7F4FCE0101960E94551981111EC0EF
:101480000FB6F8940F92F701968D878D0F900FBECF
:1014900098130FC04E815F8168857985C6010E94CF
:1014A000CB18C701CDDE0E94741781119ACF50DC92
:1014B00098CFC701C5DE0E94741793CFC701C0DE65
:1014C0000E94741780E029960FB6F894DEBF0FBE15
:1014D000CDBFDF91CF911F910F91FF90EF90DF90E3
:1014E000CF90BF90AF909F9008950F93CF93DF93CD
:1014F000482F60E081E02BDFEC01009761F01B8258
:101500001A82198218821E8200E020E030E0A901D0
:1015100060E070E046DFCE01DF91CF910F9108953A
:10152000EF92FF920F931F93CF93DF938A01FC01F9
:10153000568D378D531710F02230E9F4422F780181
:10154000EC011AA104DE1F3F81F48B898823A9F0E6
:10155000CE0143960E940219882389F0E114F10418
:1015600081F081E0F70180830DC0FF24F394F10E38
:10157000FAA281E007C080E005C081E003C081E0FD
:1015800001C081E0DF91CF911F910F91FF90EF900B
:101590000895CF93DF93FC01868D978D8917C0F452
:1015A00092A18F5F868F9F3F79F48389882391F082
:1015B000EB01CF0143960E940219882369F020971E
:1015C00069F081E088830BC09F5F92A381E007C030
:1015D00080E005C081E003C081E001C081E0DF91CF
:1015E000CF9108959F92AF92BF92CF92DF92EF92E8
:1015F000FF920F931F93CF93DF93CDB7DEB7299759
:101600000FB6F894DEBF0FBECDBF8C015B012E83F9
:101610003F8348875987E12C992493946C0183E197
:10162000C80ED11C0FB6F8940F92F801F68CFF206B
:1016300099F0B501C801EADDFA94F801F68E8085CB
:10164000882331F0C80108960E940219811180DBBD
:101650000F900FBE81E051C08E819F81A885B98512
:10166000892B8A2B8B2B21F40F900FBE80E045C075
:10167000E11005C0CE0101960E944419E92C0F909B
:101680000FBE0E948B160FB6F8940F92F80181A13D
:101690008F3F09F411A2F80182A18F3F09F412A231
:1016A0000F900FBEBE016A5F7F4FCE0101960E9470
:1016B0005519811118C0C8013FDD882379F04E818A
:1016C0005F8168857985C6010E94CB18C801B8DDA5
:1016D0000E9474178111A6CF3BDBA4CFC801B0DDF7
:1016E0000E9474179FCFC801ABDD0E947417C80118
:1016F00023DD882309F496CF80E029960FB6F8946D
:10170000DEBF0FBECDBFDF91CF911F910F91FF9034
:10171000EF90DF90CF90BF90AF909F900895BF92D1
:10172000CF92DF92EF92FF920F931F93CF93DF93AD
:10173000CDB7DEB729970FB6F894DEBF0FBECDBF89
:101740008C014E835F8368877987B12CD12CCC24A0
:10175000C3947C0183E1E80EF11C0FB6F8940F925C
:10176000D8015E968C915E978823E1F081505E9659
:101770008C935E978D919C91892B29F40E94B61AC7
:10178000F80193838283D80118968C91882331F0D5
:10179000C80108960E9402198111DADA0F900FBE73
:1017A00081E07FC08E819F81A885B985892B8A2B96
:1017B0008B2B21F40F900FBE80E073C0D11005C0B9
:1017C000CE0101960E944419DC2C0F900FBE0E949E
:1017D0008B160FB6F8940F92F80181A18F3F09F490
:1017E00011A2D80192968C9192978F3F11F4929604
:1017F0001C920F900FBEBE016A5F7F4FCE01019613
:101800000E945519811127C0C80196DC8823F1F088
:10181000F80180819181892B51F40FB6F8940F92D1
:10182000828193810E94BC19B82E0F900FBE4E8109
:101830005F8168857985C7010E94CB18C80100DDEA
:101840000E947417811189CF83DA87CFC801F8DC31
:101850000E94741782CFC801F3DC0E947417C8017C
:101860006BDC882309F479CFBB20D1F00FB6F89454
:101870000F92F8018389882339F0028CF38DE02DD3
:10188000808164E0681B01C060E0D80112968D91F0
:101890009C9113970E946A1A0F900FBE80E001C0BE
:1018A00080E029960FB6F894DEBF0FBECDBFDF9162
:1018B000CF911F910F91FF90EF90DF90CF90BF904D
:1018C0000895CF93DF93EC010FB6F8940F9289A19E
:1018D0008F3F09F419A28AA18F3F09F41AA20F9031
:1018E0000FBE8E8D811104C0CE0143960E94E21876
:1018F000CE01A6DCDF91CF9108954F925F926F9257
:101900007F928F929F92AF92BF92CF92DF92EF928F
:10191000FF920F931F93CF93DF93EC01FB01019094
:101920000020E9F74B019F01215031090F2EF1E30F
:10193000EF2EFF24F394F02D01ED10E069EC70E040
:1019400041EC50E05C018DE0A80EB11C78C0D401E0
:10195000DD904D010FB6F8940F92ED85FE850F9046
:101960000FBE8F89988DE817F907F1F0F501828194
:101970009381DC01DC92828193810196938382833F
:10198000C084D1848C159D0521F486819781938331
:1019900082830FB6F8940F92808191810196918392
:1019A00080830F900FBE2BC000000FB6F8940F92EB
:1019B000ED85FE850F900FBE8F89988DE817F9078A
:1019C00009F43DC0F50182819381DC01DC928281C2
:1019D0009381019693838283C084D1848C159D0565
:1019E00021F486819781938382830FB6F8940F92B6
:1019F000808191810196918380830F900FBE4880F2
:101A0000512CB8E04B165104D0F4F2018827EE585F
:101A1000FF4F8F4F0C945B5AFA0180818062808364
:101A20000EC0DB018C9180628C9309C0F80180812B
:101A30008062808304C0D7018C9180628C9382166F
:101A4000930609F084CFDF91CF911F910F91FF9002
:101A5000EF90DF90CF90BF90AF909F908F907F904E
:101A60006F905F904F9008950F931F93CF93DF93E4
:101A7000CDB7DEB708851985F801858D813029F449
:101A800067D9F801858D8130D9F381E0F801858F20
:101A9000638D748D9E01245F3F4F4A855B85818DE8
:101AA000928D0E94CD5CF801618D728DC80125DF99
:101AB000F801158EDF91CF911F910F910895CF936B
:101AC000DF93DC014C9150E048305105E8F5FA0114
:101AD0008827E658FF4F8F4F0C945B5A8091300156
:101AE000882354F131C08091D0008823E4F02CC0C9
:101AF0008091C800882374F027C08091C00088239B
:101B00001CF5C6ECD0E0E0ECF0E088818081882311
:101B1000E4F31AC0CEECD0E0E8ECF0E088818081FC
:101B20008823E4F311C0C6EDD0E0E0EDF0E0888159
:101B300080818823E4F308C0C6E3D1E0E0E3F1E06C
:101B4000888180818823E4F30FB6F8940F9212966F
:101B50001C921E92119717968D919C91189714962E
:101B60009C938E93139716969C938E9315970F9034
:101B70000FBEDF91CF9108950FB6F8940F92FC013C
:101B8000818192810F900FBE0895CF93DF93DC0186
:101B90000FB6F8940F921D962D913C911E970F90C1
:101BA0000FBE57968D919C91589728173907F1F0E1
:101BB000FD013D96C281D381688382819381019624
:101BC00093838283208531858217930721F4868150
:101BD0009781938382830FB6F8940F9280819181CD
:101BE0000196918380830F900FBE2FC000000FB627
:101BF000F8940F921D962D913C911E970F900FBE59
:101C000057968D919C9158972817390709F445C02C
:101C1000FD013D96C281D3816883828193810196C3
:101C200093838283208531858217930721F48681EF
:101C30009781938382830FB6F8940F92808191816C
:101C40000196918380830F900FBE8C9190E0883035
:101C5000910528F5FC018827EE57FF4F8F4F0C9414
:101C60005B5AE1ECF0E080818062808381E018C003
:101C7000E9ECF0E080818062808381E011C0E1EDD9
:101C8000F0E080818062808381E00AC0E1E3F1E0DE
:101C900080818062808381E003C080E001C081E0B8
:101CA000DF91CF9108957F928F929F92AF92BF92D2
:101CB000CF92DF92EF92FF920F931F93CF93DF9318
:101CC000CDB7DEB7A2970FB6F894DEBF0FBECDBF7B
:101CD0006C01762E49015A01C7010E94C305009785
:101CE000A9F0FE0132960FB6F8940F92118210827D
:101CF0009383828395838483978386838E0D9F1D30
:101D000091878087F386E2860F900FBEC8010E94FC
:101D1000C3050097A9F0FE013E960FB6F8940F9206
:101D20001182108293838283958384839783868331
:101D3000800F911F91878087138702870F900FBEB6
:101D4000C8010E94C3059B8F8A8F79821D8F0C8FDB
:101D50001E8E8F8E98A2A9A2BAA20FB6F8940F92E7
:101D6000898190E08830910508F0BAC1FC0188278C
:101D7000E657FF4F8F4F0C945B5AD501C401975F14
:101D8000A24CBF4FBC01CD01660F771F881F991F62
:101D9000660F771F881F991F95018401000F111F7F
:101DA000221F331F000F111F221F331FA90198018B
:101DB000220F331F441F551F0E94395A21503109E9
:101DC0003093C5002093C40082E08093C00088E96E
:101DD0008093C1008EE08093C20082C104EC10E0C9
:101DE000F801118210826A9A80EC8093C20088E91F
:101DF0008093C100D501C40180589B47A14EBF4FBD
:101E0000880F991FAA1FBB1F880F991FAA1FBB1FEE
:101E1000BC01CD01660F771F881F991F880C991C84
:101E2000AA1CBB1C880C991CAA1CBB1CA5019401F4
:101E3000220F331F441F551F220F331F441F551FEE
:101E40000E94395A21503109F8013183208348C159
:101E5000D501C401975FA24CBF4FBC01CD01660FF5
:101E6000771F881F991F660F771F881F991F95017D
:101E70008401000F111F221F331F000F111F221F8B
:101E8000331FA9019801220F331F441F551F0E94C1
:101E9000395A215031093093CD002093CC0082E093
:101EA0008093C80088E98093C9008EE08093CA00BF
:101EB00017C10CEC10E0F80111821082559A80ECE9
:101EC0008093CA0088E98093C900D501C401805875
:101ED0009B47A14EBF4F880F991FAA1FBB1F880F9A
:101EE000991FAA1FBB1FBC01CD01660F771F881F5A
:101EF000991F880C991CAA1CBB1C880C991CAA1C35
:101F0000BB1CA5019401220F331F441F551F220F34
:101F1000331F441F551F0E94395A21503109F801BF
:101F200031832083DDC0D501C401975FA24CBF4F30
:101F3000BC01CD01660F771F881F991F660F771FA1
:101F4000881F991F95018401000F111F221F331F45
:101F5000000F111F221F331FA9019801220F331FE9
:101F6000441F551F0E94395A215031093093D50022
:101F70002093D40082E08093D00088E98093D10040
:101F80008EE08093D200ACC004ED10E0F801118225
:101F90001082E1E0F1E080818460808380EC8093B6
:101FA000D20088E98093D100D501C40180589B47B5
:101FB000A14EBF4F880F991FAA1FBB1F880F991FE3
:101FC000AA1FBB1FBC01CD01660F771F881F991F79
:101FD000880C991CAA1CBB1C880C991CAA1CBB1C35
:101FE000A5019401220F331F441F551F220F331FD9
:101FF000441F551F0E94395A21503109F80131837D
:1020000020836EC0D501C401975FA24CBF4FBC01B5
:10201000CD01660F771F881F991F660F771F881FD6
:10202000991F95018401000F111F221F331F000FFC
:10203000111F221F331FA9019801220F331F441FB4
:10204000551F0E94395A2150310930933501209390
:10205000340182E08093300188E9809331018EE081
:10206000809332013DC004E311E0F8011182108237
:10207000E4E0F1E080818460808380EC8093320131
:1020800088E980933101D501C40180589B47A14E56
:10209000BF4F880F991FAA1FBB1F880F991FAA1F28
:1020A000BB1FBC01CD01660F771F881F991F880CCD
:1020B000991CAA1CBB1C880C991CAA1CBB1CA50142
:1020C0009401220F331F441F551F220F331F441F3B
:1020D000551F0E94395A21503109F801318320835C
:1020E0000F900FBE82E2FE013196D60101900D9253
:1020F0008A95E1F7C601A2960FB6F894DEBF0FBE2F
:10210000CDBFDF91CF911F910F91FF90EF90DF90A6
:10211000CF90BF90AF909F908F907F9008951F9227
:102120000F920FB60F9211240BB60F922F933F937D
:102130004F935F936F937F938F939F93AF93BF93CF
:10214000CF93EF93FF938091C0008C7171F08091D9
:10215000C00088230CF057C0A6ECB0E0E0ECF0E043
:102160008C9180818823E4F34EC0C091C600809199
:10217000170981111DC081E08093C50A0E942525A1
:102180001092850010928400E091B507F0E0E852CB
:10219000F84FC0838091B5078F5F8093B50780911A
:1021A000B5078F3F19F481E0809391070E941A25AB
:1021B0000FB6F8940F92EFE6F7E0218132810F908D
:1021C0000FBE8385948528173907E9F0E0E7F7E02B
:1021D000A281B381CC938281938101969383828380
:1021E000208531858217930721F486819781938317
:1021F00082830FB6F8940F9280819181019691832A
:1022000080830F900FBEFF91EF91CF91BF91AF915F
:102210009F918F917F916F915F914F913F912F91FE
:102220000F900BBE0F900FBE0F901F9018951F922E
:102230000F920FB60F9211240BB60F922F938F931C
:102240009F93AF93BF93EF93FF930FB6F8940F92C2
:1022500080917C0790917D070F900FBE892B31F400
:10226000E1ECF0E080818F7D80831CC0ECE7F7E03B
:10227000A481B5812D91B583A48380859185A8170C
:10228000B90721F486819781958384830FB6F894EA
:102290000F92808191810197918380830F900FBE6F
:1022A0002093C600FF91EF91BF91AF919F918F91C5
:1022B0002F910F900BBE0F900FBE0F901F9018958F
:1022C0001F920F920FB60F9211240BB60F922F93FD
:1022D0003F934F938F939F93AF93BF93EF93FF934E
:1022E0008091C8008C7171F08091C80088230CF037
:1022F00036C0AEECB0E0E8ECF0E08C918081882351
:10230000E4F32DC04091CE000FB6F8940F92E7EDA4
:10231000F8E0218132810F900FBE838594852817C4
:102320003907E9F0E8EDF8E0A281B3814C938281AE
:102330009381019693838283208531858217930749
:1023400021F486819781938382830FB6F8940F924C
:10235000808191810196918380830F900FBEFF91C0
:10236000EF91BF91AF919F918F914F913F912F919D
:102370000F900BBE0F900FBE0F901F9018951F92DD
:102380000F920FB60F9211240BB60F922F938F93CB
:102390009F93AF93BF93EF93FF930FB6F8940F9271
:1023A0008091E4089091E5080F900FBE892B31F4DD
:1023B000E9ECF0E080818F7D80831CC0E4EEF8E0E2
:1023C000A481B5812D91B583A48380859185A817BB
:1023D000B90721F486819781958384830FB6F89499
:1023E0000F92808191810197918380830F900FBE1E
:1023F0002093CE00FF91EF91BF91AF919F918F916C
:102400002F910F900BBE0F900FBE0F901F9018953D
:102410001F920F920FB60F9211240BB60F922F93AB
:102420003F934F938F939F93AF93BF93EF93FF93FC
:102430008091D0008C7171F08091D00088230CF0D5
:1024400036C0A6EDB0E0E0EDF0E08C91808188230D
:10245000E4F32DC04091D6000FB6F8940F92E3E953
:10246000F7E0218132810F900FBE83859485281774
:102470003907E9F0E4E9F7E0A281B3814C93828166
:1024800093810196938382832085318582179307F8
:1024900021F486819781938382830FB6F8940F92FB
:1024A000808191810196918380830F900FBEFF916F
:1024B000EF91BF91AF919F918F914F913F912F914C
:1024C0000F900BBE0F900FBE0F901F9018951F928C
:1024D0000F920FB60F9211240BB60F922F938F937A
:1024E0009F93AF93BF93EF93FF930FB6F8940F9220
:1024F0008091A0079091A1070F900FBE892B31F416
:10250000E1EDF0E080818F7D80831CC0E0EAF7E0A0
:10251000A481B5812D91B583A48380859185A81769
:10252000B90721F486819781958384830FB6F89447
:102530000F92808191810197918380830F900FBECC
:102540002093D600FF91EF91BF91AF919F918F9112
:102550002F910F900BBE0F900FBE0F901F901895EC
:102560001F920F920FB60F9211240BB60F922F935A
:102570003F934F935F936F937F938F939F93AF930B
:10258000BF93CF93EF93FF93809130018C7171F0E3
:102590008091300188230CF057C0A6E3B1E0E0E35E
:1025A000F1E08C9180818823E4F34EC0C091360124
:1025B0008091C50A81111DC081E0809317090E9496
:1025C00025251092850010928400E091B507F0E077
:1025D000E852F84FC0838091B5078F5F8093B507AD
:1025E0008091B5078F3F19F481E0809391070E9495
:1025F0001A250FB6F8940F92E6EBF7E021813281AD
:102600000F900FBE8385948528173907E9F0E7EB13
:10261000F7E0A281B381CC93828193810196938369
:102620008283208531858217930721F486819781E3
:10263000938382830FB6F8940F92808191810196E3
:10264000918380830F900FBEFF91EF91CF91BF9147
:10265000AF919F918F917F916F915F914F913F913A
:102660002F910F900BBE0F900FBE0F901F901895DB
:102670001F920F920FB60F9211240BB60F922F9349
:102680008F939F93AF93BF93EF93FF930FB6F894FD
:102690000F928091C3079091C4070F900FBE892BB2
:1026A00031F4E1E3F1E080818F7D80831CC0E3ECB5
:1026B000F7E0A481B5812D91B583A48380859185B0
:1026C000A817B90721F486819781958384830FB673
:1026D000F8940F92808191810197918380830F906C
:1026E0000FBE20933601FF91EF91BF91AF919F9163
:1026F0008F912F910F900BBE0F900FBE0F901F90D8
:1027000018950F93813071F018F08230A9F026C02F
:1027100084B1876084B9239885B1896085B9249A8A
:102720002C9A23C084B1876084B9239885B18960CD
:1027300085B99D9AA59A19C084B1876084B92398F8
:1027400085B1896085B9E1E0F1E0808180628083B4
:10275000E2E0F1E080818062808307C084B187601D
:1027600084B9239885B1896085B98CB580658CBDA5
:102770008DB58EB58091800690918106892B89F464
:1027800081E00E94750A90938106809380060097ED
:1027900041F000E020E030E0A90160E070E00E943C
:1027A000D1090F9108959CB59C7F282F2370922BFF
:1027B0009CBD9DB582FB882780F99E7F892B8DBDAE
:1027C0000895811104C08CB580628CBD08958CB5CC
:1027D0008F7D8CBD08959CB5937F892B8CBD08950A
:1027E000CF93C82F48EE53E060E070E08091800600
:1027F000909181060E948F0B8130B1F4C13039F085
:1028000018F0C23039F00DC02C9881E00EC0A598A8
:1028100081E00BC0E2E0F1E080818F7D808381E088
:1028200004C0289881E001C080E0CF9108950F9303
:10283000813031F018F0823029F00AC02C9A09C09A
:10284000A59A07C0E2E0F1E080818062808301C048
:10285000289A00E020E030E0A90160E070E080917B
:102860008006909181060E94D1090F910895282F2A
:102870009CB5892F807496FF17C00CB404FC08C067
:102880008CB580618CBD9CB5892F807194FF0CC084
:102890002EBD000005C09CB5892F807194FF04C037
:1028A0000DB407FEF8CF8EB50895E091B806F0910B
:1028B000B906808181110CC08FEF9FEFDC018093FE
:1028C000850690938606A0938706B09388060895A0
:1028D000E091B806F091B9060780F085E02D0084FC
:1028E000F185E02D82819381A481B5818093850655
:1028F00090938606A0938706B093880608958F92DA
:102900009F92AF92BF92CF92DF92EF92FF92CF93BE
:102910006B017C01C42F80908F0690909006A09050
:102920009106B09092068091FC069091FD06029669
:102930000E9475088FEFC816D806E806F80669F4F5
:10294000CC2359F06091FC067091FD066E5F7F4FBD
:1029500084E996E00E9417083FC0C80CD91CEA1C05
:10296000FB1CE091FC06F091FD06C282D382E4825A
:10297000F582C814D904EA04FB0468F46091FC06EB
:102980007091FD068091B6069091B7066E5F7F4FFD
:102990000E94380821C06091FC067091FD0680916C
:1029A000B8069091B9066E5F7F4F0E9438088091FB
:1029B000850690918606A0918706B0918806C81674
:1029C000D906EA06FB0640F4C0928506D092860638
:1029D000E0928706F0928806CF91FF90EF90DF900B
:1029E000CF90BF90AF909F908F9008954F925F923D
:1029F0006F927F928F929F92AF92BF92CF92DF920F
:102A0000EF92FF920F93CF93DF934C016B015A012A
:102A10002901CA010E94C3053C01892B09F4ECC0BD
:102A200083E390E00E94C305EC01892BB1F07C8E1A
:102A30006B8EA50165EA70E0C3010E947F5C21E016
:102A4000A21AB1088B8D9C8DA80EB91ED6018C914F
:102A50008D8F8C91811105C018C0C3010E94D505CE
:102A6000CBC0AE01425E5F4FF6013196BFE0CB0EA8
:102A7000D11CCF012191DA012D93AD01DC018C91A4
:102A8000882319F0EC15FD05A1F71BA6043008F00A
:102A900003E00A8F0CA71DA66E01B2E0CB0ED11C7D
:102AA000C6010E941308CE010E960E941308DB8710
:102AB000CA8784E090E0A0E0B0E0801B9109A10902
:102AC000B1098E879F87A88BB98BDF8BCE8B1EA613
:102AD0001FA618AA19AA1AAAA201B401C5010E9428
:102AE000E40599838883E114F10419F0F701D18397
:102AF000C0830FB6F8940F92809193068F5F8093F6
:102B000093068091FC069091FD06892BD1F5D09318
:102B1000FD06C093FC0680919306813009F041C008
:102B200080ED96E00E9402088BED96E00E9402087C
:102B300086EE96E00E94020881EF96E00E9402086D
:102B400085EC96E00E9402088AEB96E00E9402085B
:102B50008BEA96E00E94020880EA96E00E94020852
:102B600084E996E00E94020885EC96E09093B9060D
:102B70008093B8068AEB96E09093B7068093B606EA
:102B800010C080918D0681110CC0E091FC06F0917F
:102B9000FD06928D8A8D891720F0D093FD06C09393
:102BA000FC06809189068F5F809389068A8D9091BB
:102BB0008E06981710F480938E06FBE08F9FC0015D
:102BC0001124B6018053994F0E9417080F900FBE31
:102BD00080918D06882361F0E091FC06F091FD065E
:102BE000928D8A8D981730F40E94A80681E005C066
:102BF00081E003C081E001C08FEFDF91CF910F91A1
:102C0000FF90EF90DF90CF90BF90AF909F908F900C
:102C10007F906F905F904F9008950F931F93CF9385
:102C2000DF93009709F43DC02091FC063091FD062A
:102C30008217930709F435C00FB6F8940F92FC0180
:102C4000248535852459364051F5FC01208D318D80
:102C5000F6E02B3A3F0719F1232B09F5EC018C0123
:102C60000E5F1F4FC8010E9475088A8D90918E06D5
:102C7000981710F480938E062BE0829FC0011124D8
:102C8000B8018053994F0E941708E091FC06F0911B
:102C9000FD069A8D828D981710F00E94A8060F905D
:102CA0000FBEDF91CF911F910F910895EF92FF9288
:102CB0000F930F2EF3E8EF2EF6E0FF2EF02D00E03D
:102CC00020E030E040E850E066E172E088E395E023
:102CD0008DDE8130E1F4CED48130C9F4F8948FEFE9
:102CE0009FEFDC018093850690938606A09387066C
:102CF000B093880681E080938D0610928F06109223
:102D0000900610929106109292060E9456060F911C
:102D1000FF90EF900895809182068F5F80938206E6
:102D200008950FB6F8940F9260918F0670919006F7
:102D300080919106909192060F900FBE08959F92F8
:102D4000AF92BF92CF92DF92EF92FF920F931F93B9
:102D5000CF93DF93809182068111ADC0C0908F0622
:102D6000D0909006E0909106F09092068FEFC81AEE
:102D7000D80AE80AF80AC0928F06D0929006E0922C
:102D80009106F0929206C114D104E104F104B1F469
:102D90008091B8069091B9062091B6063091B70699
:102DA0003093B9062093B8069093B7068093B60681
:102DB00080918A068F5F80938A0677DD80918506F1
:102DC00090918606A0918706B0918806C816D9060C
:102DD000EA06FB0610F4B12C5DC0B12C0F2EFBE00F
:102DE000AF2EF02D99249394E091B806F091B90696
:102DF000808181110CC08FEF9FEFDC0180938506ED
:102E000090938606A0938706B093880643C0E0910E
:102E1000B806F091B9060780F085E02DC085D18510
:102E20008A819B81AC81BD81C816D906EA06FB0662
:102E300048F48093850690938606A0938706B09306
:102E4000880628C08E010E5F1F4FC8010E947508BA
:102E5000888D998D892B21F0CE010E960E947508E0
:102E60008A8D90918E06981710F480938E06A89EF6
:102E7000C0011124B8018053994F0E941708E091B6
:102E8000FC06F091FD069A8D828D981708F4ACCF60
:102E9000B92CAACFE091FC06F091FD06E28D8BE003
:102EA000E89FF0011124E053F94F8081823048F00F
:102EB000BB24B39406C080918C068F5F80938C06F0
:102EC000B12C80918B06882311F0BB24B3948B2DF9
:102ED000DF91CF911F910F91FF90EF90DF90CF90F6
:102EE000BF90AF909F900895CF92DF92EF92FF92A4
:102EF0000F931F93CF93DF930FB6F8940F928091A7
:102F000082068150809382068091820681115AC088
:102F10008091930681112CC058C0D7011796ED916E
:102F2000FC911897C085D185CE010E960E94750838
:102F30008E010E5F1F4FC8010E9475088A8D909107
:102F40008E06981710F480938E06D89EC001112427
:102F5000B8018053994F0E941708E091FC06F09148
:102F6000FD069A8D828D981788F0C0928B060EC050
:102F7000C0E0D0E00F2EFBEAEF2EF6E0FF2EF02DA2
:102F80000F2EFBE0DF2EF02DCC24C394F7018081BF
:102F90008111C3CFCD2B09F088DCC0918C06CC23E6
:102FA00049F0D1E0CCDE8111D0938B06C150D1F72E
:102FB00010928C0680918B06882331F00E94A8061F
:102FC00081E003C080E001C080E00F900FBEDF9180
:102FD000CF911F910F91FF90EF90DF90CF900895C8
:102FE000CF92DF92EF92FF926B017C01672B682BEF
:102FF000692B41F090DE40E0C701B60180DC74DF50
:10300000811102C00E94A806FF90EF90DF90CF9040
:10301000089580918206882321F081E080938B06B9
:10302000089510928B06A091FC06B091FD06E091E8
:10303000FC06F091FD062D913C91838D948D8217B5
:10304000930760F06091FC067091FD068091FC068C
:103050009091FD06635E7F4F0E94FD0780918E0672
:10306000282F30E09BE0899FF0011124E053F94FB5
:10307000908191110EC04BE08150282F30E0429F8B
:10308000F001439FF00D1124E053F94F90819923F3
:1030900099F39BE0929FA001939F500D1124DA01B8
:1030A000A053B94F1196ED91FC9112970480F581D0
:1030B000E02D1296FC93EE9311974D52594FE41761
:1030C000F50729F444815581FD01528341839BE03A
:1030D000929FF001939FF00D1124E053F94F01806E
:1030E000F281E02D208531853093FD062093FC068A
:1030F00080938E0608950F931F93CF93DF93EC0177
:103100000FB6F8940F92892B21F4C091FC06D09150
:10311000FD068E010E5F1F4FC8010E947508888D45
:10312000998D892B21F0CE010E960E947508B80169
:1031300084E996E00E9417088AA9813009F41AAA46
:103140000F900FBE80918D06882331F00FB6F89452
:103150000F92ABDB0F900FBE8091FC069091FD06A5
:10316000C817D90799F480918D06882319F00E9419
:10317000A8060CC09091940680919306981305C000
:103180001092FD061092FC0601C043DFDF91CF9143
:103190001F910F910895CF92DF92EF92FF926A01F3
:1031A0007B016091FC067091FD06625F7F4F0E947B
:1031B000380841E0C701B601A2DBFF90EF90DF9035
:1031C000CF900895CF92DF92EF92FF92CF936A0152
:1031D0007B01C22F6091FC067091FD06625F7F4FFC
:1031E0000E941708CC2321F0CC24CA94DC2C760151
:1031F0004C2FC701B60183DBCF91FF90EF90DF909A
:10320000CF9008950F931F93CF93DF93DC01179610
:10321000ED91FC911897C085D1858E01025F1F4FFB
:10322000C8010E94750880918206811116C00C5059
:103230001109C8010E9475088A8D90918E06981711
:1032400010F480938E06BBE08B9FC0011124B8015F
:103250008053994F0E94170805C0B8018BEA96E089
:103260000E941708E091FC06F091FD069A8D828D70
:10327000891720F481E080938B0601C080E0DF9104
:10328000CF911F910F91089520918A06FC01208310
:1032900040918F0650919006609191067091920630
:1032A00041835283638374830895CF92DF92EF92B8
:1032B000FF920F931F93CF93DF93FB010FB6F89408
:1032C0000F9240918F0650919006609191067091F7
:1032D000920600811181228133810F3FAFEF1A07DF
:1032E0002A073A0749F1EC01C980DA80EB80FC80BB
:1032F000A0918A06B881BA1729F04C155D056E05B4
:103300007F05E0F44C195D096E097F0940175107EC
:103310006207730758F4041B150B260B370B008349
:10332000118322833383B0DF80E009C010821182D1
:103330001282138281E003C080E001C081E00F901F
:103340000FBEDF91CF911F910F91FF90EF90DF9013
:10335000CF90089581E080938B06089580918D062B
:10336000882331F080918206882321F080E008953F
:1033700081E0089582E008950F931F93CF93DF9328
:10338000FC01892B09F460C0828DA091FC06B091EC
:10339000FD065A969C91891708F04AC046855785C4
:1033A00060897189772394F0A091FC06B091FD06A5
:1033B0005A969C9144E050E060E070E0491B51094E
:1033C0006109710946875787608B718B2BE0829F5B
:1033D000C00111248053994F24853585281739075A
:1033E000F1F48F01EF012296CE010E947508E09161
:1033F000FC06F091FD06828DF801828F90918E0679
:10340000981710F480938E06FBE08F9FC001112463
:10341000BE018053994F0E94170881E016C0A09109
:10342000FC06B091FD065A968C91828F81E00DC00A
:10343000A091FC06B091FD0681E024A55A969C91CE
:10344000291718F080E001C080E0DF91CF911F9133
:103450000F9108950F931F93CF93DF93FC01892B56
:1034600079F185A5815085A7228D94A5291751F161
:1034700081112AC0EF018F010E5F1F4FC8010E940A
:1034800075088CA58A8F44E050E060E070E0481B2E
:103490005109610971094E875F87688B798B90911B
:1034A0008E06981710F480938E062BE0829FC00141
:1034B0001124B8018053994F0E94170881E005C07C
:1034C00080E003C080E001C080E0DF91CF911F91D8
:1034D0000F9108950F931F93CF93DF93FC01892BD6
:1034E00009F43FC084A5861708F4862F928D98179B
:1034F000C1F125A52130A9F5828F468557856089C0
:103500007189772364F044E050E060E070E0481B8C
:1035100051096109710946875787608B718B2BE0D0
:10352000929FC00111248053994F24853585281717
:103530003907B9F4EF018F010E5F1F4FC8010E94D8
:1035400075088A8D90918E06981710F480938E06D8
:103550002BE0829FC0011124B8018053994F0E9433
:103560001708DF91CF911F910F9108958091FC066C
:103570009091FD06892B39F0E091FC06F091FD0653
:1035800085A58F5F85A78091FC069091FD06089523
:10359000CF92DF92EF92FF920F931F93FC01428331
:1035A00053836483758393878287041715072607DF
:1035B0003707C0F00C191D092E093F09868597852C
:1035C000A089B189081719072A073B0700F5BF0131
:1035D0006E5F7F4F80910607909107070E94380821
:1035E00080E018C00C151D052E053F0528F44C156C
:1035F0005D056E057F0568F4BF016E5F7F4F8091AA
:103600000807909109070E94380880E003C081E014
:1036100001C081E01F910F91FF90EF90DF90CF905C
:1036200008950FB6F8940F928091040790910507C2
:10363000892BE9F485E197E00E9402088AE097E08F
:103640000E94020885E197E090930907809308079C
:103650008AE097E0909307078093060740E067E0D1
:103660008AE00E94A70990930507809304070F90B2
:103670000FBE0895EF92FF920F93D3DF809104075E
:1036800090910507892B89F00F2EF2E0EF2EF7E0DD
:10369000FF2EF02D03E020E030E040E850E06BE149
:1036A00072E085E89CE1A2D901C080E00F91FF9013
:1036B000EF9008957F928F929F92AF92BF92CF9298
:1036C000DF92EF92FF920F931F93CF93DF936C01E2
:1036D0004A015B01722E87E190E00E94C305EC0174
:1036E000892B81F09EDFD982C8828E869F86A88A28
:1036F000B98A7A8A1C8B0B8BFE8AED8ACE010296E0
:103700000E941308CE01DF91CF911F910F91FF907E
:10371000EF90DF90CF90BF90AF909F908F907F9071
:1037200008958F929F92AF92BF92CF92DF92EF92C5
:10373000FF920F931F93CF93DF93CDB7DEB72797F9
:103740000FB6F894DEBF0FBECDBFE0910407F09135
:103750000507309781F169832A833B834C835D831E
:103760009F838E836630F4F4F9DD823069F400E0E3
:10377000A7019601BE016F5F7F4F80910407909172
:1037800005070E94D10918C000E020E030E0A9013F
:10379000BE016F5F7F4F80910407909105070E94E3
:1037A000D1090AC020E0A801BE016F5F7F4FCF01A1
:1037B0000E94900A01C080E027960FB6F894DEBF01
:1037C0000FBECDBFDF91CF911F910F91FF90EF9072
:1037D000DF90CF90BF90AF909F908F9008952F92E1
:1037E0003F924F925F926F927F928F929F92AF9291
:1037F000BF92CF92DF92EF92FF920F931F93CF93DE
:10380000DF931C018EDA2B013C018091FE06909122
:10381000FF06A0910007B0910107481659066A06F5
:103820007B0608F053C03BC00780F085E02D808008
:103830009180A280B380C085D1858E010E5F1F4F1D
:10384000C8010E947508ED89FE89CE0119958A8903
:10385000813029F58E859F85A889B989880D991DA4
:10386000AA1DBB1D88169906AA06BB0670F48A839A
:103870009B83AC83BD83DB87CA87B801809108072F
:10388000909109070E9438080AC0C12CD12C7601FA
:1038900000E010E0A501940160E0CE0142DFE0917C
:1038A0000807F091090780818111BECF809106073A
:1038B000909107079093090780930807F0930707F3
:1038C000E093060781E0F101808302C0F1011082DC
:1038D0004092FE065092FF06609200077092010728
:1038E000C301B201DF91CF911F910F91FF90EF9033
:1038F000DF90CF90BF90AF909F908F907F906F9010
:103900005F904F903F902F900895CF93DF93CDB766
:10391000DEB760970FB6F894DEBF0FBECDBFCE0105
:1039200001969A878987812C912CA12CB12C6984CE
:103930007A84E0910807F09109078081882309F4CF
:10394000F2C00780F085E02D2080318042805380D6
:10395000E2D9CE01019643DF6B877C878D879E87F6
:10396000898181115DC08B859C85AD85BE85821561
:103970009305A405B50508F43CC0B6DAE091080744
:10398000F09109070780F085E02DA085B185B88BFF
:10399000AF87CD0102960E947508EF85F88982896C
:1039A0008130F1F44685578560897189420D531D38
:1039B000641D751D720161010B851C852D853E8579
:1039C000CF01E6DD882361F0C82CD92CEA2CFB2C32
:1039D00000E010E0A201910160E08F859889A1DEEE
:1039E000AF85B8895596ED91FC915697CD01199503
:1039F0008BC020E0B201A1018B859C85AD85BE8581
:103A0000481B590B6A0B7B0B8091040790910507AB
:103A10000E94610C69DA811177C00E94A80674C007
:103A200063DA72C0898188230CF46EC04E805F8097
:103A3000D2011C968D919C911D97892B21F0C2017A
:103A400002960E947508CE010896C9DE8B019C0182
:103A50008981082E000C990BAA0BBB0B8A309105AB
:103A600008F052C0FC018827EE56FF4F8F4F0C9490
:103A70005B5ACA80DB80EC80FD80F2014685578569
:103A8000608971894C0D5D1D6E1D7F1DC20180DD39
:103A90008823D1F1D2015596ED91FC915697C20140
:103AA0001995F2018289813079F54A815B816C81B7
:103AB0007D8186859785A089B1899A01AB01280F00
:103AC000391F4A1F5B1FC82CD92CEA2CFB2C00E0A5
:103AD00010E060E0C20125DE17C04A815B816C8185
:103AE0007D81D2011E964D935D936D937C9351978A
:103AF000400F511F621F731F68017901C20148DD29
:103B000003C0C2010E94D505282D392D4A2D5B2DF9
:103B1000662D772D80910407909105070E94F20A87
:103B2000811180CF06CFF7D8CE01019658DE6B8782
:103B30007C878D879E878981811172CFE0910607EE
:103B4000F0910707808121E0811120E0282C392C99
:103B50004A2C5B2C4FCFFC010FB6F8940F9281E0FA
:103B600024853585232B09F480E00F900FBE08953E
:103B70000FB6F8940F92FC01838994890F900FBEC1
:103B80000895C8E1D9E008E719E00F2EFEE3CF2E33
:103B9000F2E0DF2EF02D0F2EF6EBEF2EF7E0FF2EEA
:103BA000F02D0F2EF6EC8F2EF9E09F2EF02D332402
:103BB00033940F2EF3E2AF2EF2E0BF2EF02DA89536
:103BC0008F8D813009F0D1C080912107813091F42F
:103BD000BE01C8010E94D334F8013186109221073A
:103BE000BF92AF92FF92EF920E94340D0F900F9010
:103BF0000F900F90F801818581114AC092D84090B2
:103C0000F9085090FA086090FB087090FC089B013E
:103C1000AC01241935094609570929013A012AA19D
:103C200030E0A0E6BAEE0E94635A64157505860579
:103C3000970548F56AA57BA5072E000C880B990B04
:103C40000E9421559B01AC01F40160817181828148
:103C500093810E9482548823B4F4809121078111BA
:103C600012C0BE01C8010E94D334F801318623E39B
:103C700032E03F932F93FF92EF920E94340D0F900A
:103C80000F900F900F90F8018185882309F46DC083
:103C900048D84090F9085090FA086090FB0870905E
:103CA000FC089B01AC012419350946095709290173
:103CB0003A0129A130E0A0E6BAEE0E94635A6415E9
:103CC000750586059705F8F4F80182858823D9F0F3
:103CD000BE01C8010E94EE34F8011186128621D877
:103CE0006093F9087093FA088093FB089093FC089E
:103CF000DF92CF92FF92EF920E94340D0F900F90BF
:103D00000F900F9032C0F8018185882371F16CA566
:103D10007DA5072E000C880B990B0E9421559B0155
:103D2000AC01F80162A973A984A995A90E94D15593
:103D30001816DCF4BE01C8010E94EE34F8011186A9
:103D400012860E9491166093F9087093FA08809386
:103D5000FB089093FC08DF92CF92FF92EF920E94B3
:103D6000340D0F900F900F900F9060ED77E080E092
:103D700090E036D924CFC8E1D9E00F2EF0E64F2EDF
:103D8000F9E05F2EF02D0F2EFEE68F2EFAE09F2E2B
:103D9000F02D0F2EF8EEAF2EF9E0BF2EF02D0F2EE6
:103DA000F2E7CF2EFAE0DF2EF02D0F2EF6E5EF2E04
:103DB000F2E0FF2EF02D06EB17E0332433940F2EA4
:103DC000F8E46F2EF2E07F2EF02DA89580912F075A
:103DD0009091300790D90FB6F8940F9282E09AE054
:103DE0000E940C4D0F900FBE80912F0790913007CD
:103DF0000E940D168CA18130A9F48091080A8111CE
:103E00003AC08091020A81118CC03092080A7F92D8
:103E10006F921F930F930E94340D0F900F900F908D
:103E20000F9024C0811122C08091080A882309F4D0
:103E300078C0E2E0FAE01682D6011D921C92109240
:103E4000BE0A1092BD0A118AFF92EF921F930F9340
:103E50000E94340D82E09AE00E94BD5182E09AE017
:103E60000E945C380F900F900F900F908091080A7D
:103E7000882309F456C08091130A833008F051C09A
:103E8000BE0182E09AE04AD39093BE0A8093BD0AB5
:103E900018161906A4F4F50120813181232B79F439
:103EA000E2E0FAE0D6018D939C9381898F5F818B4C
:103EB000F4011182108282E09AE00E945C38BE0117
:103EC00082E09AE00E9466398091030A882349F1D2
:103ED0000E949116209125073091260740912707CF
:103EE00050912807DC01CB01821B930BA40BB50B6F
:103EF00081319742A105B105A0F0D2016D917C916D
:103F000082E09AE00E940C52F401918380830E9427
:103F10009116609325077093260780932707909347
:103F2000280768EE73E080E090E05AD84ECFC8E1F1
:103F3000D9E0552453940F2EF4EEAF2EF9E0BF2EA6
:103F4000F02D08EE19E00F2EF2E88F2EF2E09F2EF2
:103F5000F02D0F2EF6EBEF2EF7E0FF2EF02D0F2EAB
:103F6000F3E7CF2EF2E0DF2EF02D0F2EF5E66F2EC9
:103F7000F2E07F2EF02DA89580912D0790912E07CD
:103F8000BAD80FB6F8940F9288E799E00E940C4DCA
:103F90000F900FBE88A1823061F480912D0790911F
:103FA0002E070E940D161092CE0A88A1813069F466
:103FB00006C0813051F48091CE0A811106C0509222
:103FC000CE0A82E09AE00E945C388CA18130F9F43C
:103FD00080917E09811146C0809178098111B6C017
:103FE00050927E090E9491166093F9087093FA0826
:103FF0008093FB089093FC087F926F92FF92EF9260
:104000000E94340D0F900F900F900F9026C08111D9
:1040100024C080917E09882309F498C0E8E7F9E07C
:10402000168282B112B8D8011D921C9210928B0A8E
:1040300010928A0A118ADF92CF92FF92EF920E9429
:10404000340D88E799E00E94BD5188E799E00E940D
:104050005C380F900F900F900F9080917E0988230D
:1040600009F474C080918909833008F06FC0809191
:10407000AA0A81110AC0BE0188E799E04FD2909345
:104080008B0A80938A0A47D202C01092AA0A8091B2
:104090008A0A90918B0A181619063CF5F8012081BE
:1040A0003181232B11F5E8E7F9E0D8018D939C933A
:1040B00081898F5F818BF5011182108288E799E0F9
:1040C0000E945C38D80111968C9111978F938C9136
:1040D0008F939F928F92FF92EF920E94340D0F90D8
:1040E0000F900F900F900F900F90BE0188E799E00E
:1040F0000E94663980917909882341F10E949116C6
:104100002091290730912A0740912B0750912C07C5
:10411000DC01CB01821B930BA40BB50B81319742C1
:10412000A105B10598F06AA97BA988E799E00E94EA
:104130000C52D5018D939C930E9491166093290790
:1041400070932A0780932B0790932C0768EE73E0F7
:1041500080E090E00E94F0170ECF4FEF5FEFBA01C2
:104160008091AB0A9091AC0A0E948F0B8130A9F725
:10417000D9D78091C50A882349F08FE697E00E943D
:104180005F0D1092C50A1092B507E7CF809117090D
:10419000882319F386EB97E00E945F0D10921709B0
:1041A0001092B507DACFCDB7DEB7A297DEBFCDBF8D
:1041B0000E94B33E93D159D481E090E09093EB09F3
:1041C0008093EA0982E090E09093750A8093740AE4
:1041D00080E090E00E9494056093130970931409A5
:1041E0008093150990931609EE24EA94F12C0FEFB1
:1041F00010E020E835E240E050E060E0CE010196BA
:104200000E94530E82E2FE013196AFE6B7E00190C4
:104210000D928A95E1F720E835E240E050E066E053
:10422000CE0101960E94530E82E2FE013196A6EB6A
:10423000B7E001900D928A95E1F743E060E081E0FC
:104240000E94A7099093AC0A8093AB0A009741F0B3
:1042500000E020E030E0A90160E070E00E94D109B8
:1042600040E650E060E070E088E199E00E94635D24
:1042700088E799E00E94E83282E09AE00E94E83202
:1042800088E799E00E94475182E09AE00E944751F6
:1042900081E08093AA0A80914A0990914B099093FA
:1042A000910A8093900A809160099091610990939E
:1042B000010A8093000A88E199E00E94D835809332
:1042C000120A8093880999E288E10FB6F894A895BC
:1042D000809360000FBE909360007894E12CF12CE5
:1042E00002E020E030E040E051E06EE872E08DEA6C
:1042F00090E20E94F6140F2EFFE2EF2EF7E0FF2E61
:10430000F02D00E020E030E040E052E065E972E0AE
:1043100087E99FE10E94F6140F2EFDE2EF2EF7E0F1
:10432000FF2EF02D20E030E040E052E06EE972E038
:104330008BEB9EE10E94F614E12CF12C20E030E0A2
:1043400040E051E067EA72E081EC9DE10E94F614E2
:104350000E94561680E090E0A2960FB6F894DEBF59
:104360000FBECDBF08951F920F920FB60F9211246A
:104370000BB60F922F933F934F935F936F937F935F
:104380008F939F93AF93BF93EF93FF931092200768
:104390008091C10A9091C20AA091C30AB091C40A47
:1043A0000196A11DB11D8093C10A9093C20AA093EA
:1043B000C30AB093C40A8091C10A9091C20AA09125
:1043C000C30AB091C40A0797A105B10589F43DD38A
:1043D0001092C10A1092C20A1092C30A1092C40A23
:1043E00060E277E08091AB0A9091AC0A0E94C90A22
:1043F000FF91EF91BF91AF919F918F917F916F91BD
:104400005F914F913F912F910F900BBE0F900FBE78
:104410000F901F9018951F93CF93DF93C82F0FB65F
:10442000F8940F9284E00E94F0138C2F0E943714AE
:1044300080E00E943714182F80E00E943714C82FA4
:1044400080E00E943714D82F84E00E9417140F9048
:104450000FBE8C2F90E0A0E0B0E0BA2FA92F982FCC
:104460008827A12BBC01CD016D2BDF91CF911F912E
:104470000895CF93DF93D82FC62F0FB6F8940F92DD
:1044800084E00E94F0138D2F80680E9437148C2FD7
:104490000E94371484E00E9417140F900FBEDF9122
:1044A000CF910895682F83E1E4CF0895682F85E1C7
:1044B000E0CF0895682F87E1DCCF0895CF93DF9395
:1044C000D62FC42F682F82E4D4DF6D2F83E4D1DF91
:1044D0006C2F84E4CEDFDF91CF91089588E00E94B5
:1044E000EB1386E00E94D31381E00E94E11384E085
:1044F0000E94811380E0DEDF60E083E2BADF42E009
:1045000062E082E0DBDF84E0CDDF80E1CFCF0895A1
:1045100089E181CF08958AE17ECF08954F925F921D
:104520006F927F928F929F92AF92BF92CF92DF92C3
:10453000EF92FF920F931F93CF93DF9300D000D0A1
:10454000CDB7DEB79E838D838B0120E030E048EC51
:1045500052ECDC0152966D917D918D919C91559715
:104560000E948254882344F4ED81FE81EE58FF4F6F
:10457000808191810A9647C2AD81BE815696CD90C9
:10458000DD90ED90FC90599720E030E048EC52EC43
:10459000C701B6010E948254882344F4ED81FE8154
:1045A000EE58FF4F8081918144962DC2AD81BE812E
:1045B0009A964D905D906D907C909D9720E030E0B4
:1045C00048EC52ECC301B2010E948254882344F4A7
:1045D000ED81FE81EE58FF4F808191814E9613C28E
:1045E000AD81BE819E968D909D90AD90BC90D197EF
:1045F00020E030E048EC52ECC501B4010E94825446
:10460000882344F4ED81FE81EE58FF4F8081918133
:104610008896F9C120E030E048EC52ECAD81BE81D3
:10462000D2966D917D918D919C91D5970E948254E7
:10463000882344F4ED81FE81EE58FF4F8081918103
:10464000C296E1C120E030E048EC52ECAD81BE8181
:10465000D6966D917D918D919C91D9970E948254AF
:10466000882344F4ED81FE81EE58FF4F80819181D3
:10467000CC96C9C1AD81BE81DA968D919D910D9088
:10468000BC91A02D89839A83AB83BC8320E030E06A
:1046900048EC52ECBC01CD010E94825488234CF4BA
:1046A000ED81FE81EE58FF4F808191818A5B9F4FA3
:1046B000AAC120E030E048EC52ECED81FE81FE968C
:1046C00060817181828193810E948254882354F495
:1046D0008D819E818E589F4FDC018D919C91805BD6
:1046E0009F4F91C120E030E048EC52ECED81FE811B
:1046F000EE5BFF4F60817181828193810E948254C1
:1047000088234CF4ED81FE81EE58FF4F808191812A
:10471000865A9F4F78C14A9B10C0AD81BE811F96BB
:104720008C911F97813049F4FD01EE58FF4F808135
:104730009181019709F056C134C14B9B10C0ED81A6
:10474000FE818785813009F05BC1ED81FE81EE58E5
:10475000FF4F80819181029709F047C125C1659B78
:1047600011C0AD81BE811F968C91813009F040C18E
:10477000ED81FE81EE58FF4F80819181019709F014
:1047800039C115C1659B0EC0ED81FE8187858130E1
:1047900049F4ED81FE81EE58FF4F808191810297AF
:1047A00009F408C1F801E45AFF4F208131814281A8
:1047B0005381AD81BE815E966D917D918D919C916D
:1047C00091970E94825488234CF4ED81FE81EE582B
:1047D000FF4F8081918188589F4F15C1D80116964F
:1047E0006C9170E080E090E00E9421559B01AC014B
:1047F000ED81FE81628D738D848D958D0E94D155E2
:10480000181654F48D819E818E589F4FDC018D9136
:104810009C9184579F4FF7C0F801618570E080E05C
:1048200090E00E9421559B01AC01C701B6010E9496
:10483000D155181674F4AD81BE8112968C911297E1
:10484000882339F0AE58BF4F8D919C9180569F4F71
:10485000DAC0F801658570E080E090E00E942155A3
:104860009B01AC01C701B6010E948254882374F4F5
:10487000AD81BE8113968C911397882339F0AE5881
:10488000BF4F8D919C9186559F4FBDC0F8016685A5
:1048900070E080E090E00E9421559B01AC016981AD
:1048A0007A818B819C810E94D15518160CF485C0A9
:1048B000A3019201C501B4010E941D540E94EE544F
:1048C0009B01772324F422273327261B370BC901AA
:1048D000D80154962C9130E02817390764F4ED8103
:1048E000FE8185818823D1F0EE58FF4F8081918130
:1048F00086509F4F88C0D80153962C9130E0821784
:10490000930764F4ED81FE818581882339F0EE58A8
:10491000FF4F808191818C5F9E4F75C0F9DD71FDE5
:104920000EC0D80199968C91813049F4ED81FE81B9
:10493000EE58FF4F80819181019709F441C0E8DD75
:1049400072FD0CC0F80181A5813041F4ED81FE813A
:10495000EE58FF4F808191810197A9F1D9DD73FD58
:104960000DC0D80199968C91813041F4ED81FE8182
:10497000EE58FF4F80819181019741F1C9DD83FDA0
:1049800028C0F80181A5813039F58D819E818E582E
:104990009F4FDC018D919C91019709F58DE291E08B
:1049A00032C085E690E02FC086E690E02CC08FE60E
:1049B00090E029C080E790E026C08CED90E023C015
:1049C0008FE091E020C089E191E01DC083E291E099
:1049D0001AC080E090E017C080E090E014C080E052
:1049E00090E011C04B99B1CE08C06599C1CECACE36
:1049F0008CB1D8CE6599CDCED5CE6599B9CEC2CE83
:104A00006599F6CFBFCE26960FB6F894DEBF0FBEDF
:104A1000CDBFDF91CF911F910F91FF90EF90DF906D
:104A2000CF90BF90AF909F908F907F906F905F904E
:104A30004F900895EFE6F0E0808182608083E1E8A6
:104A4000F0E08081826080830895E1E8F0E0808179
:104A50008E7F80831092850010928400EFE6F0E054
:104A600080818D7F8083B19A089588E08093810052
:104A70008EE98093890080E680938800E6CF0895D0
:104A8000CF93DF93FA013A97E73D41E0F40708F04E
:104A900011C2EB01DC018827E456FF4F8F4F0C94C5
:104AA0005B5A1B966C91262F30E004C21F966C91C6
:104AB000262F30E0FFC11C966C91262F30E0FAC102
:104AC0001E966C91262F30E0F5C11D966C91262F15
:104AD00030E0F0C1A259BF4F2D913C91EBC120E0D5
:104AE00030E040E251E456966D917D918D919C911C
:104AF00059970E941A560E94EE549B01DBC120E098
:104B000030E040E251E452966D917D918D919C91FF
:104B100055970E941A560E94EE549B01CBC120E08B
:104B200030E040E251E4D2966D917D918D919C915F
:104B3000D5970E941A560E94EE549B01BBC120E0FB
:104B400030E040E251E4D6966D917D918D919C913B
:104B5000D9970E941A560E94EE549B01ABC1A059EE
:104B6000BF4F2D913C91A6C1AE5BBF4F20E030E01E
:104B700040E251E46D917D918D919C910E941A5675
:104B80000E94EE549B0196C1DE9620E030E040E2A8
:104B900051E46D917D918D919C910E941A560E94D5
:104BA000EE549B0187C1A65BBF4F20E030E040E29E
:104BB00051E46D917D918D919C910E941A560E94B5
:104BC000EE549B0177C1AA5BBF4F20E030E040E28A
:104BD00051E46D917D918D919C910E941A560E9495
:104BE000EE549B0167C120E030E040E251E49E9624
:104BF0006D917D918D919C91D1970E941A560E9442
:104C0000EE549B0157C120E030E040E251E49A9617
:104C10006D917D918D919C919D970E941A560E9455
:104C2000EE549B0147C120E030E040E251E45A9647
:104C30006D917D918D919C915D970E941A560E9475
:104C4000EE549B0137C120E030E040E251E45E9633
:104C50006D917D918D919C9191970E941A560E9421
:104C6000EE549B0127C1DA966D917D918D919C91B7
:104C7000DD970E94EE549B011DC16881262F30E014
:104C800019C16B81262F30E015C16981262F30E0D4
:104C900011C16A81262F30E00DC16C81262F30E0D2
:104CA00009C16C85262F30E005C16D85262F30E0C7
:104CB00001C16985262F30E0FDC06A85262F30E0CE
:104CC000F9C06C89262F30E0F5C06B89262F30E0C3
:104CD000F1C06E89262F30E0EDC06D89262F30E0BF
:104CE000E9C06D8D262F30E0E5C06E8D262F30E0B7
:104CF000E1C06C8D262F30E0DDC06F8D262F30E0B7
:104D0000D9C06E85262F30E0D5C06FA1262F30E0A8
:104D1000D1C06EA1262F30E0CDC06DA1262F30E08E
:104D2000C9C06E81262F30E0C5C06885262F30E0CF
:104D3000C1C06F81262F30E0BDC0FB01E45AFF4F98
:104D400060817181828193810E94EE549B01B2C087
:104D50006A89262F30E0AEC06989262F30E0AAC0CC
:104D60006889262F30E0A6C06F85262F30E0A2C0CC
:104D7000FB01EA5BFF4F208131819CC06CA1262F93
:104D800030E098C06A8D262F30E094C06B8D262FBE
:104D900030E090C0698D262F30E08CC02AA53BA55D
:104DA00089C069A1262F30E085C02EA53FA582C00D
:104DB0002CA53DA57FC02CAD3DAD7CC068A1262FA4
:104DC00030E078C068A5262F30E074C06D81262FB2
:104DD00030E070C06B85262F30E06CC028A939A95F
:104DE00069C0688D262F30E065C06F89262F30E0BE
:104DF00061C069A5262F30E05DC06AA1262F30E092
:104E000059C02EAD3FAD56C0FB01EE5BFF4F208178
:104E1000318150C0FB01EC5BFF4F208131814AC0E2
:104E2000FB01E05CFF4F2081318144C02AAD3BADE6
:104E300041C02CA93DA93EC02EA93FA93BC028AD29
:104E400039AD38C02AA93BA935C0FB01EE5AFF4F46
:104E5000208131812FC0FB01EA5AFF4F208131812F
:104E600029C0FB01E85AFF4F2081318123C0FB019B
:104E7000EC5AFF4F208131811DC0FB01E05BFF4FE9
:104E80002081318117C0FB01E65BFF4F208131811A
:104E900011C0FB01E45BFF4F208131810BC0FB019E
:104EA000E25BFF4F2081318105C0FB01E85BFF4FD2
:104EB00020813181C901DF91CF910895CF93DF9394
:104EC000DC01FB013A97E73D81E0F80708F0BBC041
:104ED0008827ED58FD4F8F4F0C945B5A4C93B3C00D
:104EE00013964C93B0C011964C93ADC012964C9350
:104EF000AAC014964C93A7C01C964C93A4C01D96B0
:104F00004C93A1C019964C939EC01A964C939BC08B
:104F100054964C9398C053964C9395C056964C9388
:104F200092C055964C938FC05D964C938CC05E9604
:104F30004C9389C05C964C9386C05F964C9383C01B
:104F40001E964C9380C097964C937DC096964C933A
:104F50007AC095964C9377C016964C9374C0189669
:104F60004C9371C017964C936EC0ED01C45ADF4F3D
:104F7000BA0180E090E00E941F55688379838A839C
:104F80009B8361C052964C935EC051964C935BC01C
:104F900050964C9358C01F964C9355C0AA5BBF4F78
:104FA0004D935C9350C094964C934DC05A964C933D
:104FB0004AC05B964C9347C059964C9344C09B960D
:104FC0005C934E939A973FC091964C933CC09F96AA
:104FD0005C934E939E9737C09D965C934E939C979F
:104FE00032C0DD965C934E93DC972DC090964C9327
:104FF0002AC098964C9327C015964C9324C01B96B4
:105000004C9321C0D1965C934E93D0971CC0589678
:105010004C9319C057964C9316C099964C9313C055
:1050200092964C9310C0D3965C934E93D2970BC03C
:10503000A85BBF4F4D935C9306C05F968C91813007
:1050400011F440932107DF91CF910895882309F14E
:10505000AFEFA80FB0E0119660E070E08FEF9FEF28
:10506000FB01E852F84F2081822728E0AC01417013
:10507000552796958795452B21F031E0832730EA17
:105080009327215099F76F5F7F4F6A177B0741F78E
:1050900002C08FEF9FEF9827892798270895EF92F6
:1050A000FF920F931F93CF93DF93882371F1815069
:1050B000082F10E00F5F1F4FC0E0D0E00F2EF5E08B
:1050C000EF2EFF24F394F02D8091C50A882349F038
:1050D000FE01E852F84F60818FE697E00E94C50D0F
:1050E00010C080911709882361F0F70180818460E6
:1050F0008083FE01E852F84F608186EB97E00E94C2
:10510000C50D2196C017D107F9F6E5E0F1E08081E1
:10511000847080830000DF91CF911F910F91FF90E9
:10512000EF900895AF92BF92CF92DF92EF92FF92ED
:105130000F931F93CF93DF938091C50A882329F0A3
:105140008FE697E00E94BC0D09C080911709882363
:1051500009F4DAC086EB97E00E94BC0D90919107AC
:105160009111D7C09FEF980F973008F4D2C090915B
:10517000D807913009F0CDC0282F30E0F901EA526C
:10518000F84FD081F901E952F84FC08182505EDFBB
:105190002C2F30E03D2B2817390709F0BAC0E8ED75
:1051A000F7E02181209392078281C381D0E0D82B40
:1051B0008481458150E0582B7A01EE0CFF1CCA0116
:1051C000880F991F880F991F880F991FE80EF91EE5
:1051D000EC0EFD1E233009F065C09E01ADECBCEC69
:1051E0000E94635A9695879596958795969587958B
:1051F0009C01220F331F880F991F880F991F880F5A
:10520000991F820F931F9E01281B390B21303105F6
:1052100051F02230310571F40F2EF2E0CF2EFAE07A
:10522000DF2EF02D09C00F2EF8E7CF2EF9E0DF2E8C
:10523000F02D02C0C12CD12CA42EAA0C0F2EF5E00B
:10524000BF2EF02DBA0CE8EDF7E081E0808383E01B
:105250008183A282CE15DF05A8F403E010E0AE0141
:1052600068E179E0C6010CDCF801E852F84F908360
:10527000F801E752F84F80830E5F1F4F2A96CE1534
:10528000DF0568F383E08A0DE1DE2B2D30E0F901C4
:10529000EA52F84F9083F901E952F84F80838B2D41
:1052A000FEDE37C0203109F034C0CE15DF05B0F482
:1052B00007E010E0F801E852F84F8081F801E7526A
:1052C000F84F408150E0582BBE0188E199E0F6DDAF
:1052D0000E5F1F4F2A96CE15DF0560F30FB6F894C8
:1052E0000F9240E650E060E070E088E199E00E94B3
:1052F000945D0F900FBE86E0A9DEE8EDF7E096839F
:10530000878388E0CCDE05C080919107882309F46B
:105310002ECFDF91CF911F910F91FF90EF90DF90F3
:10532000CF90BF90AF9008958F929F92AF92BF920F
:10533000CF92DF92EF92FF920F931F930E94B81DBE
:10534000FC012091180930E0A8EEB3E00E94635AF6
:105350004B015C018081823009F040C08FEA92E00D
:105360009F938F9386EB97E09F938F930E94340DCA
:10537000809100010F900F900F900F9083FD70C0EF
:1053800081E080938409E2E0F1E08081886080839D
:1053900083E199E00E94940560938C0A70938D0AD2
:1053A00080938E0A90938F0AEAE5F9E080819181DB
:1053B0000196918380830F2EF4E6CF2ED12CE12C21
:1053C000F12CF02D00E010E0A501940164E0809143
:1053D000960A9091970A0E94911B42C08F3009F063
:1053E0003FC081EC92E09F938F9386EB97E09F9371
:1053F0008F930E94340D809100010F900F900F90B9
:105400000F9084FD2DC082E080930E0AE2E0F1E06F
:1054100080818061808383E199E00E94940560939C
:10542000A00A7093A10A8093A20A9093A30AEEE6C1
:10543000F9E0808191810196918380830F2EF4E6BB
:10544000CF2ED12CE12CF12CF02D00E010E0A501A5
:10545000940164E08091A80A9091A90A0E94911B8E
:105460001F910F91FF90EF90DF90CF90BF90AF9082
:105470009F908F9008958F929F92AF92BF92CF92FC
:10548000DF92EF92FF920F931F93CF93DF93AC01C4
:1054900020911B0930E0A8EEB3E00E94635A4B0153
:1054A0005C01CA010E94B81DEC0188818D3029F58C
:1054B00083ED92E09F938F9386EB97E09F938F937A
:1054C0000E94340D0F900F900F900F90949902C08E
:1054D000A49A01C0A4980F2EF4E6CF2ED12CE12C73
:1054E000F12CF02D00E010E0A501940164E0809122
:1054F0000509909106090E94911B88818931B9F4B0
:10550000939902C0A39A01C0A3980F2EF4E6CF2E60
:10551000D12CE12CF12CF02D00E010E0A50194013C
:1055200064E08091860A9091870A0E94911BDF9126
:10553000CF911F910F91FF90EF90DF90CF90BF9090
:10554000AF909F908F9008950E94B81DFC018081BC
:105550008730A1F4E8E7F9E0118A81E0858386EEDF
:1055600092E09F938F9386EB97E09F938F930E9497
:10557000340D0F900F900F900F900895843199F48F
:10558000E2E0FAE0118A81E085838BEF92E09F935D
:105590008F9386EB97E09F938F930E94340D0F902B
:1055A0000F900F900F9008950E94B81DFC0180810C
:1055B000863091F481E08093790980E193E09F93B4
:1055C0008F9386EB97E09F938F930E94340D0F90FB
:1055D0000F900F900F900895833189F481E08093AC
:1055E000030A82E293E09F938F9386EB97E09F9369
:1055F0008F930E94340D0F900F900F900F9008958D
:105600008F929F92AF92BF92CF92DF92EF92FF92D2
:105610000F931F930E94B81DFC018081843009F014
:105620003AC120911C0930E0A8EEB3E00E94635A11
:105630004B015C01F0E18F0EF7E29F1EA11CB11C33
:1056400080917B09882309F486C0949B59C080917E
:105650004009813009F054C0A49884E393E09F93FB
:105660008F9386EB97E09F938F930E94340D109257
:105670008609C090AF0AD090B00AE090B10AF090CD
:10568000B20A83E199E00E949405A70196010E9465
:105690008F05C0905D07D0905E07E0905F07F090A7
:1056A0006007DC01CB018C0D9D1DAE1DBF1D8093DD
:1056B0005D0790935E07A0935F07B09360070F901C
:1056C0000F900F900F9081319E40A105B10508F415
:1056D00042C0E8E1F9E080AD91AD019691AF80AFB5
:1056E00040E650E060E070E0CF010E94735D1092F0
:1056F0005D0710925E0710925F07109260072BC043
:10570000949929C080914009811125C0A49A81E013
:105710008093860985E493E09F938F9386EB97E0CF
:105720009F938F930E94340D83E199E00E9494052A
:105730006093AF0A7093B00A8093B10A9093B20A53
:10574000ECE5F9E0808191810196918380830F904F
:105750000F900F900F9080917C09811105C080916E
:105760007A09882309F484C0949B58C08091400929
:10577000811154C0A49884E393E09F938F9386EBA8
:1057800097E09F938F930E94340D10928609C090EA
:10579000AF0AD090B00AE090B10AF090B20A83E16B
:1057A00099E00E949405A70196010E948F05C09080
:1057B0005D07D0905E07E0905F07F0906007DC0126
:1057C000CB018C0D9D1DAE1DBF1D80935D07909379
:1057D0005E07A0935F07B09360070F900F900F9044
:1057E0000F9081319E40A105B10508F441C0E8E168
:1057F000F9E080AD91AD019691AF80AF40E650E009
:1058000060E070E0CF010E94735D10925D0710921E
:105810005E0710925F07109260072AC0949928C013
:1058200080914009813021F5A49A8093860984E310
:1058300093E09F938F9386EB97E09F938F930E94C3
:10584000340D83E199E00E9494056093AF0A709350
:10585000B00A8093B10A9093B20AECE5F9E0808136
:1058600091810196918380830F900F900F900F90FC
:105870000F2EF4E6CF2ED12CE12CF12CF02D00E0F0
:1058800010E0A501940164E08091F0099091F10984
:105890000E94911B34C1813109F031C120911B0953
:1058A00030E0A8EEB3E00E94635A4B015C018091A6
:1058B000050A882309F487C0939B5AC08091400948
:1058C000813009F055C0A39886E593E09F938F93AC
:1058D00086EB97E09F938F930E94340D1092100AED
:1058E000C090CA0AD090CB0AE090CC0AF090CD0AC2
:1058F00083E199E00E949405A70196010E948F051B
:10590000C0905907D0905A07E0905B07F0905C0771
:10591000DC01CB018C0D9D1DAE1DBF1D8093590771
:1059200090935A07A0935B07B0935C070F900F907A
:105930000F900F9081319E40A105B10508F443C03E
:10594000E6E6F9E08081918101969183808340E6CB
:1059500050E060E070E088E199E00E94735D109291
:10596000590710925A0710925B0710925C072BC0E0
:10597000939929C080914009811125C0A39A81E0A3
:105980008093860987E693E09F938F9386EB97E059
:105990009F938F930E94340D83E199E00E949405B8
:1059A0006093CA0A7093CB0A8093CC0A9093CD0A75
:1059B000E0E7F9E0808191810196918380830F90E7
:1059C0000F900F900F908091040A882309F485C0EE
:1059D000939B59C080914009811155C0A39886E5D9
:1059E00093E09F938F9386EB97E09F938F930E9412
:1059F000340D1092100AC090CA0AD090CB0AE090E1
:105A0000CC0AF090CD0A83E199E00E949405A701A9
:105A100096010E948F05C0905907D0905A07E090D8
:105A20005B07F0905C07DC01CB018C0D9D1DAE1D6A
:105A3000BF1D8093590790935A07A0935B07B093BB
:105A40005C070F900F900F900F9081319E40A10541
:105A5000B10508F442C0E6E6F9E080819181019643
:105A60009183808340E650E060E070E088E199E057
:105A70000E94735D1092590710925A0710925B07AB
:105A800010925C072AC0939928C080914009813008
:105A900021F5A39A8093100A86E593E09F938F9354
:105AA00086EB97E09F938F930E94340D83E199E0FA
:105AB0000E9494056093CA0A7093CB0A8093CC0A23
:105AC0009093CD0AE0E7F9E080819181019691837E
:105AD00080830F900F900F900F900F2EF4E6CF2E33
