:100000006CC500008BC5000089C5000087C50000D5
:1000100085C5000083C5000081C500007FC50000C4
:100020007DC500007BC5000079C5000077C50000D4
:1000300075C5000073C5000071C500006FC50000E4
:100040006DC500000C94612169C5000067C5000002
:1000500065C5000063C5000061C500005FC5000004
:100060005DC500000C948F100C94171157C500004B
:1000700055C5000053C5000051C500004FC5000024
:1000800055C700004BC5000049C5000047C500002A
:100090000C9460110C94BF1141C500003FC50000D5
:1000A0003DC500003BC5000039C5000037C5000054
:1000B00035C5000033C5000031C500002FC5000064
:1000C0002DC500002BC5000029C500000C940812A6
:1000D0000C94671223C500000C94B0120C943813D2
:1000E0001DC500000C0D0C0D110D110D160D160D7A
:1000F0001B0D1B0D7D0D7D0D780D780D730D730D92
:100100006E0D6E0D310E310E380E380E3F0E3F0E55
:10011000460E460EBD0EEE0E280F590F930FC40F5C
:1001200002103310391D391D391D841D6D1D811DAF
:10013000391D391D841D6D1DEB25FF24FF24082763
:10014000082708270827082708270827EF25042558
:10015000042508270827082708270827082708272D
:10016000F325092509250827082708270827082730
:1001700008270827F7250E250E2508270827082712
:100180000827082708270827FB25132513250827F4
:10019000082708270827082708270827FF251825E4
:1001A00018250827082708270827082708270827C9
:1001B00003261D251D2508270827082708270827A7
:1001C0000827082707262D252D2508270827082773
:1001D00008270827082708270B263D253D2508273F
:1001E0000827082708270827082708270F264D254E
:1001F0004D25082708270827082708270827082744
:1002000013265D255D2508270827082708270827C6
:1002100008270827172662256225082708270827A8
:1002200008270827082708271B2672257225082774
:100230000827082708270827082708271F268125B9
:1002400081250827082708270827082708270827BF
:1002500023269125912508270827082708270827FE
:10026000082708272726A125A125082708270827CA
:1002700008270827082708272B26B125B125082796
:100280000827082708270827082708272F26C12519
:10029000C12508270827082708270827082708272F
:1002A0003326D125D125082708270827082708271E
:1002B000082708273726E125E125082708270827EA
:1002C00008270827082708273B2608270827082784
:1002D0000827082708270827082708273F26082770
:1002E0000827082708270827082708270827082796
:1002F000432608270827082708270827082708274C
:100300000827082747260827082708270827082737
:1003100008270827082708274B2608270827082723
:100320000827082708270827082708275626082708
:100330000827082708270827082708270827082745
:100340005A260827082708270827082708270827E4
:10035000082708275E2608270827082708270827D0
:1003600008270827082708276226082708270827BC
:100370000827082708270827082708276626AF2602
:10038000D32608270827082708270827082708272B
:100390006C26B226D9260827082708270827082709
:1003A000082708277026B826DF26082708270827E9
:1003B00008270827082708277426BE26E5260827C9
:1003C0000827082708270827082708277826C4268B
:1003D000EB260827082708270827082708270827C3
:1003E0007C26C726F126082708270827082708277C
:1003F000082708277F26082708270827082708270F
:1004000008270827082708278326CA26F72608274B
:100410000827082708270827082708278626CD2623
:10042000FD26082708270827082708270827082760
:100430008926D02603270827082708270827082702
:10044000082708278C2608270827082708270827B1
:10045000082708270827082790260827082708279D
:100460000827082708270827082708279426082789
:100470000827082708270827082708270827082704
:100480009826082708270827082708270827082765
:10049000082708279C260827082708270827082751
:1004A00008270827082708279F260827082708273E
:1004B000082708270827082708270827A32608272A
:1004C00008270827082708270827082708270827B4
:1004D000A726082708270827082708270827082706
:1004E00008270827AB261C27D127D127D127D127BA
:1004F000D127D127D127D127D1271E27D127D127EF
:10050000D127D127D127D127D127D127D1272127DB
:10051000D127D127D127D127D127D127D127D1271B
:10052000D1272427D127D127D127D127D127D127B8
:10053000D127D127D1272727D127D127D127D127A5
:10054000D127D127D127D127D1272A27D127D12792
:10055000D127D127D127D127D127D127D1272D277F
:10056000D127D127D127D127D127D127D127D127CB
:10057000D1273027D127D127D127D127D127D1275C
:10058000D127D127D1273327D127D127D127D12749
:10059000D127D127D127D127D1273627D127D12736
:1005A000D127D127D127D127D127D127D127392723
:1005B000D127D127D127D127D127D127D127D1277B
:1005C000D1273C27D127D127D127D127D127D12700
:1005D000D127D127D1273F27D127D127D127D127ED
:1005E000D127D127D127D127D1274227D127D127DA
:1005F000D127D127D127D127D127D127D1274527C7
:10060000D127D127D127D127D127D127D127D1272A
:10061000D1274827D127D127D127D127D127D127A3
:10062000D127D127D1274B27D127D127D127D12790
:10063000D127D127D127D127D1274E27D127D1277D
:10064000D127D127D127D127D127D127D12751276A
:10065000D127D127D127D127D127D127D127D127DA
:10066000D1275427D127D127D127D127D127D12747
:10067000D127D127D1275727D127D127D127D12734
:10068000D127D127D127D127D1275A27D127D12721
:10069000D127D127D127D127D127D127D1275D270E
:1006A000D127D127D127D127D127D127D127D1278A
:1006B000D1276027D127D127D127D127D127D127EB
:1006C000D127D127D1276327D127D127D127D127D8
:1006D000D127D127D127D127D1277027D127D127BB
:1006E000D127D127D127D127D127D127D1277327A8
:1006F000D127D127D127D127D127D127D127D1273A
:10070000D1277627D127D127D127D127D127D12784
:10071000D127D127D1277927D127D127D127D12771
:10072000D127D127D127D127D1277C27D127D1275E
:10073000D127D127D127D127D127D127D127812749
:10074000D127D127D127D127D127D127D127D127E9
:10075000D1278427D127D127D127D127D127D12726
:10076000D127D127D1278727D127D127D127D12713
:10077000D127D127D127D127D1278A27D127D12700
:10078000D127D127D127D127D127D127D1278D27ED
:10079000D127D127D127D127D127D127D127D12799
:1007A000D1279227D127D127D127D127D127D127C8
:1007B000D127D127D1279527D127D127D127D127B5
:1007C000D127D127D127D127D1279A27D127D127A0
:1007D000D127D127D127D127D127D127D1279F278B
:1007E000C127C627CB27D127D127D127D127D1276A
:1007F000D127A427D127D127D127D127D127D12766
:10080000D127D127D127A727D127D127D127D12752
:10081000D127D127D127D127D127AA27D127D1273F
:10082000D127D127D127D127D127D127D127AD272C
:10083000D127D127D127D127D127D127D127D127F8
:10084000D127B027D127D127D127D127D127D12709
:10085000D127D127D127B527D127D127D127D127F4
:10086000D127D127D127D127D127B827D127D127E1
:10087000D127D127D127D127D127D127D127BB27CE
:10088000D127D127D127D127D127D127D127D127A8
:10089000D127BE2708000000BE922449123EABAA11
:1008A000AA2ABECDCCCC4C3E00000080BEABAAAA8A
:1008B000AA3E00000000BF000000803F00000000D2
:1008C00000084178D3BB4387D1133D190E3CC3BD0B
:1008D0004282AD2B3E68EC8276BED98FE1A93E4CB8
:1008E00080EFFFBE01C4FF7F3F00000000006E618B
:1008F0006E00696E660000407A10F35A00A0724ED6
:1009000018090010A5D4E80000E87648170000E4B4
:100910000B54020000CA9A3B000000E1F5050000FC
:1009200080969800000040420F000000A086010061
:100930000000102700000000E80300000000640031
:10094000000000000A00000000000100000000009C
:100950002C76D888DC674F0823DFC1DFAE59E1B1C0
:10096000B796E5E3E453C63AE651997696E8E6C2CF
:100970008426EB898C9B62ED407C6FFCEFBC9C9FD6
:1009800040F2BAA56FA5F490055A2AF75C936B6CF8
:10099000F9676DC11BFCE0E40D47FEF520E6B500EC
:1009A000D0ED902E0300943577050080841E08005A
:1009B00000204E0A000000C80C333333330F986E0A
:1009C00012831141EF8D2114893BE65516CFFEE6C7
:1009D000DB18D1844B381BF77C1D901DA4BBE4248D
:1009E000203284725E228100C9F124ECA1E53D270A
:1009F0009A99C9C133336BC13333D3C0CDCCCC3D0D
:100A000048E1A24066662E41000078419A999D41D6
:100A10000000BC41CDCCD8413333F3416666064279
:100A2000666612429A991D4266662842CDCC3242D1
:100A3000CDCC2842666646429A994F426666584235
:100A4000333361429A9969429A99714233337942B8
:100A50009A99804233338442CDCC874266668B427A
:100A600000008F42666692429A999542CDCC984298
:100A700000E117E00F2EF0E4EF2EF7E0FF2EF02D4F
:100A800080910F07882311F10FB6F8940F92D801C7
:100A90001796ED91FC911897C085D185CE010296ED
:100AA00024D38091030781508093030780910F071F
:100AB000815080930F070F900FBE8B8D9C8D75D04A
:100AC000CE0173D080910F078111DECFF7018081B5
:100AD000823008F03DD173D2D3CF11241FBECFEFA7
:100AE000D1E2DEBFCDBF00E00CBF16E0A0E0B2E077
:100AF000ECEAF6EB00E00BBF02C007900D92A03FBE
:100B0000B107D9F72BE0A0EFB6E001C01D92A733E3
:100B1000B207E1F70E9481200C94545B71CA621BFA
:100B2000730B840B950B0895FC010FB6F89460913C
:100B3000330B7091340B8091350B9091360B0FBEB7
:100B4000309721F0608371838283938308958F931C
:100B50008FB78F93F8948091330B8F5F8093330B13
:100B60008091340B8F4F8093340B8091350B8F4FD6
:100B70008093350B8091360B8F4F8093360B8F917E
:100B80008FBF8F910895CF93DF93EC010E948B1656
:100B9000CE010E941B58EC010E947417209709F4A3
:100BA00027D2CE01DF91CF910895CF93DF930097A5
:100BB00041F0EC010E948B16CE010E94B3580E94B6
:100BC0007417DF91CF91089531E1FC0130833197A3
:100BD00022E220833197A3E3A0833197608331978A
:100BE00070833197108231971082319760E860836B
:100BF000319710823197108231971082319762E0DD
:100C00006083319763E06083319764E0608331975C
:100C100065E06083319766E06083319767E06083C9
:100C2000319768E06083319769E06083319760E1D4
:100C3000608331973083319732E13083319733E1EC
:100C40003083319734E13083319735E13083319708
:100C500036E13083319737E13083319738E13083A3
:100C6000319739E13083319730E23083319731E287
:100C7000308331972083319723E22083319740835B
:100C800031975083319726E22083319727E22083E2
:100C9000319728E22083319729E22083319720E39E
:100CA0002083319721E320838997089588EE93E08C
:100CB000A0E0B0E08093C7079093C807A093C9074E
:100CC000B093CA078093CB079093CC07A093CD072E
:100CD000B093CE071092990089EF809398008BE033
:100CE00080939100E1E7F0E0808182608083A091B1
:100CF0006C07B0916D07CD91CDBFDD91DEBFFF9147
:100D0000EF91DF91CF91BF91AF919F918F917F91A3
:100D10006F915F914F913F912F911F910F91FF9094
:100D2000EF90DF90CF90BF90AF909F908F907F908B
:100D30006F905F904F903F902F901F900F900CBE40
:100D40000F900BBE0F900FBE0F90089581E0089595
:100D50000F920FB6F8940F920BB60F920CB60F923B
:100D60001F9211242F923F924F925F926F927F9227
:100D70008F929F92AF92BF92CF92DF92EF92FF92AB
:100D80000F931F932F933F934F935F936F937F9393
:100D90008F939F93AF93BF93CF93DF93EF93FF9383
:100DA000A0916C07B0916D070DB60D920EB60D9225
:100DB0000E940918A0916C07B0916D07CD91CDBF2D
:100DC000DD91DEBFFF91EF91DF91CF91BF91AF91A8
:100DD0009F918F917F916F915F914F913F912F9153
:100DE0001F910F91FF90EF90DF90CF90BF90AF9049
:100DF0009F908F907F906F905F904F903F902F903B
:100E00001F900F900CBE0F900BBE0F900FBE0F9057
:100E100008950F920FB6F8940F920BB60F920CB67E
:100E20000F921F9211242F923F924F925F926F92D6
:100E30007F928F929F92AF92BF92CF92DF92EF926A
:100E4000FF920F931F932F933F934F935F936F9353
:100E50007F938F939F93AF93BF93CF93DF93EF9342
:100E6000FF93A0916C07B0916D070DB60D920EB671
:100E70000D9213BE8091CB079091CC07A091CD0726
:100E8000B091CE070197A109B1098093CB07909348
:100E9000CC07A093CD07B093CE07892B8A2B8B2B41
:100EA00089F455DE8091C7079091C807A091C907C2
:100EB000B091CA078093CB079093CC07A093CD073E
:100EC000B093CE070E949F1681110E940918A0912D
:100ED0006C07B0916D07CD91CDBFDD91DEBFFF9165
:100EE000EF91DF91CF91BF91AF919F918F917F91C2
:100EF0006F915F914F913F912F911F910F91FF90B3
:100F0000EF90DF90CF90BF90AF909F908F907F90A9
:100F10006F905F904F903F902F901F900F900CBE5E
:100F20000F900BBE0F900FBE0F90089572DF1895B3
:100F3000811106C0ECE7F0E080818F7D8083089509
:100F4000ECE7F0E0808180628083089580917A00F0
:100F500086FB882780F90895803218F597E89093EA
:100F60007A0090917C00662311F0906C02C09F770C
:100F70009064907E883040F0EBE7F0E020812860BC
:100F800020838850892B06C0EBE7F0E02081277F83
:100F90002083892B80937C00EAE7F0E080818064E5
:100FA0008083089580917C0085FF04C08091790042
:100FB00090E00895809178009091790008958FEFE6
:100FC00080937E0080937D0080B7877F80BF80B74D
:100FD000806880BF83B7817F83BF0FB6F8940F927C
:100FE00083B7816083BF0F900FBE889513BE0895AD
:100FF000279A2F9A00001F9AFDCF279A2F9A00C098
:101000001F9AFDCFFC010396928381834FEF5FEF20
:10101000BA0143835483658376839087878392875D
:10102000818710820895FC01138612860895CF935C
:10103000DF939C01FB01DC011196CD91DC911297AD
:10104000D583C4838E819F81978386838E819F8180
:10105000DC0115967C936E9314977F836E833387A0
:101060002287F90180818F5F8083DF91CF9108957E
:101070000F931F93CF93DF93EB01088119812A818E
:101080003B810F3F4FEF14072407340721F4FC0185
:10109000A185B28511C0DC01139601C0DF01149651
:1010A000ED91FC9115974081518162817381041704
:1010B00015072607370790F71496ED91FC911597C1
:1010C000FD83EC83D783C683BF83AE831596DC9301
:1010D000CE9314979B878A87FC0120812F5F208302
:1010E000DF91CF911F910F910895CF93DF93FC0172
:1010F000A285B385C481D581868197819F838E83A4
:10110000C681D781848195819D838C8311968D9131
:101110009C911297E817F90731F48681978112960E
:101120009C938E931197138612868C9181508C9389
:101130008C91DF91CF9108950FB6F8940F92FC0136
:10114000968D0F900FBE81E0911180E008950F936E
:101150001F93CF93DF93EC01042F1E8D48A1411103
:101160000CC088819981892B09F042C08A819B81BA
:101170000E942A1A1B821A8242C0011117C050E035
:101180008C819D810E941F5A28A18C819D81820F94
:10119000911D9D838C832A813B818217930750F197
:1011A000888199819D838C8380E029C050E08E8165
:1011B0009F810E941F5A88A190E091958195910985
:1011C0002E813F81280F391F3F832E83488159810B
:1011D0002417350730F42A813B81820F931F9F83A8
:1011E0008E83023049F4112349F0115080E007C08A
:1011F00080E005C080E003C080E001C080E01F5FA8
:101200001E8FDF91CF911F910F910895FC0140A196
:101210004423A9F050E026813781240F351F3783FE
:101220002683828193812817390720F0808191815C
:1012300097838683CB01668177810C941F5A08952A
:10124000EF92FF920F931F93CF938C010FB6F894F8
:101250000F92FC01C2A11C16ACF48389811106C057
:1012600011C0F8018389811105C00CC07801F3E138
:10127000EF0EF11CC7010E94021981110E94AA19E8
:10128000C15079F78FEFF80182A30F900FBE0FB610
:10129000F8940F92C1A11C16ACF48085811106C090
:1012A00011C0F8018085811105C00CC07801F8E0FB
:1012B000EF0EF11CC7010E94021981110E94AA19A8
:1012C000C15079F78FEFF80181A30F900FBECF9136
:1012D0001F910F91FF90EF900895CF93DF93EC0152
:1012E0000FB6F8940F924881598128A130E07F8D84
:1012F000729FC001739F900D1124FA01E80FF91F2E
:10130000FB83EA831E8E5D834C83821B930B840FC9
:10131000951F9F838E838FEF89A38AA361110BC0D2
:101320008885882371F0CE0108960E9402198823CF
:1013300041F00EDD06C0CE01089664DECE01439674
:1013400061DE0F900FBE81E0DF91CF9108950F9382
:101350001F93CF93DF93082F162F6623B1F0869F3C
:10136000C001112483960FDCEC01009739F413C0FF
:101370000F8F18A361E0CE01B0DF0DC08396998373
:101380008883F6CFD983C883F3CF83E290E0FBDB79
:10139000EC01892BB9F7CE01DF91CF911F910F910D
:1013A00008959F92AF92BF92CF92DF92EF92FF92F9
:1013B0000F931F93CF93DF93CDB7DEB729970FB667
:1013C000F894DEBF0FBECDBF7C015B012E833F834F
:1013D0004887598710E0992493946C0188E0C80EDF
:1013E000D11C0FB6F8940F92F701968D878D981740
:1013F00010F00230B1F4402FB501C701A8DEF701AB
:101400009389992341F0C70143960E9402198823CA
:1014100021F09EDC02C081119BDC0F900FBE81E0A9
:1014200052C08E819F81A885B985892B8A2B8B2BF1
:1014300021F40F900FBE80E046C0111105C0CE010F
:1014400001960E944419192D0F900FBE0E948B1611
:101450000FB6F8940F92F70181A18F3F09F411A202
:10146000F70182A18F3F09F412A20F900FBEBE01B7
:101470006A5F7F4FCE0101960E94551981111EC0EF
:101480000FB6F8940F92F701968D878D0F900FBECF
:1014900098130FC04E815F8168857985C6010E94CF
:1014A000CB18C701CDDE0E94741781119ACF50DC92
:1014B00098CFC701C5DE0E94741793CFC701C0DE65
:1014C0000E94741780E029960FB6F894DEBF0FBE15
:1014D000CDBFDF91CF911F910F91FF90EF90DF90E3
:1014E000CF90BF90AF909F9008950F93CF93DF93CD
:1014F000482F60E081E02BDFEC01009761F01B8258
:101500001A82198218821E8200E020E030E0A901D0
:1015100060E070E046DFCE01DF91CF910F9108953A
:10152000EF92FF920F931F93CF93DF938A01FC01F9
:10153000568D378D531710F02230E9F4422F780181
:10154000EC011AA104DE1F3F81F48B898823A9F0E6
:10155000CE0143960E940219882389F0E114F10418
:1015600081F081E0F70180830DC0FF24F394F10E38
:10157000FAA281E007C080E005C081E003C081E0FD
:1015800001C081E0DF91CF911F910F91FF90EF900B
:101590000895CF93DF93FC01868D978D8917C0F452
:1015A00092A18F5F868F9F3F79F48389882391F082
:1015B000EB01CF0143960E940219882369F020971E
:1015C00069F081E088830BC09F5F92A381E007C030
:1015D00080E005C081E003C081E001C081E0DF91CF
:1015E000CF9108959F92AF92BF92CF92DF92EF92E8
:1015F000FF920F931F93CF93DF93CDB7DEB7299759
:101600000FB6F894DEBF0FBECDBF8C015B012E83F9
:101610003F8348875987E12C992493946C0183E197
:10162000C80ED11C0FB6F8940F92F801F68CFF206B
:1016300099F0B501C801EADDFA94F801F68E8085CB
:10164000882331F0C80108960E940219811180DBBD
:101650000F900FBE81E051C08E819F81A885B98512
:10166000892B8A2B8B2B21F40F900FBE80E045C075
:10167000E11005C0CE0101960E944419E92C0F909B
:101680000FBE0E948B160FB6F8940F92F80181A13D
:101690008F3F09F411A2F80182A18F3F09F412A231
:1016A0000F900FBEBE016A5F7F4FCE0101960E9470
:1016B0005519811118C0C8013FDD882379F04E818A
:1016C0005F8168857985C6010E94CB18C801B8DDA5
:1016D0000E9474178111A6CF3BDBA4CFC801B0DDF7
:1016E0000E9474179FCFC801ABDD0E947417C80118
:1016F00023DD882309F496CF80E029960FB6F8946D
:10170000DEBF0FBECDBFDF91CF911F910F91FF9034
:10171000EF90DF90CF90BF90AF909F900895BF92D1
:10172000CF92DF92EF92FF920F931F93CF93DF93AD
:10173000CDB7DEB729970FB6F894DEBF0FBECDBF89
:101740008C014E835F8368877987B12CD12CCC24A0
:10175000C3947C0183E1E80EF11C0FB6F8940F925C
:10176000D8015E968C915E978823E1F081505E9659
:101770008C935E978D919C91892B29F40E94B61AC7
:10178000F80193838283D80118968C91882331F0D5
:10179000C80108960E9402198111DADA0F900FBE73
:1017A00081E07FC08E819F81A885B985892B8A2B96
:1017B0008B2B21F40F900FBE80E073C0D11005C0B9
:1017C000CE0101960E944419DC2C0F900FBE0E949E
:1017D0008B160FB6F8940F92F80181A18F3F09F490
:1017E00011A2D80192968C9192978F3F11F4929604
:1017F0001C920F900FBEBE016A5F7F4FCE01019613
:101800000E945519811127C0C80196DC8823F1F088
:10181000F80180819181892B51F40FB6F8940F92D1
:10182000828193810E94BC19B82E0F900FBE4E8109
:101830005F8168857985C7010E94CB18C80100DDEA
:101840000E947417811189CF83DA87CFC801F8DC31
:101850000E94741782CFC801F3DC0E947417C8017C
:101860006BDC882309F479CFBB20D1F00FB6F89454
:101870000F92F8018389882339F0028CF38DE02DD3
:10188000808164E0681B01C060E0D80112968D91F0
:101890009C9113970E946A1A0F900FBE80E001C0BE
:1018A00080E029960FB6F894DEBF0FBECDBFDF9162
:1018B000CF911F910F91FF90EF90DF90CF90BF904D
:1018C0000895CF93DF93EC010FB6F8940F9289A19E
:1018D0008F3F09F419A28AA18F3F09F41AA20F9031
:1018E0000FBE8E8D811104C0CE0143960E94E21876
:1018F000CE01A6DCDF91CF9108954F925F926F9257
:101900007F928F929F92AF92BF92CF92DF92EF928F
:10191000FF920F931F93CF93DF93EC01FB01019094
:101920000020E9F74B019F01215031090F2EF1E30F
:10193000EF2EFF24F394F02D01ED10E069EC70E040
:1019400041EC50E05C018DE0A80EB11C78C0D401E0
:10195000DD904D010FB6F8940F92ED85FE850F9046
:101960000FBE8F89988DE817F907F1F0F501828194
:101970009381DC01DC92828193810196938382833F
:10198000C084D1848C159D0521F486819781938331
:1019900082830FB6F8940F92808191810196918392
:1019A00080830F900FBE2BC000000FB6F8940F92EB
:1019B000ED85FE850F900FBE8F89988DE817F9078A
:1019C00009F43DC0F50182819381DC01DC928281C2
:1019D0009381019693838283C084D1848C159D0565
:1019E00021F486819781938382830FB6F8940F92B6
:1019F000808191810196918380830F900FBE4880F2
:101A0000512CB8E04B165104D0F4F2018827EE585F
:101A1000FF4F8F4F0C940458FA01808180628083BD
:101A20000EC0DB018C9180628C9309C0F80180812B
:101A30008062808304C0D7018C9180628C9382166F
:101A4000930609F084CFDF91CF911F910F91FF9002
:101A5000EF90DF90CF90BF90AF909F908F907F904E
:101A60006F905F904F9008950F931F93CF93DF93E4
:101A7000CDB7DEB708851985F801858D813029F449
:101A800067D9F801858D8130D9F381E0F801858F20
:101A9000638D748D9E01245F3F4F4A855B85818DE8
:101AA000928D0E94765AF801618D728DC80125DFF2
:101AB000F801158EDF91CF911F910F910895CF936B
:101AC000DF93DC014C9150E048305105E8F5FA0114
:101AD0008827E658FF4F8F4F0C94045880913001AF
:101AE000882354F131C08091D0008823E4F02CC0C9
:101AF0008091C800882374F027C08091C00088239B
:101B00001CF5C6ECD0E0E0ECF0E088818081882311
:101B1000E4F31AC0CEECD0E0E8ECF0E088818081FC
:101B20008823E4F311C0C6EDD0E0E0EDF0E0888159
:101B300080818823E4F308C0C6E3D1E0E0E3F1E06C
:101B4000888180818823E4F30FB6F8940F9212966F
:101B50001C921E92119717968D919C91189714962E
:101B60009C938E93139716969C938E9315970F9034
:101B70000FBEDF91CF9108950FB6F8940F92FC013C
:101B8000818192810F900FBE0895CF93DF93DC0186
:101B90000FB6F8940F921D962D913C911E970F90C1
:101BA0000FBE57968D919C91589728173907F1F0E1
:101BB000FD013D96C281D381688382819381019624
:101BC00093838283208531858217930721F4868150
:101BD0009781938382830FB6F8940F9280819181CD
:101BE0000196918380830F900FBE2FC000000FB627
:101BF000F8940F921D962D913C911E970F900FBE59
:101C000057968D919C9158972817390709F445C02C
:101C1000FD013D96C281D3816883828193810196C3
:101C200093838283208531858217930721F48681EF
:101C30009781938382830FB6F8940F92808191816C
:101C40000196918380830F900FBE8C9190E0883035
:101C5000910528F5FC018827EE57FF4F8F4F0C9414
:101C60000458E1ECF0E080818062808381E018C05C
:101C7000E9ECF0E080818062808381E011C0E1EDD9
:101C8000F0E080818062808381E00AC0E1E3F1E0DE
:101C900080818062808381E003C080E001C081E0B8
:101CA000DF91CF9108957F928F929F92AF92BF92D2
:101CB000CF92DF92EF92FF920F931F93CF93DF9318
:101CC000CDB7DEB7A2970FB6F894DEBF0FBECDBF7B
:101CD0006C01762E49015A01C7010E94C305009785
:101CE000A9F0FE0132960FB6F8940F92118210827D
:101CF0009383828395838483978386838E0D9F1D30
:101D000091878087F386E2860F900FBEC8010E94FC
:101D1000C3050097A9F0FE013E960FB6F8940F9206
:101D20001182108293838283958384839783868331
:101D3000800F911F91878087138702870F900FBEB6
:101D4000C8010E94C3059B8F8A8F79821D8F0C8FDB
:101D50001E8E8F8E98A2A9A2BAA20FB6F8940F92E7
:101D6000898190E08830910508F0BAC1FC0188278C
:101D7000E657FF4F8F4F0C940458D501C401975F6D
:101D8000A24CBF4FBC01CD01660F771F881F991F62
:101D9000660F771F881F991F95018401000F111F7F
:101DA000221F331F000F111F221F331FA90198018B
:101DB000220F331F441F551F0E94E2572150310943
:101DC0003093C5002093C40082E08093C00088E96E
:101DD0008093C1008EE08093C20082C104EC10E0C9
:101DE000F801118210826A9A80EC8093C20088E91F
:101DF0008093C100D501C40180589B47A14EBF4FBD
:101E0000880F991FAA1FBB1F880F991FAA1FBB1FEE
:101E1000BC01CD01660F771F881F991F880C991C84
:101E2000AA1CBB1C880C991CAA1CBB1CA5019401F4
:101E3000220F331F441F551F220F331F441F551FEE
:101E40000E94E25721503109F8013183208348C1B3
:101E5000D501C401975FA24CBF4FBC01CD01660FF5
:101E6000771F881F991F660F771F881F991F95017D
:101E70008401000F111F221F331F000F111F221F8B
:101E8000331FA9019801220F331F441F551F0E94C1
:101E9000E257215031093093CD002093CC0082E0ED
:101EA0008093C80088E98093C9008EE08093CA00BF
:101EB00017C10CEC10E0F80111821082559A80ECE9
:101EC0008093CA0088E98093C900D501C401805875
:101ED0009B47A14EBF4F880F991FAA1FBB1F880F9A
:101EE000991FAA1FBB1FBC01CD01660F771F881F5A
:101EF000991F880C991CAA1CBB1C880C991CAA1C35
:101F0000BB1CA5019401220F331F441F551F220F34
:101F1000331F441F551F0E94E25721503109F80119
:101F200031832083DDC0D501C401975FA24CBF4F30
:101F3000BC01CD01660F771F881F991F660F771FA1
:101F4000881F991F95018401000F111F221F331F45
:101F5000000F111F221F331FA9019801220F331FE9
:101F6000441F551F0E94E257215031093093D5007C
:101F70002093D40082E08093D00088E98093D10040
:101F80008EE08093D200ACC004ED10E0F801118225
:101F90001082E1E0F1E080818460808380EC8093B6
:101FA000D20088E98093D100D501C40180589B47B5
:101FB000A14EBF4F880F991FAA1FBB1F880F991FE3
:101FC000AA1FBB1FBC01CD01660F771F881F991F79
:101FD000880C991CAA1CBB1C880C991CAA1CBB1C35
:101FE000A5019401220F331F441F551F220F331FD9
:101FF000441F551F0E94E25721503109F8013183D7
:1020000020836EC0D501C401975FA24CBF4FBC01B5
:10201000CD01660F771F881F991F660F771F881FD6
:10202000991F95018401000F111F221F331F000FFC
:10203000111F221F331FA9019801220F331F441FB4
:10204000551F0E94E25721503109309335012093EA
:10205000340182E08093300188E9809331018EE081
:10206000809332013DC004E311E0F8011182108237
:10207000E4E0F1E080818460808380EC8093320131
:1020800088E980933101D501C40180589B47A14E56
:10209000BF4F880F991FAA1FBB1F880F991FAA1F28
:1020A000BB1FBC01CD01660F771F881F991F880CCD
:1020B000991CAA1CBB1C880C991CAA1CBB1CA50142
:1020C0009401220F331F441F551F220F331F441F3B
:1020D000551F0E94E25721503109F80131832083B6
:1020E0000F900FBE82E2FE013196D60101900D9253
:1020F0008A95E1F7C601A2960FB6F894DEBF0FBE2F
:10210000CDBFDF91CF911F910F91FF90EF90DF90A6
:10211000CF90BF90AF909F908F907F9008951F9227
:102120000F920FB60F9211240BB60F922F933F937D
:102130004F935F936F937F938F939F93AF93BF93CF
:10214000CF93EF93FF938091C0008C7171F08091D9
:10215000C00088230CF057C0A6ECB0E0E0ECF0E043
:102160008C9180818823E4F34EC0C091C600809199
:10217000770981111DC081E08093250B0E94D32433
:102180001092850010928400E0911508F0E0E85C60
:10219000F74FC083809115088F5F80931508809159
:1021A00015088F3F19F481E08093F1070E94C8243D
:1021B0000FB6F8940F92EFECF7E0218132810F9087
:1021C0000FBE8385948528173907E9F0E0EDF7E025
:1021D000A281B381CC938281938101969383828380
:1021E000208531858217930721F486819781938317
:1021F00082830FB6F8940F9280819181019691832A
:1022000080830F900FBEFF91EF91CF91BF91AF915F
:102210009F918F917F916F915F914F913F912F91FE
:102220000F900BBE0F900FBE0F901F9018951F922E
:102230000F920FB60F9211240BB60F922F938F931C
:102240009F93AF93BF93EF93FF930FB6F8940F92C2
:102250008091DC079091DD070F900FBE892B31F440
:10226000E1ECF0E080818F7D80831CC0ECEDF7E035
:10227000A481B5812D91B583A48380859185A8170C
:10228000B90721F486819781958384830FB6F894EA
:102290000F92808191810197918380830F900FBE6F
:1022A0002093C600FF91EF91BF91AF919F918F91C5
:1022B0002F910F900BBE0F900FBE0F901F9018958F
:1022C0001F920F920FB60F9211240BB60F922F93FD
:1022D0003F934F938F939F93AF93BF93EF93FF934E
:1022E0008091C8008C7171F08091C80088230CF037
:1022F00036C0AEECB0E0E8ECF0E08C918081882351
:10230000E4F32DC04091CE000FB6F8940F92E7E3AE
:10231000F9E0218132810F900FBE838594852817C3
:102320003907E9F0E8E3F9E0A281B3814C938281B7
:102330009381019693838283208531858217930749
:1023400021F486819781938382830FB6F8940F924C
:10235000808191810196918380830F900FBEFF91C0
:10236000EF91BF91AF919F918F914F913F912F919D
:102370000F900BBE0F900FBE0F901F9018951F92DD
:102380000F920FB60F9211240BB60F922F938F93CB
:102390009F93AF93BF93EF93FF930FB6F8940F9271
:1023A00080914409909145090F900FBE892B31F41B
:1023B000E9ECF0E080818F7D80831CC0E4E4F9E0EB
:1023C000A481B5812D91B583A48380859185A817BB
:1023D000B90721F486819781958384830FB6F89499
:1023E0000F92808191810197918380830F900FBE1E
:1023F0002093CE00FF91EF91BF91AF919F918F916C
:102400002F910F900BBE0F900FBE0F901F9018953D
:102410001F920F920FB60F9211240BB60F922F93AB
:102420003F934F938F939F93AF93BF93EF93FF93FC
:102430008091D0008C7171F08091D00088230CF0D5
:1024400036C0A6EDB0E0E0EDF0E08C91808188230D
:10245000E4F32DC04091D6000FB6F8940F92E3EF4D
:10246000F7E0218132810F900FBE83859485281774
:102470003907E9F0E4EFF7E0A281B3814C93828160
:1024800093810196938382832085318582179307F8
:1024900021F486819781938382830FB6F8940F92FB
:1024A000808191810196918380830F900FBEFF916F
:1024B000EF91BF91AF919F918F914F913F912F914C
:1024C0000F900BBE0F900FBE0F901F9018951F928C
:1024D0000F920FB60F9211240BB60F922F938F937A
:1024E0009F93AF93BF93EF93FF930FB6F8940F9220
:1024F00080910008909101080F900FBE892B31F454
:10250000E1EDF0E080818F7D80831CC0E0E0F8E0A9
:10251000A481B5812D91B583A48380859185A81769
:10252000B90721F486819781958384830FB6F89447
:102530000F92808191810197918380830F900FBECC
:102540002093D600FF91EF91BF91AF919F918F9112
:102550002F910F900BBE0F900FBE0F901F901895EC
:102560001F920F920FB60F9211240BB60F922F935A
:102570003F934F935F936F937F938F939F93AF930B
:10258000BF93CF93EF93FF93809130018C7171F0E3
:102590008091300188230CF057C0A6E3B1E0E0E35E
:1025A000F1E08C9180818823E4F34EC0C091360124
:1025B0008091250B81111DC081E0809377090E94D5
:1025C000D3241092850010928400E0911508F0E069
:1025D000E85CF74FC083809115088F5F80931508E2
:1025E000809115088F3F19F481E08093F1070E94D4
:1025F000C8240FB6F8940F92E6E1F8E02181328109
:102600000F900FBE8385948528173907E9F0E7E11D
:10261000F8E0A281B381CC93828193810196938368
:102620008283208531858217930721F486819781E3
:10263000938382830FB6F8940F92808191810196E3
:10264000918380830F900FBEFF91EF91CF91BF9147
:10265000AF919F918F917F916F915F914F913F913A
:102660002F910F900BBE0F900FBE0F901F901895DB
:102670001F920F920FB60F9211240BB60F922F9349
:102680008F939F93AF93BF93EF93FF930FB6F894FD
:102690000F9280912308909124080F900FBE892BF0
:1026A00031F4E1E3F1E080818F7D80831CC0E3E2BF
:1026B000F8E0A481B5812D91B583A48380859185AF
:1026C000A817B90721F486819781958384830FB673
:1026D000F8940F92808191810197918380830F906C
:1026E0000FBE20933601FF91EF91BF91AF919F9163
:1026F0008F912F910F900BBE0F900FBE0F901F90D8
:1027000018950F93813071F018F08230A9F026C02F
:1027100084B1876084B9239885B1896085B9249A8A
:102720002C9A23C084B1876084B9239885B18960CD
:1027300085B99D9AA59A19C084B1876084B92398F8
:1027400085B1896085B9E1E0F1E0808180628083B4
:10275000E2E0F1E080818062808307C084B187601D
:1027600084B9239885B1896085B98CB580658CBDA5
:102770008DB58EB58091F0069091F106892B89F484
:1027800081E00E94750A9093F1068093F00600970D
:1027900041F000E020E030E0A90160E070E00E943C
:1027A000D1090F9108959CB59C7F282F2370922BFF
:1027B0009CBD9DB582FB882780F99E7F892B8DBDAE
:1027C0000895811104C08CB580628CBD08958CB5CC
:1027D0008F7D8CBD08959CB5937F892B8CBD08950A
:1027E000CF93C82F48EE53E060E070E08091F00690
:1027F0009091F1060E948F0B8130B1F4C13039F015
:1028000018F0C23039F00DC02C9881E00EC0A598A8
:1028100081E00BC0E2E0F1E080818F7D808381E088
:1028200004C0289881E001C080E0CF9108950F9303
:10283000813031F018F0823029F00AC02C9A09C09A
:10284000A59A07C0E2E0F1E080818062808301C048
:10285000289A00E020E030E0A90160E070E080917B
:10286000F0069091F1060E94D1090F910895282F4A
:102870009CB5892F807496FF17C00CB404FC08C067
:102880008CB580618CBD9CB5892F807194FF0CC084
:102890002EBD000005C09CB5892F807194FF04C037
:1028A0000DB407FEF8CF8EB50895E0912807F0919A
:1028B0002907808181110CC08FEF9FEFDC0180938D
:1028C000F5069093F606A093F706B093F8060895E0
:1028D000E0912807F09129070780F085E02D00841A
:1028E000F185E02D82819381A481B5818093F506E5
:1028F0009093F606A093F706B093F80608958F928A
:102900009F92AF92BF92CF92DF92EF92FF92CF93BE
:102910006B017C01C42F8090FF0690900007A0906F
:102920000107B090020780916C0790916D070296A5
:102930000E9475088FEFC816D806E806F80669F4F5
:10294000CC2359F060916C0770916D076E5F7F4FDB
:1029500084E097E00E9417083FC0C80CD91CEA1C0D
:10296000FB1CE0916C07F0916D07C282D382E48278
:10297000F582C814D904EA04FB0468F460916C077A
:1029800070916D0780912607909127076E5F7F4FAA
:102990000E94380821C060916C0770916D0780918A
:1029A0002807909129076E5F7F4F0E943808809119
:1029B000F5069091F606A091F706B091F806C816B4
:1029C000D906EA06FB0640F4C092F506D092F60658
:1029D000E092F706F092F806CF91FF90EF90DF902B
:1029E000CF90BF90AF909F908F9008954F925F923D
:1029F0006F927F928F929F92AF92BF92CF92DF920F
:102A0000EF92FF920F93CF93DF934C016B015A012A
:102A10002901CA010E94C3053C01892B09F4ECC0BD
:102A200083E390E00E94C305EC01892BB1F07C8E1A
:102A30006B8EA50165EA70E0C3010E94285A21E06F
:102A4000A21AB1088B8D9C8DA80EB91ED6018C914F
:102A50008D8F8C91811105C018C0C3010E94D505CE
:102A6000CBC0AE01425E5F4FF6013196BFE0CB0EA8
:102A7000D11CCF012191DA012D93AD01DC018C91A4
:102A8000882319F0EC15FD05A1F71BA6043008F00A
:102A900003E00A8F0CA71DA66E01B2E0CB0ED11C7D
:102AA000C6010E941308CE010E960E941308DB8710
:102AB000CA8784E090E0A0E0B0E0801B9109A10902
:102AC000B1098E879F87A88BB98BDF8BCE8B1EA613
:102AD0001FA618AA19AA1AAAA201B401C5010E9428
:102AE000E40599838883E114F10419F0F701D18397
:102AF000C0830FB6F8940F92809103078F5F809385
:102B0000030780916C0790916D07892BD1F5D093C5
:102B10006D07C0936C0780910307813009F041C0B5
:102B200080E497E00E9402088BE497E00E9402088C
:102B300086E597E00E94020881E697E00E9402087D
:102B400085E397E00E9402088AE297E00E9402086B
:102B50008BE197E00E94020880E197E00E94020862
:102B600084E097E00E94020885E397E090932907AC
:102B7000809328078AE297E090932707809326079F
:102B800010C08091FD0681110CC0E0916C07F0919E
:102B90006D07928D8A8D891720F0D0936D07C093B1
:102BA0006C078091F9068F5F8093F9068A8D90916A
:102BB000FE06981710F48093FE06FBE08F9FC0017D
:102BC0001124B601805C984F0E9417080F900FBE29
:102BD0008091FD06882361F0E0916C07F0916D070C
:102BE000928D8A8D981730F40E94A80681E005C066
:102BF00081E003C081E001C08FEFDF91CF910F91A1
:102C0000FF90EF90DF90CF90BF90AF909F908F900C
:102C10007F906F905F904F9008950F931F93CF9385
:102C2000DF93009709F43DC020916C0730916D0748
:102C30008217930709F435C00FB6F8940F92FC0180
:102C4000248535852450374051F5FC01208D318D88
:102C5000F7E02B313F0719F1232B09F5EC018C012B
:102C60000E5F1F4FC8010E9475088A8D9091FE0665
:102C7000981710F48093FE062BE0829FC001112468
:102C8000B801805C984F0E941708E0916C07F091A2
:102C90006D079A8D828D981710F00E94A8060F90EC
:102CA0000FBEDF91CF911F910F910895EF92FF9288
:102CB0000F930F2EF3EFEF2EF6E0FF2EF02D00E036
:102CC00020E030E040E850E066E172E088E395E023
:102CD0008DDE8130E1F4CED48130C9F4F8948FEFE9
:102CE0009FEFDC018093F5069093F606A093F7061C
:102CF000B093F80681E08093FD061092FF061092D3
:102D0000000710920107109202070E9456060F91C9
:102D1000FF90EF9008958091F2068F5F8093F20606
:102D200008950FB6F8940F926091FF067091000716
:102D300080910107909102070F900FBE08959F9216
:102D4000AF92BF92CF92DF92EF92FF920F931F93B9
:102D5000CF93DF938091F2068111ADC0C090FF0642
:102D6000D0900007E0900107F09002078FEFC81A9B
:102D7000D80AE80AF80AC092FF06D0920007E0924B
:102D80000107F0920207C114D104E104F104B1F487
:102D900080912807909129072091260730912707D5
:102DA00030932907209328079093270780932607BD
:102DB0008091FA068F5F8093FA0677DD8091F506A1
:102DC0009091F606A091F706B091F806C816D906BC
:102DD000EA06FB0610F4B12C5DC0B12C0F2EFBE00F
:102DE000AF2EF02D99249394E0912807F0912907B4
:102DF000808181110CC08FEF9FEFDC018093F5067D
:102E00009093F606A093F706B093F80643C0E091BE
:102E10002807F09129070780F085E02DC085D1852E
:102E20008A819B81AC81BD81C816D906EA06FB0662
:102E300048F48093F5069093F606A093F706B093B6
:102E4000F80628C08E010E5F1F4FC8010E9475084A
:102E5000888D998D892B21F0CE010E960E947508E0
:102E60008A8D9091FE06981710F48093FE06A89E16
:102E7000C0011124B801805C984F0E941708E091AE
:102E80006C07F0916D079A8D828D981708F4ACCF7E
:102E9000B92CAACFE0916C07F0916D07E28D8BE021
:102EA000E89FF0011124E05CF84F8081823048F007
:102EB000BB24B39406C08091FC068F5F8093FC0610
:102EC000B12C8091FB06882311F0BB24B3948B2D89
:102ED000DF91CF911F910F91FF90EF90DF90CF90F6
:102EE000BF90AF909F900895CF92DF92EF92FF92A4
:102EF0000F931F93CF93DF930FB6F8940F928091A7
:102F0000F20681508093F2068091F20681115AC038
:102F10008091030781112CC058C0D7011796ED91FD
:102F2000FC911897C085D185CE010E960E94750838
:102F30008E010E5F1F4FC8010E9475088A8D909107
:102F4000FE06981710F48093FE06D89EC001112447
:102F5000B801805C984F0E941708E0916C07F091CF
:102F60006D079A8D828D981788F0C092FB060EC06F
:102F7000C0E0D0E00F2EFBE1EF2EF7E0FF2EF02DAA
:102F80000F2EFBE0DF2EF02DCC24C394F7018081BF
:102F90008111C3CFCD2B09F088DCC091FC06CC2376
:102FA00049F0D1E0CCDE8111D093FB06C150D1F7BE
:102FB0001092FC068091FB06882331F00E94A8063F
:102FC00081E003C080E001C080E00F900FBEDF9180
:102FD000CF911F910F91FF90EF90DF90CF900895C8
:102FE000CF92DF92EF92FF926B017C01672B682BEF
:102FF000692B41F090DE40E0C701B60180DC74DF50
:10300000811102C00E94A806FF90EF90DF90CF9040
:1030100008958091F206882321F081E08093FB06D9
:1030200008951092FB06A0916C07B0916D07E09196
:103030006C07F0916D072D913C91838D948D8217D3
:10304000930760F060916C0770916D0780916C0739
:1030500090916D07635E7F4F0E94FD078091FE0691
:10306000282F30E09BE0899FF0011124E05CF84FAD
:10307000908191110EC04BE08150282F30E0429F8B
:10308000F001439FF00D1124E05CF84F90819923EB
:1030900099F39BE0929FA001939F500D1124DA01B8
:1030A000A05CB84F1196ED91FC9112970480F581C8
:1030B000E02D1296FC93EE9311974D5B584FE41759
:1030C000F50729F444815581FD01528341839BE03A
:1030D000929FF001939FF00D1124E05CF84F018066
:1030E000F281E02D2085318530936D0720936C07A8
:1030F0008093FE0608950F931F93CF93DF93EC0107
:103100000FB6F8940F92892B21F4C0916C07D091DF
:103110006D078E010E5F1F4FC8010E947508888DD4
:10312000998D892B21F0CE010E960E947508B80169
:1031300084E097E00E9417088AA9813009F41AAA4E
:103140000F900FBE8091FD06882331F00FB6F894E2
:103150000F92ABDB0F900FBE80916C0790916D07C3
:10316000C817D90799F48091FD06882319F00E94A9
:10317000A8060CC09091040780910307981305C01E
:1031800010926D0710926C0701C043DFDF91CF9161
:103190001F910F910895CF92DF92EF92FF926A01F3
:1031A0007B0160916C0770916D07625F7F4F0E9499
:1031B000380841E0C701B601A2DBFF90EF90DF9035
:1031C000CF900895CF92DF92EF92FF92CF936A0152
:1031D0007B01C22F60916C0770916D07625F7F4F1A
:1031E0000E941708CC2321F0CC24CA94DC2C760151
:1031F0004C2FC701B60183DBCF91FF90EF90DF909A
:10320000CF9008950F931F93CF93DF93DC01179610
:10321000ED91FC911897C085D1858E01025F1F4FFB
:10322000C8010E9475088091F206811116C00C50E9
:103230001109C8010E9475088A8D9091FE069817A1
:1032400010F48093FE06BBE08B9FC0011124B801EF
:10325000805C984F0E94170805C0B8018BE197E089
:103260000E941708E0916C07F0916D079A8D828D8E
:10327000891720F481E08093FB0601C080E0DF9194
:10328000CF911F910F9108952091FA06FC012083A0
:103290004091FF065091000760910107709102076D
:1032A00041835283638374830895CF92DF92EF92B8
:1032B000FF920F931F93CF93DF93FB010FB6F89408
:1032C0000F924091FF0650910007609101077091A5
:1032D000020700811181228133810F3FAFEF1A076E
:1032E0002A073A0749F1EC01C980DA80EB80FC80BB
:1032F000A091FA06B881BA1729F04C155D056E0544
:103300007F05E0F44C195D096E097F0940175107EC
:103310006207730758F4041B150B260B370B008349
:10332000118322833383B0DF80E009C010821182D1
:103330001282138281E003C080E001C081E00F901F
:103340000FBEDF91CF911F910F91FF90EF90DF9013
:10335000CF90089581E08093FB0608958091FD064B
:10336000882331F08091F206882321F080E00895CF
:1033700081E0089582E008950F931F93CF93DF9328
:10338000FC01892B09F460C0828DA0916C07B0917B
:103390006D075A969C91891708F04AC04685578553
:1033A00060897189772394F0A0916C07B0916D07C3
:1033B0005A969C9144E050E060E070E0491B51094E
:1033C0006109710946875787608B718B2BE0829F5B
:1033D000C0011124805C984F248535852817390752
:1033E000F1F48F01EF012296CE010E947508E09161
:1033F0006C07F0916D07828DF801828F9091FE0627
:10340000981710F48093FE06FBE08F9FC0011124F3
:10341000BE01805C984F0E94170881E016C0A09101
:103420006C07B0916D075A968C91828F81E00DC028
:10343000A0916C07B0916D0781E024A55A969C91EC
:10344000291718F080E001C080E0DF91CF911F9133
:103450000F9108950F931F93CF93DF93FC01892B56
:1034600079F185A5815085A7228D94A5291751F161
:1034700081112AC0EF018F010E5F1F4FC8010E940A
:1034800075088CA58A8F44E050E060E070E0481B2E
:103490005109610971094E875F87688B798B90911B
:1034A000FE06981710F48093FE062BE0829FC00161
:1034B0001124B801805C984F0E94170881E005C074
:1034C00080E003C080E001C080E0DF91CF911F91D8
:1034D0000F9108950F931F93CF93DF93FC01892BD6
:1034E00009F43FC084A5861708F4862F928D98179B
:1034F000C1F125A52130A9F5828F468557856089C0
:103500007189772364F044E050E060E070E0481B8C
:1035100051096109710946875787608B718B2BE0D0
:10352000929FC0011124805C984F2485358528170F
:103530003907B9F4EF018F010E5F1F4FC8010E94D8
:1035400075088A8D9091FE06981710F48093FE06F8
:103550002BE0829FC0011124B801805C984F0E942B
:103560001708DF91CF911F910F91089580916C07FB
:1035700090916D07892B39F0E0916C07F0916D0700
:1035800085A58F5F85A780916C0790916D07089541
:10359000CF92DF92EF92FF920F931F93FC01428331
:1035A00053836483758393878287041715072607DF
:1035B0003707C0F00C191D092E093F09868597852C
:1035C000A089B189081719072A073B0700F5BF0131
:1035D0006E5F7F4F80917607909177070E94380841
:1035E00080E018C00C151D052E053F0528F44C156C
:1035F0005D056E057F0568F4BF016E5F7F4F8091AA
:103600007807909179070E94380880E003C081E034
:1036100001C081E01F910F91FF90EF90DF90CF905C
:1036200008950FB6F8940F928091740790917507E2
:10363000892BE9F485E897E00E9402088AE797E081
:103640000E94020885E897E09093790780937807B5
:103650008AE797E0909377078093760740E067E0EA
:103660008AE00E94A70990937507809374070F90D2
:103670000FBE0895EF92FF920F93D3DF80917407EE
:1036800090917507892B89F00F2EF2E7EF2EF7E066
:10369000FF2EF02D03E020E030E040E850E06BE149
:1036A00072E085E89CE1A2D901C080E00F91FF9013
:1036B000EF9008957F928F929F92AF92BF92CF9298
:1036C000DF92EF92FF920F931F93CF93DF936C01E2
:1036D0004A015B01722E87E190E00E94C305EC0174
:1036E000892B81F09EDFD982C8828E869F86A88A28
:1036F000B98A7A8A1C8B0B8BFE8AED8ACE010296E0
:103700000E941308CE01DF91CF911F910F91FF907E
:10371000EF90DF90CF90BF90AF909F908F907F9071
:1037200008958F929F92AF92BF92CF92DF92EF92C5
:10373000FF920F931F93CF93DF93CDB7DEB72797F9
:103740000FB6F894DEBF0FBECDBFE0917407F091C5
:103750007507309781F169832A833B834C835D83AE
:103760009F838E836630F4F4F9DD823069F400E0E3
:10377000A7019601BE016F5F7F4F80917407909102
:1037800075070E94D10918C000E020E030E0A901CF
:10379000BE016F5F7F4F80917407909175070E9403
:1037A000D1090AC020E0A801BE016F5F7F4FCF01A1
:1037B0000E94900A01C080E027960FB6F894DEBF01
:1037C0000FBECDBFDF91CF911F910F91FF90EF9072
:1037D000DF90CF90BF90AF909F908F9008952F92E1
:1037E0003F924F925F926F927F928F929F92AF9291
:1037F000BF92CF92DF92EF92FF920F931F93CF93DE
:10380000DF931C018EDA2B013C0180916E079091B1
:103810006F07A0917007B0917107481659066A06A4
:103820007B0608F053C03BC00780F085E02D808008
:103830009180A280B380C085D1858E010E5F1F4F1D
:10384000C8010E947508ED89FE89CE0119958A8903
:10385000813029F58E859F85A889B989880D991DA4
:10386000AA1DBB1D88169906AA06BB0670F48A839A
:103870009B83AC83BD83DB87CA87B80180917807BF
:10388000909179070E9438080AC0C12CD12C76018A
:1038900000E010E0A501940160E0CE0142DFE0917C
:1038A0007807F091790780818111BECF80917607EA
:1038B000909177079093790780937807F093770733
:1038C000E093760781E0F101808302C0F10110826C
:1038D00040926E0750926F07609270077092710766
:1038E000C301B201DF91CF911F910F91FF90EF9033
:1038F000DF90CF90BF90AF909F908F907F906F9010
:103900005F904F903F902F900895CF93DF93CDB766
:10391000DEB760970FB6F894DEBF0FBECDBFCE0105
:1039200001969A878987812C912CA12CB12C6984CE
:103930007A84E0917807F09179078081882309F4EF
:10394000F2C00780F085E02D2080318042805380D6
:10395000E2D9CE01019643DF6B877C878D879E87F6
:10396000898181115DC08B859C85AD85BE85821561
:103970009305A405B50508F43CC0B6DAE0917807D4
:10398000F09179070780F085E02DA085B185B88B8F
:10399000AF87CD0102960E947508EF85F88982896C
:1039A0008130F1F44685578560897189420D531D38
:1039B000641D751D720161010B851C852D853E8579
:1039C000CF01E6DD882361F0C82CD92CEA2CFB2C32
:1039D00000E010E0A201910160E08F859889A1DEEE
:1039E000AF85B8895596ED91FC915697CD01199503
:1039F0008BC020E0B201A1018B859C85AD85BE8581
:103A0000481B590B6A0B7B0B8091740790917507CB
:103A10000E94610C69DA811177C00E94A80674C007
:103A200063DA72C0898188230CF46EC04E805F8097
:103A3000D2011C968D919C911D97892B21F0C2017A
:103A400002960E947508CE010896C9DE8B019C0182
:103A50008981082E000C990BAA0BBB0B8A309105AB
:103A600008F052C0FC018827EE56FF4F8F4F0C9490
:103A70000458CA80DB80EC80FD80F20146855785C2
:103A8000608971894C0D5D1D6E1D7F1DC20180DD39
:103A90008823D1F1D2015596ED91FC915697C20140
:103AA0001995F2018289813079F54A815B816C81B7
:103AB0007D8186859785A089B1899A01AB01280F00
:103AC000391F4A1F5B1FC82CD92CEA2CFB2C00E0A5
:103AD00010E060E0C20125DE17C04A815B816C8185
:103AE0007D81D2011E964D935D936D937C9351978A
:103AF000400F511F621F731F68017901C20148DD29
:103B000003C0C2010E94D505282D392D4A2D5B2DF9
:103B1000662D772D80917407909175070E94F20AA7
:103B2000811180CF06CFF7D8CE01019658DE6B8782
:103B30007C878D879E878981811172CFE09176077E
:103B4000F0917707808121E0811120E0282C392C29
:103B50004A2C5B2C4FCFFC010FB6F8940F9281E0FA
:103B600024853585232B09F480E00F900FBE08953E
:103B70000FB6F8940F92FC01838994890F900FBEC1
:103B80000895C8E7D9E008ED19E00F2EFEE3CF2E27
:103B9000F2E0DF2EF02D0F2EF6E1EF2EF8E0FF2EF3
:103BA000F02D0F2EF6E28F2EFAE09F2EF02D33240B
:103BB00033940F2EF3E2AF2EF2E0BF2EF02DA89536
:103BC0008F8D813009F0D1C080919107813091F4BF
:103BD000BE01C8010E947E32F80131861092910721
:103BE000BF92AF92FF92EF920E94340D0F900F9010
:103BF0000F900F90F801818581114AC092D84090B2
:103C0000590950905A0960905B0970905C099B01BA
:103C1000AC01241935094609570929013A012AA19D
:103C200030E0A0E6BAEE0E940C58641575058605D2
:103C3000970548F56AA57BA5072E000C880B990B04
:103C40000E94CA529B01AC01F401608171818281A2
:103C500093810E942B528823B4F4809191078111A3
:103C600012C0BE01C8010E947E32F801318623E3F2
:103C700032E03F932F93FF92EF920E94340D0F900A
:103C80000F900F900F90F8018185882309F46DC083
:103C900048D84090590950905A0960905B0970903B
:103CA0005C099B01AC012419350946095709290112
:103CB0003A0129A130E0A0E6BAEE0E940C58641542
:103CC000750586059705F8F4F80182858823D9F0F3
:103CD000BE01C8010E949932F8011186128621D8CE
:103CE0006093590970935A0980935B0990935C091A
:103CF000DF92CF92FF92EF920E94340D0F900F90BF
:103D00000F900F9032C0F8018185882371F16CA566
:103D10007DA5072E000C880B990B0E94CA529B01AF
:103D2000AC01F80162A973A984A995A90E947A53EC
:103D30001816DCF4BE01C8010E949932F801118600
:103D400012860E9491166093590970935A098093C4
:103D50005B0990935C09DF92CF92FF92EF920E94F1
:103D6000340D0F900F900F900F9060ED77E080E092
:103D700090E036D924CFC8E7D9E00F2EF0EC8F2E93
:103D8000F9E09F2EF02D0F2EFEEC6F2EFAE07F2E25
:103D9000F02D0F2EF2EDCF2EFAE0DF2EF02D0F2EAC
:103DA000F6E5EF2EF2E0FF2EF02D06E118E05524A7
:103DB00053940F2EF8E4AF2EF2E0BF2EF02DA8950D
:103DC00080919F079091A00796D90FB6F8940F9213
:103DD00082E69AE00E94B54A0F900FBE80919F073D
:103DE0009091A0070E940D168CA18130A9F48091BA
:103DF000680A81113AC08091620A811174C05092A0
:103E0000680ABF92AF921F930F930E94340D0F90D8
:103E10000F900F900F9024C0811122C08091680AEA
:103E2000882309F460C0E2E6FAE01682D6011D920A
:103E30001C9210921E0B10921D0B118AFF92EF9292
:103E40001F930F930E94340D82E69AE00E94664F02
:103E500082E69AE00E9407360F900F900F900F9025
:103E60008091680A882309F43EC08091730A8330E8
:103E7000D0F5BE0182E69AE0FFD290931E0B8093AC
:103E80001D0BBE0182E69AE00E940F378091630A03
:103E9000882349F10E949116209195073091960749
:103EA0004091970750919807DC01CB01821B930B3F
:103EB000A40BB50B81319742A105B105A0F0D40147
:103EC0006D917C9182E69AE00E94B54FF301918357
:103ED00080830E9491166093950770939607809354
:103EE00097079093980768EE73E080E090E078D8A9
:103EF00066CFC8E7D9E0772473940F2EF4E48F2EB1
:103F0000FAE09F2EF02D0F2EF8E4CF2EFAE0DF2EF0
:103F1000F02D0F2EF3E7EF2EF2E0FF2EF02D06E14D
:103F200018E00F2EF5E6AF2EF2E0BF2EF02DA8958B
:103F300080919D0790919E07DED80FB6F8940F925E
:103F400088ED99E00E94B54A0F900FBE88A182309B
:103F500061F480919D0790919E070E940D1610922A
:103F60002E0B88A1813069F406C0813051F4809114
:103F70002E0B811106C070922E0B82E69AE00E94F1
:103F800007368CA18130F9F48091DE09811146C099
:103F90008091D809811188C07092DE090E94911623
:103FA0006093590970935A0980935B0990935C0957
:103FB000BF92AF921F930F930E94340D0F900F90FA
:103FC0000F900F9026C0811124C08091DE098823B4
:103FD00009F46AC0E8EDF9E0168282B112B8D601A0
:103FE0001D921C921092EB0A1092EA0A118AFF921B
:103FF000EF921F930F930E94340D88ED99E00E9479
:10400000664F88ED99E00E9407360F900F900F9051
:104010000F908091DE09882309F446C08091E90958
:10402000833008F041C080910A0B81110AC0BE01A3
:1040300088ED99E021D29093EB0A8093EA0A19D295
:1040400002C010920A0BBE0188ED99E00E940F3762
:104050008091D909882341F10E94911620919907F6
:1040600030919A0740919B0750919C07DC01CB014E
:10407000821B930BA40BB50B81319742A105B105AF
:1040800098F06AA97BA988ED99E00E94B54FD40108
:104090008D939C930E9491166093990770939A0751
:1040A00080939B0790939C0768EE73E080E090E01C
:1040B0000E94F0173CCF4FEF5FEFBA0180910B0BDE
:1040C00090910C0B0E948F0B8130A9F7D9D780916A
:1040D000250B882349F08FEC97E00E945F0D10922A
:1040E000250B10921508E7CF80917709882319F3E3
:1040F00086E198E00E945F0D1092770910921508F2
:10410000DACFCDB7DEB7A297DEBFCDBF0E945C3C51
:1041100093D159D481E090E090934B0A80934A0A5E
:1041200082E090E09093D50A8093D40A80E090E0FA
:104130000E949405609373097093740980937509C4
:1041400090937609EE24EA94F12C0FEF10E020E82A
:1041500035E240E050E060E0CE0101960E94530E4F
:1041600082E2FE013196AFECB7E001900D928A95A4
:10417000E1F720E835E240E050E066E0CE0101964C
:104180000E94530E82E2FE013196A6E1B8E0019052
:104190000D928A95E1F743E060E081E00E94A70973
:1041A00090930C0B80930B0B009741F000E020E004
:1041B00030E0A90160E070E00E94D10940E650E0E3
:1041C00060E070E088E799E00E940C5B88ED99E080
:1041D0000E94933082E69AE00E94933088ED99E045
:1041E0000E94F04E82E69AE00E94F04E81E08093B9
:1041F0000A0B8091AA099091AB099093F10A8093E0
:10420000F00A8091C0099091C1099093610A80934E
:10421000600A88E799E00E9483338093720A809352
:10422000E80999E288E10FB6F894A89580936000B8
:104230000FBE909360007894E12CF12C02E020E016
:1042400030E040E051E062E872E08BE590E20E94ED
:10425000F6140F2EFFE9EF2EF7E0FF2EF02D00E011
:1042600020E030E040E052E069E872E089E79FE159
:104270000E94F6140F2EFDE9EF2EF7E0FF2EF02D31
:1042800020E030E040E052E062E972E08BEB9EE13A
:104290000E94F614E12CF12C20E030E040E051E0E7
:1042A0006BE972E081EC9DE10E94F6140E945616C3
:1042B00080E090E0A2960FB6F894DEBF0FBECDBFAF
:1042C00008951F920F920FB60F9211240BB60F9202
:1042D0002F933F934F935F936F937F938F939F930E
:1042E000AF93BF93EF93FF93109290078091210BB0
:1042F0009091220BA091230BB091240B0196A11D4C
:10430000B11D8093210B9093220BA093230BB093AC
:10431000240B8091210B9091220BA091230BB09143
:10432000240B0797A105B10589F43DD31092210B09
:104330001092220B1092230B1092240B60E977E06D
:1043400080910B0B90910C0B0E94C90AFF91EF9189
:10435000BF91AF919F918F917F916F915F914F919D
:104360003F912F910F900BBE0F900FBE0F901F909B
:1043700018951F93CF93DF93C82F0FB6F8940F9221
:1043800084E00E94F0138C2F0E94371480E00E947A
:104390003714182F80E00E943714C82F80E00E9445
:1043A0003714D82F84E00E9417140F900FBE8C2F63
:1043B00090E0A0E0B0E0BA2FA92F982F8827A12B7A
:1043C000BC01CD016D2BDF91CF911F910895CF934B
:1043D000DF93D82FC62F0FB6F8940F9284E00E9477
:1043E000F0138D2F80680E9437148C2F0E94371491
:1043F00084E00E9417140F900FBEDF91CF910895B3
:10440000682F83E1E4CF0895682F85E1E0CF089518
:10441000682F87E1DCCF0895CF93DF93D62FC42F89
:10442000682F82E4D4DF6D2F83E4D1DF6C2F84E426
:10443000CEDFDF91CF91089588E00E94EB1386E0F4
:104440000E94D31381E00E94E11384E00E94811353
:1044500080E0DEDF60E083E2BADF42E062E082E03B
:10446000DBDF84E0CDDF80E1CFCF089589E181CF2C
:1044700008958AE17ECF08954F925F926F927F9266
:104480008F929F92AF92BF92CF92DF92EF92FF9264
:104490000F931F93CF93DF9300D000D0CDB7DEB73B
:1044A0009E838D838B0120E030E048EC52ECDC01F0
:1044B00052966D917D918D919C9155970E942B52B2
:1044C000882344F4ED81FE81EE58FF4F8081918175
:1044D0000A9647C2AD81BE815696CD90DD90ED9093
:1044E000FC90599720E030E048EC52ECC701B6014F
:1044F0000E942B52882344F4ED81FE81EE58FF4F39
:104500008081918144962DC2AD81BE819A964D9055
:104510005D906D907C909D9720E030E048EC52ECEF
:10452000C301B2010E942B52882344F4ED81FE8125
:10453000EE58FF4F808191814E9613C2AD81BE81AE
:104540009E968D909D90AD90BC90D19720E030E0EC
:1045500048EC52ECC501B4010E942B52882344F46C
:10456000ED81FE81EE58FF4F808191818896F9C1DF
:1045700020E030E048EC52ECAD81BE81D2966D91E6
:104580007D918D919C91D5970E942B52882344F464
:10459000ED81FE81EE58FF4F80819181C296E1C18D
:1045A00020E030E048EC52ECAD81BE81D6966D91B2
:1045B0007D918D919C91D9970E942B52882344F430
:1045C000ED81FE81EE58FF4F80819181CC96C9C16B
:1045D000AD81BE81DA968D919D910D90BC91A02DFB
:1045E00089839A83AB83BC8320E030E048EC52ECB3
:1045F000BC01CD010E942B5288234CF4ED81FE8139
:10460000EE58FF4F808191818A5B9F4FAAC120E0C5
:1046100030E048EC52ECED81FE81FE9660817181C4
:10462000828193810E942B52882354F48D819E8134
:104630008E589F4FDC018D919C91805B9F4F91C163
:1046400020E030E048EC52ECED81FE81EE5BFF4F64
:1046500060817181828193810E942B5288234CF466
:10466000ED81FE81EE58FF4F80819181865A9F4FE8
:1046700078C14A9B10C0AD81BE811F968C911F9757
:10468000813049F4FD01EE58FF4F808191810197FF
:1046900009F056C134C14B9B10C0ED81FE81878566
:1046A000813009F05BC1ED81FE81EE58FF4F8081C2
:1046B0009181029709F047C125C1659B11C0AD8169
:1046C000BE811F968C91813009F040C1ED81FE8141
:1046D000EE58FF4F80819181019709F039C115C1D2
:1046E000659B0EC0ED81FE818785813049F4ED81A7
:1046F000FE81EE58FF4F80819181029709F408C135
:10470000F801E45AFF4F2081318142815381AD810C
:10471000BE815E966D917D918D919C9191970E9445
:104720002B5288234CF4ED81FE81EE58FF4F80819F
:10473000918188589F4F15C1D80116966C9170E0F1
:1047400080E090E00E94CA529B01AC01ED81FE81A5
:10475000628D738D848D958D0E947A53181654F452
:104760008D819E818E589F4FDC018D919C91845745
:104770009F4FF7C0F801618570E080E090E00E94F3
:10478000CA529B01AC01C701B6010E947A531816A8
:1047900074F4AD81BE8112968C911297882339F002
:1047A000AE58BF4F8D919C9180569F4FDAC0F80153
:1047B000658570E080E090E00E94CA529B01AC01E8
:1047C000C701B6010E942B52882374F4AD81BE81CB
:1047D00013968C911397882339F0AE58BF4F8D9163
:1047E0009C9186559F4FBDC0F801668570E080E0C2
:1047F00090E00E94CA529B01AC0169817A818B8151
:104800009C810E947A5318160CF485C0A301920172
:10481000C501B4010E94C6510E9497529B017723A3
:1048200024F422273327261B370BC901D8015496BD
:104830002C9130E02817390764F4ED81FE818581E1
:104840008823D1F0EE58FF4F8081918186509F4F91
:1048500088C0D80153962C9130E08217930764F4F6
:10486000ED81FE818581882339F0EE58FF4F8081EC
:1048700091818C5F9E4F75C0F9DD71FD0EC0D8012E
:1048800099968C91813049F4ED81FE81EE58FF4F6D
:1048900080819181019709F441C0E8DD72FD0CC06F
:1048A000F80181A5813041F4ED81FE81EE58FF4F82
:1048B000808191810197A9F1D9DD73FD0DC0D801E7
:1048C00099968C91813041F4ED81FE81EE58FF4F35
:1048D00080819181019741F1C9DD83FD28C0F801F4
:1048E00081A5813039F58D819E818E589F4FDC01E5
:1048F0008D919C91019709F58DE291E032C085E69A
:1049000090E02FC086E690E02CC08FE690E029C0B2
:1049100080E790E026C08CED90E023C08FE091E02E
:1049200020C089E191E01DC083E291E01AC080E0DF
:1049300090E017C080E090E014C080E090E011C0EB
:104940004B99B1CE08C06599C1CECACE8CB1D8CE34
:104950006599CDCED5CE6599B9CEC2CE6599F6CF43
:10496000BFCE26960FB6F894DEBF0FBECDBFDF9147
:10497000CF911F910F91FF90EF90DF90CF90BF905C
:10498000AF909F908F907F906F905F904F90089521
:10499000EFE6F0E0808182608083E1E8F0E08081F2
:1049A000826080830895E1E8F0E080818E7F8083DB
:1049B0001092850010928400EFE6F0E080818D7FF8
:1049C0008083B19A089588E0809381008EE9809376
:1049D000890080E680938800E6CF0895CF93DF9327
:1049E000FA013A97E73D41E0F40708F011C2EB0104
:1049F000DC018827E456FF4F8F4F0C9404581B9618
:104A00006C91262F30E004C21F966C91262F30E067
:104A1000FFC11C966C91262F30E0FAC11E966C9156
:104A2000262F30E0F5C11D966C91262F30E0F0C1A5
:104A3000A259BF4F2D913C91EBC120E030E040E204
:104A400051E456966D917D918D919C9159970E945C
:104A5000C3530E9497529B01DBC120E030E040E24B
:104A600051E452966D917D918D919C9155970E9444
:104A7000C3530E9497529B01CBC120E030E040E23B
:104A800051E4D2966D917D918D919C91D5970E9424
:104A9000C3530E9497529B01BBC120E030E040E22B
:104AA00051E4D6966D917D918D919C91D9970E94FC
:104AB000C3530E9497529B01ABC1A059BF4F2D9188
:104AC0003C91A6C1AE5BBF4F20E030E040E251E434
:104AD0006D917D918D919C910E94C3530E9497523C
:104AE0009B0196C1DE9620E030E040E251E46D91FA
:104AF0007D918D919C910E94C3530E9497529B017E
:104B000087C1A65BBF4F20E030E040E251E46D91E9
:104B10007D918D919C910E94C3530E9497529B015D
:104B200077C1AA5BBF4F20E030E040E251E46D91D5
:104B30007D918D919C910E94C3530E9497529B013D
:104B400067C120E030E040E251E49E966D917D9196
:104B50008D919C91D1970E94C3530E9497529B01C3
:104B600057C120E030E040E251E49A966D917D918A
:104B70008D919C919D970E94C3530E9497529B01D7
:104B800047C120E030E040E251E45A966D917D91BA
:104B90008D919C915D970E94C3530E9497529B01F7
:104BA00037C120E030E040E251E45E966D917D91A6
:104BB0008D919C9191970E94C3530E9497529B01A3
:104BC00027C1DA966D917D918D919C91DD970E9420
:104BD00097529B011DC16881262F30E019C16B815E
:104BE000262F30E015C16981262F30E011C16A817E
:104BF000262F30E00DC16C81262F30E009C16C8575
:104C0000262F30E005C16D85262F30E001C1698572
:104C1000262F30E0FDC06A85262F30E0F9C06C8970
:104C2000262F30E0F5C06B89262F30E0F1C06E8969
:104C3000262F30E0EDC06D89262F30E0E9C06D8D64
:104C4000262F30E0E5C06E8D262F30E0E1C06C8D60
:104C5000262F30E0DDC06F8D262F30E0D9C06E8565
:104C6000262F30E0D5C06FA1262F30E0D1C06EA135
:104C7000262F30E0CDC06DA1262F30E0C9C06E8157
:104C8000262F30E0C5C06885262F30E0C1C06F8177
:104C9000262F30E0BDC0FB01E45AFF4F60817181D7
:104CA000828193810E9497529B01B2C06A89262F0C
:104CB00030E0AEC06989262F30E0AAC06889262F6F
:104CC00030E0A6C06F85262F30E0A2C0FB01EA5B72
:104CD000FF4F208131819CC06CA1262F30E098C00D
:104CE0006A8D262F30E094C06B8D262F30E090C067
:104CF000698D262F30E08CC02AA53BA589C069A10B
:104D0000262F30E085C02EA53FA582C02CA53DA54D
:104D10007FC02CAD3DAD7CC068A1262F30E078C0AF
:104D200068A5262F30E074C06D81262F30E070C05A
:104D30006B85262F30E06CC028A939A969C0688D21
:104D4000262F30E065C06F89262F30E061C069A54D
:104D5000262F30E05DC06AA1262F30E059C02EAD6D
:104D60003FAD56C0FB01EE5BFF4F2081318150C04B
:104D7000FB01EC5BFF4F208131814AC0FB01E05C0D
:104D8000FF4F2081318144C02AAD3BAD41C02CA9E9
:104D90003DA93EC02EA93FA93BC028AD39AD38C0C2
:104DA0002AA93BA935C0FB01EE5AFF4F2081318172
:104DB0002FC0FB01EA5AFF4F2081318129C0FB013E
:104DC000E85AFF4F2081318123C0FB01EC5AFF4F8D
:104DD000208131811DC0FB01E05BFF4F20813181CB
:104DE00017C0FB01E65BFF4F2081318111C0FB0141
:104DF000E45BFF4F208131810BC0FB01E25BFF4F81
:104E00002081318105C0FB01E85BFF4F20813181AA
:104E1000C901DF91CF910895CF93DF93DC01FB01AE
:104E20003A97E73D81E0F80708F0BBC08827ED58C6
:104E3000FD4F8F4F0C9404584C93B3C013964C9372
:104E4000B0C011964C93ADC012964C93AAC0149664
:104E50004C93A7C01C964C93A4C01D964C93A1C024
:104E600019964C939EC01A964C939BC054964C93A3
:104E700098C053964C9395C056964C9392C05596B5
:104E80004C938FC05D964C938CC05E964C9389C0BA
:104E90005C964C9386C05F964C9383C01E964C9351
:104EA00080C097964C937DC096964C937AC0959609
:104EB0004C9377C016964C9374C018964C9371C05F
:104EC00017964C936EC0ED01C45ADF4FBA0180E0D3
:104ED00090E00E94C852688379838A839B8361C073
:104EE00052964C935EC051964C935BC050964C9337
:104EF00058C01F964C9355C0AA5BBF4F4D935C930F
:104F000050C094964C934DC05A964C934AC05B96B1
:104F10004C9347C059964C9344C09B965C934E93D8
:104F20009A973FC091964C933CC09F965C934E934A
:104F30009E9737C09D965C934E939C9732C0DD96AA
:104F40005C934E93DC972DC090964C932AC0989614
:104F50004C9327C015964C9324C01B964C9321C0AC
:104F6000D1965C934E93D0971CC058964C9319C021
:104F700057964C9316C099964C9313C092964C93A7
:104F800010C0D3965C934E93D2970BC0A85BBF4FD3
:104F90004D935C9306C05F968C91813011F44093E1
:104FA0009107DF91CF910895882309F1AFEFA80F02
:104FB000B0E0119660E070E08FEF9FEFFB01E85CDE
:104FC000F74F2081822728E0AC0141705527969544
:104FD0008795452B21F031E0832730EA9327215034
:104FE00099F76F5F7F4F6A177B0741F702C08FEF1A
:104FF0009FEF9827892798270895EF92FF920F93A4
:105000001F93CF93DF93882371F18150082F10E015
:105010000F5F1F4FC0E0D0E00F2EF5E0EF2EFF2412
:10502000F394F02D8091250B882349F0FE01E85C74
:10503000F74F60818FEC97E00E94C50D10C0809102
:105040007709882361F0F701808184608083FE0105
:10505000E85CF74F608186E198E00E94C50D2196DB
:10506000C017D107F9F6E5E0F1E080818470808314
:105070000000DF91CF911F910F91FF90EF90089565
:10508000AF92BF92CF92DF92EF92FF920F931F9356
:10509000CF93DF938091250B882329F08FEC97E045
:1050A0000E94BC0D09C080917709882309F4DAC0F9
:1050B00086E198E00E94BC0D9091F1079111D7C054
:1050C0009FEF980F973008F4D2C090913808913034
:1050D00009F0CDC0282F30E0F901EA5CF74FD0810C
:1050E000F901E95CF74FC08182505EDF2C2F30E080
:1050F0003D2B2817390709F0BAC0E8E3F8E0218111
:105100002093F2078281C381D0E0D82B848145812E
:1051100050E0582B7A01EE0CFF1CCA01880F991F32
:10512000880F991F880F991FE80EF91EEC0EFD1EBF
:10513000233009F065C09E01ADECBCEC0E940C5818
:105140009695879596958795969587959C01220FBC
:10515000331F880F991F880F991F880F991F820F7F
:10516000931F9E01281B390B2130310551F022304D
:10517000310571F40F2EF2E6CF2EFAE0DF2EF02D7E
:1051800009C00F2EF8EDCF2EF9E0DF2EF02D02C072
:10519000C12CD12CA42EAA0C0F2EF5E0BF2EF02D81
:1051A000BA0CE8E3F8E081E0808383E08183A282A7
:1051B000CE15DF05A8F403E010E0AE0168E779E062
:1051C000C6010CDCF801E85CF74F9083F801E75C5E
:1051D000F74F80830E5F1F4F2A96CE15DF0568F3C9
:1051E00083E08A0DE1DE2B2D30E0F901EA5CF74F18
:1051F0009083F901E95CF74F80838B2DFEDE37C089
:10520000203109F034C0CE15DF05B0F407E010E01E
:10521000F801E85CF74F8081F801E75CF74F4081C7
:1052200050E0582BBE0188E799E0F6DD0E5F1F4F76
:105230002A96CE15DF0560F30FB6F8940F9240E67C
:1052400050E060E070E088E799E00E943D5B0F90DD
:105250000FBE86E0A9DEE8E3F8E09683878388E066
:10526000CCDE05C08091F107882309F42ECFDF91B1
:10527000CF911F910F91FF90EF90DF90CF90BF9053
:10528000AF9008958F929F92AF92BF92CF92DF928C
:10529000EF92FF920F931F93CF93DF930E94B81D5D
:1052A000EC0183EA92E09F938F9386E198E09F93CD
:1052B0008F930E94340D88810F900F900F900F9064
:1052C000843009F073C020917C0930E0A8EEB3E08F
:1052D0000E940C584B015C0120E1820E27E2921ED5
:1052E000A11CB11C84EB92E09F938F9386E198E020
:1052F0009F938F930E94340D0F900F900F900F90FB
:105300008091DB098823E1F08CEC92E09F938F93EE
:1053100086E198E09F938F930E94340D8091A009BD
:105320000F900F900F900F90813021F4A49810925D
:10533000E60906C0811104C0A49A81E08093E609C1
:105340008091DC09811104C08091DA098823D9F0A9
:1053500083EE92E09F938F9386E198E09F938F93E3
:105360000E94340D8091A0090F900F900F900F9024
:10537000811104C0A4981092E60905C0813019F487
:10538000A49A8093E6090F2EF4E6CF2ED12CE12CBF
:10539000F12CF02D00E010E0A501940164E0809173
:1053A000500A9091510A0E94911B6BC0813109F003
:1053B00068C020917B0930E0A8EEB3E00E940C5851
:1053C0004B015C018BEF92E09F938F9386E198E015
:1053D0009F938F930E94340D0F900F900F900F901A
:1053E0008091650A8823E1F083E193E09F938F9396
:1053F00086E198E09F938F930E94340D8091A009DD
:105400000F900F900F900F90813021F4A39810927D
:10541000700A06C0811104C0A39A81E08093E60956
:105420008091640A8823D9F08AE293E09F938F9356
:1054300086E198E09F938F930E94340D8091A0099C
:105440000F900F900F900F90811104C0A3981092AD
:10545000700A05C0813019F4A39A8093700A0F2E48
:10546000F4E6CF2ED12CE12CF12CF02D00E010E051
:10547000A501940164E08091520A9091530A0E9420
:10548000911BDF91CF911F910F91FF90EF90DF90D3
:10549000CF90BF90AF909F908F9008958F929F92E2
:1054A000AF92BF92CF92DF92EF92FF920F931F9332
:1054B0000E94B81DFC012091780930E0A8EEB3E00D
:1054C0000E940C584B015C018081823009F040C081
:1054D00081E493E09F938F9386E198E09F938F936D
:1054E0000E94340D809100010F900F900F900F904B
:1054F00083FD70C081E08093E409E2E0F1E0808107
:105500008860808383E799E00E9494056093EC0AA9
:105510007093ED0A8093EE0A9093EF0AEAEBF9E0BC
:10552000808191810196918380830F2EF4E6CF2EA6
:10553000D12CE12CF12CF02D00E010E0A50194011C
:1055400064E08091F60A9091F70A0E94911B42C094
:105550008F3009F03FC083E593E09F938F9386E1FE
:1055600098E09F938F930E94340D809100010F90DB
:105570000F900F900F9084FD2DC082E080936E0AF3
:10558000E2E0F1E080818061808383E799E00E941E
:1055900094056093000B7093010B8093020B909322
:1055A000030BEEECF9E08081918101969183808379
:1055B0000F2EF4E6CF2ED12CE12CF12CF02D00E0B3
:1055C00010E0A501940164E08091080B9091090B13
:1055D0000E94911B1F910F91FF90EF90DF90CF9051
:1055E000BF90AF909F908F9008958F929F92AF92AF
:1055F000BF92CF92DF92EF92FF920F931F93CF93C0
:10560000DF93AC0120917B0930E0A8EEB3E00E946B
:105610000C584B015C01CA010E94B81DEC01888145
:105620008D3029F585E693E09F938F9386E198E08E
:105630009F938F930E94340D0F900F900F900F90B7
:10564000949902C0A49A01C0A4980F2EF4E6CF2E1C
:10565000D12CE12CF12CF02D00E010E0A5019401FB
:1056600064E080916509909166090E94911B888190
:105670008931B9F4939902C0A39A01C0A3980F2E5F
:10568000F4E6CF2ED12CE12CF12CF02D00E010E02F
:10569000A501940164E08091E60A9091E70A0E94D6
:1056A000911BDF91CF911F910F91FF90EF90DF90B1
:1056B000CF90BF90AF909F908F9008958F929F92C0
:1056C000AF92BF92CF92DF92EF92FF920F931F9310
:1056D000AC012091790930E0A8EEB3E00E940C58AB
:1056E0004B015C01CA010E94B81DFC0180818A3017
:1056F00031F5949B11C0A49888E793E09F938F9312
:1057000086E198E09F938F930E94340D1092E609F2
:105710000F900F900F900F900F2EF4E6CF2ED12CFC
:10572000E12CF12CF02D00E010E0A501940164E0E3
:1057300080916F09909170090E94911B27C0873159
:1057400029F5939B11C089E893E09F938F9386E19D
:1057500098E09F938F930E94340DA3981092700A43
:105760000F900F900F900F900F2EF4E6CF2ED12CAC
:10577000E12CF12CF02D00E010E0A501940164E093
:105780008091D60A9091D70A0E94911B1F910F9188
:10579000FF90EF90DF90CF90BF90AF909F908F9051
:1057A00008950E94B81DFC0180818730A1F4E8EDC6
:1057B000F9E0118A81E085838AE993E09F938F93D2
:1057C00086E198E09F938F930E94340D0F900F9085
:1057D0000F900F900895843199F4E2E6FAE0118A6F
:1057E00081E085838FEA93E09F938F9386E198E031
:1057F0009F938F930E94340D0F900F900F900F90F6
:1058000008950E94B81DFC018081863091F481E0EA
:105810008093D90984EC93E09F938F9386E198E07D
:105820009F938F930E94340D0F900F900F900F90C5
:105830000895833189F481E08093630A86ED93E0D3
:105840009F938F9386E198E09F938F930E94340DEE
:105850000F900F900F900F9008958F929F92AF929C
:10586000BF92CF92DF92EF92FF920F931F932091FE
:105870007B0930E0A8EEB3E00E940C584B015C01BC
:1058800088EE93E09F938F9386E198E09F938F93A8
:105890000E94340D0F900F900F900F908091DC09B3
:1058A000882371F1809100018823E4F0E2E0F1E0C7
:1058B00080818068808381E08093E50983E799E0B7
:1058C0000E9494056093040B7093050B8093060B64
:1058D0009093070BEEEBF9E0808191810196918323
:1058E00080830EC088EF93E09F938F9386E198E0CA
:1058F0009F938F930E94340D0F900F900F900F90F5
:105900008091DA09811105C08091DB09882309F4AF
:105910004DC08091000188230CF048C0E2E0F1E026
:1059200080818F7780831092E509C090040BD0901E
:10593000050BE090060BF090070B83E799E00E94BF
:105940009405A70196010E948F05C090BD07D090D5
:10595000BE07E090BF07F090C007DC01CB018C0DC3
:105960009D1DAE1DBF1D8093BD079093BE07A093E4
:10597000BF07B093C00781319E40A105B105B0F0CB
:10598000E8E7F9E084AD95AD019695AF84AF40E6C8
:1059900050E060E070E0CF010E941C5B1092BD07F8
:1059A0001092BE071092BF071092C0070F2EF4E6A8
:1059B000CF2ED12CE12CF12CF02D00E010E0A50130
:1059C000940164E08091F40A9091F50A0E94911B81
:1059D0001F910F91FF90EF90DF90CF90BF90AF900D
:1059E0009F908F9008958F929F92AF92BF92CF9287
:1059F000DF92EF92FF920F931F930E94B81DFC015C
:105A00008081883009F076C020917C0930E0A8EED2
:105A1000B3E00E940C584B015C018091000183FFB0
:105A200056C0E2E0F1E08081877F808387E094E0E8
:105A30009F938F9386E198E09F938F930E94340DFC
:105A40001092E409C090EC0AD090ED0AE090EE0AC2
:105A5000F090EF0A83E799E00E949405A701960170
:105A60000E948F05C090B107D090B207E090B307B5
:105A7000F090B407DC01CB018C0D9D1DAE1DBF1D48
:105A80008093B1079093B207A093B307B093B40784
:105A90000F900F900F900F9081319E40A105B1059E
:105AA000B0F0E8E7F9E084A995A9019695AB84AB3D
:105AB00040E650E060E070E0CF010E941C5B109275
:105AC000B1071092B2071092B3071092B4070F2ECD
:105AD000F4E6CF2ED12CE12CF12CF02D00E010E0DB
