S01500006D656761323536305F52746F732E73726563A1
S11300006CC500008BC5000089C5000087C50000D1
S113001085C5000083C5000081C500007FC50000C0
S11300207DC500007BC5000079C5000077C50000D0
S113003075C5000073C5000071C500006FC50000E0
S11300406DC500000C945C2269C5000067C5000002
S113005065C5000063C5000061C500005FC5000000
S11300605DC500000C948F100C94171157C5000047
S113007055C5000053C5000051C500004FC5000020
S113008055C700004BC5000049C5000047C5000026
S11300900C9460110C94BF1141C500003FC50000D1
S11300A03DC500003BC5000039C5000037C5000050
S11300B035C5000033C5000031C500002FC5000060
S11300C02DC500002BC5000029C500000C940812A2
S11300D00C94671223C500000C94B0120C943813CE
S11300E01DC500000C0D0C0D110D110D160D160D76
S11300F01B0D1B0D7D0D7D0D780D780D730D730D8E
S11301006E0D6E0D310E310E380E380E3F0E3F0E51
S1130110460E460EBD0EEE0E280F590F930FC40F58
S113012002103310391D391D391D841D6D1D811DAB
S1130130391D391D841D6D1DC026D425D425DD2708
S1130140DD27DD27DD27DD27DD27DD27C426D925AB
S1130150D925DD27DD27DD27DD27DD27DD27DD2781
S1130160C826DE25DE25DD27DD27DD27DD27DD2783
S1130170DD27DD27CC26E325E325DD27DD27DD2765
S1130180DD27DD27DD27DD27D026E825E825DD2747
S1130190DD27DD27DD27DD27DD27DD27D426ED2537
S11301A0ED25DD27DD27DD27DD27DD27DD27DD271D
S11301B0D826F225F225DD27DD27DD27DD27DD27FB
S11301C0DD27DD27DC2602260226DD27DD27DD27C5
S11301D0DD27DD27DD27DD27E02612261226DD2791
S11301E0DD27DD27DD27DD27DD27DD27E4262226A1
S11301F02226DD27DD27DD27DD27DD27DD27DD2797
S1130200E82632263226DD27DD27DD27DD27DD2718
S1130210DD27DD27EC2637263726DD27DD27DD27FA
S1130220DD27DD27DD27DD27F02647264726DD27C6
S1130230DD27DD27DD27DD27DD27DD27F42656260C
S11302405626DD27DD27DD27DD27DD27DD27DD2712
S1130250F82666266626DD27DD27DD27DD27DD2750
S1130260DD27DD27FC2676267626DD27DD27DD271C
S1130270DD27DD27DD27DD27002786268626DD27E7
S1130280DD27DD27DD27DD27DD27DD27042796266B
S11302909626DD27DD27DD27DD27DD27DD27DD2782
S11302A00827A626A626DD27DD27DD27DD27DD276F
S11302B0DD27DD270C27B626B626DD27DD27DD273B
S11302C0DD27DD27DD27DD271027DD27DD27DD27D7
S11302D0DD27DD27DD27DD27DD27DD271427DD27C3
S11302E0DD27DD27DD27DD27DD27DD27DD27DD27EA
S11302F01827DD27DD27DD27DD27DD27DD27DD279F
S1130300DD27DD271C27DD27DD27DD27DD27DD278A
S1130310DD27DD27DD27DD272027DD27DD27DD2776
S1130320DD27DD27DD27DD27DD27DD272B27DD275B
S1130330DD27DD27DD27DD27DD27DD27DD27DD2799
S11303402F27DD27DD27DD27DD27DD27DD27DD2737
S1130350DD27DD273327DD27DD27DD27DD27DD2723
S1130360DD27DD27DD27DD273727DD27DD27DD270F
S1130370DD27DD27DD27DD27DD27DD273B27842754
S1130380A827DD27DD27DD27DD27DD27DD27DD277E
S113039041278727AE27DD27DD27DD27DD27DD275A
S11303A0DD27DD2745278D27B427DD27DD27DD273A
S11303B0DD27DD27DD27DD2749279327BA27DD271A
S11303C0DD27DD27DD27DD27DD27DD274D279927DD
S11303D0C027DD27DD27DD27DD27DD27DD27DD2716
S11303E051279C27C627DD27DD27DD27DD27DD27CD
S11303F0DD27DD275427DD27DD27DD27DD27DD2762
S1130400DD27DD27DD27DD2758279F27CC27DD279C
S1130410DD27DD27DD27DD27DD27DD275B27A22775
S1130420D227DD27DD27DD27DD27DD27DD27DD27B3
S11304305E27A527D827DD27DD27DD27DD27DD2754
S1130440DD27DD276127DD27DD27DD27DD27DD2704
S1130450DD27DD27DD27DD276527DD27DD27DD27F0
S1130460DD27DD27DD27DD27DD27DD276927DD27DC
S1130470DD27DD27DD27DD27DD27DD27DD27DD2758
S11304806D27DD27DD27DD27DD27DD27DD27DD27B8
S1130490DD27DD277127DD27DD27DD27DD27DD27A4
S11304A0DD27DD27DD27DD277427DD27DD27DD2791
S11304B0DD27DD27DD27DD27DD27DD277827DD277D
S11304C0DD27DD27DD27DD27DD27DD27DD27DD2708
S11304D07C27DD27DD27DD27DD27DD27DD27DD2759
S11304E0DD27DD278027F127A628A628A628A62809
S11304F0A628A628A628A628A628F327A628A6283C
S1130500A628A628A628A628A628A628A628F62728
S1130510A628A628A628A628A628A628A628A62867
S1130520A628F927A628A628A628A628A628A62805
S1130530A628A628A628FC27A628A628A628A628F2
S1130540A628A628A628A628A628FF27A628A628DF
S1130550A628A628A628A628A628A628A6280228CB
S1130560A628A628A628A628A628A628A628A62817
S1130570A6280528A628A628A628A628A628A628A8
S1130580A628A628A6280828A628A628A628A62895
S1130590A628A628A628A628A6280B28A628A62882
S11305A0A628A628A628A628A628A628A6280E286F
S11305B0A628A628A628A628A628A628A628A628C7
S11305C0A6281128A628A628A628A628A628A6284C
S11305D0A628A628A6281428A628A628A628A62839
S11305E0A628A628A628A628A6281728A628A62826
S11305F0A628A628A628A628A628A628A6281A2813
S1130600A628A628A628A628A628A628A628A62876
S1130610A6281D28A628A628A628A628A628A628EF
S1130620A628A628A6282028A628A628A628A628DC
S1130630A628A628A628A628A6282328A628A628C9
S1130640A628A628A628A628A628A628A6282628B6
S1130650A628A628A628A628A628A628A628A62826
S1130660A6282928A628A628A628A628A628A62893
S1130670A628A628A6282C28A628A628A628A62880
S1130680A628A628A628A628A6282F28A628A6286D
S1130690A628A628A628A628A628A628A62832285A
S11306A0A628A628A628A628A628A628A628A628D6
S11306B0A6283528A628A628A628A628A628A62837
S11306C0A628A628A6283828A628A628A628A62824
S11306D0A628A628A628A628A6284528A628A62807
S11306E0A628A628A628A628A628A628A6284828F4
S11306F0A628A628A628A628A628A628A628A62886
S1130700A6284B28A628A628A628A628A628A628D0
S1130710A628A628A6284E28A628A628A628A628BD
S1130720A628A628A628A628A6285128A628A628AA
S1130730A628A628A628A628A628A628A628562895
S1130740A628A628A628A628A628A628A628A62835
S1130750A6285928A628A628A628A628A628A62872
S1130760A628A628A6285C28A628A628A628A6285F
S1130770A628A628A628A628A6285F28A628A6284C
S1130780A628A628A628A628A628A628A628622839
S1130790A628A628A628A628A628A628A628A628E5
S11307A0A6286728A628A628A628A628A628A62814
S11307B0A628A628A6286A28A628A628A628A62801
S11307C0A628A628A628A628A6286F28A628A628EC
S11307D0A628A628A628A628A628A628A6287428D7
S11307E096289B28A028A628A628A628A628A628B6
S11307F0A6287928A628A628A628A628A628A628B2
S1130800A628A628A6287C28A628A628A628A6289E
S1130810A628A628A628A628A6287F28A628A6288B
S1130820A628A628A628A628A628A628A628822878
S1130830A628A628A628A628A628A628A628A62844
S1130840A6288528A628A628A628A628A628A62855
S1130850A628A628A6288A28A628A628A628A62840
S1130860A628A628A628A628A6288D28A628A6282D
S1130870A628A628A628A628A628A628A62890281A
S1130880A628A628A628A628A628A628A628A628F4
S1130890A628932808000000BE922449123EABAA61
S11308A0AA2ABECDCCCC4C3E00000080BEABAAAA86
S11308B0AA3E00000000BF000000803F00000000CE
S11308C000084178D3BB4387D1133D190E3CC3BD07
S11308D04282AD2B3E68EC8276BED98FE1A93E4CB4
S11308E080EFFFBE01C4FF7F3F00000000006E6187
S11308F06E00696E660000407A10F35A00A0724ED2
S113090018090010A5D4E80000E87648170000E4B0
S11309100B54020000CA9A3B000000E1F5050000F8
S113092080969800000040420F000000A08601005D
S11309300000102700000000E8030000000064002D
S1130940000000000A000000000001000000000098
S11309502C76D888DC674F0823DFC1DFAE59E1B1BC
S1130960B796E5E3E453C63AE651997696E8E6C2CB
S11309708426EB898C9B62ED407C6FFCEFBC9C9FD2
S113098040F2BAA56FA5F490055A2AF75C936B6CF4
S1130990F9676DC11BFCE0E40D47FEF520E6B500E8
S11309A0D0ED902E0300943577050080841E080056
S11309B000204E0A000000C80C333333330F986E06
S11309C012831141EF8D2114893BE65516CFFEE6C3
S11309D0DB18D1844B381BF77C1D901DA4BBE42489
S11309E0203284725E228100C9F124ECA1E53D2706
S11309F09A99C9C133336BC13333D3C0CDCCCC3D09
S1130A0048E1A24066662E41000078419A999D41D2
S1130A100000BC41CDCCD8413333F3416666064275
S1130A20666612429A991D4266662842CDCC3242CD
S1130A30CDCC2842666646429A994F426666584231
S1130A40333361429A9969429A99714233337942B4
S1130A509A99804233338442CDCC874266668B4276
S1130A6000008F42666692429A999542CDCC984294
S1130A7000E816E00F2EF0EBEF2EF6E0FF2EF02D3F
S1130A8080917F06882311F10FB6F8940F92D80154
S1130A901796ED91FC911897C085D185CE010296E9
S1130AA024D38091730681508093730680917F06CE
S1130AB0815080937F060F900FBE8B8D9C8D75D0D7
S1130AC0CE0173D080917F068111DECFF701808142
S1130AD0823008F03DD173D2D3CF11241FBECFEFA3
S1130AE0D1E2DEBFCDBF00E00CBF16E0A0E0B2E073
S1130AF0E0E1FAEB00E00BBF02C007900D92A036D4
S1130B00B107D9F72AE0A0E6B6E001C01D92AF3ADA
S1130B10B207E1F70E947E210C94065D71CA621B44
S1130B20730B840B950B0895FC010FB6F894609138
S1130B30AB0A7091AC0A8091AD0A9091AE0A0FBED7
S1130B40309721F0608371838283938308958F9318
S1130B508FB78F93F8948091AB0A8F5F8093AB0A21
S1130B608091AC0A8F4F8093AC0A8091AD0A8F4F6D
S1130B708093AD0A8091AE0A8F4F8093AE0A8F9115
S1130B808FBF8F910895CF93DF93EC010E948B1652
S1130B90CE010E94CD59EC010E947417209709F4EC
S1130BA027D2CE01DF91CF910895CF93DF930097A1
S1130BB041F0EC010E948B16CE010E94655A0E94FE
S1130BC07417DF91CF91089531E1FC01308331979F
S1130BD022E220833197A3E3A08331976083319786
S1130BE070833197108231971082319760E8608367
S1130BF0319710823197108231971082319762E0D9
S1130C006083319763E06083319764E06083319758
S1130C1065E06083319766E06083319767E06083C5
S1130C20319768E06083319769E06083319760E1D0
S1130C30608331973083319732E13083319733E1E8
S1130C403083319734E13083319735E13083319704
S1130C5036E13083319737E13083319738E130839F
S1130C60319739E13083319730E23083319731E283
S1130C70308331972083319723E220833197408357
S1130C8031975083319726E22083319727E22083DE
S1130C90319728E22083319729E22083319720E39A
S1130CA02083319721E320838997089588EE93E088
S1130CB0A0E0B0E08093470790934807A0934907CA
S1130CC0B0934A0780934B0790934C07A0934D072A
S1130CD0B0934E071092990089EF809398008BE0AF
S1130CE080939100E1E7F0E0808182608083A091AD
S1130CF0DC06B091DD06CD91CDBFDD91DEBFFF9165
S1130D00EF91DF91CF91BF91AF919F918F917F919F
S1130D106F915F914F913F912F911F910F91FF9090
S1130D20EF90DF90CF90BF90AF909F908F907F9087
S1130D306F905F904F903F902F901F900F900CBE3C
S1130D400F900BBE0F900FBE0F90089581E0089591
S1130D500F920FB6F8940F920BB60F920CB60F9237
S1130D601F9211242F923F924F925F926F927F9223
S1130D708F929F92AF92BF92CF92DF92EF92FF92A7
S1130D800F931F932F933F934F935F936F937F938F
S1130D908F939F93AF93BF93CF93DF93EF93FF937F
S1130DA0A091DC06B091DD060DB60D920EB60D9243
S1130DB00E940918A091DC06B091DD06CD91CDBF4B
S1130DC0DD91DEBFFF91EF91DF91CF91BF91AF91A4
S1130DD09F918F917F916F915F914F913F912F914F
S1130DE01F910F91FF90EF90DF90CF90BF90AF9045
S1130DF09F908F907F906F905F904F903F902F9037
S1130E001F900F900CBE0F900BBE0F900FBE0F9053
S1130E1008950F920FB6F8940F920BB60F920CB67A
S1130E200F921F9211242F923F924F925F926F92D2
S1130E307F928F929F92AF92BF92CF92DF92EF9266
S1130E40FF920F931F932F933F934F935F936F934F
S1130E507F938F939F93AF93BF93CF93DF93EF933E
S1130E60FF93A091DC06B091DD060DB60D920EB68F
S1130E700D9213BE80914B0790914C07A0914D07A2
S1130E80B0914E070197A109B10980934B07909344
S1130E904C07A0934D07B0934E07892B8A2B8B2BBD
S1130EA089F455DE8091470790914807A09149073E
S1130EB0B0914A0780934B0790934C07A0934D073A
S1130EC0B0934E070E949F1681110E940918A091A9
S1130ED0DC06B091DD06CD91CDBFDD91DEBFFF9183
S1130EE0EF91DF91CF91BF91AF919F918F917F91BE
S1130EF06F915F914F913F912F911F910F91FF90AF
S1130F00EF90DF90CF90BF90AF909F908F907F90A5
S1130F106F905F904F903F902F901F900F900CBE5A
S1130F200F900BBE0F900FBE0F90089572DF1895AF
S1130F30811106C0ECE7F0E080818F7D8083089505
S1130F40ECE7F0E0808180628083089580917A00EC
S1130F5086FB882780F90895803218F597E89093E6
S1130F607A0090917C00662311F0906C02C09F7708
S1130F709064907E883040F0EBE7F0E020812860B8
S1130F8020838850892B06C0EBE7F0E02081277F7F
S1130F902083892B80937C00EAE7F0E080818064E1
S1130FA08083089580917C0085FF04C0809179003E
S1130FB090E00895809178009091790008958FEFE2
S1130FC080937E0080937D0080B7877F80BF80B749
S1130FD0806880BF83B7817F83BF0FB6F8940F9278
S1130FE083B7816083BF0F900FBE889513BE0895A9
S1130FF0279A2F9A00001F9AFDCF279A2F9A00C094
S11310001F9AFDCFFC010396928381834FEF5FEF1C
S1131010BA01438354836583768390878783928759
S1131020818710820895FC01138612860895CF9358
S1131030DF939C01FB01DC011196CD91DC911297A9
S1131040D583C4838E819F81978386838E819F817C
S1131050DC0115967C936E9314977F836E8333879C
S11310602287F90180818F5F8083DF91CF9108957A
S11310700F931F93CF93DF93EB01088119812A818A
S11310803B810F3F4FEF14072407340721F4FC0181
S1131090A185B28511C0DC01139601C0DF0114964D
S11310A0ED91FC9115974081518162817381041700
S11310B015072607370790F71496ED91FC911597BD
S11310C0FD83EC83D783C683BF83AE831596DC93FD
S11310D0CE9314979B878A87FC0120812F5F2083FE
S11310E0DF91CF911F910F910895CF93DF93FC016E
S11310F0A285B385C481D581868197819F838E83A0
S1131100C681D781848195819D838C8311968D912D
S11311109C911297E817F90731F48681978112960A
S11311209C938E931197138612868C9181508C9385
S11311308C91DF91CF9108950FB6F8940F92FC0132
S1131140968D0F900FBE81E0911180E008950F936A
S11311501F93CF93DF93EC01042F1E8D48A14111FF
S11311600CC088819981892B09F042C08A819B81B6
S11311700E942A1A1B821A8242C0011117C050E031
S11311808C819D810E94D15B28A18C819D81820FDD
S1131190911D9D838C832A813B818217930750F193
S11311A0888199819D838C8380E029C050E08E8161
S11311B09F810E94D15B88A190E0919581959109CE
S11311C02E813F81280F391F3F832E834881598107
S11311D02417350730F42A813B81820F931F9F83A4
S11311E08E83023049F4112349F0115080E007C086
S11311F080E005C080E003C080E001C080E01F5FA4
S11312001E8FDF91CF911F910F910895FC0140A192
S11312104423A9F050E026813781240F351F3783FA
S11312202683828193812817390720F08081918158
S113123097838683CB01668177810C94D15B089573
S1131240EF92FF920F931F93CF938C010FB6F894F4
S11312500F92FC01C2A11C16ACF48389811106C053
S113126011C0F8018389811105C00CC07801F3E134
S1131270EF0EF11CC7010E94021981110E94AA19E4
S1131280C15079F78FEFF80182A30F900FBE0FB60C
S1131290F8940F92C1A11C16ACF48085811106C08C
S11312A011C0F8018085811105C00CC07801F8E0F7
S11312B0EF0EF11CC7010E94021981110E94AA19A4
S11312C0C15079F78FEFF80181A30F900FBECF9132
S11312D01F910F91FF90EF900895CF93DF93EC014E
S11312E00FB6F8940F924881598128A130E07F8D80
S11312F0729FC001739F900D1124FA01E80FF91F2A
S1131300FB83EA831E8E5D834C83821B930B840FC5
S1131310951F9F838E838FEF89A38AA361110BC0CE
S11313208885882371F0CE0108960E9402198823CB
S113133041F00EDD06C0CE01089664DECE01439670
S113134061DE0F900FBE81E0DF91CF9108950F937E
S11313501F93CF93DF93082F162F6623B1F0869F38
S1131360C001112483960FDCEC01009739F413C0FB
S11313700F8F18A361E0CE01B0DF0DC0839699836F
S11313808883F6CFD983C883F3CF83E290E0FBDB75
S1131390EC01892BB9F7CE01DF91CF911F910F9109
S11313A008959F92AF92BF92CF92DF92EF92FF92F5
S11313B00F931F93CF93DF93CDB7DEB729970FB663
S11313C0F894DEBF0FBECDBF7C015B012E833F834B
S11313D04887598710E0992493946C0188E0C80EDB
S11313E0D11C0FB6F8940F92F701968D878D98173C
S11313F010F00230B1F4402FB501C701A8DEF701A7
S11314009389992341F0C70143960E9402198823C6
S113141021F09EDC02C081119BDC0F900FBE81E0A5
S113142052C08E819F81A885B985892B8A2B8B2BED
S113143021F40F900FBE80E046C0111105C0CE010B
S113144001960E944419192D0F900FBE0E948B160D
S11314500FB6F8940F92F70181A18F3F09F411A2FE
S1131460F70182A18F3F09F412A20F900FBEBE01B3
S11314706A5F7F4FCE0101960E94551981111EC0EB
S11314800FB6F8940F92F701968D878D0F900FBECB
S113149098130FC04E815F8168857985C6010E94CB
S11314A0CB18C701CDDE0E94741781119ACF50DC8E
S11314B098CFC701C5DE0E94741793CFC701C0DE61
S11314C00E94741780E029960FB6F894DEBF0FBE11
S11314D0CDBFDF91CF911F910F91FF90EF90DF90DF
S11314E0CF90BF90AF909F9008950F93CF93DF93C9
S11314F0482F60E081E02BDFEC01009761F01B8254
S11315001A82198218821E8200E020E030E0A901CC
S113151060E070E046DFCE01DF91CF910F91089536
S1131520EF92FF920F931F93CF93DF938A01FC01F5
S1131530568D378D531710F02230E9F4422F78017D
S1131540EC011AA104DE1F3F81F48B898823A9F0E2
S1131550CE0143960E940219882389F0E114F10414
S113156081F081E0F70180830DC0FF24F394F10E34
S1131570FAA281E007C080E005C081E003C081E0F9
S113158001C081E0DF91CF911F910F91FF90EF9007
S11315900895CF93DF93FC01868D978D8917C0F44E
S11315A092A18F5F868F9F3F79F48389882391F07E
S11315B0EB01CF0143960E940219882369F020971A
S11315C069F081E088830BC09F5F92A381E007C02C
S11315D080E005C081E003C081E001C081E0DF91CB
S11315E0CF9108959F92AF92BF92CF92DF92EF92E4
S11315F0FF920F931F93CF93DF93CDB7DEB7299755
S11316000FB6F894DEBF0FBECDBF8C015B012E83F5
S11316103F8348875987E12C992493946C0183E193
S1131620C80ED11C0FB6F8940F92F801F68CFF2067
S113163099F0B501C801EADDFA94F801F68E8085C7
S1131640882331F0C80108960E940219811180DBB9
S11316500F900FBE81E051C08E819F81A885B9850E
S1131660892B8A2B8B2B21F40F900FBE80E045C071
S1131670E11005C0CE0101960E944419E92C0F9097
S11316800FBE0E948B160FB6F8940F92F80181A139
S11316908F3F09F411A2F80182A18F3F09F412A22D
S11316A00F900FBEBE016A5F7F4FCE0101960E946C
S11316B05519811118C0C8013FDD882379F04E8186
S11316C05F8168857985C6010E94CB18C801B8DDA1
S11316D00E9474178111A6CF3BDBA4CFC801B0DDF3
S11316E00E9474179FCFC801ABDD0E947417C80114
S11316F023DD882309F496CF80E029960FB6F89469
S1131700DEBF0FBECDBFDF91CF911F910F91FF9030
S1131710EF90DF90CF90BF90AF909F900895BF92CD
S1131720CF92DF92EF92FF920F931F93CF93DF93A9
S1131730CDB7DEB729970FB6F894DEBF0FBECDBF85
S11317408C014E835F8368877987B12CD12CCC249C
S1131750C3947C0183E1E80EF11C0FB6F8940F9258
S1131760D8015E968C915E978823E1F081505E9655
S11317708C935E978D919C91892B29F40E94B61AC3
S1131780F80193838283D80118968C91882331F0D1
S1131790C80108960E9402198111DADA0F900FBE6F
S11317A081E07FC08E819F81A885B985892B8A2B92
S11317B08B2B21F40F900FBE80E073C0D11005C0B5
S11317C0CE0101960E944419DC2C0F900FBE0E949A
S11317D08B160FB6F8940F92F80181A18F3F09F48C
S11317E011A2D80192968C9192978F3F11F4929600
S11317F01C920F900FBEBE016A5F7F4FCE0101960F
S11318000E945519811127C0C80196DC8823F1F084
S1131810F80180819181892B51F40FB6F8940F92CD
S1131820828193810E94BC19B82E0F900FBE4E8105
S11318305F8168857985C7010E94CB18C80100DDE6
S11318400E947417811189CF83DA87CFC801F8DC2D
S11318500E94741782CFC801F3DC0E947417C80178
S11318606BDC882309F479CFBB20D1F00FB6F89450
S11318700F92F8018389882339F0028CF38DE02DCF
S1131880808164E0681B01C060E0D80112968D91EC
S11318909C9113970E946A1A0F900FBE80E001C0BA
S11318A080E029960FB6F894DEBF0FBECDBFDF915E
S11318B0CF911F910F91FF90EF90DF90CF90BF9049
S11318C00895CF93DF93EC010FB6F8940F9289A19A
S11318D08F3F09F419A28AA18F3F09F41AA20F902D
S11318E00FBE8E8D811104C0CE0143960E94E21872
S11318F0CE01A6DCDF91CF9108954F925F926F9253
S11319007F928F929F92AF92BF92CF92DF92EF928B
S1131910FF920F931F93CF93DF93EC01FB01019090
S11319200020E9F74B019F01215031090F2EF1E30B
S1131930EF2EFF24F394F02D01ED10E069EC70E03C
S113194041EC50E05C018DE0A80EB11C78C0D401DC
S1131950DD904D010FB6F8940F92ED85FE850F9042
S11319600FBE8F89988DE817F907F1F0F501828190
S11319709381DC01DC92828193810196938382833B
S1131980C084D1848C159D0521F48681978193832D
S113199082830FB6F8940F9280819181019691838E
S11319A080830F900FBE2BC000000FB6F8940F92E7
S11319B0ED85FE850F900FBE8F89988DE817F90786
S11319C009F43DC0F50182819381DC01DC928281BE
S11319D09381019693838283C084D1848C159D0561
S11319E021F486819781938382830FB6F8940F92B2
S11319F0808191810196918380830F900FBE4880EE
S1131A00512CB8E04B165104D0F4F2018827EE585B
S1131A10FF4F8F4F0C94B659FA0180818062808306
S1131A200EC0DB018C9180628C9309C0F801808127
S1131A308062808304C0D7018C9180628C9382166B
S1131A40930609F084CFDF91CF911F910F91FF90FE
S1131A50EF90DF90CF90BF90AF909F908F907F904A
S1131A606F905F904F9008950F931F93CF93DF93E0
S1131A70CDB7DEB708851985F801858D813029F445
S1131A8067D9F801858D8130D9F381E0F801858F1C
S1131A90638D748D9E01245F3F4F4A855B85818DE4
S1131AA0928D0E94285CF801618D728DC80125DF3A
S1131AB0F801158EDF91CF911F910F910895CF9367
S1131AC0DF93DC014C9150E048305105E8F5FA0110
S1131AD08827E658FF4F8F4F0C94B65980913001F8
S1131AE0882354F131C08091D0008823E4F02CC0C5
S1131AF08091C800882374F027C08091C000882397
S1131B001CF5C6ECD0E0E0ECF0E08881808188230D
S1131B10E4F31AC0CEECD0E0E8ECF0E088818081F8
S1131B208823E4F311C0C6EDD0E0E0EDF0E0888155
S1131B3080818823E4F308C0C6E3D1E0E0E3F1E068
S1131B40888180818823E4F30FB6F8940F9212966B
S1131B501C921E92119717968D919C91189714962A
S1131B609C938E93139716969C938E9315970F9030
S1131B700FBEDF91CF9108950FB6F8940F92FC0138
S1131B80818192810F900FBE0895CF93DF93DC0182
S1131B900FB6F8940F921D962D913C911E970F90BD
S1131BA00FBE57968D919C91589728173907F1F0DD
S1131BB0FD013D96C281D381688382819381019620
S1131BC093838283208531858217930721F486814C
S1131BD09781938382830FB6F8940F9280819181C9
S1131BE00196918380830F900FBE2FC000000FB623
S1131BF0F8940F921D962D913C911E970F900FBE55
S1131C0057968D919C9158972817390709F445C028
S1131C10FD013D96C281D3816883828193810196BF
S1131C2093838283208531858217930721F48681EB
S1131C309781938382830FB6F8940F928081918168
S1131C400196918380830F900FBE8C9190E0883031
S1131C50910528F5FC018827EE57FF4F8F4F0C9410
S1131C60B659E1ECF0E080818062808381E018C0A5
S1131C70E9ECF0E080818062808381E011C0E1EDD5
S1131C80F0E080818062808381E00AC0E1E3F1E0DA
S1131C9080818062808381E003C080E001C081E0B4
S1131CA0DF91CF9108957F928F929F92AF92BF92CE
S1131CB0CF92DF92EF92FF920F931F93CF93DF9314
S1131CC0CDB7DEB7A2970FB6F894DEBF0FBECDBF77
S1131CD06C01762E49015A01C7010E94C305009781
S1131CE0A9F0FE0132960FB6F8940F921182108279
S1131CF09383828395838483978386838E0D9F1D2C
S1131D0091878087F386E2860F900FBEC8010E94F8
S1131D10C3050097A9F0FE013E960FB6F8940F9202
S1131D20118210829383828395838483978386832D
S1131D30800F911F91878087138702870F900FBEB2
S1131D40C8010E94C3059B8F8A8F79821D8F0C8FD7
S1131D501E8E8F8E98A2A9A2BAA20FB6F8940F92E3
S1131D60898190E08830910508F0BAC1FC01882788
S1131D70E657FF4F8F4F0C94B659D501C401975FB6
S1131D80A24CBF4FBC01CD01660F771F881F991F5E
S1131D90660F771F881F991F95018401000F111F7B
S1131DA0221F331F000F111F221F331FA901980187
S1131DB0220F331F441F551F0E949459215031098B
S1131DC03093C5002093C40082E08093C00088E96A
S1131DD08093C1008EE08093C20082C104EC10E0C5
S1131DE0F801118210826A9A80EC8093C20088E91B
S1131DF08093C100D501C40180589B47A14EBF4FB9
S1131E00880F991FAA1FBB1F880F991FAA1FBB1FEA
S1131E10BC01CD01660F771F881F991F880C991C80
S1131E20AA1CBB1C880C991CAA1CBB1CA5019401F0
S1131E30220F331F441F551F220F331F441F551FEA
S1131E400E94945921503109F8013183208348C1FB
S1131E50D501C401975FA24CBF4FBC01CD01660FF1
S1131E60771F881F991F660F771F881F991F950179
S1131E708401000F111F221F331F000F111F221F87
S1131E80331FA9019801220F331F441F551F0E94BD
S1131E909459215031093093CD002093CC0082E035
S1131EA08093C80088E98093C9008EE08093CA00BB
S1131EB017C10CEC10E0F80111821082559A80ECE5
S1131EC08093CA0088E98093C900D501C401805871
S1131ED09B47A14EBF4F880F991FAA1FBB1F880F96
S1131EE0991FAA1FBB1FBC01CD01660F771F881F56
S1131EF0991F880C991CAA1CBB1C880C991CAA1C31
S1131F00BB1CA5019401220F331F441F551F220F30
S1131F10331F441F551F0E94945921503109F80161
S1131F2031832083DDC0D501C401975FA24CBF4F2C
S1131F30BC01CD01660F771F881F991F660F771F9D
S1131F40881F991F95018401000F111F221F331F41
S1131F50000F111F221F331FA9019801220F331FE5
S1131F60441F551F0E949459215031093093D500C4
S1131F702093D40082E08093D00088E98093D1003C
S1131F808EE08093D200ACC004ED10E0F801118221
S1131F901082E1E0F1E080818460808380EC8093B2
S1131FA0D20088E98093D100D501C40180589B47B1
S1131FB0A14EBF4F880F991FAA1FBB1F880F991FDF
S1131FC0AA1FBB1FBC01CD01660F771F881F991F75
S1131FD0880C991CAA1CBB1C880C991CAA1CBB1C31
S1131FE0A5019401220F331F441F551F220F331FD5
S1131FF0441F551F0E94945921503109F80131831F
S113200020836EC0D501C401975FA24CBF4FBC01B1
S1132010CD01660F771F881F991F660F771F881FD2
S1132020991F95018401000F111F221F331F000FF8
S1132030111F221F331FA9019801220F331F441FB0
S1132040551F0E9494592150310930933501209332
S1132050340182E08093300188E9809331018EE07D
S1132060809332013DC004E311E0F8011182108233
S1132070E4E0F1E080818460808380EC809332012D
S113208088E980933101D501C40180589B47A14E52
S1132090BF4F880F991FAA1FBB1F880F991FAA1F24
S11320A0BB1FBC01CD01660F771F881F991F880CC9
S11320B0991CAA1CBB1C880C991CAA1CBB1CA5013E
S11320C09401220F331F441F551F220F331F441F37
S11320D0551F0E94945921503109F80131832083FE
S11320E00F900FBE82E2FE013196D60101900D924F
S11320F08A95E1F7C601A2960FB6F894DEBF0FBE2B
S1132100CDBFDF91CF911F910F91FF90EF90DF90A2
S1132110CF90BF90AF909F908F907F9008951F9223
S11321200F920FB60F9211240BB60F922F933F9379
S11321304F935F936F937F938F939F93AF93BF93CB
S1132140CF93EF93FF938091C0008C7171F08091D5
S1132150C00088230CF057C0A6ECB0E0E0ECF0E03F
S11321608C9180818823E4F34EC0C091C600809195
S1132170F70881111DC081E080939D0A0E94B82553
S11321800E949D251092850010928400E09195078D
S1132190F0E0E854F84FC083809195078F5F8093F7
S11321A09507809195078F3F19F481E0809371071B
S11321B00FB6F8940F92EFE4F7E0218132810F908B
S11321C00FBE8385948528173907E9F0E0E5F7E029
S11321D0A281B381CC93828193810196938382837C
S11321E0208531858217930721F486819781938313
S11321F082830FB6F8940F92808191810196918326
S113220080830F900FBEFF91EF91CF91BF91AF915B
S11322109F918F917F916F915F914F913F912F91FA
S11322200F900BBE0F900FBE0F901F9018951F922A
S11322300F920FB60F9211240BB60F922F938F9318
S11322409F93AF93BF93EF93FF930FB6F8940F92BE
S113225080915C0790915D070F900FBE892B31F43C
S1132260E1ECF0E080818F7D80831CC0ECE5F7E039
S1132270A481B5812D91B583A48380859185A81708
S1132280B90721F486819781958384830FB6F894E6
S11322900F92808191810197918380830F900FBE6B
S11322A02093C600FF91EF91BF91AF919F918F91C1
S11322B02F910F900BBE0F900FBE0F901F9018958B
S11322C01F920F920FB60F9211240BB60F922F93F9
S11322D03F934F938F939F93AF93BF93EF93FF934A
S11322E08091C8008C7171F08091C80088230CF033
S11322F036C0AEECB0E0E8ECF0E08C91808188234D
S1132300E4F32DC04091CE000FB6F8940F92E7EBA2
S1132310F8E0218132810F900FBE838594852817C0
S11323203907E9F0E8EBF8E0A281B3814C938281AC
S11323309381019693838283208531858217930745
S113234021F486819781938382830FB6F8940F9248
S1132350808191810196918380830F900FBEFF91BC
S1132360EF91BF91AF919F918F914F913F912F9199
S11323700F900BBE0F900FBE0F901F9018951F92D9
S11323800F920FB60F9211240BB60F922F938F93C7
S11323909F93AF93BF93EF93FF930FB6F8940F926D
S11323A08091C4089091C5080F900FBE892B31F419
S11323B0E9ECF0E080818F7D80831CC0E4ECF8E0E0
S11323C0A481B5812D91B583A48380859185A817B7
S11323D0B90721F486819781958384830FB6F89495
S11323E00F92808191810197918380830F900FBE1A
S11323F02093CE00FF91EF91BF91AF919F918F9168
S11324002F910F900BBE0F900FBE0F901F90189539
S11324101F920F920FB60F9211240BB60F922F93A7
S11324203F934F938F939F93AF93BF93EF93FF93F8
S11324308091D0008C7171F08091D00088230CF0D1
S113244036C0A6EDB0E0E0EDF0E08C918081882309
S1132450E4F32DC04091D6000FB6F8940F92E3E751
S1132460F7E0218132810F900FBE83859485281770
S11324703907E9F0E4E7F7E0A281B3814C93828164
S113248093810196938382832085318582179307F4
S113249021F486819781938382830FB6F8940F92F7
S11324A0808191810196918380830F900FBEFF916B
S11324B0EF91BF91AF919F918F914F913F912F9148
S11324C00F900BBE0F900FBE0F901F9018951F9288
S11324D00F920FB60F9211240BB60F922F938F9376
S11324E09F93AF93BF93EF93FF930FB6F8940F921C
S11324F080918007909181070F900FBE892B31F452
S1132500E1EDF0E080818F7D80831CC0E0E8F7E09E
S1132510A481B5812D91B583A48380859185A81765
S1132520B90721F486819781958384830FB6F89443
S11325300F92808191810197918380830F900FBEC8
S11325402093D600FF91EF91BF91AF919F918F910E
S11325502F910F900BBE0F900FBE0F901F901895E8
S11325601F920F920FB60F9211240BB60F922F9356
S11325703F934F935F936F937F938F939F93AF9307
S1132580BF93CF93EF93FF93809130018C7171F0DF
S11325908091300188230CF057C0A6E3B1E0E0E35A
S11325A0F1E08C9180818823E4F34EC0C091360120
S11325B080919D0A81111DC081E08093F7080E94DB
S11325C0B8250E949D251092850010928400E09108
S11325D09507F0E0E854F84FC083809195078F5F2A
S11325E080939507809195078F3F19F481E080933C
S11325F071070FB6F8940F92E6E9F7E02181328172
S11326000F900FBE8385948528173907E9F0E7E911
S1132610F7E0A281B381CC93828193810196938365
S11326208283208531858217930721F486819781DF
S1132630938382830FB6F8940F92808191810196DF
S1132640918380830F900FBEFF91EF91CF91BF9143
S1132650AF919F918F917F916F915F914F913F9136
S11326602F910F900BBE0F900FBE0F901F901895D7
S11326701F920F920FB60F9211240BB60F922F9345
S11326808F939F93AF93BF93EF93FF930FB6F894F9
S11326900F928091A3079091A4070F900FBE892BEE
S11326A031F4E1E3F1E080818F7D80831CC0E3EAB3
S11326B0F7E0A481B5812D91B583A48380859185AC
S11326C0A817B90721F486819781958384830FB66F
S11326D0F8940F92808191810197918380830F9068
S11326E00FBE20933601FF91EF91BF91AF919F915F
S11326F08F912F910F900BBE0F900FBE0F901F90D4
S113270018950F93813071F018F08230A9F026C02B
S113271084B1876084B9239885B1896085B9249A86
S11327202C9A23C084B1876084B9239885B18960C9
S113273085B99D9AA59A19C084B1876084B92398F4
S113274085B1896085B9E1E0F1E0808180628083B0
S1132750E2E0F1E080818062808307C084B1876019
S113276084B9239885B1896085B98CB580658CBDA1
S11327708DB58EB58091600690916106892B89F4A0
S113278081E00E94750A9093610680936006009729
S113279041F000E020E030E0A90160E070E00E9438
S11327A0D1090F9108959CB59C7F282F2370922BFB
S11327B09CBD9DB582FB882780F99E7F892B8DBDAA
S11327C00895811104C08CB580628CBD08958CB5C8
S11327D08F7D8CBD08959CB5937F892B8CBD089506
S11327E0CF93C82F48EE53E060E070E0809160061C
S11327F0909161060E948F0B8130B1F4C13039F0A1
S113280018F0C23039F00DC02C9881E00EC0A598A4
S113281081E00BC0E2E0F1E080818F7D808381E084
S113282004C0289881E001C080E0CF9108950F93FF
S1132830813031F018F0823029F00AC02C9A09C096
S1132840A59A07C0E2E0F1E080818062808301C044
S1132850289A00E020E030E0A90160E070E0809177
S11328606006909161060E94D1090F910895282F66
S11328709CB5892F807496FF17C00CB404FC08C063
S11328808CB580618CBD9CB5892F807194FF0CC080
S11328902EBD000005C09CB5892F807194FF04C033
S11328A00DB407FEF8CF8EB50895E0919806F09127
S11328B09906808181110CC08FEF9FEFDC0180931A
S11328C0650690936606A0936706B093680608951C
S11328D0E0919806F09199060780F085E02D008438
S11328E0F185E02D82819381A481B5818093650671
S11328F090936606A0936706B093680608958F9236
S11329009F92AF92BF92CF92DF92EF92FF92CF93BA
S11329106B017C01C42F80906F0690907006A0908C
S11329207106B09072068091DC069091DD060296E5
S11329300E9475088FEFC816D806E806F80669F4F1
S1132940CC2359F06091DC067091DD066E5F7F4FF9
S113295084E796E00E9417083FC0C80CD91CEA1C03
S1132960FB1CE091DC06F091DD06C282D382E48296
S1132970F582C814D904EA04FB0468F46091DC0607
S11329807091DD0680919606909197066E5F7F4F59
S11329900E94380821C06091DC067091DD068091A8
S11329A09806909199066E5F7F4F0E943808809137
S11329B0650690916606A0916706B0916806C816F0
S11329C0D906EA06FB0640F4C0926506D092660674
S11329D0E0926706F0926806CF91FF90EF90DF9047
S11329E0CF90BF90AF909F908F9008954F925F9239
S11329F06F927F928F929F92AF92BF92CF92DF920B
S1132A00EF92FF920F93CF93DF934C016B015A0126
S1132A102901CA010E94C3053C01892B09F4ECC0B9
S1132A2083E390E00E94C305EC01892BB1F07C8E16
S1132A306B8EA50165EA70E0C3010E94DA5B21E0B8
S1132A40A21AB1088B8D9C8DA80EB91ED6018C914B
S1132A508D8F8C91811105C018C0C3010E94D505CA
S1132A60CBC0AE01425E5F4FF6013196BFE0CB0EA4
S1132A70D11CCF012191DA012D93AD01DC018C91A0
S1132A80882319F0EC15FD05A1F71BA6043008F006
S1132A9003E00A8F0CA71DA66E01B2E0CB0ED11C79
S1132AA0C6010E941308CE010E960E941308DB870C
S1132AB0CA8784E090E0A0E0B0E0801B9109A109FE
S1132AC0B1098E879F87A88BB98BDF8BCE8B1EA60F
S1132AD01FA618AA19AA1AAAA201B401C5010E9424
S1132AE0E40599838883E114F10419F0F701D18393
S1132AF0C0830FB6F8940F92809173068F5F809312
S1132B0073068091DC069091DD06892BD1F5D09374
S1132B10DD06C093DC0680917306813009F041C064
S1132B2080EB96E00E9402088BEB96E00E9402087C
S1132B3086EC96E00E94020881ED96E00E9402086D
S1132B4085EA96E00E9402088AE996E00E9402085B
S1132B508BE896E00E94020880E896E00E94020852
S1132B6084E796E00E94020885EA96E0909399062D
S1132B70809398068AE996E0909397068093960648
S1132B8010C080916D0681110CC0E091DC06F091BB
S1132B90DD06928D8A8D891720F0D093DD06C093CF
S1132BA0DC06809169068F5F809369068A8D909117
S1132BB06E06981710F480936E06FBE08F9FC00199
S1132BC01124B6018055994F0E9417080F900FBE2B
S1132BD080916D06882361F0E091DC06F091DD06BA
S1132BE0928D8A8D981730F40E94A80681E005C062
S1132BF081E003C081E001C08FEFDF91CF910F919D
S1132C00FF90EF90DF90CF90BF90AF909F908F9008
S1132C107F906F905F904F9008950F931F93CF9381
S1132C20DF93009709F43DC02091DC063091DD0666
S1132C308217930709F435C00FB6F8940F92FC017C
S1132C40248535852457364051F5FC01208D318D7E
S1132C50F6E02B383F0719F1232B09F5EC018C0121
S1132C600E5F1F4FC8010E9475088A8D90916E06F1
S1132C70981710F480936E062BE0829FC0011124F4
S1132C80B8018055994F0E941708E091DC06F09135
S1132C90DD069A8D828D981710F00E94A8060F9079
S1132CA00FBEDF91CF911F910F910895EF92FF9284
S1132CB00F930F2EF3E6EF2EF6E0FF2EF02D00E03B
S1132CC020E030E040E850E066E172E088E395E01F
S1132CD08DDE8130E1F4CED48130C9F4F8948FEFE5
S1132CE09FEFDC018093650690936606A0936706C8
S1132CF0B093680681E080936D0610926F0610927F
S1132D00700610927106109272060E9456060F9178
S1132D10FF90EF900895809162068F5F8093620622
S1132D2008950FB6F8940F9260916F067091700633
S1132D3080917106909172060F900FBE08959F9234
S1132D40AF92BF92CF92DF92EF92FF920F931F93B5
S1132D50CF93DF93809162068111ADC0C0906F065E
S1132D60D0907006E0907106F09072068FEFC81A4A
S1132D70D80AE80AF80AC0926F06D0927006E09268
S1132D807106F0927206C114D104E104F104B1F4A5
S1132D908091980690919906209196063091970615
S1132DA030939906209398069093970680939606FD
S1132DB080916A068F5F80936A0677DD809165064D
S1132DC090916606A0916706B0916806C816D90668
S1132DD0EA06FB0610F4B12C5DC0B12C0F2EFBE00B
S1132DE0AF2EF02D99249394E0919806F0919906D2
S1132DF0808181110CC08FEF9FEFDC018093650609
S1132E0090936606A0936706B093680643C0E0916A
S1132E109806F09199060780F085E02DC085D1854C
S1132E208A819B81AC81BD81C816D906EA06FB065E
S1132E3048F48093650690936606A0936706B09362
S1132E40680628C08E010E5F1F4FC8010E947508D6
S1132E50888D998D892B21F0CE010E960E947508DC
S1132E608A8D90916E06981710F480936E06A89E32
S1132E70C0011124B8018055994F0E941708E091B0
S1132E80DC06F091DD069A8D828D981708F4ACCF9C
S1132E90B92CAACFE091DC06F091DD06E28D8BE03F
S1132EA0E89FF0011124E055F94F8081823048F009
S1132EB0BB24B39406C080916C068F5F80936C062C
S1132EC0B12C80916B06882311F0BB24B3948B2D15
S1132ED0DF91CF911F910F91FF90EF90DF90CF90F2
S1132EE0BF90AF909F900895CF92DF92EF92FF92A0
S1132EF00F931F93CF93DF930FB6F8940F928091A3
S1132F0062068150809362068091620681115AC0E4
S1132F108091730681112CC058C0D7011796ED918A
S1132F20FC911897C085D185CE010E960E94750834
S1132F308E010E5F1F4FC8010E9475088A8D909103
S1132F406E06981710F480936E06D89EC001112463
S1132F50B8018055994F0E941708E091DC06F09162
S1132F60DD069A8D828D981788F0C0926B060EC08C
S1132F70C0E0D0E00F2EFBE8EF2EF6E0FF2EF02DA0
S1132F800F2EFBE0DF2EF02DCC24C394F7018081BB
S1132F908111C3CFCD2B09F088DCC0916C06CC2302
S1132FA049F0D1E0CCDE8111D0936B06C150D1F74A
S1132FB010926C0680916B06882331F00E94A8065B
S1132FC081E003C080E001C080E00F900FBEDF917C
S1132FD0CF911F910F91FF90EF90DF90CF900895C4
S1132FE0CF92DF92EF92FF926B017C01672B682BEB
S1132FF0692B41F090DE40E0C701B60180DC74DF4C
S1133000811102C00E94A806FF90EF90DF90CF903C
S1133010089580916206882321F081E080936B06F5
S1133020089510926B06A091DC06B091DD06E09144
S1133030DC06F091DD062D913C91838D948D8217F1
S1133040930760F06091DC067091DD068091DC06E8
S11330509091DD06635E7F4F0E94FD0780916E06AE
S1133060282F30E09BE0899FF0011124E055F94FAF
S1133070908191110EC04BE08150282F30E0429F87
S1133080F001439FF00D1124E055F94F90819923ED
S113309099F39BE0929FA001939F500D1124DA01B4
S11330A0A055B94F1196ED91FC9112970480F581CA
S11330B0E02D1296FC93EE9311974D54594FE4175B
S11330C0F50729F444815581FD01528341839BE036
S11330D0929FF001939FF00D1124E055F94F018068
S11330E0F281E02D208531853093DD062093DC06C6
S11330F080936E0608950F931F93CF93DF93EC0193
S11331000FB6F8940F92892B21F4C091DC06D0916C
S1133110DD068E010E5F1F4FC8010E947508888D61
S1133120998D892B21F0CE010E960E947508B80165
S113313084E796E00E9417088AA9813009F41AAA44
S11331400F900FBE80916D06882331F00FB6F8946E
S11331500F92ABDB0F900FBE8091DC069091DD06E1
S1133160C817D90799F480916D06882319F00E9435
S1133170A8060CC09091740680917306981305C03C
S11331801092DD061092DC0601C043DFDF91CF917F
S11331901F910F910895CF92DF92EF92FF926A01EF
S11331A07B016091DC067091DD06625F7F4F0E94B7
S11331B0380841E0C701B601A2DBFF90EF90DF9031
S11331C0CF900895CF92DF92EF92FF92CF936A014E
S11331D07B01C22F6091DC067091DD06625F7F4F38
S11331E00E941708CC2321F0CC24CA94DC2C76014D
S11331F04C2FC701B60183DBCF91FF90EF90DF9096
S1133200CF9008950F931F93CF93DF93DC0117960C
S1133210ED91FC911897C085D1858E01025F1F4FF7
S1133220C8010E94750880916206811116C00C5075
S11332301109C8010E9475088A8D90916E0698172D
S113324010F480936E06BBE08B9FC0011124B8017B
S11332508055994F0E94170805C0B8018BE896E085
S11332600E941708E091DC06F091DD069A8D828DAC
S1133270891720F481E080936B0601C080E0DF9120
S1133280CF911F910F91089520916A06FC0120832C
S113329040916F06509170066091710670917206AC
S11332A041835283638374830895CF92DF92EF92B4
S11332B0FF920F931F93CF93DF93FB010FB6F89404
S11332C00F9240916F065091700660917106709153
S11332D0720600811181228133810F3FAFEF1A07FB
S11332E02A073A0749F1EC01C980DA80EB80FC80B7
S11332F0A0916A06B881BA1729F04C155D056E05D0
S11333007F05E0F44C195D096E097F0940175107E8
S11333106207730758F4041B150B260B370B008345
S1133320118322833383B0DF80E009C010821182CD
S11333301282138281E003C080E001C081E00F901B
S11333400FBEDF91CF911F910F91FF90EF90DF900F
S1133350CF90089581E080936B06089580916D0667
S1133360882331F080916206882321F080E008955B
S113337081E0089582E008950F931F93CF93DF9324
S1133380FC01892B09F460C0828DA091DC06B09108
S1133390DD065A969C91891708F04AC046855785E0
S11333A060897189772394F0A091DC06B091DD06E1
S11333B05A969C9144E050E060E070E0491B51094A
S11333C06109710946875787608B718B2BE0829F57
S11333D0C00111248055994F248535852817390754
S11333E0F1F48F01EF012296CE010E947508E0915D
S11333F0DC06F091DD06828DF801828F90916E06D5
S1133400981710F480936E06FBE08F9FC00111247F
S1133410BE018055994F0E94170881E016C0A09103
S1133420DC06B091DD065A968C91828F81E00DC046
S1133430A091DC06B091DD0681E024A55A969C910A
S1133440291718F080E001C080E0DF91CF911F912F
S11334500F9108950F931F93CF93DF93FC01892B52
S113346079F185A5815085A7228D94A5291751F15D
S113347081112AC0EF018F010E5F1F4FC8010E9406
S113348075088CA58A8F44E050E060E070E0481B2A
S11334905109610971094E875F87688B798B909117
S11334A06E06981710F480936E062BE0829FC0017D
S11334B01124B8018055994F0E94170881E005C076
S11334C080E003C080E001C080E0DF91CF911F91D4
S11334D00F9108950F931F93CF93DF93FC01892BD2
S11334E009F43FC084A5861708F4862F928D981797
S11334F0C1F125A52130A9F5828F468557856089BC
S11335007189772364F044E050E060E070E0481B88
S113351051096109710946875787608B718B2BE0CC
S1133520929FC00111248055994F24853585281711
S11335303907B9F4EF018F010E5F1F4FC8010E94D4
S113354075088A8D90916E06981710F480936E0614
S11335502BE0829FC0011124B8018055994F0E942D
S11335601708DF91CF911F910F9108958091DC0688
S11335709091DD06892B39F0E091DC06F091DD06AF
S113358085A58F5F85A78091DC069091DD0608955F
S1133590CF92DF92EF92FF920F931F93FC0142832D
S11335A053836483758393878287041715072607DB
S11335B03707C0F00C191D092E093F098685978528
S11335C0A089B189081719072A073B0700F5BF012D
S11335D06E5F7F4F8091E6069091E7060E9438085F
S11335E080E018C00C151D052E053F0528F44C1568
S11335F05D056E057F0568F4BF016E5F7F4F8091A6
S1133600E8069091E9060E94380880E003C081E052
S113361001C081E01F910F91FF90EF90DF90CF9058
S113362008950FB6F8940F928091E4069091E50600
S1133630892BE9F485EF96E00E9402088AEE96E071
S11336400E94020885EF96E09093E9068093E806CD
S11336508AEE96E09093E7068093E60640E067E002
S11336608AE00E94A7099093E5068093E4060F90F0
S11336700FBE0895EF92FF920F93D3DF8091E4067B
S11336809091E506892B89F00F2EF2EEEF2EF6E0ED
S1133690FF2EF02D03E020E030E040E850E06BE145
S11336A072E085E89CE1A2D901C080E00F91FF900F
S11336B0EF9008957F928F929F92AF92BF92CF9294
S11336C0DF92EF92FF920F931F93CF93DF936C01DE
S11336D04A015B01722E87E190E00E94C305EC0170
S11336E0892B81F09EDFD982C8828E869F86A88A24
S11336F0B98A7A8A1C8B0B8BFE8AED8ACE010296DC
S11337000E941308CE01DF91CF911F910F91FF907A
S1133710EF90DF90CF90BF90AF909F908F907F906D
S113372008958F929F92AF92BF92CF92DF92EF92C1
S1133730FF920F931F93CF93DF93CDB7DEB72797F5
S11337400FB6F894DEBF0FBECDBFE091E406F09152
S1133750E506309781F169832A833B834C835D833B
S11337609F838E836630F4F4F9DD823069F400E0DF
S1133770A7019601BE016F5F7F4F8091E40690918F
S1133780E5060E94D10918C000E020E030E0A9015C
S1133790BE016F5F7F4F8091E4069091E5060E9421
S11337A0D1090AC020E0A801BE016F5F7F4FCF019D
S11337B00E94900A01C080E027960FB6F894DEBFFD
S11337C00FBECDBFDF91CF911F910F91FF90EF906E
S11337D0DF90CF90BF90AF909F908F9008952F92DD
S11337E03F924F925F926F927F928F929F92AF928D
S11337F0BF92CF92DF92EF92FF920F931F93CF93DA
S1133800DF931C018EDA2B013C018091DE0690913E
S1133810DF06A091E006B091E106481659066A0653
S11338207B0608F053C03BC00780F085E02D808004
S11338309180A280B380C085D1858E010E5F1F4F19
S1133840C8010E947508ED89FE89CE0119958A89FF
S1133850813029F58E859F85A889B989880D991DA0
S1133860AA1DBB1D88169906AA06BB0670F48A8396
S11338709B83AC83BD83DB87CA87B8018091E8064C
S11338809091E9060E9438080AC0C12CD12C760117
S113389000E010E0A501940160E0CE0142DFE09178
S11338A0E806F091E90680818111BECF8091E60699
S11338B09091E7069093E9068093E806F093E70673
S11338C0E093E60681E0F101808302C0F1011082F9
S11338D04092DE065092DF066092E0067092E106A6
S11338E0C301B201DF91CF911F910F91FF90EF902F
S11338F0DF90CF90BF90AF909F908F907F906F900C
S11339005F904F903F902F900895CF93DF93CDB762
S1133910DEB760970FB6F894DEBF0FBECDBFCE0101
S113392001969A878987812C912CA12CB12C6984CA
S11339307A84E091E806F091E9068081882309F40D
S1133940F2C00780F085E02D2080318042805380D2
S1133950E2D9CE01019643DF6B877C878D879E87F2
S1133960898181115DC08B859C85AD85BE8582155D
S11339709305A405B50508F43CC0B6DAE091E80661
S1133980F091E9060780F085E02DA085B185B88B1C
S1133990AF87CD0102960E947508EF85F889828968
S11339A08130F1F44685578560897189420D531D34
S11339B0641D751D720161010B851C852D853E8575
S11339C0CF01E6DD882361F0C82CD92CEA2CFB2C2E
S11339D000E010E0A201910160E08F859889A1DEEA
S11339E0AF85B8895596ED91FC915697CD011995FF
S11339F08BC020E0B201A1018B859C85AD85BE857D
S1133A00481B590B6A0B7B0B8091E4069091E506E9
S1133A100E94610C69DA811177C00E94A80674C003
S1133A2063DA72C0898188230CF46EC04E805F8093
S1133A30D2011C968D919C911D97892B21F0C20176
S1133A4002960E947508CE010896C9DE8B019C017E
S1133A508981082E000C990BAA0BBB0B8A309105A7
S1133A6008F052C0FC018827EE56FF4F8F4F0C948C
S1133A70B659CA80DB80EC80FD80F201468557850B
S1133A80608971894C0D5D1D6E1D7F1DC20180DD35
S1133A908823D1F1D2015596ED91FC915697C2013C
S1133AA01995F2018289813079F54A815B816C81B3
S1133AB07D8186859785A089B1899A01AB01280FFC
S1133AC0391F4A1F5B1FC82CD92CEA2CFB2C00E0A1
S1133AD010E060E0C20125DE17C04A815B816C8181
S1133AE07D81D2011E964D935D936D937C93519786
S1133AF0400F511F621F731F68017901C20148DD25
S1133B0003C0C2010E94D505282D392D4A2D5B2DF5
S1133B10662D772D8091E4069091E5060E94F20AC5
S1133B20811180CF06CFF7D8CE01019658DE6B877E
S1133B307C878D879E878981811172CFE091E6060B
S1133B40F091E706808121E0811120E0282C392CB6
S1133B504A2C5B2C4FCFFC010FB6F8940F9281E0F6
S1133B6024853585232B09F480E00F900FBE08953A
S1133B700FB6F8940F92FC01838994890F900FBEBD
S1133B800895C8EFD8E008E519E00F2EFEE3CF2E24
S1133B90F2E0DF2EF02D0F2EF6E9EF2EF7E0FF2EE8
S1133BA0F02D332433940F2EF3E38F2EF2E09F2E67
S1133BB0F02D0F2EF3E2AF2EF2E0BF2EF02DA895DC
S1133BC08F8D813009F0CFC080910107813091F44D
S1133BD0BE01C8010E945635F801318610920107D2
S1133BE0BF92AF92FF92EF920E94340D0F900F900C
S1133BF00F900F90F8018185811148C092D84090B0
S1133C00D9085090DA086090DB087090DC089B01BA
S1133C10AC01241935094609570929013A012AA199
S1133C2030E0A0E6BAEE0E94BE596415750586051B
S1133C30970538F56AA57BA5072E000C880B990B10
S1133C400E947C549B01AC01F80162A973A984A968
S1133C5095A90E94DD538823A4F480910107811162
S1133C6010C0BE01C8010E945635F80131869F92EA
S1133C708F92FF92EF920E94340D0F900F900F904D
S1133C800F90F8018185882309F46DC04AD84090CB
S1133C90D9085090DA086090DB087090DC089B012A
S1133CA0AC01241935094609570929013A0129A10A
S1133CB030E0A0E6BAEE0E94BE596415750586058B
S1133CC09705F8F4F80182858823D9F0BE01C8016C
S1133CD00E947135F8011186128623D86093D908A1
S1133CE07093DA088093DB089093DC08DF92CF921C
S1133CF0FF92EF920E94340D0F900F900F900F904F
S1133D0032C0F8018185882371F16CA57DA5072E49
S1133D10000C880B990B0E947C549B01AC01F801A8
S1133D2062A973A984A995A90E942C551816DCF4DC
S1133D30BE01C8010E947135F801118612860E94E5
S1133D4091166093D9087093DA088093DB089093F6
S1133D50DC08DF92CF92FF92EF920E94340D0F9015
S1133D600F900F900F9060ED77E080E090E038D9ED
S1133D7026CF08E412E0C6E9D7E00F2EF8EFEF2EC5
S1133D80F8E0FF2EF02D0F2EFAE4AF2EFAE0BF2E4E
S1133D90F02D0F2EFFE5CF2EF2E0DF2EF02D332491
S1133DA033940F2EF1E58F2EF2E09F2EF02DA8957F
S1133DB080910F07909110079ED90FB6F8940F9237
S1133DC08EED99E00E947C4D0F900FBE1F930F93D0
S1133DD0DF93CF930E94340D80910F0790911007C9
S1133DE00E940D16D70194968C910F900F900F900E
S1133DF00F908130A9F48091E40981113AC0809137
S1133E00DE09811176C03092E4099F928F92DF938C
S1133E10CF930E94340D0F900F900F900F9024C0F9
S1133E20811122C08091E409882309F462C0EEED77
S1133E30F9E01682D5011D921C921092960A1092F6
S1133E40950A118ADF92CF92DF93CF930E94340DAB
S1133E508EED99E00E94FB518EED99E00E94DC38D2
S1133E600F900F900F900F908091E409882309F42C
S1133E7040C08091EF098330E0F5B7018EED99E001
S1133E80F6D39093960A8093950AB7018EED99E044
S1133E900E94E6398091DF09882359F10E94911626
S1133EA04090050750900607609007077090080738
S1133EB0DC01CB0184199509A609B7098131974220
S1133EC0A105B105B0F0A0E4B9E06D917C918EED4F
S1133ED099E00E944A52E6E4FAE0918380830E94CA
S1133EE091166093050770930607809307079093D4
S1133EF0080768EE73E080E090E072D858CFC8EF0E
S1133F00D8E0772473940F2EFBE88F2EF2E09F2ED7
S1133F10F02D06E917E00F2EF4ECCF2EF9E0DF2E9A
S1133F20F02D0F2EFCE7EF2EF2E0FF2EF02D0F2EDA
S1133F30FEE6AF2EF2E0BF2EF02DA89580910D077E
S1133F4090910E07D8D80FB6F8940F9288E599E0AF
S1133F500E947C4D0F900FBE88A1823061F4809145
S1133F600D0790910E070E940D161092A60A88A1C3
S1133F70813069F406C0813051F48091A60A811120
S1133F8006C07092A60A8EED99E00E94DC388CA1DE
S1133F908130F9F480915E09811146C080915809FD
S1133FA081117FC170925E090E9491166093D908B5
S1133FB07093DA088093DB089093DC08BF92AF9289
S1133FC01F930F930E94340D0F900F900F900F903A
S1133FD026C0811124C080915E09882309F461C13F
S1133FE0E8E5F9E0168282B112B8D6011D921C925E
S1133FF01092630A1092620A118AFF92EF921F9341
S11340000F930E94340D88E599E00E94FB5188E5E6
S113401099E00E94DC380F900F900F900F908091E0
S11340205E09882309F43DC180916909833008F051
S113403038C18F8D813009F0F2C0809101071F9241
S11340408F939F928F921F930F930E94340D0F9022
S11340500F900F900F900F900F9080910107813077
S1134060A9F4BE0188E599E00E9456357092610971
S113407010920107E3E2F2E0FF93EF931F930F9393
S11340800E94340D0F900F900F900F908091610952
S113409081114DC00E9491162091D9083091DA08FF
S11340A04091DB085091DC081B012C01221A330AD1
S11340B0440A550A2AA130E0A0E6BAEE0E94BE598D
S11340C0621573058405950568F56AA57BA5072E19
S11340D0000C880B990B0E947C549B01AC016091ED
S11340E08A0970918B0980918C0990918D090E94A5
S11340F0DD538823BCF480910107811113C0BE01F4
S113410088E599E00E9456357092610983E392E054
S11341109F938F931F930F930E94340D0F900F90D2
S11341200F900F9080916109882309F478C00E9450
S113413091162091D9083091DA084091DB0850910A
S1134140DC081B012C01221A330A440A550A29A14E
S113415030E0A0E6BAEE0E94BE59621573058405EC
S1134160950520F580916209882301F1BE0188E557
S113417099E00E947135E8E5F9E0118612860E9403
S113418091166093D9087093DA088093DB089093B2
S1134190DC08EEE3F2E0FF93EF931F930F930E948A
S11341A0340D0F900F900F900F9039C080916109DA
S11341B08823A9F16CA57DA5072E000C880B990B0B
S11341C00E947C549B01AC0160918A0970918B0917
S11341D080918C0990918D090E942C551816FCF43D
S11341E0BE0188E599E00E947135E8E5F9E01186A1
S11341F012860E9491166093D9087093DA0880930E
S1134200DB089093DC088EE392E09F938F931F93D7
S11342100F930E94340D0F900F900F900F90809188
S1134220820A81110AC0BE0188E599E020D29093E8
S1134230630A8093620A18D202C01092820ABE01F5
S113424088E599E00E94E63980915909882349F16B
S11342500E9491162091090730910A0740910B079B
S113426050910C07DC01CB01821B930BA40BB50B03
S113427081319742A105B105A0F06AA97BA988E51F
S113428099E00E944A52A0ECB9E08D939C930E945D
S113429091166093090770930A0780930B07909314
S11342A00C0768EE73E080E090E00E94F01745CEC2
S11342B04FEF5FEFBA018091830A9091840A0E94C4
S11342C08F0B8130A9F7B1D780919D0A882349F0DB
S11342D08FE497E00E945F0D10929D0A109295075B
S11342E0E7CF8091F708882319F386E997E00E94C5
S11342F05F0D1092F70810929507DACFCDB7DEB7AD
S1134300A297DEBFCDBF0E94333F91D181E090E000
S11343109093C7098093C60982E090E090934D0A78
S113432080934C0A80E090E00E9494056093F30827
S11343307093F4088093F5089093F608EE24EA94B9
S1134340F12C0FEF10E020E835E240E050E060E0AF
S1134350CE0101960E94530E82E2FE013196AFE433
S1134360B7E001900D928A95E1F720E835E240E04C
S113437050E066E0CE0101960E94530E82E2FE01F7
S11343803196A6E9B7E001900D928A95E1F743E0F2
S113439060E081E00E94A7099093840A8093830AD5
S11343A0009741F000E020E030E0A90160E070E017
S11343B00E94D10940E650E060E070E088EF98E0A8
S11343C00E94BE5C88E599E00E946B338EED99E013
S11343D00E946B3388E599E00E9485518EED99E047
S11343E00E94855181E08093820A80912A099091EC
S11343F02B099093690A8093680A809140099091EF
S113440041099093DD098093DC0988EF98E00E94CC
S113441058368093EE098093680999E288E10FB6D3
S1134420F894A895809360000FBE90936000E12CEF
S1134430F12C02E020E030E040E051E06DE972E070
S113444088E591E20E94F6140F2EFFE0EF2EF7E0CC
S1134450FF2EF02D00E020E030E040E052E064EA7E
S113446072E08FE79FE10E94F6140F2EFDE0EF2E1D
S1134470F7E0FF2EF02D20E030E040E052E06DEA5E
S113448072E089EB9EE10E94F614E12CF12C20E00D
S113449030E040E051E066EB72E081EC9DE10E9487
S11344A0F6140E94561680E090E0A2960FB6F89497
S11344B0DEBF0FBECDBF08951F920F920FB60F92AD
S11344C011240BB60F922F933F934F935F936F93E7
S11344D07F938F939F93AF93BF93EF93FF93109228
S11344E000078091990A90919A0AA0919B0AB09131
S11344F09C0A0196A11DB11D8093990A90939A0A72
S1134500A0939B0AB0939C0A8091990A90919A0A6D
S1134510A0919B0AB0919C0A0797A105B10589F463
S113452017D31092990A10929A0A10929B0A109229
S11345309C0A60E077E08091830A9091840A0E944B
S1134540C90AFF91EF91BF91AF919F918F917F9194
S11345506F915F914F913F912F910F900BBE0F90F0
S11345600FBE0F901F9018951F93CF93DF93C82F02
S11345700FB6F8940F9284E00E94F0138C2F0E94DF
S1134580371480E00E943714182F80E00E943714FB
S1134590C82F80E00E943714D82F84E00E9417149B
S11345A00F900FBE8C2F90E0A0E0B0E0BA2FA92F9F
S11345B0982F8827A12BBC01CD016D2BDF91CF91C2
S11345C01F910895CF93DF93D82FC62F0FB6F89479
S11345D00F9284E00E94F0138D2F80680E9437149C
S11345E08C2F0E94371484E00E9417140F900FBE82
S11345F0DF91CF910895682F83E1E4CF0895682F68
S113460085E1E0CF0895682F87E1DCCF0895CF934B
S1134610DF93D62FC42F682F82E4D4DF6D2F83E479
S1134620D1DF6C2F84E4CEDFDF91CF91089588E051
S11346300E94EB1386E00E94D31381E00E94E113F1
S113464084E00E94811380E0DEDF60E083E2BADF71
S113465042E062E082E0DBDF84E0CDDF80E1CFCFC7
S1134660089589E181CF08958AE17ECF08954F921C
S11346705F926F927F928F929F92AF92BF92CF92EE
S1134680DF92EF92FF920F931F93CF93DF9300D0AB
S113469000D0CDB7DEB79E838D838B0120E030E060
S11346A048EC52ECDC0152966D917D918D919C9178
S11346B055970E94DD53882344F4ED81FE81E2592D
S11346C0FF4F808191810A9621C2AD81BE815696A9
S11346D0CD90DD90ED90FC90599720E030E048ECCF
S11346E052ECC701B6010E94DD53882344F4ED81E6
S11346F0FE81E259FF4F80819181449607C2AD81CA
S1134700BE819A964D905D906D907C909D9720E02F
S113471030E048EC52ECC301B2010E94DD5388231F
S113472044F4ED81FE81E259FF4F808191814E96E0
S1134730EDC1AD81BE819E968D909D90AD90BC9053
S1134740D19720E030E048EC52ECC501B4010E945E
S1134750DD53882344F4ED81FE81E259FF4F8081CB
S113476091818896D3C120E030E048EC52ECAD81D1
S1134770BE81D2966D917D918D919C91D5970E9429
S1134780DD53882344F4ED81FE81E259FF4F80819B
S11347909181C296BBC120E030E048EC52ECAD817F
S11347A0BE81D6966D917D918D919C91D9970E94F1
S11347B0DD53882344F4ED81FE81E259FF4F80816B
S11347C09181CC96A3C1AD81BE81DA968D919D91E4
S11347D00D90BC91A02D89839A83AB83BC8320E088
S11347E030E048EC52ECBC01CD010E94DD5388233B
S11347F04CF4ED81FE81E259FF4F808191818A5B07
S11348009F4F84C120E030E048EC52ECED81FE8102
S1134810FE9660817181828193810E94DD53882399
S113482054F48D819E8182599F4FDC018D919C911E
S1134830805B9F4F6BC120E030E048EC52ECED818F
S1134840FE81EE5BFF4F60817181828193810E94C2
S1134850DD5388234CF4ED81FE81E259FF4F8081C2
S11348609181865A9F4F52C14A9B10C0AD81BE812F
S11348701F968C911F97813049F4FD01E259FF4F37
S113488080819181019709F030C10EC14B9B10C00A
S1134890ED81FE818785813009F035C1ED81FE818E
S11348A0E259FF4F80819181029709F021C1FFC035
S11348B0659B11C0AD81BE811F968C91813009F03A
S11348C01AC1ED81FE81E259FF4F808191810197E8
S11348D009F013C1EFC0659B0EC0ED81FE81878591
S11348E0813049F4ED81FE81E259FF4F808191814D
S11348F0029709F4E2C020E030E0A901AD81BE8155
S11349005A966D917D918D919C915D970E942C5545
S113491018164CF4ED81FE81E259FF4F808191819C
S113492084579F4FF3C020E030E0A901AD81BE81E0
S11349305E966D917D918D919C9191970E942C55DD
S113494018164CF4ED81FE81E259FF4F808191816C
S113495088589F4FDBC0D80119966C9170E080E0B5
S113496090E00E947C549B01AC01C701B6010E94F7
S11349702C55181664F4ED81FE818281882339F068
S1134980E259FF4F8081918180569F4FBFC0D8016B
S11349901E966C9170E080E090E00E947C549B0134
S11349A0AC0169817A818B819C810E942C551816F7
S11349B00CF486C0A3019201C501B4010E9478538E
S11349C00E9449549B01772324F422273327261B72
S11349D0370BC901F801248930E02817390774F42A
S11349E0AD81BE8115968C9115978823D9F0A25973
S11349F0BF4F8D919C9186509F4F88C0F8012389A9
S1134A0030E08217930774F4AD81BE8115968C91C2
S1134A101597882339F0A259BF4F8D919C918C5FD3
S1134A209E4F74C01EDE71FD0DC0F80181A581305A
S1134A3049F4ED81FE81E259FF4F80819181019714
S1134A4009F441C00EDE72FD0DC0D80199968C9117
S1134A50813041F4ED81FE81E259FF4F80819181E3
S1134A600197A1F1FEDD73FD0CC0F80181A5813031
S1134A7041F4ED81FE81E259FF4F808191810197DC
S1134A8041F1EFDD83FD28C0D80199968C918130E6
S1134A9031F5ED81FE81E259FF4F808191810197CB
S1134AA009F58DE291E032C085E690E02FC086E6FC
S1134AB090E02CC08FE690E029C080E790E026C00B
S1134AC08CED90E023C08FE091E020C089E191E07B
S1134AD01DC083E291E01AC080E090E017C080E03E
S1134AE090E014C080E090E011C04B99D7CE08C08C
S1134AF06599E7CEF0CE8CB1FECE6599F3CEFBCEB0
S1134B006599DFCEE8CE6599F6CFE5CE26960FB649
S1134B10F894DEBF0FBECDBFDF91CF911F910F91EF
S1134B20FF90EF90DF90CF90BF90AF909F908F90C9
S1134B307F906F905F904F900895EFE6F0E0808152
S1134B4082608083E1E8F0E0808181608083089561
S1134B50E1E8F0E080818E7F8083109285001092DE
S1134B608400EFE6F0E080818D7F8083B19A089520
S1134B7088E0809381008EE98093890080E68093A9
S1134B808800E6CF0895CF93DF93FA013A97E73D83
S1134B9041E0F40708F011C2EB01DC018827E45678
S1134BA0FF4F8F4F0C94B6591B966C91262F30E013
S1134BB004C21F966C91262F30E0FFC11C966C91A5
S1134BC0262F30E0FAC11E966C91262F30E0F5C1F5
S1134BD01D966C91262F30E0F0C1A659BF4F2D9140
S1134BE03C91EBC120E030E040E251E456966D91F7
S1134BF07D918D919C9159970E9475550E944954BD
S1134C009B01DBC120E030E040E251E452966D911B
S1134C107D918D919C9155970E9475550E944954A0
S1134C209B01CBC120E030E040E251E4D2966D918B
S1134C307D918D919C91D5970E9475550E94495400
S1134C409B01BBC120E030E040E251E4D6966D9177
S1134C507D918D919C91D9970E9475550E944954DC
S1134C609B01ABC1A459BF4F2D913C91A6C1AE5B32
S1134C70BF4F20E030E040E251E46D917D918D9191
S1134C809C910E9475550E9449549B0196C1DE96E1
S1134C9020E030E040E251E46D917D918D919C9152
S1134CA00E9475550E9449549B0187C1A65BBF4F62
S1134CB020E030E040E251E46D917D918D919C9132
S1134CC00E9475550E9449549B0177C1AA5BBF4F4E
S1134CD020E030E040E251E46D917D918D919C9112
S1134CE00E9475550E9449549B0167C120E030E041
S1134CF040E251E49E966D917D918D919C91D19766
S1134D000E9475550E9449549B0157C120E030E030
S1134D1040E251E49A966D917D918D919C919D977D
S1134D200E9475550E9449549B0147C120E030E020
S1134D3040E251E45A966D917D918D919C915D97DD
S1134D400E9475550E9449549B0137C120E030E010
S1134D5040E251E45E966D917D918D919C91919785
S1134D600E9475550E9449549B0127C1DA966D91A2
S1134D707D918D919C91DD970E9449549B011DC1A9
S1134D806881262F30E019C16B81262F30E015C1D0
S1134D906981262F30E011C16A81262F30E00DC1D0
S1134DA06C81262F30E009C16C85262F30E005C1C7
S1134DB06D85262F30E001C16985262F30E0FDC0C6
S1134DC06A85262F30E0F9C06C89262F30E0F5C0C3
S1134DD06B89262F30E0F1C06E89262F30E0EDC0BC
S1134DE06D89262F30E0E9C06D8D262F30E0E5C0B7
S1134DF06E8D262F30E0E1C06C8D262F30E0DDC0B3
S1134E006F8D262F30E0D9C06E85262F30E0D5C0B7
S1134E106FA1262F30E0D1C06EA1262F30E0CDC087
S1134E206DA1262F30E0C9C06E81262F30E0C5C0A9
S1134E306885262F30E0C1C06F81262F30E0BDC0C9
S1134E40FB01E45AFF4F60817181828193810E944A
S1134E5049549B01B2C06A89262F30E0AEC06989EB
S1134E60262F30E0AAC06889262F30E0A6C06F85BF
S1134E70262F30E0A2C0FB01EA5BFF4F2081318185
S1134E809CC06CA1262F30E098C06A8D262F30E09C
S1134E9094C06B8D262F30E090C0698D262F30E0B2
S1134EA08CC02AA53BA589C069A1262F30E085C006
S1134EB02EA53FA582C02CA53DA57FC02CAD3DAD40
S1134EC07CC068A1262F30E078C068A5262F30E08A
S1134ED074C06D81262F30E070C06B85262F30E0C2
S1134EE06CC028A939A969C0688D262F30E065C037
S1134EF06F89262F30E061C069A5262F30E05DC0A0
S1134F006AA1262F30E059C02EAD3FAD56C0FB013B
S1134F10EE5BFF4F2081318150C0FB01EC5BFF4F02
S1134F20208131814AC0FB01E05CFF4F2081318147
S1134F3044C02AAD3BAD41C02CA93DA93EC02EA919
S1134F403FA93BC028AD39AD38C02AA93BA935C01B
S1134F50FB01EE5AFF4F208131812FC0FB01EA5A39
S1134F60FF4F2081318129C0FB01E85AFF4F208186
S1134F70318123C0FB01EC5AFF4F208131811DC0D8
S1134F80FB01E05BFF4F2081318117C0FB01E65B31
S1134F90FF4F2081318111C0FB01E45BFF4F208171
S1134FA031810BC0FB01E25BFF4F2081318105C0E1
S1134FB0FB01E85BFF4F20813181C901DF91CF9173
S1134FC00895CF93DF93DC01FB013A97E73D81E03D
S1134FD0F80708F0BBC08827ED58FD4F8F4F0C949D
S1134FE0B6594C93B3C013964C93B0C011964C93DE
S1134FF0ADC012964C93AAC014964C93A7C01C96AD
S11350004C93A4C01D964C93A1C019964C939EC07A
S11350101A964C939BC054964C9398C053964C93B9
S113502095C056964C9392C055964C938FC05D96FE
S11350304C938CC05E964C9389C05C964C9386C00E
S11350405F964C9383C01E964C9380C097964C9366
S11350507DC096964C937AC095964C9377C01696DD
S11350604C9374C018964C9371C017964C936EC0B1
S1135070ED01C45ADF4FBA0180E090E00E947A54F7
S1135080688379838A839B8361C052964C935EC004
S113509051964C935BC050964C9358C01F964C93BA
S11350A055C0AA5BBF4F4D935C9350C094964C93EC
S11350B04DC05A964C934AC05B964C9347C0599640
S11350C04C9344C09B965C934E939A973FC09196A1
S11350D04C933CC09F965C934E939E9737C09D968D
S11350E05C934E939C9732C0DD965C934E93DC9711
S11350F02DC090964C932AC098964C9327C0159631
S11351004C9324C01B964C9321C0D1965C934E9330
S1135110D0971CC058964C9319C057964C9316C000
S113512099964C9313C092964C9310C0D3965C936B
S11351304E93D2970BC0A85BBF4F4D935C9306C0B0
S11351405F968C91813011F440930107DF91CF91E8
S11351500895882309F1AFEFA80FB0E0119660E03D
S113516070E08FEF9FEFFB01E854F84F2081822716
S113517028E0AC014170552796958795452B21F081
S113518031E0832730EA9327215099F76F5F7F4FEF
S11351906A177B0741F702C08FEF9FEF9827892793
S11351A098270895EF92FF920F931F93CF93DF9365
S11351B0882371F18150082F10E00F5F1F4FC0E06A
S11351C0D0E00F2EF5E0EF2EFF24F394F02D809124
S11351D09D0A882349F0FE01E854F84F60818FE46A
S11351E097E00E94C50D10C08091F708882361F0F4
S11351F0F701808184608083FE01E854F84F608168
S113520086E997E00E94C50D2196C017D107F9F6EB
S1135210E5E0F1E08081847080830000DF91CF912C
S11352201F910F91FF90EF900895AF92BF92CF928C
S1135230DF92EF92FF920F931F93CF93DF938091AE
S11352409D0A882329F08FE497E00E94BC0D09C0D1
S11352508091F708882309F4DAC086E997E00E9470
S1135260BC0D909171079111D7C09FEF980F9730A3
S113527008F4D2C09091B807913009F0CDC0282F1E
S113528030E0F901EA54F84FD081F901E954F84FBC
S1135290C08182505EDF2C2F30E03D2B2817390768
S11352A009F0BAC0E8EBF7E021812093720782810C
S11352B0C381D0E0D82B8481458150E0582B7A01FA
S11352C0EE0CFF1CCA01880F991F880F991F880FC5
S11352D0991FE80EF91EEC0EFD1E233009F065C07F
S11352E09E01ADECBCEC0E94BE59969587959695AF
S11352F08795969587959C01220F331F880F991FD8
S1135300880F991F880F991F820F931F9E01281BD6
S1135310390B2130310551F02230310571F40F2E53
S1135320FEEDCF2EF9E0DF2EF02D09C00F2EF8E5AB
S1135330CF2EF9E0DF2EF02D02C0C12CD12CA42EEB
S1135340AA0C0F2EF5E0BF2EF02DBA0CE8EBF7E017
S113535081E0808383E08183A282CE15DF05A8F4F7
S113536003E010E0AE0168EF78E0C6010CDCF80160
S1135370E854F84F9083F801E754F84F80830E5FA8
S11353801F4F2A96CE15DF0568F383E08A0DE1DE10
S11353902B2D30E0F901EA54F84F9083F901E954D8
S11353A0F84F80838B2DFEDE37C0203109F034C0E6
S11353B0CE15DF05B0F407E010E0F801E854F84F2B
S11353C08081F801E754F84F408150E0582BBE012A
S11353D088EF98E0F6DD0E5F1F4F2A96CE15DF05A5
S11353E060F30FB6F8940F9240E650E060E070E08E
S11353F088EF98E00E94EF5C0F900FBE86E0A9DE74
S1135400E8EBF7E09683878388E0CCDE05C08091E3
S11354107107882309F42ECFDF91CF911F910F914B
S1135420FF90EF90DF90CF90BF90AF9008958F9250
S11354309F92AF92BF92CF92DF92EF92FF920F931F
S11354401F930E94B81DFC012091F80830E0A8EEDB
S1135450B3E00E94BE594B015C018081823009F0A7
S113546040C08EEB92E09F938F9386E997E09F93E1
S11354708F930E94340D809100010F900F900F9034
S11354800F9083FD70C081E080936409E2E0F1E055
S113549080818860808383EF98E00E949405609304
S11354A0640A7093650A8093660A9093670AEAE334
S11354B0F9E0808191810196918380830F2EF4E637
S11354C0CF2ED12CE12CF12CF02D00E010E0A50121
S11354D0940164E080916E0A90916F0A0E94911B7E
S11354E042C08F3009F03FC080ED92E09F938F93CC
S11354F086E997E09F938F930E94340D8091000179
S11355000F900F900F900F9084FD2DC082E0809338
S1135510EA09E2E0F1E080818061808383EF98E032
S11355200E9494056093780A7093790A80937A0AAA
S113553090937B0AEEE4F9E0808191810196918356
S113554080830F2EF4E6CF2ED12CE12CF12CF02DFC
S113555000E010E0A501940164E08091800A90913C
S1135560810A0E94911B1F910F91FF90EF90DF9091
S1135570CF90BF90AF909F908F9008958F929F92FD
S1135580AF92BF92CF92DF92EF92FF920F931F934D
S1135590CF93DF93AC012091FB0830E0A8EEB3E099
S11355A00E94BE594B015C01CA010E94B81DEC0166
S11355B088818D3029F582EE92E09F938F9386E95E
S11355C097E09F938F930E94340D0F900F900F904C
S11355D00F90949902C0A49A01C0A4980F2EF4E6E7
S11355E0CF2ED12CE12CF12CF02D00E010E0A50100
S11355F0940164E08091E5089091E6080E94911B73
S113560088818931B9F4939902C0A39A01C0A398FF
S11356100F2EF4E6CF2ED12CE12CF12CF02D00E04E
S113562010E0A501940164E080915E0A90915F0A04
S11356300E94911BDF91CF911F910F91FF90EF90EA
S1135640DF90CF90BF90AF909F908F9008950E946D
S1135650B81DFC0180818730A1F4E8E5F9E0118AE6
S113566081E0858385EF92E09F938F9386E997E0AD
S11356709F938F930E94340D0F900F900F900F9073
S11356800895843199F4EEEDF9E0118A81E085837F
S11356908AE093E09F938F9386E997E09F938F939B
S11356A00E94340D0F900F900F900F9008950E9458
S11356B0B81DFC018081863091F481E08093590902
S11356C08FE193E09F938F9386E997E09F938F9365
S11356D00E94340D0F900F900F900F900895833116
S11356E089F481E08093DF0981E393E09F938F93B2
S11356F086E997E09F938F930E94340D0F900F904B
S11357000F900F9008958F929F92AF92BF92CF9275
S1135710DF92EF92FF920F931F930E94B81DFC013A
S11357208081843009F03AC12091FC0830E0A8EE71
S1135730B3E00E94BE594B015C01F0E18F0EF7E229
S11357409F1EA11CB11C80915B09882309F486C0AB
S1135750949B59C080912009813009F054C0A498C9
S113576083E493E09F938F9386E997E09F938F93CD
S11357700E94340D10926609C090870AD090880A5E
S1135780E090890AF0908A0A83EF98E00E949405D9
S1135790A70196010E948F05C0903D07D0903E0757
S11357A0E0903F07F0904007DC01CB018C0D9D1D7C
S11357B0AE1DBF1D80933D0790933E07A0933F0706
S11357C0B09340070F900F900F900F9081319E403F
S11357D0A105B10508F442C0E8EFF8E080AD91AD51
S11357E0019691AF80AF40E650E060E070E0CF01F9
S11357F00E94CE5C10923D0710923E0710923F0724
S1135800109240072BC0949929C0809120098111DE
S113581025C0A49A81E08093660984E593E09F9370
S11358208F9386E997E09F938F930E94340D83EFC3
S113583098E00E9494056093870A7093880A809385
S1135840890A90938A0AECE3F9E0808191810196B8
S1135850918380830F900F900F900F9080915C093B
S1135860811105C080915A09882309F484C0949B4E
S113587058C080912009811154C0A49883E493E016
S11358809F938F9386E997E09F938F930E94340DA3
S113589010926609C090870AD090880AE090890A1D
S11358A0F0908A0A83EF98E00E949405A70196017C
S11358B00E948F05C0903D07D0903E07E0903F07BF
S11358C0F0904007DC01CB018C0D9D1DAE1DBF1D6A
S11358D080933D0790933E07A0933F07B093400702
S11358E00F900F900F900F9081319E40A105B1054C
S11358F008F441C0E8EFF8E080AD91AD019691AFB6
S113590080AF40E650E060E070E0CF010E94CE5CE2
S113591010923D0710923E0710923F0710924007E5
S11359202AC0949928C080912009813021F5A49A35
S11359308093660983E493E09F938F9386E997E0CD
S11359409F938F930E94340D83EF98E00E949405F7
S11359506093870A7093880A8093890A90938A0ACD
S1135960ECE3F9E0808191810196918380830F902B
S11359700F900F900F900F2EF4E6CF2ED12CE12C28
S1135980F12CF02D00E010E0A501940164E0809179
S1135990CC099091CD090E94911B34C1813109F049
S11359A031C12091FB0830E0A8EEB3E00E94BE595B
S11359B04B015C018091E109882309F487C0939B22
S11359C05AC080912009813009F055C0A39885E61A
S11359D093E09F938F9386E997E09F938F930E9420
S11359E0340D1092EC09C090A20AD090A30AE09062
S11359F0A40AF090A50A83EF98E00E949405A701F9
S1135A0096010E948F05C0903907D0903A07E09024
S1135A103B07F0903C07DC01CB018C0D9D1DAE1DB6
S1135A20BF1D8093390790933A07A0933B07B09327
S1135A303C070F900F900F900F9081319E40A1056D
S1135A40B10508F443C0E6E4F9E080819181019650
S1135A509183808340E650E060E070E088EF98E056
S1135A600E94CE5C1092390710923A0710923B07BD
S1135A7010923C072BC0939929C080912009811171
S1135A8025C0A39A81E08093660986E793E09F93FB
S1135A908F9386E997E09F938F930E94340D83EF51
S1135AA098E00E9494056093A20A7093A30A8093DD
S1135AB0A40A9093A50AE0E5F9E08081918101961A
S1135AC0918380830F900F900F900F908091E00945
S1135AD0882309F485C0939B59C0809120098111C2
S1135AE055C0A39885E693E09F938F9386E997E04A
S1135AF09F938F930E94340D1092EC09C090A20AD8
S1135B00D090A30AE090A40AF090A50A83EF98E04D
S1135B100E949405A70196010E948F05C090390741
S1135B20D0903A07E0903B07F0903C07DC01CB01B2
S1135B308C0D9D1DAE1DBF1D8093390790933A07B0
S1135B40A0933B07B0933C070F900F900F900F90DA
S1135B5081319E40A105B10508F442C0E6E4F9E0B4
S1135B608081918101969183808340E650E060E0DA
S1135B7070E088EF98E00E94CE5C10923907109292
S1135B803A0710923B0710923C072AC0939928C009
S1135B9080912009813021F5A39A8093EC0985E650
S1135BA093E09F938F9386E997E09F938F930E944E
S1135BB0340D83EF98E00E9494056093A20A7093D9
S1135BC0A30A8093A40A9093A50AE0E5F9E08081F2
S1135BD091810196918380830F900F900F900F9085
S1135BE00F2EF4E6CF2ED12CE12CF12CF02D00E079
S1135BF010E0A501940164E08091CE099091CF0951
S1135C000E94911B1F910F91FF90EF90DF90CF9016
S1135C10BF90AF909F908F9008958F929F92AF9274
S1135C20BF92CF92DF92EF92FF920F931F93209136
S1135C30FB0830E0A8EEB3E00E94BE594B015C01C2
S1135C4087E893E09F938F9386E997E09F938F93E0
S1135C500E94340D0F900F900F900F9080915C096B
S1135C60882371F1809100018823E4F0E2E0F1E0FF
S1135C7080818068808381E08093650983EF98E068
S1135C800E94940560937C0A70937D0A80937E0A37
S1135C9090937F0AEEE3F9E08081918101969183EC
S1135CA080830EC087E993E09F938F9386E997E002
S1135CB09F938F930E94340D0F900F900F900F902D
S1135CC080915A09811105C080915B09882309F4E8
S1135CD04DC08091000188230CF048C0E2E0F1E05F
S1135CE080818F77808310926509C0907C0AD09060
