:100000006CC500008BC5000089C5000087C50000D5
:1000100085C5000083C5000081C500007FC50000C4
:100020007DC500007BC5000079C5000077C50000D4
:1000300075C5000073C5000071C500006FC50000E4
:100040006DC500000C944F2269C5000067C5000013
:1000500065C5000063C5000061C500005FC5000004
:100060005DC500000C948F100C94171157C500004B
:1000700055C5000053C5000051C500004FC5000024
:1000800055C700004BC5000049C5000047C500002A
:100090000C9460110C94BF1141C500003FC50000D5
:1000A0003DC500003BC5000039C5000037C5000054
:1000B00035C5000033C5000031C500002FC5000064
:1000C0002DC500002BC5000029C500000C940812A6
:1000D0000C94671223C500000C94B0120C943813D2
:1000E0001DC500000C0D0C0D110D110D160D160D7A
:1000F0001B0D1B0D7D0D7D0D780D780D730D730D92
:100100006E0D6E0D310E310E380E380E3F0E3F0E55
:10011000460E460EBD0EEE0E280F590F930FC40F5C
:1001200002103310391D391D391D841D6D1D811DAF
:10013000391D391D841D6D1DB326C725C725D02740
:10014000D027D027D027D027D027D027B726CC2517
:10015000CC25D027D027D027D027D027D027D027ED
:10016000BB26D125D125D027D027D027D027D027EF
:10017000D027D027BF26D625D625D027D027D027D1
:10018000D027D027D027D027C326DB25DB25D027B3
:10019000D027D027D027D027D027D027C726E025A3
:1001A000E025D027D027D027D027D027D027D02789
:1001B000CB26E525E525D027D027D027D027D02767
:1001C000D027D027CF26F525F525D027D027D02733
:1001D000D027D027D027D027D32605260526D027FD
:1001E000D027D027D027D027D027D027D72615260D
:1001F0001526D027D027D027D027D027D027D02703
:10020000DB2625262526D027D027D027D027D02784
:10021000D027D027DF262A262A26D027D027D02766
:10022000D027D027D027D027E3263A263A26D02732
:10023000D027D027D027D027D027D027E726492678
:100240004926D027D027D027D027D027D027D0277E
:10025000EB2659265926D027D027D027D027D027BC
:10026000D027D027EF2669266926D027D027D02788
:10027000D027D027D027D027F32679267926D02754
:10028000D027D027D027D027D027D027F7268926D8
:100290008926D027D027D027D027D027D027D027EE
:1002A000FB2699269926D027D027D027D027D027DC
:1002B000D027D027FF26A926A926D027D027D027A8
:1002C000D027D027D027D0270327D027D027D02743
:1002D000D027D027D027D027D027D0270727D0272F
:1002E000D027D027D027D027D027D027D027D02756
:1002F0000B27D027D027D027D027D027D027D0270B
:10030000D027D0270F27D027D027D027D027D027F6
:10031000D027D027D027D0271327D027D027D027E2
:10032000D027D027D027D027D027D0271E27D027C7
:10033000D027D027D027D027D027D027D027D02705
:100340002227D027D027D027D027D027D027D027A3
:10035000D027D0272627D027D027D027D027D0278F
:10036000D027D027D027D0272A27D027D027D0277B
:10037000D027D027D027D027D027D0272E277727C0
:100380009B27D027D027D027D027D027D027D027EA
:1003900034277A27A127D027D027D027D027D027C6
:1003A000D027D02738278027A727D027D027D027A6
:1003B000D027D027D027D0273C278627AD27D02786
:1003C000D027D027D027D027D027D02740278C2749
:1003D000B327D027D027D027D027D027D027D02782
:1003E00044278F27B927D027D027D027D027D02739
:1003F000D027D0274727D027D027D027D027D027CE
:10040000D027D027D027D0274B279227BF27D02708
:10041000D027D027D027D027D027D0274E279527E1
:10042000C527D027D027D027D027D027D027D0271F
:1004300051279827CB27D027D027D027D027D027C0
:10044000D027D0275427D027D027D027D027D02770
:10045000D027D027D027D0275827D027D027D0275C
:10046000D027D027D027D027D027D0275C27D02748
:10047000D027D027D027D027D027D027D027D027C4
:100480006027D027D027D027D027D027D027D02724
:10049000D027D0276427D027D027D027D027D02710
:1004A000D027D027D027D0276727D027D027D027FD
:1004B000D027D027D027D027D027D0276B27D027E9
:1004C000D027D027D027D027D027D027D027D02774
:1004D0006F27D027D027D027D027D027D027D027C5
:1004E000D027D0277327E427992899289928992875
:1004F00099289928992899289928E62799289928A8
:100500009928992899289928992899289928E92794
:1005100099289928992899289928992899289928D3
:100520009928EC2799289928992899289928992871
:10053000992899289928EF2799289928992899285E
:1005400099289928992899289928F227992899284B
:100550009928992899289928992899289928F52738
:100560009928992899289928992899289928992883
:100570009928F82799289928992899289928992815
:10058000992899289928FB27992899289928992802
:1005900099289928992899289928FE2799289928EF
:1005A00099289928992899289928992899280128DB
:1005B0009928992899289928992899289928992833
:1005C00099280428992899289928992899289928B8
:1005D00099289928992807289928992899289928A5
:1005E000992899289928992899280A289928992892
:1005F00099289928992899289928992899280D287F
:1006000099289928992899289928992899289928E2
:10061000992810289928992899289928992899285B
:100620009928992899281328992899289928992848
:100630009928992899289928992816289928992835
:100640009928992899289928992899289928192822
:100650009928992899289928992899289928992892
:1006600099281C28992899289928992899289928FF
:100670009928992899281F289928992899289928EC
:1006800099289928992899289928222899289928D9
:1006900099289928992899289928992899282528C6
:1006A0009928992899289928992899289928992842
:1006B00099282828992899289928992899289928A3
:1006C0009928992899282B28992899289928992890
:1006D0009928992899289928992838289928992873
:1006E00099289928992899289928992899283B2860
:1006F00099289928992899289928992899289928F2
:1007000099283E289928992899289928992899283C
:100710009928992899284128992899289928992829
:100720009928992899289928992844289928992816
:100730009928992899289928992899289928492801
:1007400099289928992899289928992899289928A1
:1007500099284C28992899289928992899289928DE
:100760009928992899284F289928992899289928CB
:1007700099289928992899289928522899289928B8
:1007800099289928992899289928992899285528A5
:100790009928992899289928992899289928992851
:1007A00099285A2899289928992899289928992880
:1007B0009928992899285D2899289928992899286D
:1007C0009928992899289928992862289928992858
:1007D0009928992899289928992899289928672843
:1007E00089288E2893289928992899289928992822
:1007F00099286C289928992899289928992899281E
:100800009928992899286F2899289928992899280A
:1008100099289928992899289928722899289928F7
:1008200099289928992899289928992899287528E4
:1008300099289928992899289928992899289928B0
:1008400099287828992899289928992899289928C1
:100850009928992899287D289928992899289928AC
:100860009928992899289928992880289928992899
:100870009928992899289928992899289928832886
:100880009928992899289928992899289928992860
:100890009928862808000000BE922449123EABAA7F
:1008A000AA2ABECDCCCC4C3E00000080BEABAAAA8A
:1008B000AA3E00000000BF000000803F00000000D2
:1008C00000084178D3BB4387D1133D190E3CC3BD0B
:1008D0004282AD2B3E68EC8276BED98FE1A93E4CB8
:1008E00080EFFFBE01C4FF7F3F00000000006E618B
:1008F0006E00696E660000407A10F35A00A0724ED6
:1009000018090010A5D4E80000E87648170000E4B4
:100910000B54020000CA9A3B000000E1F5050000FC
:1009200080969800000040420F000000A086010061
:100930000000102700000000E80300000000640031
:10094000000000000A00000000000100000000009C
:100950002C76D888DC674F0823DFC1DFAE59E1B1C0
:10096000B796E5E3E453C63AE651997696E8E6C2CF
:100970008426EB898C9B62ED407C6FFCEFBC9C9FD6
:1009800040F2BAA56FA5F490055A2AF75C936B6CF8
:10099000F9676DC11BFCE0E40D47FEF520E6B500EC
:1009A000D0ED902E0300943577050080841E08005A
:1009B00000204E0A000000C80C333333330F986E0A
:1009C00012831141EF8D2114893BE65516CFFEE6C7
:1009D000DB18D1844B381BF77C1D901DA4BBE4248D
:1009E000203284725E228100C9F124ECA1E53D270A
:1009F0009A99C9C133336BC13333D3C0CDCCCC3D0D
:100A000048E1A24066662E41000078419A999D41D6
:100A10000000BC41CDCCD8413333F3416666064279
:100A2000666612429A991D4266662842CDCC3242D1
:100A3000CDCC2842666646429A994F426666584235
:100A4000333361429A9969429A99714233337942B8
:100A50009A99804233338442CDCC874266668B427A
:100A600000008F42666692429A999542CDCC984298
:100A70000EE716E00F2EFEEAEF2EF6E0FF2EF02D29
:100A800080917D06882311F10FB6F8940F92D8015A
:100A90001796ED91FC911897C085D185CE010296ED
:100AA00024D38091710681508093710680917D06D8
:100AB000815080937D060F900FBE8B8D9C8D75D0DD
:100AC000CE0173D080917D068111DECFF701808148
:100AD000823008F03DD173D2D3CF11241FBECFEFA7
:100AE000D1E2DEBFCDBF00E00CBF16E0A0E0B2E077
:100AF000E8E8FBEB00E00BBF02C007900D92AE35BB
:100B0000B107D9F72AE0AEE5B6E001C01D92AD3AD3
:100B1000B207E1F70E946F210C94C25D71CA621B9B
:100B2000730B840B950B0895FC010FB6F89460913C
:100B3000A90A7091AA0A8091AB0A9091AC0A0FBEE3
:100B4000309721F0608371838283938308958F931C
:100B50008FB78F93F8948091A90A8F5F8093A90A29
:100B60008091AA0A8F4F8093AA0A8091AB0A8F4F77
:100B70008093AB0A8091AC0A8F4F8093AC0A8F911F
:100B80008FBF8F910895CF93DF93EC010E948B1656
:100B9000CE010E94895AEC010E947417209709F433
:100BA00027D2CE01DF91CF910895CF93DF930097A5
:100BB00041F0EC010E948B16CE010E94215B0E9445
:100BC0007417DF91CF91089531E1FC0130833197A3
:100BD00022E220833197A3E3A0833197608331978A
:100BE00070833197108231971082319760E860836B
:100BF000319710823197108231971082319762E0DD
:100C00006083319763E06083319764E0608331975C
:100C100065E06083319766E06083319767E06083C9
:100C2000319768E06083319769E06083319760E1D4
:100C3000608331973083319732E13083319733E1EC
:100C40003083319734E13083319735E13083319708
:100C500036E13083319737E13083319738E13083A3
:100C6000319739E13083319730E23083319731E287
:100C7000308331972083319723E22083319740835B
:100C800031975083319726E22083319727E22083E2
:100C9000319728E22083319729E22083319720E39E
:100CA0002083319721E320838997089588EE93E08C
:100CB000A0E0B0E08093450790934607A0934707D4
:100CC000B09348078093490790934A07A0934B0736
:100CD000B0934C071092990089EF809398008BE0B5
:100CE00080939100E1E7F0E0808182608083A091B1
:100CF000DA06B091DB06CD91CDBFDD91DEBFFF916D
:100D0000EF91DF91CF91BF91AF919F918F917F91A3
:100D10006F915F914F913F912F911F910F91FF9094
:100D2000EF90DF90CF90BF90AF909F908F907F908B
:100D30006F905F904F903F902F901F900F900CBE40
:100D40000F900BBE0F900FBE0F90089581E0089595
:100D50000F920FB6F8940F920BB60F920CB60F923B
:100D60001F9211242F923F924F925F926F927F9227
:100D70008F929F92AF92BF92CF92DF92EF92FF92AB
:100D80000F931F932F933F934F935F936F937F9393
:100D90008F939F93AF93BF93CF93DF93EF93FF9383
:100DA000A091DA06B091DB060DB60D920EB60D924B
:100DB0000E940918A091DA06B091DB06CD91CDBF53
:100DC000DD91DEBFFF91EF91DF91CF91BF91AF91A8
:100DD0009F918F917F916F915F914F913F912F9153
:100DE0001F910F91FF90EF90DF90CF90BF90AF9049
:100DF0009F908F907F906F905F904F903F902F903B
:100E00001F900F900CBE0F900BBE0F900FBE0F9057
:100E100008950F920FB6F8940F920BB60F920CB67E
:100E20000F921F9211242F923F924F925F926F92D6
:100E30007F928F929F92AF92BF92CF92DF92EF926A
:100E4000FF920F931F932F933F934F935F936F9353
:100E50007F938F939F93AF93BF93CF93DF93EF9342
:100E6000FF93A091DA06B091DB060DB60D920EB697
:100E70000D9213BE8091490790914A07A0914B07AC
:100E8000B0914C070197A109B1098093490790934C
:100E90004A07A0934B07B0934C07892B8A2B8B2BC7
:100EA00089F455DE8091450790914607A091470748
:100EB000B09148078093490790934A07A0934B0746
:100EC000B0934C070E949F1681110E940918A091AF
:100ED000DA06B091DB06CD91CDBFDD91DEBFFF918B
:100EE000EF91DF91CF91BF91AF919F918F917F91C2
:100EF0006F915F914F913F912F911F910F91FF90B3
:100F0000EF90DF90CF90BF90AF909F908F907F90A9
:100F10006F905F904F903F902F901F900F900CBE5E
:100F20000F900BBE0F900FBE0F90089572DF1895B3
:100F3000811106C0ECE7F0E080818F7D8083089509
:100F4000ECE7F0E0808180628083089580917A00F0
:100F500086FB882780F90895803218F597E89093EA
:100F60007A0090917C00662311F0906C02C09F770C
:100F70009064907E883040F0EBE7F0E020812860BC
:100F800020838850892B06C0EBE7F0E02081277F83
:100F90002083892B80937C00EAE7F0E080818064E5
:100FA0008083089580917C0085FF04C08091790042
:100FB00090E00895809178009091790008958FEFE6
:100FC00080937E0080937D0080B7877F80BF80B74D
:100FD000806880BF83B7817F83BF0FB6F8940F927C
:100FE00083B7816083BF0F900FBE889513BE0895AD
:100FF000279A2F9A00001F9AFDCF279A2F9A00C098
:101000001F9AFDCFFC010396928381834FEF5FEF20
:10101000BA0143835483658376839087878392875D
:10102000818710820895FC01138612860895CF935C
:10103000DF939C01FB01DC011196CD91DC911297AD
:10104000D583C4838E819F81978386838E819F8180
:10105000DC0115967C936E9314977F836E833387A0
:101060002287F90180818F5F8083DF91CF9108957E
:101070000F931F93CF93DF93EB01088119812A818E
:101080003B810F3F4FEF14072407340721F4FC0185
:10109000A185B28511C0DC01139601C0DF01149651
:1010A000ED91FC9115974081518162817381041704
:1010B00015072607370790F71496ED91FC911597C1
:1010C000FD83EC83D783C683BF83AE831596DC9301
:1010D000CE9314979B878A87FC0120812F5F208302
:1010E000DF91CF911F910F910895CF93DF93FC0172
:1010F000A285B385C481D581868197819F838E83A4
:10110000C681D781848195819D838C8311968D9131
:101110009C911297E817F90731F48681978112960E
:101120009C938E931197138612868C9181508C9389
:101130008C91DF91CF9108950FB6F8940F92FC0136
:10114000968D0F900FBE81E0911180E008950F936E
:101150001F93CF93DF93EC01042F1E8D48A1411103
:101160000CC088819981892B09F042C08A819B81BA
:101170000E942A1A1B821A8242C0011117C050E035
:101180008C819D810E948D5C28A18C819D81820F24
:10119000911D9D838C832A813B818217930750F197
:1011A000888199819D838C8380E029C050E08E8165
:1011B0009F810E948D5C88A190E091958195910915
:1011C0002E813F81280F391F3F832E83488159810B
:1011D0002417350730F42A813B81820F931F9F83A8
:1011E0008E83023049F4112349F0115080E007C08A
:1011F00080E005C080E003C080E001C080E01F5FA8
:101200001E8FDF91CF911F910F910895FC0140A196
:101210004423A9F050E026813781240F351F3783FE
:101220002683828193812817390720F0808191815C
:1012300097838683CB01668177810C948D5C0895BA
:10124000EF92FF920F931F93CF938C010FB6F894F8
:101250000F92FC01C2A11C16ACF48389811106C057
:1012600011C0F8018389811105C00CC07801F3E138
:10127000EF0EF11CC7010E94021981110E94AA19E8
:10128000C15079F78FEFF80182A30F900FBE0FB610
:10129000F8940F92C1A11C16ACF48085811106C090
:1012A00011C0F8018085811105C00CC07801F8E0FB
:1012B000EF0EF11CC7010E94021981110E94AA19A8
:1012C000C15079F78FEFF80181A30F900FBECF9136
:1012D0001F910F91FF90EF900895CF93DF93EC0152
:1012E0000FB6F8940F924881598128A130E07F8D84
:1012F000729FC001739F900D1124FA01E80FF91F2E
:10130000FB83EA831E8E5D834C83821B930B840FC9
:10131000951F9F838E838FEF89A38AA361110BC0D2
:101320008885882371F0CE0108960E9402198823CF
:1013300041F00EDD06C0CE01089664DECE01439674
:1013400061DE0F900FBE81E0DF91CF9108950F9382
:101350001F93CF93DF93082F162F6623B1F0869F3C
:10136000C001112483960FDCEC01009739F413C0FF
:101370000F8F18A361E0CE01B0DF0DC08396998373
:101380008883F6CFD983C883F3CF83E290E0FBDB79
:10139000EC01892BB9F7CE01DF91CF911F910F910D
:1013A00008959F92AF92BF92CF92DF92EF92FF92F9
:1013B0000F931F93CF93DF93CDB7DEB729970FB667
:1013C000F894DEBF0FBECDBF7C015B012E833F834F
:1013D0004887598710E0992493946C0188E0C80EDF
:1013E000D11C0FB6F8940F92F701968D878D981740
:1013F00010F00230B1F4402FB501C701A8DEF701AB
:101400009389992341F0C70143960E9402198823CA
:1014100021F09EDC02C081119BDC0F900FBE81E0A9
:1014200052C08E819F81A885B985892B8A2B8B2BF1
:1014300021F40F900FBE80E046C0111105C0CE010F
:1014400001960E944419192D0F900FBE0E948B1611
:101450000FB6F8940F92F70181A18F3F09F411A202
:10146000F70182A18F3F09F412A20F900FBEBE01B7
:101470006A5F7F4FCE0101960E94551981111EC0EF
:101480000FB6F8940F92F701968D878D0F900FBECF
:1014900098130FC04E815F8168857985C6010E94CF
:1014A000CB18C701CDDE0E94741781119ACF50DC92
:1014B00098CFC701C5DE0E94741793CFC701C0DE65
:1014C0000E94741780E029960FB6F894DEBF0FBE15
:1014D000CDBFDF91CF911F910F91FF90EF90DF90E3
:1014E000CF90BF90AF909F9008950F93CF93DF93CD
:1014F000482F60E081E02BDFEC01009761F01B8258
:101500001A82198218821E8200E020E030E0A901D0
:1015100060E070E046DFCE01DF91CF910F9108953A
:10152000EF92FF920F931F93CF93DF938A01FC01F9
:10153000568D378D531710F02230E9F4422F780181
:10154000EC011AA104DE1F3F81F48B898823A9F0E6
:10155000CE0143960E940219882389F0E114F10418
:1015600081F081E0F70180830DC0FF24F394F10E38
:10157000FAA281E007C080E005C081E003C081E0FD
:1015800001C081E0DF91CF911F910F91FF90EF900B
:101590000895CF93DF93FC01868D978D8917C0F452
:1015A00092A18F5F868F9F3F79F48389882391F082
:1015B000EB01CF0143960E940219882369F020971E
:1015C00069F081E088830BC09F5F92A381E007C030
:1015D00080E005C081E003C081E001C081E0DF91CF
:1015E000CF9108959F92AF92BF92CF92DF92EF92E8
:1015F000FF920F931F93CF93DF93CDB7DEB7299759
:101600000FB6F894DEBF0FBECDBF8C015B012E83F9
:101610003F8348875987E12C992493946C0183E197
:10162000C80ED11C0FB6F8940F92F801F68CFF206B
:1016300099F0B501C801EADDFA94F801F68E8085CB
:10164000882331F0C80108960E940219811180DBBD
:101650000F900FBE81E051C08E819F81A885B98512
:10166000892B8A2B8B2B21F40F900FBE80E045C075
:10167000E11005C0CE0101960E944419E92C0F909B
:101680000FBE0E948B160FB6F8940F92F80181A13D
:101690008F3F09F411A2F80182A18F3F09F412A231
:1016A0000F900FBEBE016A5F7F4FCE0101960E9470
:1016B0005519811118C0C8013FDD882379F04E818A
:1016C0005F8168857985C6010E94CB18C801B8DDA5
:1016D0000E9474178111A6CF3BDBA4CFC801B0DDF7
:1016E0000E9474179FCFC801ABDD0E947417C80118
:1016F00023DD882309F496CF80E029960FB6F8946D
:10170000DEBF0FBECDBFDF91CF911F910F91FF9034
:10171000EF90DF90CF90BF90AF909F900895BF92D1
:10172000CF92DF92EF92FF920F931F93CF93DF93AD
:10173000CDB7DEB729970FB6F894DEBF0FBECDBF89
:101740008C014E835F8368877987B12CD12CCC24A0
:10175000C3947C0183E1E80EF11C0FB6F8940F925C
:10176000D8015E968C915E978823E1F081505E9659
:101770008C935E978D919C91892B29F40E94B61AC7
:10178000F80193838283D80118968C91882331F0D5
:10179000C80108960E9402198111DADA0F900FBE73
:1017A00081E07FC08E819F81A885B985892B8A2B96
:1017B0008B2B21F40F900FBE80E073C0D11005C0B9
:1017C000CE0101960E944419DC2C0F900FBE0E949E
:1017D0008B160FB6F8940F92F80181A18F3F09F490
:1017E00011A2D80192968C9192978F3F11F4929604
:1017F0001C920F900FBEBE016A5F7F4FCE01019613
:101800000E945519811127C0C80196DC8823F1F088
:10181000F80180819181892B51F40FB6F8940F92D1
:10182000828193810E94BC19B82E0F900FBE4E8109
:101830005F8168857985C7010E94CB18C80100DDEA
:101840000E947417811189CF83DA87CFC801F8DC31
:101850000E94741782CFC801F3DC0E947417C8017C
:101860006BDC882309F479CFBB20D1F00FB6F89454
:101870000F92F8018389882339F0028CF38DE02DD3
:10188000808164E0681B01C060E0D80112968D91F0
:101890009C9113970E946A1A0F900FBE80E001C0BE
:1018A00080E029960FB6F894DEBF0FBECDBFDF9162
:1018B000CF911F910F91FF90EF90DF90CF90BF904D
:1018C0000895CF93DF93EC010FB6F8940F9289A19E
:1018D0008F3F09F419A28AA18F3F09F41AA20F9031
:1018E0000FBE8E8D811104C0CE0143960E94E21876
:1018F000CE01A6DCDF91CF9108954F925F926F9257
:101900007F928F929F92AF92BF92CF92DF92EF928F
:10191000FF920F931F93CF93DF93EC01FB01019094
:101920000020E9F74B019F01215031090F2EF1E30F
:10193000EF2EFF24F394F02D01ED10E069EC70E040
:1019400041EC50E05C018DE0A80EB11C78C0D401E0
:10195000DD904D010FB6F8940F92ED85FE850F9046
:101960000FBE8F89988DE817F907F1F0F501828194
:101970009381DC01DC92828193810196938382833F
:10198000C084D1848C159D0521F486819781938331
:1019900082830FB6F8940F92808191810196918392
:1019A00080830F900FBE2BC000000FB6F8940F92EB
:1019B000ED85FE850F900FBE8F89988DE817F9078A
:1019C00009F43DC0F50182819381DC01DC928281C2
:1019D0009381019693838283C084D1848C159D0565
:1019E00021F486819781938382830FB6F8940F92B6
:1019F000808191810196918380830F900FBE4880F2
:101A0000512CB8E04B165104D0F4F2018827EE585F
:101A1000FF4F8F4F0C94725AFA018081806280834D
:101A20000EC0DB018C9180628C9309C0F80180812B
:101A30008062808304C0D7018C9180628C9382166F
:101A4000930609F084CFDF91CF911F910F91FF9002
:101A5000EF90DF90CF90BF90AF909F908F907F904E
:101A60006F905F904F9008950F931F93CF93DF93E4
:101A7000CDB7DEB708851985F801858D813029F449
:101A800067D9F801858D8130D9F381E0F801858F20
:101A9000638D748D9E01245F3F4F4A855B85818DE8
:101AA000928D0E94E45CF801618D728DC80125DF82
:101AB000F801158EDF91CF911F910F910895CF936B
:101AC000DF93DC014C9150E048305105E8F5FA0114
:101AD0008827E658FF4F8F4F0C94725A809130013F
:101AE000882354F131C08091D0008823E4F02CC0C9
:101AF0008091C800882374F027C08091C00088239B
:101B00001CF5C6ECD0E0E0ECF0E088818081882311
:101B1000E4F31AC0CEECD0E0E8ECF0E088818081FC
:101B20008823E4F311C0C6EDD0E0E0EDF0E0888159
:101B300080818823E4F308C0C6E3D1E0E0E3F1E06C
:101B4000888180818823E4F30FB6F8940F9212966F
:101B50001C921E92119717968D919C91189714962E
:101B60009C938E93139716969C938E9315970F9034
:101B70000FBEDF91CF9108950FB6F8940F92FC013C
:101B8000818192810F900FBE0895CF93DF93DC0186
:101B90000FB6F8940F921D962D913C911E970F90C1
:101BA0000FBE57968D919C91589728173907F1F0E1
:101BB000FD013D96C281D381688382819381019624
:101BC00093838283208531858217930721F4868150
:101BD0009781938382830FB6F8940F9280819181CD
:101BE0000196918380830F900FBE2FC000000FB627
:101BF000F8940F921D962D913C911E970F900FBE59
:101C000057968D919C9158972817390709F445C02C
:101C1000FD013D96C281D3816883828193810196C3
:101C200093838283208531858217930721F48681EF
:101C30009781938382830FB6F8940F92808191816C
:101C40000196918380830F900FBE8C9190E0883035
:101C5000910528F5FC018827EE57FF4F8F4F0C9414
:101C6000725AE1ECF0E080818062808381E018C0EC
:101C7000E9ECF0E080818062808381E011C0E1EDD9
:101C8000F0E080818062808381E00AC0E1E3F1E0DE
:101C900080818062808381E003C080E001C081E0B8
:101CA000DF91CF9108957F928F929F92AF92BF92D2
:101CB000CF92DF92EF92FF920F931F93CF93DF9318
:101CC000CDB7DEB7A2970FB6F894DEBF0FBECDBF7B
:101CD0006C01762E49015A01C7010E94C305009785
:101CE000A9F0FE0132960FB6F8940F92118210827D
:101CF0009383828395838483978386838E0D9F1D30
:101D000091878087F386E2860F900FBEC8010E94FC
:101D1000C3050097A9F0FE013E960FB6F8940F9206
:101D20001182108293838283958384839783868331
:101D3000800F911F91878087138702870F900FBEB6
:101D4000C8010E94C3059B8F8A8F79821D8F0C8FDB
:101D50001E8E8F8E98A2A9A2BAA20FB6F8940F92E7
:101D6000898190E08830910508F0BAC1FC0188278C
:101D7000E657FF4F8F4F0C94725AD501C401975FFD
:101D8000A24CBF4FBC01CD01660F771F881F991F62
:101D9000660F771F881F991F95018401000F111F7F
:101DA000221F331F000F111F221F331FA90198018B
:101DB000220F331F441F551F0E94505A21503109D2
:101DC0003093C5002093C40082E08093C00088E96E
:101DD0008093C1008EE08093C20082C104EC10E0C9
:101DE000F801118210826A9A80EC8093C20088E91F
:101DF0008093C100D501C40180589B47A14EBF4FBD
:101E0000880F991FAA1FBB1F880F991FAA1FBB1FEE
:101E1000BC01CD01660F771F881F991F880C991C84
:101E2000AA1CBB1C880C991CAA1CBB1CA5019401F4
:101E3000220F331F441F551F220F331F441F551FEE
:101E40000E94505A21503109F8013183208348C142
:101E5000D501C401975FA24CBF4FBC01CD01660FF5
:101E6000771F881F991F660F771F881F991F95017D
:101E70008401000F111F221F331F000F111F221F8B
:101E8000331FA9019801220F331F441F551F0E94C1
:101E9000505A215031093093CD002093CC0082E07C
:101EA0008093C80088E98093C9008EE08093CA00BF
:101EB00017C10CEC10E0F80111821082559A80ECE9
:101EC0008093CA0088E98093C900D501C401805875
:101ED0009B47A14EBF4F880F991FAA1FBB1F880F9A
:101EE000991FAA1FBB1FBC01CD01660F771F881F5A
:101EF000991F880C991CAA1CBB1C880C991CAA1C35
:101F0000BB1CA5019401220F331F441F551F220F34
:101F1000331F441F551F0E94505A21503109F801A8
:101F200031832083DDC0D501C401975FA24CBF4F30
:101F3000BC01CD01660F771F881F991F660F771FA1
:101F4000881F991F95018401000F111F221F331F45
:101F5000000F111F221F331FA9019801220F331FE9
:101F6000441F551F0E94505A215031093093D5000B
:101F70002093D40082E08093D00088E98093D10040
:101F80008EE08093D200ACC004ED10E0F801118225
:101F90001082E1E0F1E080818460808380EC8093B6
:101FA000D20088E98093D100D501C40180589B47B5
:101FB000A14EBF4F880F991FAA1FBB1F880F991FE3
:101FC000AA1FBB1FBC01CD01660F771F881F991F79
:101FD000880C991CAA1CBB1C880C991CAA1CBB1C35
:101FE000A5019401220F331F441F551F220F331FD9
:101FF000441F551F0E94505A21503109F801318366
:1020000020836EC0D501C401975FA24CBF4FBC01B5
:10201000CD01660F771F881F991F660F771F881FD6
:10202000991F95018401000F111F221F331F000FFC
:10203000111F221F331FA9019801220F331F441FB4
:10204000551F0E94505A2150310930933501209379
:10205000340182E08093300188E9809331018EE081
:10206000809332013DC004E311E0F8011182108237
:10207000E4E0F1E080818460808380EC8093320131
:1020800088E980933101D501C40180589B47A14E56
:10209000BF4F880F991FAA1FBB1F880F991FAA1F28
:1020A000BB1FBC01CD01660F771F881F991F880CCD
:1020B000991CAA1CBB1C880C991CAA1CBB1CA50142
:1020C0009401220F331F441F551F220F331F441F3B
:1020D000551F0E94505A21503109F8013183208345
:1020E0000F900FBE82E2FE013196D60101900D9253
:1020F0008A95E1F7C601A2960FB6F894DEBF0FBE2F
:10210000CDBFDF91CF911F910F91FF90EF90DF90A6
:10211000CF90BF90AF909F908F907F9008951F9227
:102120000F920FB60F9211240BB60F922F933F937D
:102130004F935F936F937F938F939F93AF93BF93CF
:10214000CF93EF93FF938091C0008C7171F08091D9
:10215000C00088230CF057C0A6ECB0E0E0ECF0E043
:102160008C9180818823E4F34EC0C091C600809199
:10217000F50881111DC081E080939B0A0E949B2578
:102180001092850010928400E0919307F0E0EA54E9
:10219000F84FC083809193078F5F8093930780915E
:1021A00093078F3F19F481E080936F070E94902579
:1021B0000FB6F8940F92EDE4F7E0218132810F9091
:1021C0000FBE8385948528173907E9F0EEE4F7E020
:1021D000A281B381CC938281938101969383828380
:1021E000208531858217930721F486819781938317
:1021F00082830FB6F8940F9280819181019691832A
:1022000080830F900FBEFF91EF91CF91BF91AF915F
:102210009F918F917F916F915F914F913F912F91FE
:102220000F900BBE0F900FBE0F901F9018951F922E
:102230000F920FB60F9211240BB60F922F938F931C
:102240009F93AF93BF93EF93FF930FB6F8940F92C2
:1022500080915A0790915B070F900FBE892B31F444
:10226000E1ECF0E080818F7D80831CC0EAE5F7E03F
:10227000A481B5812D91B583A48380859185A8170C
:10228000B90721F486819781958384830FB6F894EA
:102290000F92808191810197918380830F900FBE6F
:1022A0002093C600FF91EF91BF91AF919F918F91C5
:1022B0002F910F900BBE0F900FBE0F901F9018958F
:1022C0001F920F920FB60F9211240BB60F922F93FD
:1022D0003F934F938F939F93AF93BF93EF93FF934E
:1022E0008091C8008C7171F08091C80088230CF037
:1022F00036C0AEECB0E0E8ECF0E08C918081882351
:10230000E4F32DC04091CE000FB6F8940F92E5EBA8
:10231000F8E0218132810F900FBE838594852817C4
:102320003907E9F0E6EBF8E0A281B3814C938281B2
:102330009381019693838283208531858217930749
:1023400021F486819781938382830FB6F8940F924C
:10235000808191810196918380830F900FBEFF91C0
:10236000EF91BF91AF919F918F914F913F912F919D
:102370000F900BBE0F900FBE0F901F9018951F92DD
:102380000F920FB60F9211240BB60F922F938F93CB
:102390009F93AF93BF93EF93FF930FB6F8940F9271
:1023A0008091C2089091C3080F900FBE892B31F421
:1023B000E9ECF0E080818F7D80831CC0E2ECF8E0E6
:1023C000A481B5812D91B583A48380859185A817BB
:1023D000B90721F486819781958384830FB6F89499
:1023E0000F92808191810197918380830F900FBE1E
:1023F0002093CE00FF91EF91BF91AF919F918F916C
:102400002F910F900BBE0F900FBE0F901F9018953D
:102410001F920F920FB60F9211240BB60F922F93AB
:102420003F934F938F939F93AF93BF93EF93FF93FC
:102430008091D0008C7171F08091D00088230CF0D5
:1024400036C0A6EDB0E0E0EDF0E08C91808188230D
:10245000E4F32DC04091D6000FB6F8940F92E1E757
:10246000F7E0218132810F900FBE83859485281774
:102470003907E9F0E2E7F7E0A281B3814C9382816A
:1024800093810196938382832085318582179307F8
:1024900021F486819781938382830FB6F8940F92FB
:1024A000808191810196918380830F900FBEFF916F
:1024B000EF91BF91AF919F918F914F913F912F914C
:1024C0000F900BBE0F900FBE0F901F9018951F928C
:1024D0000F920FB60F9211240BB60F922F938F937A
:1024E0009F93AF93BF93EF93FF930FB6F8940F9220
:1024F00080917E0790917F070F900FBE892B31F45A
:10250000E1EDF0E080818F7D80831CC0EEE7F7E095
:10251000A481B5812D91B583A48380859185A81769
:10252000B90721F486819781958384830FB6F89447
:102530000F92808191810197918380830F900FBECC
:102540002093D600FF91EF91BF91AF919F918F9112
:102550002F910F900BBE0F900FBE0F901F901895EC
:102560001F920F920FB60F9211240BB60F922F935A
:102570003F934F935F936F937F938F939F93AF930B
:10258000BF93CF93EF93FF93809130018C7171F0E3
:102590008091300188230CF057C0A6E3B1E0E0E35E
:1025A000F1E08C9180818823E4F34EC0C091360124
:1025B00080919B0A81111DC081E08093F5080E94E3
:1025C0009B251092850010928400E0919307F0E023
:1025D000EA54F84FC083809193078F5F80939307ED
:1025E000809193078F3F19F481E080936F070E94D9
:1025F00090250FB6F8940F92E4E9F7E0218132813B
:102600000F900FBE8385948528173907E9F0E5E917
:10261000F7E0A281B381CC93828193810196938369
:102620008283208531858217930721F486819781E3
:10263000938382830FB6F8940F92808191810196E3
:10264000918380830F900FBEFF91EF91CF91BF9147
:10265000AF919F918F917F916F915F914F913F913A
:102660002F910F900BBE0F900FBE0F901F901895DB
:102670001F920F920FB60F9211240BB60F922F9349
:102680008F939F93AF93BF93EF93FF930FB6F894FD
:102690000F928091A1079091A2070F900FBE892BF6
:1026A00031F4E1E3F1E080818F7D80831CC0E1EAB9
:1026B000F7E0A481B5812D91B583A48380859185B0
:1026C000A817B90721F486819781958384830FB673
:1026D000F8940F92808191810197918380830F906C
:1026E0000FBE20933601FF91EF91BF91AF919F9163
:1026F0008F912F910F900BBE0F900FBE0F901F90D8
:1027000018950F93813071F018F08230A9F026C02F
:1027100084B1876084B9239885B1896085B9249A8A
:102720002C9A23C084B1876084B9239885B18960CD
:1027300085B99D9AA59A19C084B1876084B92398F8
:1027400085B1896085B9E1E0F1E0808180628083B4
:10275000E2E0F1E080818062808307C084B187601D
:1027600084B9239885B1896085B98CB580658CBDA5
:102770008DB58EB580915E0690915F06892B89F4A8
:1027800081E00E94750A90935F0680935E06009731
:1027900041F000E020E030E0A90160E070E00E943C
:1027A000D1090F9108959CB59C7F282F2370922BFF
:1027B0009CBD9DB582FB882780F99E7F892B8DBDAE
:1027C0000895811104C08CB580628CBD08958CB5CC
:1027D0008F7D8CBD08959CB5937F892B8CBD08950A
:1027E000CF93C82F48EE53E060E070E080915E0622
:1027F00090915F060E948F0B8130B1F4C13039F0A7
:1028000018F0C23039F00DC02C9881E00EC0A598A8
:1028100081E00BC0E2E0F1E080818F7D808381E088
:1028200004C0289881E001C080E0CF9108950F9303
:10283000813031F018F0823029F00AC02C9A09C09A
:10284000A59A07C0E2E0F1E080818062808301C048
:10285000289A00E020E030E0A90160E070E080917B
:102860005E0690915F060E94D1090F910895282F6E
:102870009CB5892F807496FF17C00CB404FC08C067
:102880008CB580618CBD9CB5892F807194FF0CC084
:102890002EBD000005C09CB5892F807194FF04C037
:1028A0000DB407FEF8CF8EB50895E0919606F0912D
:1028B0009706808181110CC08FEF9FEFDC01809320
:1028C000630690936406A0936506B0936606089528
:1028D000E0919606F09197060780F085E02D008440
:1028E000F185E02D82819381A481B5818093630677
:1028F00090936406A0936506B093660608958F9240
:102900009F92AF92BF92CF92DF92EF92FF92CF93BE
:102910006B017C01C42F80906D0690906E06A09094
:102920006F06B09070068091DA069091DB060296F1
:102930000E9475088FEFC816D806E806F80669F4F5
:10294000CC2359F06091DA067091DB066E5F7F4F01
:1029500082E796E00E9417083FC0C80CD91CEA1C09
:10296000FB1CE091DA06F091DB06C282D382E4829E
:10297000F582C814D904EA04FB0468F46091DA060D
:102980007091DB0680919406909195066E5F7F4F63
:102990000E94380821C06091DA067091DB068091B0
:1029A0009606909197066E5F7F4F0E94380880913F
:1029B000630690916406A0916506B0916606C816FC
:1029C000D906EA06FB0640F4C0926306D09264067C
:1029D000E0926506F0926606CF91FF90EF90DF904F
:1029E000CF90BF90AF909F908F9008954F925F923D
:1029F0006F927F928F929F92AF92BF92CF92DF920F
:102A0000EF92FF920F93CF93DF934C016B015A012A
:102A10002901CA010E94C3053C01892B09F4ECC0BD
:102A200083E390E00E94C305EC01892BB1F07C8E1A
:102A30006B8EA50165EA70E0C3010E94965C21E0FF
:102A4000A21AB1088B8D9C8DA80EB91ED6018C914F
:102A50008D8F8C91811105C018C0C3010E94D505CE
:102A6000CBC0AE01425E5F4FF6013196BFE0CB0EA8
:102A7000D11CCF012191DA012D93AD01DC018C91A4
:102A8000882319F0EC15FD05A1F71BA6043008F00A
:102A900003E00A8F0CA71DA66E01B2E0CB0ED11C7D
:102AA000C6010E941308CE010E960E941308DB8710
:102AB000CA8784E090E0A0E0B0E0801B9109A10902
:102AC000B1098E879F87A88BB98BDF8BCE8B1EA613
:102AD0001FA618AA19AA1AAAA201B401C5010E9428
:102AE000E40599838883E114F10419F0F701D18397
:102AF000C0830FB6F8940F92809171068F5F809318
:102B000071068091DA069091DB06892BD1F5D0937E
:102B1000DB06C093DA0680917106813009F041C06E
:102B20008EEA96E00E94020889EB96E00E94020875
:102B300084EC96E00E9402088FEC96E00E94020866
:102B400083EA96E00E94020888E996E00E94020863
:102B500089E896E00E9402088EE796E00E9402084B
:102B600082E796E00E94020883EA96E09093970637
:102B70008093960688E996E0909395068093940654
:102B800010C080916B0681110CC0E091DA06F091C3
:102B9000DB06928D8A8D891720F0D093DB06C093D7
:102BA000DA06809167068F5F809367068A8D909121
:102BB0006C06981710F480936C06FBE08F9FC001A1
:102BC0001124B6018255994F0E9417080F900FBE2D
:102BD00080916B06882361F0E091DA06F091DB06C4
:102BE000928D8A8D981730F40E94A80681E005C066
:102BF00081E003C081E001C08FEFDF91CF910F91A1
:102C0000FF90EF90DF90CF90BF90AF909F908F900C
:102C10007F906F905F904F9008950F931F93CF9385
:102C2000DF93009709F43DC02091DA063091DB066E
:102C30008217930709F435C00FB6F8940F92FC0180
:102C4000248535852257364051F5FC01208D318D84
:102C5000F6E029383F0719F1232B09F5EC018C0127
:102C60000E5F1F4FC8010E9475088A8D90916C06F7
:102C7000981710F480936C062BE0829FC0011124FA
:102C8000B8018255994F0E941708E091DA06F09139
:102C9000DB069A8D828D981710F00E94A8060F907F
:102CA0000FBEDF91CF911F910F910895EF92FF9288
:102CB0000F930F2EF1E6EF2EF6E0FF2EF02D00E041
:102CC00020E030E040E850E066E172E088E395E023
:102CD0008DDE8130E1F4CED48130C9F4F8948FEFE9
:102CE0009FEFDC018093630690936406A0936506D2
:102CF000B093660681E080936B0610926D06109289
:102D00006E0610926F06109270060E9456060F9182
:102D1000FF90EF900895809160068F5F809360062A
:102D200008950FB6F8940F9260916D0670916E063B
:102D300080916F06909170060F900FBE08959F923C
:102D4000AF92BF92CF92DF92EF92FF920F931F93B9
:102D5000CF93DF93809160068111ADC0C0906D0666
:102D6000D0906E06E0906F06F09070068FEFC81A54
:102D7000D80AE80AF80AC0926D06D0926E06E09270
:102D80006F06F0927006C114D104E104F104B1F4AD
:102D90008091960690919706209194063091950621
:102DA0003093970620939606909395068093940609
:102DB000809168068F5F8093680677DD8091630657
:102DC00090916406A0916506B0916606C816D90672
:102DD000EA06FB0610F4B12C5DC0B12C0F2EFBE00F
:102DE000AF2EF02D99249394E0919606F0919706DA
:102DF000808181110CC08FEF9FEFDC01809363060F
:102E000090936406A0936506B093660643C0E09174
:102E10009606F09197060780F085E02DC085D18554
:102E20008A819B81AC81BD81C816D906EA06FB0662
:102E300048F48093630690936406A0936506B0936C
:102E4000660628C08E010E5F1F4FC8010E947508DC
:102E5000888D998D892B21F0CE010E960E947508E0
:102E60008A8D90916C06981710F480936C06A89E3A
:102E7000C0011124B8018255994F0E941708E091B2
:102E8000DA06F091DB069A8D828D981708F4ACCFA4
:102E9000B92CAACFE091DA06F091DB06E28D8BE047
:102EA000E89FF0011124E255F94F8081823048F00B
:102EB000BB24B39406C080916A068F5F80936A0634
:102EC000B12C80916906882311F0BB24B3948B2D1B
:102ED000DF91CF911F910F91FF90EF90DF90CF90F6
:102EE000BF90AF909F900895CF92DF92EF92FF92A4
:102EF0000F931F93CF93DF930FB6F8940F928091A7
:102F000060068150809360068091600681115AC0EE
:102F10008091710681112CC058C0D7011796ED9190
:102F2000FC911897C085D185CE010E960E94750838
:102F30008E010E5F1F4FC8010E9475088A8D909107
:102F40006C06981710F480936C06D89EC00111246B
:102F5000B8018255994F0E941708E091DA06F09166
:102F6000DB069A8D828D981788F0C09269060EC094
:102F7000C0E0D0E00F2EF9E8EF2EF6E0FF2EF02DA6
:102F80000F2EFBE0DF2EF02DCC24C394F7018081BF
:102F90008111C3CFCD2B09F088DCC0916A06CC2308
:102FA00049F0D1E0CCDE8111D0936906C150D1F750
:102FB00010926A0680916906882331F00E94A80663
:102FC00081E003C080E001C080E00F900FBEDF9180
:102FD000CF911F910F91FF90EF90DF90CF900895C8
:102FE000CF92DF92EF92FF926B017C01672B682BEF
:102FF000692B41F090DE40E0C701B60180DC74DF50
:10300000811102C00E94A806FF90EF90DF90CF9040
:10301000089580916006882321F081E080936906FD
:10302000089510926906A091DA06B091DB06E0914E
:10303000DA06F091DB062D913C91838D948D8217F9
:10304000930760F06091DA067091DB068091DA06F2
:103050009091DB06635E7F4F0E94FD0780916C06B6
:10306000282F30E09BE0899FF0011124E255F94FB1
:10307000908191110EC04BE08150282F30E0429F8B
:10308000F001439FF00D1124E255F94F90819923EF
:1030900099F39BE0929FA001939F500D1124DA01B8
:1030A000A255B94F1196ED91FC9112970480F581CC
:1030B000E02D1296FC93EE9311974F54594FE4175D
:1030C000F50729F444815581FD01528341839BE03A
:1030D000929FF001939FF00D1124E255F94F01806A
:1030E000F281E02D208531853093DB062093DA06CE
:1030F00080936C0608950F931F93CF93DF93EC0199
:103100000FB6F8940F92892B21F4C091DA06D09172
:10311000DB068E010E5F1F4FC8010E947508888D67
:10312000998D892B21F0CE010E960E947508B80169
:1031300082E796E00E9417088AA9813009F41AAA4A
:103140000F900FBE80916B06882331F00FB6F89474
:103150000F92ABDB0F900FBE8091DA069091DB06E9
:10316000C817D90799F480916B06882319F00E943B
:10317000A8060CC09091720680917106981305C044
:103180001092DB061092DA0601C043DFDF91CF9187
:103190001F910F910895CF92DF92EF92FF926A01F3
:1031A0007B016091DA067091DB06625F7F4F0E94BF
:1031B000380841E0C701B601A2DBFF90EF90DF9035
:1031C000CF900895CF92DF92EF92FF92CF936A0152
:1031D0007B01C22F6091DA067091DB06625F7F4F40
:1031E0000E941708CC2321F0CC24CA94DC2C760151
:1031F0004C2FC701B60183DBCF91FF90EF90DF909A
:10320000CF9008950F931F93CF93DF93DC01179610
:10321000ED91FC911897C085D1858E01025F1F4FFB
:10322000C8010E94750880916006811116C00C507B
:103230001109C8010E9475088A8D90916C06981733
:1032400010F480936C06BBE08B9FC0011124B80181
:103250008255994F0E94170805C0B80189E896E089
:103260000E941708E091DA06F091DB069A8D828DB4
:10327000891720F481E08093690601C080E0DF9126
:10328000CF911F910F91089520916806FC01208332
:1032900040916D0650916E0660916F0670917006B8
:1032A00041835283638374830895CF92DF92EF92B8
:1032B000FF920F931F93CF93DF93FB010FB6F89408
:1032C0000F9240916D0650916E0660916F0670915D
:1032D000700600811181228133810F3FAFEF1A0701
:1032E0002A073A0749F1EC01C980DA80EB80FC80BB
:1032F000A0916806B881BA1729F04C155D056E05D6
:103300007F05E0F44C195D096E097F0940175107EC
:103310006207730758F4041B150B260B370B008349
:10332000118322833383B0DF80E009C010821182D1
:103330001282138281E003C080E001C081E00F901F
:103340000FBEDF91CF911F910F91FF90EF90DF9013
:10335000CF90089581E080936906089580916B066F
:10336000882331F080916006882321F080E0089561
:1033700081E0089582E008950F931F93CF93DF9328
:10338000FC01892B09F460C0828DA091DA06B0910E
:10339000DB065A969C91891708F04AC046855785E6
:1033A00060897189772394F0A091DA06B091DB06E9
:1033B0005A969C9144E050E060E070E0491B51094E
:1033C0006109710946875787608B718B2BE0829F5B
:1033D000C00111248255994F248535852817390756
:1033E000F1F48F01EF012296CE010E947508E09161
:1033F000DA06F091DB06828DF801828F90916C06DF
:10340000981710F480936C06FBE08F9FC001112485
:10341000BE018255994F0E94170881E016C0A09105
:10342000DA06B091DB065A968C91828F81E00DC04E
:10343000A091DA06B091DB0681E024A55A969C9112
:10344000291718F080E001C080E0DF91CF911F9133
:103450000F9108950F931F93CF93DF93FC01892B56
:1034600079F185A5815085A7228D94A5291751F161
:1034700081112AC0EF018F010E5F1F4FC8010E940A
:1034800075088CA58A8F44E050E060E070E0481B2E
:103490005109610971094E875F87688B798B90911B
:1034A0006C06981710F480936C062BE0829FC00185
:1034B0001124B8018255994F0E94170881E005C078
:1034C00080E003C080E001C080E0DF91CF911F91D8
:1034D0000F9108950F931F93CF93DF93FC01892BD6
:1034E00009F43FC084A5861708F4862F928D98179B
:1034F000C1F125A52130A9F5828F468557856089C0
:103500007189772364F044E050E060E070E0481B8C
:1035100051096109710946875787608B718B2BE0D0
:10352000929FC00111248255994F24853585281713
:103530003907B9F4EF018F010E5F1F4FC8010E94D8
:1035400075088A8D90916C06981710F480936C061C
:103550002BE0829FC0011124B8018255994F0E942F
:103560001708DF91CF911F910F9108958091DA068E
:103570009091DB06892B39F0E091DA06F091DB06B9
:1035800085A58F5F85A78091DA069091DB06089567
:10359000CF92DF92EF92FF920F931F93FC01428331
:1035A00053836483758393878287041715072607DF
:1035B0003707C0F00C191D092E093F09868597852C
:1035C000A089B189081719072A073B0700F5BF0131
:1035D0006E5F7F4F8091E4069091E5060E94380867
:1035E00080E018C00C151D052E053F0528F44C156C
:1035F0005D056E057F0568F4BF016E5F7F4F8091AA
:10360000E6069091E7060E94380880E003C081E05A
:1036100001C081E01F910F91FF90EF90DF90CF905C
:1036200008950FB6F8940F928091E2069091E30608
:10363000892BE9F483EF96E00E94020888EE96E079
:103640000E94020883EF96E09093E7068093E606D7
:1036500088EE96E09093E5068093E40640E067E00C
:103660008AE00E94A7099093E3068093E2060F90F8
:103670000FBE0895EF92FF920F93D3DF8091E20681
:103680009091E306892B89F00F2EF0EEEF2EF6E0F5
:10369000FF2EF02D03E020E030E040E850E06BE149
:1036A00072E085E89CE1A2D901C080E00F91FF9013
:1036B000EF9008957F928F929F92AF92BF92CF9298
:1036C000DF92EF92FF920F931F93CF93DF936C01E2
:1036D0004A015B01722E87E190E00E94C305EC0174
:1036E000892B81F09EDFD982C8828E869F86A88A28
:1036F000B98A7A8A1C8B0B8BFE8AED8ACE010296E0
:103700000E941308CE01DF91CF911F910F91FF907E
:10371000EF90DF90CF90BF90AF909F908F907F9071
:1037200008958F929F92AF92BF92CF92DF92EF92C5
:10373000FF920F931F93CF93DF93CDB7DEB72797F9
:103740000FB6F894DEBF0FBECDBFE091E206F09158
:10375000E306309781F169832A833B834C835D8341
:103760009F838E836630F4F4F9DD823069F400E0E3
:10377000A7019601BE016F5F7F4F8091E206909195
:10378000E3060E94D10918C000E020E030E0A90162
:10379000BE016F5F7F4F8091E2069091E3060E9429
:1037A000D1090AC020E0A801BE016F5F7F4FCF01A1
:1037B0000E94900A01C080E027960FB6F894DEBF01
:1037C0000FBECDBFDF91CF911F910F91FF90EF9072
:1037D000DF90CF90BF90AF909F908F9008952F92E1
:1037E0003F924F925F926F927F928F929F92AF9291
:1037F000BF92CF92DF92EF92FF920F931F93CF93DE
:10380000DF931C018EDA2B013C018091DC06909144
:10381000DD06A091DE06B091DF06481659066A065D
:103820007B0608F053C03BC00780F085E02D808008
:103830009180A280B380C085D1858E010E5F1F4F1D
:10384000C8010E947508ED89FE89CE0119958A8903
:10385000813029F58E859F85A889B989880D991DA4
:10386000AA1DBB1D88169906AA06BB0670F48A839A
:103870009B83AC83BD83DB87CA87B8018091E60652
:103880009091E7060E9438080AC0C12CD12C76011D
:1038900000E010E0A501940160E0CE0142DFE0917C
:1038A000E606F091E70680818111BECF8091E406A3
:1038B0009091E5069093E7068093E606F093E5067F
:1038C000E093E40681E0F101808302C0F1011082FF
:1038D0004092DC065092DD066092DE067092DF06B2
:1038E000C301B201DF91CF911F910F91FF90EF9033
:1038F000DF90CF90BF90AF909F908F907F906F9010
:103900005F904F903F902F900895CF93DF93CDB766
:10391000DEB760970FB6F894DEBF0FBECDBFCE0105
:1039200001969A878987812C912CA12CB12C6984CE
:103930007A84E091E606F091E7068081882309F415
:10394000F2C00780F085E02D2080318042805380D6
:10395000E2D9CE01019643DF6B877C878D879E87F6
:10396000898181115DC08B859C85AD85BE85821561
:103970009305A405B50508F43CC0B6DAE091E60667
:10398000F091E7060780F085E02DA085B185B88B22
:10399000AF87CD0102960E947508EF85F88982896C
:1039A0008130F1F44685578560897189420D531D38
:1039B000641D751D720161010B851C852D853E8579
:1039C000CF01E6DD882361F0C82CD92CEA2CFB2C32
:1039D00000E010E0A201910160E08F859889A1DEEE
:1039E000AF85B8895596ED91FC915697CD01199503
:1039F0008BC020E0B201A1018B859C85AD85BE8581
:103A0000481B590B6A0B7B0B8091E2069091E306F1
:103A10000E94610C69DA811177C00E94A80674C007
:103A200063DA72C0898188230CF46EC04E805F8097
:103A3000D2011C968D919C911D97892B21F0C2017A
:103A400002960E947508CE010896C9DE8B019C0182
:103A50008981082E000C990BAA0BBB0B8A309105AB
:103A600008F052C0FC018827EE56FF4F8F4F0C9490
:103A7000725ACA80DB80EC80FD80F2014685578552
:103A8000608971894C0D5D1D6E1D7F1DC20180DD39
:103A90008823D1F1D2015596ED91FC915697C20140
:103AA0001995F2018289813079F54A815B816C81B7
:103AB0007D8186859785A089B1899A01AB01280F00
:103AC000391F4A1F5B1FC82CD92CEA2CFB2C00E0A5
:103AD00010E060E0C20125DE17C04A815B816C8185
:103AE0007D81D2011E964D935D936D937C9351978A
:103AF000400F511F621F731F68017901C20148DD29
:103B000003C0C2010E94D505282D392D4A2D5B2DF9
:103B1000662D772D8091E2069091E3060E94F20ACD
:103B2000811180CF06CFF7D8CE01019658DE6B8782
:103B30007C878D879E878981811172CFE091E40611
:103B4000F091E506808121E0811120E0282C392CBC
:103B50004A2C5B2C4FCFFC010FB6F8940F9281E0FA
:103B600024853585232B09F480E00F900FBE08953E
:103B70000FB6F8940F92FC01838994890F900FBEC1
:103B80000895C6EFD8E006E519E00F2EFEE3CF2E2C
:103B9000F2E0DF2EF02D0F2EF4E9EF2EF7E0FF2EEE
:103BA000F02D332433940F2EF3E38F2EF2E09F2E6B
:103BB000F02D0F2EF3E2AF2EF2E0BF2EF02DA895E0
:103BC0008F8D813009F0CFC08091FF06813091F454
:103BD000BE01C8010E944935F80131861092FF06E6
:103BE000BF92AF92FF92EF920E94340D0F900F9010
:103BF0000F900F90F8018185811148C092D84090B4
:103C0000D7085090D8086090D9087090DA089B01C6
:103C1000AC01241935094609570929013A012AA19D
:103C200030E0A0E6BAEE0E947A5A64157505860562
:103C3000970538F56AA57BA5072E000C880B990B14
:103C40000E9438559B01AC01F80162A973A984A9AF
:103C500095A90E9499548823A4F48091FF068111AC
:103C600010C0BE01C8010E944935F80131869F92FB
:103C70008F92FF92EF920E94340D0F900F900F9051
:103C80000F90F8018185882309F46DC04AD84090CF
:103C9000D7085090D8086090D9087090DA089B0136
:103CA000AC01241935094609570929013A0129A10E
:103CB00030E0A0E6BAEE0E947A5A641575058605D2
:103CC0009705F8F4F80182858823D9F0BE01C80170
:103CD0000E946435F8011186128623D86093D708B4
:103CE0007093D8088093D9089093DA08DF92CF9226
:103CF000FF92EF920E94340D0F900F900F900F9053
:103D000032C0F8018185882371F16CA57DA5072E4D
:103D1000000C880B990B0E9438559B01AC01F801EF
:103D200062A973A984A995A90E94E8551816DCF424
:103D3000BE01C8010E946435F801118612860E94F6
:103D400091166093D7087093D8088093D908909300
:103D5000DA08DF92CF92FF92EF920E94340D0F901B
:103D60000F900F900F9060ED77E080E090E038D9F1
:103D700026CFC6EFD8E00F2EFEE38F2EF9E09F2E60
:103D8000F02D0F2EF4E46F2EFAE07F2EF02D0F2E83
:103D9000F8E4CF2EFAE0DF2EF02D0F2EF6E5EF2E11
:103DA000F2E0FF2EF02D04E917E0552453940F2E76
:103DB000F8E4AF2EF2E0BF2EF02DA89580910D070C
:103DC00090910E0798D90FB6F8940F928CED99E068
:103DD0000E947B4D0F900FBE80910D0790910E07B2
:103DE0000E940D168CA18130A9F48091E209811105
:103DF0003AC08091DC09811174C05092E209BF92EF
:103E0000AF921F930F930E94340D0F900F900F905D
:103E10000F9024C0811122C08091E209882309F407
:103E200060C0ECEDF9E01682D6011D921C92109252
:103E3000940A1092930A118AFF92EF921F930F93A4
:103E40000E94340D8CED99E00E94FB518CED99E0BD
:103E50000E94D2380F900F900F900F908091E2093E
:103E6000882309F43EC08091ED098330D0F5BE016E
:103E70008CED99E0EFD39093940A8093930ABE015E
:103E80008CED99E00E94DC398091DD09882349F1AD
:103E90000E94911620910307309104074091050775
:103EA00050910607DC01CB01821B930BA40BB50BD1
:103EB00081319742A105B105A0F0D4016D917C91AB
:103EC0008CED99E00E944A52F301918380830E9415
:103ED00091166093030770930407809305079093EE
:103EE000060768EE73E080E090E07AD866CFC6EF10
:103EF000D8E0772473940F2EFEE38F2EF2E09F2EEE
:103F0000F02D04E917E00F2EF2ECCF2EF9E0DF2EB2
:103F1000F02D0F2EF3E7EF2EF2E0FF2EF02D0F2EF7
:103F2000F5E6AF2EF2E0BF2EF02DA89580910B079D
:103F300090910C07E0D80FB6F8940F9286E599E0BF
:103F40000E947B4D0F900FBE88A1823061F480915A
:103F50000B0790910C070E940D161092A40A88A1DD
:103F6000813069F406C0813051F48091A40A811136
:103F700006C07092A40A8CED99E00E94D2388CA100
:103F80008130F9F480915C09811146C08091560915
:103F900081116BC170925C090E9491166093D708E1
:103FA0007093D8088093D9089093DA08BF92AF92A3
:103FB0001F930F930E94340D0F900F900F900F904E
:103FC00026C0811124C080915C09882309F44DC169
:103FD000E6E5F9E0168282B112B8D6011D921C9274
:103FE0001092610A1092600A118AFF92EF921F9359
:103FF0000F930E94340D86E599E00E94FB5186E5FF
:1040000099E00E94D2380F900F900F900F908091FE
:104010005C09882309F429C180916709833008F07D
:1040200024C18F8D813009F0DEC08091FF06813080
:10403000A9F4BE0186E599E00E94493570925F09B6
:104040001092FF06E3E2F2E0FF93EF931F930F93CA
:104050000E94340D0F900F900F900F9080915F0988
:1040600081114DC00E9491162091D7083091D80837
:104070004091D9085091DA081B012C01221A330A09
:10408000440A550A2AA130E0A0E6BAEE0E947A5A04
:10409000621573058405950568F56AA57BA5072E4D
:1040A000000C880B990B0E9438559B01AC01609164
:1040B00088097091890980918A0990918B090E94E1
:1040C00099548823BCF48091FF06811113C0BE016E
:1040D00086E599E00E94493570925F0983E392E09A
:1040E0009F938F931F930F930E94340D0F900F9007
:1040F0000F900F9080915F09882309F474C00E948B
:1041000091162091D7083091D8084091D908509144
:10411000DA081B012C01221A330A440A550A29A184
:1041200030E0A0E6BAEE0E947A5A62157305840563
:10413000950510F5809160098823F1F0BE0186E5B0
:1041400099E00E946435E6E5F9E0118612860E9446
:1041500091166093D7087093D8088093D9089093EC
:10416000DA089F928F921F930F930E94340D0F9045
:104170000F900F900F9037C080915F09882399F1BD
:104180006CA57DA5072E000C880B990B0E94385555
:104190009B01AC01609188097091890980918A091D
:1041A00090918B090E94E8551816ECF4BE0186E543
:1041B00099E00E946435E6E5F9E0118612860E94D6
:1041C00091166093D7087093D8088093D90890937C
:1041D000DA089F928F921F930F930E94340D0F90D5
:1041E0000F900F900F908091800A81110AC0BE013C
:1041F00086E599E02FD29093610A8093600A27D2D6
:1042000002C01092800ABE0186E599E00E94DC3966
:1042100080915709882349F10E9491162091070740
:10422000309108074091090750910A07DC01CB0142
:10423000821B930BA40BB50B81319742A105B105ED
:10424000A0F06AA97BA986E599E00E944A52AEEBEC
:10425000B9E08D939C930E94911660930707709329
:1042600008078093090790930A0768EE73E080E0DF
:1042700090E00E94F01759CE02E812E0C4E9D7E0BE
:104280001F930F93DF93CF930E94340D4FEF5FEF97
:10429000BA018091810A9091820A0E948F0B0F903F
:1042A0000F900F900F90813059F7B2D780919B0AF1
:1042B000882349F08DE497E00E945F0D10929B0ADD
:1042C00010929307DDCF8091F5088823C9F2CE01C3
:1042D0000E945F0D1092F50810929307D1CFCDB7D1
:1042E000DEB7A297DEBFCDBF0E94293F93D133D462
:1042F00081E090E09093C5098093C40982E090E04A
:1043000090934B0A80934A0A80E090E00E949405C3
:104310006093F1087093F2088093F3089093F40887
:10432000EE24EA94F12C0FEF10E020E835E240E0B3
:1043300050E060E0CE0101960E94530E82E2FE0141
:104340003196ADE4B7E001900D928A95E1F720E84F
:1043500035E240E050E066E0CE0101960E94530E47
:1043600082E2FE013196A4E9B7E001900D928A95B0
:10437000E1F743E060E081E00E94A7099093820AA0
:104380008093810A009741F000E020E030E0A9012D
:1043900060E070E00E94D10940E650E060E070E02B
:1043A00086EF98E00E947A5D86E599E00E945E3390
:1043B0008CED99E00E945E3386E599E00E9485517C
:1043C0008CED99E00E94855181E08093800A809174
:1043D0002809909129099093670A8093660A809131
:1043E0003E0990913F099093DB098093DA0986EFAB
:1043F00098E00E944E368093EC098093660999E21A
:1044000088E10FB6F894A895809360000FBE909352
:1044100060007894E12CF12C02E020E030E040E0F4
:1044200051E060E972E08CE391E20E94F6140F2EF5
:10443000FDE0EF2EF7E0FF2EF02D00E020E030E071
:1044400040E052E067E972E087E79FE10E94F614DE
:104450000F2EFBE0EF2EF7E0FF2EF02D20E030E0F6
:1044600040E052E060EA72E089EB9EE10E94F614BF
:10447000E12CF12C20E030E040E051E069EA72E00C
:1044800081EC9DE10E94F6140E94561680E090E0B7
:10449000A2960FB6F894DEBF0FBECDBF08951F924F
:1044A0000F920FB60F9211240BB60F922F933F93DA
:1044B0004F935F936F937F938F939F93AF93BF932C
:1044C000EF93FF931092FE068091970A9091980ABD
:1044D000A091990AB0919A0A0196A11DB11D8093ED
:1044E000970A9093980AA093990AB0939A0A809198
:1044F000970A9091980AA091990AB0919A0A079701
:10450000A105B10589F417D31092970A1092980A61
:104510001092990A10929A0A6EEF76E08091810AC1
:104520009091820A0E94C90AFF91EF91BF91AF91C9
:104530009F918F917F916F915F914F913F912F91BB
:104540000F900BBE0F900FBE0F901F9018951F93EA
:10455000CF93DF93C82F0FB6F8940F9284E00E9498
:10456000F0138C2F0E94371480E00E943714182F0C
:1045700080E00E943714C82F80E00E943714D82FA3
:1045800084E00E9417140F900FBE8C2F90E0A0E0E3
:10459000B0E0BA2FA92F982F8827A12BBC01CD01FD
:1045A0006D2BDF91CF911F910895CF93DF93D82F7B
:1045B000C62F0FB6F8940F9284E00E94F0138D2F4F
:1045C00080680E9437148C2F0E94371484E00E9468
:1045D00017140F900FBEDF91CF910895682F83E1DC
:1045E000E4CF0895682F85E1E0CF0895682F87E133
:1045F000DCCF0895CF93DF93D62FC42F682F82E4AA
:10460000D4DF6D2F83E4D1DF6C2F84E4CEDFDF9124
:10461000CF91089588E00E94EB1386E00E94D313A7
:1046200081E00E94E11384E00E94811380E0DEDFDC
:1046300060E083E2BADF42E062E082E0DBDF84E058
:10464000CDDF80E1CFCF089589E181CF08958AE160
:104650007ECF08954F925F926F927F928F929F923A
:10466000AF92BF92CF92DF92EF92FF920F931F9380
:10467000CF93DF9300D000D0CDB7DEB79E838D837C
:104680008B0120E030E048EC52ECDC0152966D9159
:104690007D918D919C9155970E949954882344F463
:1046A000ED81FE81E259FF4F808191810A9621C2FE
:1046B000AD81BE815696CD90DD90ED90FC905997DE
:1046C00020E030E048EC52ECC701B6010E9499545A
:1046D000882344F4ED81FE81E259FF4F808191816E
:1046E000449607C2AD81BE819A964D905D906D90C3
:1046F0007C909D9720E030E048EC52ECC301B20181
:104700000E949954882344F4ED81FE81E259FF4FC1
:10471000808191814E96EDC1AD81BE819E968D9036
:104720009D90AD90BC90D19720E030E048EC52ECE9
:10473000C501B4010E949954882344F4ED81FE819F
:10474000E259FF4F808191818896D3C120E030E00B
:1047500048EC52ECAD81BE81D2966D917D918D91E8
:104760009C91D5970E949954882344F4ED81FE8151
:10477000E259FF4F80819181C296BBC120E030E0B9
:1047800048EC52ECAD81BE81D6966D917D918D91B4
:104790009C91D9970E949954882344F4ED81FE811D
:1047A000E259FF4F80819181CC96A3C1AD81BE813A
:1047B000DA968D919D910D90BC91A02D89839A835D
:1047C000AB83BC8320E030E048EC52ECBC01CD016F
:1047D0000E94995488234CF4ED81FE81E259FF4FE9
:1047E000808191818A5B9F4F84C120E030E048EC5A
:1047F00052ECED81FE81FE96608171818281938110
:104800000E949954882354F48D819E8182599F4F30
:10481000DC018D919C91805B9F4F6BC120E030E06B
:1048200048EC52ECED81FE81EE5BFF4F60817181BF
:10483000828193810E94995488234CF4ED81FE81FA
:10484000E259FF4F80819181865A9F4F52C14A9B06
:1048500010C0AD81BE811F968C911F97813049F4A5
:10486000FD01E259FF4F80819181019709F030C12C
:104870000EC14B9B10C0ED81FE818785813009F010
:1048800035C1ED81FE81E259FF4F80819181029710
:1048900009F021C1FFC0659B11C0AD81BE811F968B
:1048A0008C91813009F01AC1ED81FE81E259FF4FF0
:1048B00080819181019709F013C1EFC0659B0EC003
:1048C000ED81FE818785813049F4ED81FE81E259D9
:1048D000FF4F80819181029709F4E2C020E030E02F
:1048E000A901AD81BE815A966D917D918D919C916A
:1048F0005D970E94E85518164CF4ED81FE81E2594F
:10490000FF4F8081918184579F4FF3C020E030E0BA
:10491000A901AD81BE815E966D917D918D919C9135
:1049200091970E94E85518164CF4ED81FE81E259EA
:10493000FF4F8081918188589F4FDBC0D801199625
:104940006C9170E080E090E00E9438559B01AC01D2
:10495000C701B6010E94E855181664F4ED81FE8186
:104960008281882339F0E259FF4F808191818056FE
:104970009F4FBFC0D8011E966C9170E080E090E020
:104980000E9438559B01AC0169817A818B819C81A1
:104990000E94E85518160CF486C0A3019201C501C7
:1049A000B4010E9434540E9405559B01772324F4DE
:1049B00022273327261B370BC901F801248930E051
:1049C0002817390774F4AD81BE8115968C9115971F
:1049D0008823D9F0A259BF4F8D919C9186509F4F4B
:1049E00088C0F801238930E08217930774F4AD8101
:1049F000BE8115968C911597882339F0A259BF4F27
:104A00008D919C918C5F9E4F74C01EDE71FD0DC018
:104A1000F80181A5813049F4ED81FE81E259FF4F13
:104A200080819181019709F441C00EDE72FD0DC0B5
:104A3000D80199968C91813041F4ED81FE81E25943
:104A4000FF4F808191810197A1F1FEDD73FD0CC0C4
:104A5000F80181A5813041F4ED81FE81E259FF4FDB
:104A600080819181019741F1EFDD83FD28C0D8015C
:104A700099968C91813031F5ED81FE81E259FF4F9D
:104A800080819181019709F58DE291E032C085E640
:104A900090E02FC086E690E02CC08FE690E029C021
:104AA00080E790E026C08CED90E023C08FE091E09D
:104AB00020C089E191E01DC083E291E01AC080E04E
:104AC00090E017C080E090E014C080E090E011C05A
:104AD0004B99D7CE08C06599E7CEF0CE8CB1FECE0B
:104AE0006599F3CEFBCE6599DFCEE8CE6599F6CF1A
:104AF000E5CE26960FB6F894DEBF0FBECDBFDF9190
:104B0000CF911F910F91FF90EF90DF90CF90BF90CA
:104B1000AF909F908F907F906F905F904F9008958F
:104B2000EFE6F0E0808182608083E1E8F0E0808160
:104B3000826080830895E1E8F0E080818E7F808349
:104B40001092850010928400EFE6F0E080818D7F66
:104B50008083B19A089588E0809381008EE98093E4
:104B6000890080E680938800E6CF0895CF93DF9395
:104B7000FA013A97E73D41E0F40708F011C2EB0172
:104B8000DC018827E456FF4F8F4F0C94725A1B9616
:104B90006C91262F30E004C21F966C91262F30E0D6
:104BA000FFC11C966C91262F30E0FAC11E966C91C5
:104BB000262F30E0F5C11D966C91262F30E0F0C114
:104BC000A659BF4F2D913C91EBC120E030E040E26F
:104BD00051E456966D917D918D919C9159970E94CB
:104BE00031560E9405559B01DBC120E030E040E2D8
:104BF00051E452966D917D918D919C9155970E94B3
:104C000031560E9405559B01CBC120E030E040E2C7
:104C100051E4D2966D917D918D919C91D5970E9492
:104C200031560E9405559B01BBC120E030E040E2B7
:104C300051E4D6966D917D918D919C91D9970E946A
:104C400031560E9405559B01ABC1A459BF4F2D9110
:104C50003C91A6C1AE5BBF4F20E030E040E251E4A2
:104C60006D917D918D919C910E9431560E940555C8
:104C70009B0196C1DE9620E030E040E251E46D9168
:104C80007D918D919C910E9431560E9405559B010A
:104C900087C1A65BBF4F20E030E040E251E46D9158
:104CA0007D918D919C910E9431560E9405559B01EA
:104CB00077C1AA5BBF4F20E030E040E251E46D9144
:104CC0007D918D919C910E9431560E9405559B01CA
:104CD00067C120E030E040E251E49E966D917D9105
:104CE0008D919C91D1970E9431560E9405559B0150
:104CF00057C120E030E040E251E49A966D917D91F9
:104D00008D919C919D970E9431560E9405559B0163
:104D100047C120E030E040E251E45A966D917D9128
:104D20008D919C915D970E9431560E9405559B0183
:104D300037C120E030E040E251E45E966D917D9114
:104D40008D919C9191970E9431560E9405559B012F
:104D500027C1DA966D917D918D919C91DD970E948E
:104D600005559B011DC16881262F30E019C16B815B
:104D7000262F30E015C16981262F30E011C16A81EC
:104D8000262F30E00DC16C81262F30E009C16C85E3
:104D9000262F30E005C16D85262F30E001C16985E1
:104DA000262F30E0FDC06A85262F30E0F9C06C89DF
:104DB000262F30E0F5C06B89262F30E0F1C06E89D8
:104DC000262F30E0EDC06D89262F30E0E9C06D8DD3
:104DD000262F30E0E5C06E8D262F30E0E1C06C8DCF
:104DE000262F30E0DDC06F8D262F30E0D9C06E85D4
:104DF000262F30E0D5C06FA1262F30E0D1C06EA1A4
:104E0000262F30E0CDC06DA1262F30E0C9C06E81C5
:104E1000262F30E0C5C06885262F30E0C1C06F81E5
:104E2000262F30E0BDC0FB01E45AFF4F6081718145
:104E3000828193810E9405559B01B2C06A89262F09
:104E400030E0AEC06989262F30E0AAC06889262FDD
:104E500030E0A6C06F85262F30E0A2C0FB01EA5BE0
:104E6000FF4F208131819CC06CA1262F30E098C07B
:104E70006A8D262F30E094C06B8D262F30E090C0D5
:104E8000698D262F30E08CC02AA53BA589C069A179
:104E9000262F30E085C02EA53FA582C02CA53DA5BC
:104EA0007FC02CAD3DAD7CC068A1262F30E078C01E
:104EB00068A5262F30E074C06D81262F30E070C0C9
:104EC0006B85262F30E06CC028A939A969C0688D90
:104ED000262F30E065C06F89262F30E061C069A5BC
:104EE000262F30E05DC06AA1262F30E059C02EADDC
:104EF0003FAD56C0FB01EE5BFF4F2081318150C0BA
:104F0000FB01EC5BFF4F208131814AC0FB01E05C7B
:104F1000FF4F2081318144C02AAD3BAD41C02CA957
:104F20003DA93EC02EA93FA93BC028AD39AD38C030
:104F30002AA93BA935C0FB01EE5AFF4F20813181E0
:104F40002FC0FB01EA5AFF4F2081318129C0FB01AC
:104F5000E85AFF4F2081318123C0FB01EC5AFF4FFB
:104F6000208131811DC0FB01E05BFF4F2081318139
:104F700017C0FB01E65BFF4F2081318111C0FB01AF
:104F8000E45BFF4F208131810BC0FB01E25BFF4FEF
:104F90002081318105C0FB01E85BFF4F2081318119
:104FA000C901DF91CF910895CF93DF93DC01FB011D
:104FB0003A97E73D81E0F80708F0BBC08827ED5835
:104FC000FD4F8F4F0C94725A4C93B3C013964C9371
:104FD000B0C011964C93ADC012964C93AAC01496D3
:104FE0004C93A7C01C964C93A4C01D964C93A1C093
:104FF00019964C939EC01A964C939BC054964C9312
:1050000098C053964C9395C056964C9392C0559623
:105010004C938FC05D964C938CC05E964C9389C028
:105020005C964C9386C05F964C9383C01E964C93BF
:1050300080C097964C937DC096964C937AC0959677
:105040004C9377C016964C9374C018964C9371C0CD
:1050500017964C936EC0ED01C45ADF4FBA0180E041
:1050600090E00E943655688379838A839B8361C070
:1050700052964C935EC051964C935BC050964C93A5
:1050800058C01F964C9355C0AA5BBF4F4D935C937D
:1050900050C094964C934DC05A964C934AC05B9620
:1050A0004C9347C059964C9344C09B965C934E9347
:1050B0009A973FC091964C933CC09F965C934E93B9
:1050C0009E9737C09D965C934E939C9732C0DD9619
:1050D0005C934E93DC972DC090964C932AC0989683
:1050E0004C9327C015964C9324C01B964C9321C01B
:1050F000D1965C934E93D0971CC058964C9319C090
:1051000057964C9316C099964C9313C092964C9315
:1051100010C0D3965C934E93D2970BC0A85BBF4F41
:105120004D935C9306C05F968C91813011F440934F
:10513000FF06DF91CF910895882309F1AFEFA80F03
:10514000B0E0119660E070E08FEF9FEFFB01EA5452
:10515000F84F2081822728E0AC01417055279695B1
:105160008795452B21F031E0832730EA93272150A2
:1051700099F76F5F7F4F6A177B0741F702C08FEF88
:105180009FEF9827892798270895EF92FF920F9312
:105190001F93CF93DF93882371F18150082F10E084
:1051A0000F5F1F4FC0E0D0E00F2EF5E0EF2EFF2481
:1051B000F394F02D80919B0A882349F0FE01EA5474
:1051C000F84F60818DE497E00E94C50D10C080917A
:1051D000F508882361F0F701808184608083FE01F7
:1051E000EA54F84F608184E997E00E94C50D21964A
:1051F000C017D107F9F6E5E0F1E080818470808383
:105200000000DF91CF911F910F91FF90EF900895D3
:10521000AF92BF92CF92DF92EF92FF920F931F93C4
:10522000CF93DF9380919B0A882329F08DE497E048
:105230000E94BC0D09C08091F508882309F4DAC0EA
:1052400084E997E00E94BC0D90916F079111D7C03F
:105250009FEF980F973008F4D2C09091B607913025
:1052600009F0CDC0282F30E0F901EC54F84FD0817F
:10527000F901EB54F84FC08182505EDF2C2F30E0F3
:105280003D2B2817390709F0BAC0E6EBF7E021817A
:10529000209370078281C381D0E0D82B848145811F
:1052A00050E0582B7A01EE0CFF1CCA01880F991FA1
:1052B000880F991F880F991FE80EF91EEC0EFD1E2E
:1052C000233009F065C09E01ADECBCEC0E947A5A17
:1052D0009695879596958795969587959C01220F2B
:1052E000331F880F991F880F991F880F991F820FEE
:1052F000931F9E01281B390B2130310551F02230BC
:10530000310571F40F2EFCEDCF2EF9E0DF2EF02DDC
:1053100009C00F2EF6E5CF2EF9E0DF2EF02D02C0EA
:10532000C12CD12CA42EAA0C0F2EF5E0BF2EF02DEF
:10533000BA0CE6EBF7E081E0808383E08183A28210
:10534000CE15DF05A8F403E010E0AE0166EF78E0CB
:10535000C6010CDCF801EA54F84F9083F801E954D7
:10536000F84F80830E5F1F4F2A96CE15DF0568F336
:1053700083E08A0DE1DE2B2D30E0F901EC54F84F8B
:105380009083F901EB54F84F80838B2DFEDE37C0FC
:10539000203109F034C0CE15DF05B0F407E010E08D
:1053A000F801EA54F84F8081F801E954F84F408140
:1053B00050E0582BBE0186EF98E0F6DD0E5F1F4FE0
:1053C0002A96CE15DF0560F30FB6F8940F9240E6EB
:1053D00050E060E070E086EF98E00E94AB5D0F90D7
:1053E0000FBE86E0A9DEE6EBF7E09683878388E0D0
:1053F000CCDE05C080916F07882309F42ECFDF91A2
:10540000CF911F910F91FF90EF90DF90CF90BF90C1
:10541000AF9008958F929F92AF92BF92CF92DF92FA
:10542000EF92FF920F931F930E94B81DFC012091F1
:10543000F60830E0A8EEB3E00E947A5A4B015C0116
:105440008081823009F040C081EB92E09F938F937E
:1054500084E997E09F938F930E94340D809100011F
:105460000F900F900F900F9083FD70C081E080939C
:105470006209E2E0F1E080818860808381EF98E05A
:105480000E9494056093620A7093630A8093640A91
:105490009093650AE8E3F9E0808191810196918318
:1054A00080830F2EF4E6CF2ED12CE12CF12CF02DA1
:1054B00000E010E0A501940164E080916C0A9091F5
:1054C0006D0A0E94911B42C08F3009F03FC083ECEF
:1054D00092E09F938F9384E997E09F938F930E942C
:1054E000340D809100010F900F900F900F9084FD6C
:1054F0002DC082E08093E809E2E0F1E080818061E4
:10550000808381EF98E00E9494056093760A7093FF
:10551000770A8093780A9093790AECE4F9E0808125
:1055200091810196918380830F2EF4E6CF2ED12CAA
:10553000E12CF12CF02D00E010E0A501940164E0D5
:1055400080917E0A90917F0A0E94911B1F910F917A
:10555000FF90EF90DF90CF90BF90AF909F908F9093
:1055600008958F929F92AF92BF92CF92DF92EF9267
:10557000FF920F931F93CF93DF93AC012091F90813
:1055800030E0A8EEB3E00E947A5A4B015C01CA01F8
:105590000E94B81DEC0188818D3029F585ED92E0DF
:1055A0009F938F9384E997E09F938F930E94340D8C
:1055B0000F900F900F900F90949902C0A49A01C081
:1055C000A4980F2EF4E6CF2ED12CE12CF12CF02D47
:1055D00000E010E0A501940164E08091E30890915F
:1055E000E4080E94911B88818931B9F4939902C023
:1055F000A39A01C0A3980F2EF4E6CF2ED12CE12C54
:10560000F12CF02D00E010E0A501940164E0809100
:105610005C0A90915D0A0E94911BDF91CF911F91CE
:105620000F91FF90EF90DF90CF90BF90AF909F9041
:105630008F9008950E94B81DFC0180818730A1F4ED
:10564000E6E5F9E0118A81E0858388EE92E09F9398
:105650008F9384E997E09F938F930E94340D0F906E
:105660000F900F900F900895843199F4ECEDF9E0CC
:10567000118A81E085838DEF92E09F938F9384E977
:1056800097E09F938F930E94340D0F900F900F908F
:105690000F9008950E94B81DFC018081863091F41E
:1056A00081E08093570982E193E09F938F9384E98F
:1056B00097E09F938F930E94340D0F900F900F905F
:1056C0000F900895833189F481E08093DD0984E2AD
:1056D00093E09F938F9384E997E09F938F930E9429
:1056E000340D0F900F900F900F9008958F929F920E
:1056F000AF92BF92CF92DF92EF92FF920F931F93E0
:105700000E94B81DFC018081843009F03AC12091CB
:10571000FA0830E0A8EEB3E00E947A5A4B015C012F
:10572000F0E18F0EF7E29F1EA11CB11C8091590978
:10573000882309F486C0949B59C080911E0981304A
:1057400009F054C0A49886E393E09F938F9384E973
:1057500097E09F938F930E94340D10926409C0903C
:10576000850AD090860AE090870AF090880A81EF37
:1057700098E00E949405A70196010E948F05C090B1
:105780003B07D0903C07E0903D07F0903E07DC01DE
:10579000CB018C0D9D1DAE1DBF1D80933B079093CB
:1057A0003C07A0933D07B0933E070F900F900F90DA
:1057B0000F9081319E40A105B10508F442C0E6EF8B
:1057C000F8E080AD91AD019691AF80AF40E650E03A
:1057D00060E070E0CF010E948A5D10923B0710925A
:1057E0003C0710923D0710923E072BC0949929C0A8
:1057F00080911E09811125C0A49A81E080936409DB
:1058000087E493E09F938F9384E997E09F938F932E
:105810000E94340D81EF98E00E9494056093850A00
:105820007093860A8093870A9093880AEAE3F9E0E6
:10583000808191810196918380830F900F900F90CA
:105840000F9080915A09811105C0809158098823D1
:1058500009F484C0949B58C080911E09811154C0E2
:10586000A49886E393E09F938F9384E997E09F93B6
:105870008F930E94340D10926409C090850AD090D5
:10588000860AE090870AF090880A81EF98E00E94EB
:105890009405A70196010E948F05C0903B07D09008
:1058A0003C07E0903D07F0903E07DC01CB018C0DFA
:1058B0009D1DAE1DBF1D80933B0790933C07A09399
:1058C0003D07B0933E070F900F900F900F908131DE
:1058D0009E40A105B10508F441C0E6EFF8E080ADB7
:1058E00091AD019691AF80AF40E650E060E070E08E
:1058F000CF010E948A5D10923B0710923C071092E4
:105900003D0710923E072AC0949928C080911E0935
:10591000813021F5A49A8093640986E393E09F93F4
:105920008F9384E997E09F938F930E94340D81EFCA
:1059300098E00E9494056093850A7093860A80938C
:10594000870A9093880AEAE3F9E0808191810196C1
:10595000918380830F900F900F900F900F2EF4E69D
:10596000CF2ED12CE12CF12CF02D00E010E0A50180
:10597000940164E08091CA099091CB090E94911B27
:1059800034C1813109F031C12091F90830E0A8EE2D
:10599000B3E00E947A5A4B015C018091DF098823B1
:1059A00009F487C0939B5AC080911E09813009F089
:1059B00055C0A39888E593E09F938F9384E997E07F
:1059C0009F938F930E94340D1092EA09C090A00A11
:1059D000D090A10AE090A20AF090A30A81EF98E08B
:1059E0000E949405A70196010E948F05C090370779
:1059F000D0903807E0903907F0903A07DC01CB01EE
:105A00008C0D9D1DAE1DBF1D8093370790933807E9
:105A1000A0933907B0933A070F900F900F900F9013
:105A200081319E40A105B10508F443C0E4E4F9E0EA
:105A30008081918101969183808340E650E060E00F
:105A400070E086EF98E00E948A5D1092370710920E
:105A500038071092390710923A072BC0939929C042
:105A600080911E09811125C0A39A81E08093640969
:105A700089E693E09F938F9384E997E09F938F93B8
:105A80000E94340D81EF98E00E9494056093A00A73
:105A90007093A10A8093A20A9093A30AEEE4F9E01E
:105AA000808191810196918380830F900F900F9058
:105AB0000F908091DE09882309F485C0939B59C01B
:105AC00080911E09811155C0A39888E593E09F93AA
:105AD0008F9384E997E09F938F930E94340D1092E7
