:100000006CC500008BC5000089C5000087C50000D5
:1000100085C5000083C5000081C500007FC50000C4
:100020007DC500007BC5000079C5000077C50000D4
:1000300075C5000073C5000071C500006FC50000E4
:100040006DC500000C94612169C5000067C5000002
:1000500065C5000063C5000061C500005FC5000004
:100060005DC500000C948F100C94171157C500004B
:1000700055C5000053C5000051C500004FC5000024
:1000800055C700004BC5000049C5000047C500002A
:100090000C9460110C94BF1141C500003FC50000D5
:1000A0003DC500003BC5000039C5000037C5000054
:1000B00035C5000033C5000031C500002FC5000064
:1000C0002DC500002BC5000029C500000C940812A6
:1000D0000C94671223C500000C94B0120C943813D2
:1000E0001DC500000C0D0C0D110D110D160D160D7A
:1000F0001B0D1B0D7D0D7D0D780D780D730D730D92
:100100006E0D6E0D310E310E380E380E3F0E3F0E55
:10011000460E460EBD0EEE0E280F590F930FC40F5C
:1001200002103310391D391D391D841D6D1D811DAF
:10013000391D391D841D6D1D4525592459246226FC
:1001400062266226622662266226622649255E248F
:100150005E24622662266226622662266226622665
:100160004D25632463246226622662266226622667
:100170006226622651256824682462266226622649
:10018000622662266226622655256D246D2462262B
:10019000622662266226622662266226592572241B
:1001A0007224622662266226622662266226622601
:1001B0005D257724772462266226622662266226DF
:1001C00062266226612587248724622662266226AB
:1001D0006226622662266226652597249724622677
:1001E0006226622662266226622662266925A72486
:1001F000A72462266226622662266226622662267C
:100200006D25B724B72462266226622662266226FE
:10021000622662267125BC24BC24622662266226E0
:1002200062266226622662267525CC24CC246226AC
:100230006226622662266226622662267925DB24F1
:10024000DB246226622662266226622662266226F7
:100250007D25EB24EB246226622662266226622636
:10026000622662268125FB24FB2462266226622602
:10027000622662266226622685250B250B256226CC
:1002800062266226622662266226622689251B2550
:100290001B25622662266226622662266226622666
:1002A0008D252B252B256226622662266226622654
:1002B0006226622691253B253B2562266226622620
:1002C00062266226622662269525622662266226BC
:1002D00062266226622662266226622699256226A8
:1002E00062266226622662266226622662266226CE
:1002F0009D25622662266226622662266226622684
:1003000062266226A125622662266226622662266F
:100310006226622662266226A5256226622662265B
:10032000622662266226622662266226B025622640
:10033000622662266226622662266226622662267D
:10034000B42562266226622662266226622662261C
:1003500062266226B8256226622662266226622608
:100360006226622662266226BC25622662266226F4
:10037000622662266226622662266226C025092639
:100380002D26622662266226622662266226622662
:10039000C6250C263326622662266226622662263F
:1003A00062266226CA25122639266226622662261F
:1003B0006226622662266226CE2518263F266226FF
:1003C000622662266226622662266226D2251E26C2
:1003D00045266226622662266226622662266226FA
:1003E000D62521264B2662266226622662266226B2
:1003F00062266226D9256226622662266226622647
:100400006226622662266226DD2524265126622681
:10041000622662266226622662266226E02527265A
:100420005726622662266226622662266226622697
:10043000E3252A265D266226622662266226622639
:1004400062266226E62562266226622662266226E9
:100450006226622662266226EA25622662266226D5
:10046000622662266226622662266226EE256226C1
:10047000622662266226622662266226622662263C
:10048000F22562266226622662266226622662269D
:1004900062266226F6256226622662266226622689
:1004A0006226622662266226F92562266226622676
:1004B000622662266226622662266226FD25622662
:1004C00062266226622662266226622662266226EC
:1004D000012662266226622662266226622662263D
:1004E00062266226052676262B272B272B272B27ED
:1004F0002B272B272B272B272B2778262B272B2720
:100500002B272B272B272B272B272B272B277B260C
:100510002B272B272B272B272B272B272B272B274B
:100520002B277E262B272B272B272B272B272B27E9
:100530002B272B272B2781262B272B272B272B27D6
:100540002B272B272B272B272B2784262B272B27C3
:100550002B272B272B272B272B272B272B278726B0
:100560002B272B272B272B272B272B272B272B27FB
:100570002B278A262B272B272B272B272B272B278D
:100580002B272B272B278D262B272B272B272B277A
:100590002B272B272B272B272B2790262B272B2767
:1005A0002B272B272B272B272B272B272B27932654
:1005B0002B272B272B272B272B272B272B272B27AB
:1005C0002B2796262B272B272B272B272B272B2731
:1005D0002B272B272B2799262B272B272B272B271E
:1005E0002B272B272B272B272B279C262B272B270B
:1005F0002B272B272B272B272B272B272B279F26F8
:100600002B272B272B272B272B272B272B272B275A
:100610002B27A2262B272B272B272B272B272B27D4
:100620002B272B272B27A5262B272B272B272B27C1
:100630002B272B272B272B272B27A8262B272B27AE
:100640002B272B272B272B272B272B272B27AB269B
:100650002B272B272B272B272B272B272B272B270A
:100660002B27AE262B272B272B272B272B272B2778
:100670002B272B272B27B1262B272B272B272B2765
:100680002B272B272B272B272B27B4262B272B2752
:100690002B272B272B272B272B272B272B27B7263F
:1006A0002B272B272B272B272B272B272B272B27BA
:1006B0002B27BA262B272B272B272B272B272B271C
:1006C0002B272B272B27BD262B272B272B272B2709
:1006D0002B272B272B272B272B27CA262B272B27EC
:1006E0002B272B272B272B272B272B272B27CD26D9
:1006F0002B272B272B272B272B272B272B272B276A
:100700002B27D0262B272B272B272B272B272B27B5
:100710002B272B272B27D3262B272B272B272B27A2
:100720002B272B272B272B272B27D6262B272B278F
:100730002B272B272B272B272B272B272B27DB267A
:100740002B272B272B272B272B272B272B272B2719
:100750002B27DE262B272B272B272B272B272B2757
:100760002B272B272B27E1262B272B272B272B2744
:100770002B272B272B272B272B27E4262B272B2731
:100780002B272B272B272B272B272B272B27E7261E
:100790002B272B272B272B272B272B272B272B27C9
:1007A0002B27EC262B272B272B272B272B272B27F9
:1007B0002B272B272B27EF262B272B272B272B27E6
:1007C0002B272B272B272B272B27F4262B272B27D1
:1007D0002B272B272B272B272B272B272B27F926BC
:1007E0001B27202725272B272B272B272B272B279A
:1007F0002B27FE262B272B272B272B272B272B2797
:100800002B272B272B2701272B272B272B272B2782
:100810002B272B272B272B272B2704272B272B276F
:100820002B272B272B272B272B272B272B2707275C
:100830002B272B272B272B272B272B272B272B2728
:100840002B270A272B272B272B272B272B272B2739
:100850002B272B272B270F272B272B272B272B2724
:100860002B272B272B272B272B2712272B272B2711
:100870002B272B272B272B272B272B272B271527FE
:100880002B272B272B272B272B272B272B272B27D8
:100890002B27182708000000BE922449123EABAA5D
:1008A000AA2ABECDCCCC4C3E00000080BEABAAAA8A
:1008B000AA3E00000000BF000000803F00000000D2
:1008C00000084178D3BB4387D1133D190E3CC3BD0B
:1008D0004282AD2B3E68EC8276BED98FE1A93E4CB8
:1008E00080EFFFBE01C4FF7F3F00000000006E618B
:1008F0006E00696E660000407A10F35A00A0724ED6
:1009000018090010A5D4E80000E87648170000E4B4
:100910000B54020000CA9A3B000000E1F5050000FC
:1009200080969800000040420F000000A086010061
:100930000000102700000000E80300000000640031
:10094000000000000A00000000000100000000009C
:100950002C76D888DC674F0823DFC1DFAE59E1B1C0
:10096000B796E5E3E453C63AE651997696E8E6C2CF
:100970008426EB898C9B62ED407C6FFCEFBC9C9FD6
:1009800040F2BAA56FA5F490055A2AF75C936B6CF8
:10099000F9676DC11BFCE0E40D47FEF520E6B500EC
:1009A000D0ED902E0300943577050080841E08005A
:1009B00000204E0A000000C80C333333330F986E0A
:1009C00012831141EF8D2114893BE65516CFFEE6C7
:1009D000DB18D1844B381BF77C1D901DA4BBE4248D
:1009E000203284725E228100C9F124ECA1E53D270A
:1009F0009A99C9C133336BC13333D3C0CDCCCC3D0D
:100A000048E1A24066662E41000078419A999D41D6
:100A10000000BC41CDCCD8413333F3416666064279
:100A2000666612429A991D4266662842CDCC3242D1
:100A3000CDCC2842666646429A994F426666584235
:100A4000333361429A9969429A99714233337942B8
:100A50009A99804233338442CDCC874266668B427A
:100A600000008F42666692429A999542CDCC984298
:100A700004E916E00F2EF4ECEF2EF6E0FF2EF02D39
:100A800080919306882311F10FB6F8940F92D80144
:100A90001796ED91FC911897C085D185CE010296ED
:100AA00024D3809187068150809387068091930696
:100AB0008150809393060F900FBE8B8D9C8D75D0C7
:100AC000CE0173D0809193068111DECFF701808132
:100AD000823008F03DD173D2D3CF11241FBECFEFA7
:100AE000D1E2DEBFCDBF00E00CBF16E0A0E0B2E077
:100AF000EAE6F9EB00E00BBF02C007900D92A437C5
:100B0000B107D9F72AE0A4E7B6E001C01D92AB3CDB
:100B1000B207E1F70E9481200C94B35C71CA621B9A
:100B2000730B840B950B0895FC010FB6F89460913C
:100B3000C70A7091C80A8091C90A9091CA0A0FBE6B
:100B4000309721F0608371838283938308958F931C
:100B50008FB78F93F8948091C70A8F5F8093C70AED
:100B60008091C80A8F4F8093C80A8091C90A8F4F1D
:100B70008093C90A8091CA0A8F4F8093CA0A8F91C5
:100B80008FBF8F910895CF93DF93EC010E948B1656
:100B9000CE010E947A59EC010E947417209709F443
:100BA00027D2CE01DF91CF910895CF93DF930097A5
:100BB00041F0EC010E948B16CE010E94125A0E9455
:100BC0007417DF91CF91089531E1FC0130833197A3
:100BD00022E220833197A3E3A0833197608331978A
:100BE00070833197108231971082319760E860836B
:100BF000319710823197108231971082319762E0DD
:100C00006083319763E06083319764E0608331975C
:100C100065E06083319766E06083319767E06083C9
:100C2000319768E06083319769E06083319760E1D4
:100C3000608331973083319732E13083319733E1EC
:100C40003083319734E13083319735E13083319708
:100C500036E13083319737E13083319738E13083A3
:100C6000319739E13083319730E23083319731E287
:100C7000308331972083319723E22083319740835B
:100C800031975083319726E22083319727E22083E2
:100C9000319728E22083319729E22083319720E39E
:100CA0002083319721E320838997089588EE93E08C
:100CB000A0E0B0E080935B0790935C07A0935D0792
:100CC000B0935E0780935F0790936007A0936107DE
:100CD000B09362071092990089EF809398008BE09F
:100CE00080939100E1E7F0E0808182608083A091B1
:100CF000F006B091F106CD91CDBFDD91DEBFFF9141
:100D0000EF91DF91CF91BF91AF919F918F917F91A3
:100D10006F915F914F913F912F911F910F91FF9094
:100D2000EF90DF90CF90BF90AF909F908F907F908B
:100D30006F905F904F903F902F901F900F900CBE40
:100D40000F900BBE0F900FBE0F90089581E0089595
:100D50000F920FB6F8940F920BB60F920CB60F923B
:100D60001F9211242F923F924F925F926F927F9227
:100D70008F929F92AF92BF92CF92DF92EF92FF92AB
:100D80000F931F932F933F934F935F936F937F9393
:100D90008F939F93AF93BF93CF93DF93EF93FF9383
:100DA000A091F006B091F1060DB60D920EB60D921F
:100DB0000E940918A091F006B091F106CD91CDBF27
:100DC000DD91DEBFFF91EF91DF91CF91BF91AF91A8
:100DD0009F918F917F916F915F914F913F912F9153
:100DE0001F910F91FF90EF90DF90CF90BF90AF9049
:100DF0009F908F907F906F905F904F903F902F903B
:100E00001F900F900CBE0F900BBE0F900FBE0F9057
:100E100008950F920FB6F8940F920BB60F920CB67E
:100E20000F921F9211242F923F924F925F926F92D6
:100E30007F928F929F92AF92BF92CF92DF92EF926A
:100E4000FF920F931F932F933F934F935F936F9353
:100E50007F938F939F93AF93BF93CF93DF93EF9342
:100E6000FF93A091F006B091F1060DB60D920EB66B
:100E70000D9213BE80915F0790916007A09161076A
:100E8000B09162070197A109B10980935F07909320
:100E90006007A0936107B0936207892B8A2B8B2B85
:100EA00089F455DE80915B0790915C07A0915D0706
:100EB000B0915E0780935F0790936007A0936107EE
:100EC000B09362070E949F1681110E940918A09199
:100ED000F006B091F106CD91CDBFDD91DEBFFF915F
:100EE000EF91DF91CF91BF91AF919F918F917F91C2
:100EF0006F915F914F913F912F911F910F91FF90B3
:100F0000EF90DF90CF90BF90AF909F908F907F90A9
:100F10006F905F904F903F902F901F900F900CBE5E
:100F20000F900BBE0F900FBE0F90089572DF1895B3
:100F3000811106C0ECE7F0E080818F7D8083089509
:100F4000ECE7F0E0808180628083089580917A00F0
:100F500086FB882780F90895803218F597E89093EA
:100F60007A0090917C00662311F0906C02C09F770C
:100F70009064907E883040F0EBE7F0E020812860BC
:100F800020838850892B06C0EBE7F0E02081277F83
:100F90002083892B80937C00EAE7F0E080818064E5
:100FA0008083089580917C0085FF04C08091790042
:100FB00090E00895809178009091790008958FEFE6
:100FC00080937E0080937D0080B7877F80BF80B74D
:100FD000806880BF83B7817F83BF0FB6F8940F927C
:100FE00083B7816083BF0F900FBE889513BE0895AD
:100FF000279A2F9A00001F9AFDCF279A2F9A00C098
:101000001F9AFDCFFC010396928381834FEF5FEF20
:10101000BA0143835483658376839087878392875D
:10102000818710820895FC01138612860895CF935C
:10103000DF939C01FB01DC011196CD91DC911297AD
:10104000D583C4838E819F81978386838E819F8180
:10105000DC0115967C936E9314977F836E833387A0
:101060002287F90180818F5F8083DF91CF9108957E
:101070000F931F93CF93DF93EB01088119812A818E
:101080003B810F3F4FEF14072407340721F4FC0185
:10109000A185B28511C0DC01139601C0DF01149651
:1010A000ED91FC9115974081518162817381041704
:1010B00015072607370790F71496ED91FC911597C1
:1010C000FD83EC83D783C683BF83AE831596DC9301
:1010D000CE9314979B878A87FC0120812F5F208302
:1010E000DF91CF911F910F910895CF93DF93FC0172
:1010F000A285B385C481D581868197819F838E83A4
:10110000C681D781848195819D838C8311968D9131
:101110009C911297E817F90731F48681978112960E
:101120009C938E931197138612868C9181508C9389
:101130008C91DF91CF9108950FB6F8940F92FC0136
:10114000968D0F900FBE81E0911180E008950F936E
:101150001F93CF93DF93EC01042F1E8D48A1411103
:101160000CC088819981892B09F042C08A819B81BA
:101170000E942A1A1B821A8242C0011117C050E035
:101180008C819D810E947E5B28A18C819D81820F34
:10119000911D9D838C832A813B818217930750F197
:1011A000888199819D838C8380E029C050E08E8165
:1011B0009F810E947E5B88A190E091958195910925
:1011C0002E813F81280F391F3F832E83488159810B
:1011D0002417350730F42A813B81820F931F9F83A8
:1011E0008E83023049F4112349F0115080E007C08A
:1011F00080E005C080E003C080E001C080E01F5FA8
:101200001E8FDF91CF911F910F910895FC0140A196
:101210004423A9F050E026813781240F351F3783FE
:101220002683828193812817390720F0808191815C
:1012300097838683CB01668177810C947E5B0895CA
:10124000EF92FF920F931F93CF938C010FB6F894F8
:101250000F92FC01C2A11C16ACF48389811106C057
:1012600011C0F8018389811105C00CC07801F3E138
:10127000EF0EF11CC7010E94021981110E94AA19E8
:10128000C15079F78FEFF80182A30F900FBE0FB610
:10129000F8940F92C1A11C16ACF48085811106C090
:1012A00011C0F8018085811105C00CC07801F8E0FB
:1012B000EF0EF11CC7010E94021981110E94AA19A8
:1012C000C15079F78FEFF80181A30F900FBECF9136
:1012D0001F910F91FF90EF900895CF93DF93EC0152
:1012E0000FB6F8940F924881598128A130E07F8D84
:1012F000729FC001739F900D1124FA01E80FF91F2E
:10130000FB83EA831E8E5D834C83821B930B840FC9
:10131000951F9F838E838FEF89A38AA361110BC0D2
:101320008885882371F0CE0108960E9402198823CF
:1013300041F00EDD06C0CE01089664DECE01439674
:1013400061DE0F900FBE81E0DF91CF9108950F9382
:101350001F93CF93DF93082F162F6623B1F0869F3C
:10136000C001112483960FDCEC01009739F413C0FF
:101370000F8F18A361E0CE01B0DF0DC08396998373
:101380008883F6CFD983C883F3CF83E290E0FBDB79
:10139000EC01892BB9F7CE01DF91CF911F910F910D
:1013A00008959F92AF92BF92CF92DF92EF92FF92F9
:1013B0000F931F93CF93DF93CDB7DEB729970FB667
:1013C000F894DEBF0FBECDBF7C015B012E833F834F
:1013D0004887598710E0992493946C0188E0C80EDF
:1013E000D11C0FB6F8940F92F701968D878D981740
:1013F00010F00230B1F4402FB501C701A8DEF701AB
:101400009389992341F0C70143960E9402198823CA
:1014100021F09EDC02C081119BDC0F900FBE81E0A9
:1014200052C08E819F81A885B985892B8A2B8B2BF1
:1014300021F40F900FBE80E046C0111105C0CE010F
:1014400001960E944419192D0F900FBE0E948B1611
:101450000FB6F8940F92F70181A18F3F09F411A202
:10146000F70182A18F3F09F412A20F900FBEBE01B7
:101470006A5F7F4FCE0101960E94551981111EC0EF
:101480000FB6F8940F92F701968D878D0F900FBECF
:1014900098130FC04E815F8168857985C6010E94CF
:1014A000CB18C701CDDE0E94741781119ACF50DC92
:1014B00098CFC701C5DE0E94741793CFC701C0DE65
:1014C0000E94741780E029960FB6F894DEBF0FBE15
:1014D000CDBFDF91CF911F910F91FF90EF90DF90E3
:1014E000CF90BF90AF909F9008950F93CF93DF93CD
:1014F000482F60E081E02BDFEC01009761F01B8258
:101500001A82198218821E8200E020E030E0A901D0
:1015100060E070E046DFCE01DF91CF910F9108953A
:10152000EF92FF920F931F93CF93DF938A01FC01F9
:10153000568D378D531710F02230E9F4422F780181
:10154000EC011AA104DE1F3F81F48B898823A9F0E6
:10155000CE0143960E940219882389F0E114F10418
:1015600081F081E0F70180830DC0FF24F394F10E38
:10157000FAA281E007C080E005C081E003C081E0FD
:1015800001C081E0DF91CF911F910F91FF90EF900B
:101590000895CF93DF93FC01868D978D8917C0F452
:1015A00092A18F5F868F9F3F79F48389882391F082
:1015B000EB01CF0143960E940219882369F020971E
:1015C00069F081E088830BC09F5F92A381E007C030
:1015D00080E005C081E003C081E001C081E0DF91CF
:1015E000CF9108959F92AF92BF92CF92DF92EF92E8
:1015F000FF920F931F93CF93DF93CDB7DEB7299759
:101600000FB6F894DEBF0FBECDBF8C015B012E83F9
:101610003F8348875987E12C992493946C0183E197
:10162000C80ED11C0FB6F8940F92F801F68CFF206B
:1016300099F0B501C801EADDFA94F801F68E8085CB
:10164000882331F0C80108960E940219811180DBBD
:101650000F900FBE81E051C08E819F81A885B98512
:10166000892B8A2B8B2B21F40F900FBE80E045C075
:10167000E11005C0CE0101960E944419E92C0F909B
:101680000FBE0E948B160FB6F8940F92F80181A13D
:101690008F3F09F411A2F80182A18F3F09F412A231
:1016A0000F900FBEBE016A5F7F4FCE0101960E9470
:1016B0005519811118C0C8013FDD882379F04E818A
:1016C0005F8168857985C6010E94CB18C801B8DDA5
:1016D0000E9474178111A6CF3BDBA4CFC801B0DDF7
:1016E0000E9474179FCFC801ABDD0E947417C80118
:1016F00023DD882309F496CF80E029960FB6F8946D
:10170000DEBF0FBECDBFDF91CF911F910F91FF9034
:10171000EF90DF90CF90BF90AF909F900895BF92D1
:10172000CF92DF92EF92FF920F931F93CF93DF93AD
:10173000CDB7DEB729970FB6F894DEBF0FBECDBF89
:101740008C014E835F8368877987B12CD12CCC24A0
:10175000C3947C0183E1E80EF11C0FB6F8940F925C
:10176000D8015E968C915E978823E1F081505E9659
:101770008C935E978D919C91892B29F40E94B61AC7
:10178000F80193838283D80118968C91882331F0D5
:10179000C80108960E9402198111DADA0F900FBE73
:1017A00081E07FC08E819F81A885B985892B8A2B96
:1017B0008B2B21F40F900FBE80E073C0D11005C0B9
:1017C000CE0101960E944419DC2C0F900FBE0E949E
:1017D0008B160FB6F8940F92F80181A18F3F09F490
:1017E00011A2D80192968C9192978F3F11F4929604
:1017F0001C920F900FBEBE016A5F7F4FCE01019613
:101800000E945519811127C0C80196DC8823F1F088
:10181000F80180819181892B51F40FB6F8940F92D1
:10182000828193810E94BC19B82E0F900FBE4E8109
:101830005F8168857985C7010E94CB18C80100DDEA
:101840000E947417811189CF83DA87CFC801F8DC31
:101850000E94741782CFC801F3DC0E947417C8017C
:101860006BDC882309F479CFBB20D1F00FB6F89454
:101870000F92F8018389882339F0028CF38DE02DD3
:10188000808164E0681B01C060E0D80112968D91F0
:101890009C9113970E946A1A0F900FBE80E001C0BE
:1018A00080E029960FB6F894DEBF0FBECDBFDF9162
:1018B000CF911F910F91FF90EF90DF90CF90BF904D
:1018C0000895CF93DF93EC010FB6F8940F9289A19E
:1018D0008F3F09F419A28AA18F3F09F41AA20F9031
:1018E0000FBE8E8D811104C0CE0143960E94E21876
:1018F000CE01A6DCDF91CF9108954F925F926F9257
:101900007F928F929F92AF92BF92CF92DF92EF928F
:10191000FF920F931F93CF93DF93EC01FB01019094
:101920000020E9F74B019F01215031090F2EF1E30F
:10193000EF2EFF24F394F02D01ED10E069EC70E040
:1019400041EC50E05C018DE0A80EB11C78C0D401E0
:10195000DD904D010FB6F8940F92ED85FE850F9046
:101960000FBE8F89988DE817F907F1F0F501828194
:101970009381DC01DC92828193810196938382833F
:10198000C084D1848C159D0521F486819781938331
:1019900082830FB6F8940F92808191810196918392
:1019A00080830F900FBE2BC000000FB6F8940F92EB
:1019B000ED85FE850F900FBE8F89988DE817F9078A
:1019C00009F43DC0F50182819381DC01DC928281C2
:1019D0009381019693838283C084D1848C159D0565
:1019E00021F486819781938382830FB6F8940F92B6
:1019F000808191810196918380830F900FBE4880F2
:101A0000512CB8E04B165104D0F4F2018827EE585F
:101A1000FF4F8F4F0C946359FA018081806280835D
:101A20000EC0DB018C9180628C9309C0F80180812B
:101A30008062808304C0D7018C9180628C9382166F
:101A4000930609F084CFDF91CF911F910F91FF9002
:101A5000EF90DF90CF90BF90AF909F908F907F904E
:101A60006F905F904F9008950F931F93CF93DF93E4
:101A7000CDB7DEB708851985F801858D813029F449
:101A800067D9F801858D8130D9F381E0F801858F20
:101A9000638D748D9E01245F3F4F4A855B85818DE8
:101AA000928D0E94D55BF801618D728DC80125DF92
:101AB000F801158EDF91CF911F910F910895CF936B
:101AC000DF93DC014C9150E048305105E8F5FA0114
:101AD0008827E658FF4F8F4F0C946359809130014F
:101AE000882354F131C08091D0008823E4F02CC0C9
:101AF0008091C800882374F027C08091C00088239B
:101B00001CF5C6ECD0E0E0ECF0E088818081882311
:101B1000E4F31AC0CEECD0E0E8ECF0E088818081FC
:101B20008823E4F311C0C6EDD0E0E0EDF0E0888159
:101B300080818823E4F308C0C6E3D1E0E0E3F1E06C
:101B4000888180818823E4F30FB6F8940F9212966F
:101B50001C921E92119717968D919C91189714962E
:101B60009C938E93139716969C938E9315970F9034
:101B70000FBEDF91CF9108950FB6F8940F92FC013C
:101B8000818192810F900FBE0895CF93DF93DC0186
:101B90000FB6F8940F921D962D913C911E970F90C1
:101BA0000FBE57968D919C91589728173907F1F0E1
:101BB000FD013D96C281D381688382819381019624
:101BC00093838283208531858217930721F4868150
:101BD0009781938382830FB6F8940F9280819181CD
:101BE0000196918380830F900FBE2FC000000FB627
:101BF000F8940F921D962D913C911E970F900FBE59
:101C000057968D919C9158972817390709F445C02C
:101C1000FD013D96C281D3816883828193810196C3
:101C200093838283208531858217930721F48681EF
:101C30009781938382830FB6F8940F92808191816C
:101C40000196918380830F900FBE8C9190E0883035
:101C5000910528F5FC018827EE57FF4F8F4F0C9414
:101C60006359E1ECF0E080818062808381E018C0FC
:101C7000E9ECF0E080818062808381E011C0E1EDD9
:101C8000F0E080818062808381E00AC0E1E3F1E0DE
:101C900080818062808381E003C080E001C081E0B8
:101CA000DF91CF9108957F928F929F92AF92BF92D2
:101CB000CF92DF92EF92FF920F931F93CF93DF9318
:101CC000CDB7DEB7A2970FB6F894DEBF0FBECDBF7B
:101CD0006C01762E49015A01C7010E94C305009785
:101CE000A9F0FE0132960FB6F8940F92118210827D
:101CF0009383828395838483978386838E0D9F1D30
:101D000091878087F386E2860F900FBEC8010E94FC
:101D1000C3050097A9F0FE013E960FB6F8940F9206
:101D20001182108293838283958384839783868331
:101D3000800F911F91878087138702870F900FBEB6
:101D4000C8010E94C3059B8F8A8F79821D8F0C8FDB
:101D50001E8E8F8E98A2A9A2BAA20FB6F8940F92E7
:101D6000898190E08830910508F0BAC1FC0188278C
:101D7000E657FF4F8F4F0C946359D501C401975F0D
:101D8000A24CBF4FBC01CD01660F771F881F991F62
:101D9000660F771F881F991F95018401000F111F7F
:101DA000221F331F000F111F221F331FA90198018B
:101DB000220F331F441F551F0E94415921503109E2
:101DC0003093C5002093C40082E08093C00088E96E
:101DD0008093C1008EE08093C20082C104EC10E0C9
:101DE000F801118210826A9A80EC8093C20088E91F
:101DF0008093C100D501C40180589B47A14EBF4FBD
:101E0000880F991FAA1FBB1F880F991FAA1FBB1FEE
:101E1000BC01CD01660F771F881F991F880C991C84
:101E2000AA1CBB1C880C991CAA1CBB1CA5019401F4
:101E3000220F331F441F551F220F331F441F551FEE
:101E40000E94415921503109F8013183208348C152
:101E5000D501C401975FA24CBF4FBC01CD01660FF5
:101E6000771F881F991F660F771F881F991F95017D
:101E70008401000F111F221F331F000F111F221F8B
:101E8000331FA9019801220F331F441F551F0E94C1
:101E90004159215031093093CD002093CC0082E08C
:101EA0008093C80088E98093C9008EE08093CA00BF
:101EB00017C10CEC10E0F80111821082559A80ECE9
:101EC0008093CA0088E98093C900D501C401805875
:101ED0009B47A14EBF4F880F991FAA1FBB1F880F9A
:101EE000991FAA1FBB1FBC01CD01660F771F881F5A
:101EF000991F880C991CAA1CBB1C880C991CAA1C35
:101F0000BB1CA5019401220F331F441F551F220F34
:101F1000331F441F551F0E94415921503109F801B8
:101F200031832083DDC0D501C401975FA24CBF4F30
:101F3000BC01CD01660F771F881F991F660F771FA1
:101F4000881F991F95018401000F111F221F331F45
:101F5000000F111F221F331FA9019801220F331FE9
:101F6000441F551F0E944159215031093093D5001B
:101F70002093D40082E08093D00088E98093D10040
:101F80008EE08093D200ACC004ED10E0F801118225
:101F90001082E1E0F1E080818460808380EC8093B6
:101FA000D20088E98093D100D501C40180589B47B5
:101FB000A14EBF4F880F991FAA1FBB1F880F991FE3
:101FC000AA1FBB1FBC01CD01660F771F881F991F79
:101FD000880C991CAA1CBB1C880C991CAA1CBB1C35
:101FE000A5019401220F331F441F551F220F331FD9
:101FF000441F551F0E94415921503109F801318376
:1020000020836EC0D501C401975FA24CBF4FBC01B5
:10201000CD01660F771F881F991F660F771F881FD6
:10202000991F95018401000F111F221F331F000FFC
:10203000111F221F331FA9019801220F331F441FB4
:10204000551F0E9441592150310930933501209389
:10205000340182E08093300188E9809331018EE081
:10206000809332013DC004E311E0F8011182108237
:10207000E4E0F1E080818460808380EC8093320131
:1020800088E980933101D501C40180589B47A14E56
:10209000BF4F880F991FAA1FBB1F880F991FAA1F28
:1020A000BB1FBC01CD01660F771F881F991F880CCD
:1020B000991CAA1CBB1C880C991CAA1CBB1CA50142
:1020C0009401220F331F441F551F220F331F441F3B
:1020D000551F0E94415921503109F8013183208355
:1020E0000F900FBE82E2FE013196D60101900D9253
:1020F0008A95E1F7C601A2960FB6F894DEBF0FBE2F
:10210000CDBFDF91CF911F910F91FF90EF90DF90A6
:10211000CF90BF90AF909F908F907F9008951F9227
:102120000F920FB60F9211240BB60F922F933F937D
:102130004F935F936F937F938F939F93AF93BF93CF
:10214000CF93EF93FF938091C0008C7171F08091D9
:10215000C00088230CF057C0A6ECB0E0E0ECF0E043
:102160008C9180818823E4F34EC0C091C600809199
:102170000B0981111DC081E08093B90A0E942D24B2
:102180001092850010928400E091A907F0E0E453DA
:10219000F84FC0838091A9078F5F8093A907809132
:1021A000A9078F3F19F481E0809385070E942224BC
:1021B0000FB6F8940F92E3E6F7E0218132810F9099
:1021C0000FBE8385948528173907E9F0E4E6F7E028
:1021D000A281B381CC938281938101969383828380
:1021E000208531858217930721F486819781938317
:1021F00082830FB6F8940F9280819181019691832A
:1022000080830F900FBEFF91EF91CF91BF91AF915F
:102210009F918F917F916F915F914F913F912F91FE
:102220000F900BBE0F900FBE0F901F9018951F922E
:102230000F920FB60F9211240BB60F922F938F931C
:102240009F93AF93BF93EF93FF930FB6F8940F92C2
:1022500080917007909171070F900FBE892B31F418
:10226000E1ECF0E080818F7D80831CC0E0E7F7E047
:10227000A481B5812D91B583A48380859185A8170C
:10228000B90721F486819781958384830FB6F894EA
:102290000F92808191810197918380830F900FBE6F
:1022A0002093C600FF91EF91BF91AF919F918F91C5
:1022B0002F910F900BBE0F900FBE0F901F9018958F
:1022C0001F920F920FB60F9211240BB60F922F93FD
:1022D0003F934F938F939F93AF93BF93EF93FF934E
:1022E0008091C8008C7171F08091C80088230CF037
:1022F00036C0AEECB0E0E8ECF0E08C918081882351
:10230000E4F32DC04091CE000FB6F8940F92EBECA1
:10231000F8E0218132810F900FBE838594852817C4
:102320003907E9F0ECECF8E0A281B3814C938281AB
:102330009381019693838283208531858217930749
:1023400021F486819781938382830FB6F8940F924C
:10235000808191810196918380830F900FBEFF91C0
:10236000EF91BF91AF919F918F914F913F912F919D
:102370000F900BBE0F900FBE0F901F9018951F92DD
:102380000F920FB60F9211240BB60F922F938F93CB
:102390009F93AF93BF93EF93FF930FB6F8940F9271
:1023A0008091D8089091D9080F900FBE892B31F4F5
:1023B000E9ECF0E080818F7D80831CC0E8EDF8E0DF
:1023C000A481B5812D91B583A48380859185A817BB
:1023D000B90721F486819781958384830FB6F89499
:1023E0000F92808191810197918380830F900FBE1E
:1023F0002093CE00FF91EF91BF91AF919F918F916C
:102400002F910F900BBE0F900FBE0F901F9018953D
:102410001F920F920FB60F9211240BB60F922F93AB
:102420003F934F938F939F93AF93BF93EF93FF93FC
:102430008091D0008C7171F08091D00088230CF0D5
:1024400036C0A6EDB0E0E0EDF0E08C91808188230D
:10245000E4F32DC04091D6000FB6F8940F92E7E850
:10246000F7E0218132810F900FBE83859485281774
:102470003907E9F0E8E8F7E0A281B3814C93828163
:1024800093810196938382832085318582179307F8
:1024900021F486819781938382830FB6F8940F92FB
:1024A000808191810196918380830F900FBEFF916F
:1024B000EF91BF91AF919F918F914F913F912F914C
:1024C0000F900BBE0F900FBE0F901F9018951F928C
:1024D0000F920FB60F9211240BB60F922F938F937A
:1024E0009F93AF93BF93EF93FF930FB6F8940F9220
:1024F00080919407909195070F900FBE892B31F42E
:10250000E1EDF0E080818F7D80831CC0E4E9F7E09D
:10251000A481B5812D91B583A48380859185A81769
:10252000B90721F486819781958384830FB6F89447
:102530000F92808191810197918380830F900FBECC
:102540002093D600FF91EF91BF91AF919F918F9112
:102550002F910F900BBE0F900FBE0F901F901895EC
:102560001F920F920FB60F9211240BB60F922F935A
:102570003F934F935F936F937F938F939F93AF930B
:10258000BF93CF93EF93FF93809130018C7171F0E3
:102590008091300188230CF057C0A6E3B1E0E0E35E
:1025A000F1E08C9180818823E4F34EC0C091360124
:1025B0008091B90A81111DC081E080930B090E94AE
:1025C0002D241092850010928400E091A907F0E07C
:1025D000E453F84FC0838091A9078F5F8093A907C8
:1025E0008091A9078F3F19F481E0809385070E94AD
:1025F00022240FB6F8940F92EAEAF7E021813281A3
:102600000F900FBE8385948528173907E9F0EBEA10
:10261000F7E0A281B381CC93828193810196938369
:102620008283208531858217930721F486819781E3
:10263000938382830FB6F8940F92808191810196E3
:10264000918380830F900FBEFF91EF91CF91BF9147
:10265000AF919F918F917F916F915F914F913F913A
:102660002F910F900BBE0F900FBE0F901F901895DB
:102670001F920F920FB60F9211240BB60F922F9349
:102680008F939F93AF93BF93EF93FF930FB6F894FD
:102690000F928091B7079091B8070F900FBE892BCA
:1026A00031F4E1E3F1E080818F7D80831CC0E7EBB2
:1026B000F7E0A481B5812D91B583A48380859185B0
:1026C000A817B90721F486819781958384830FB673
:1026D000F8940F92808191810197918380830F906C
:1026E0000FBE20933601FF91EF91BF91AF919F9163
:1026F0008F912F910F900BBE0F900FBE0F901F90D8
:1027000018950F93813071F018F08230A9F026C02F
:1027100084B1876084B9239885B1896085B9249A8A
:102720002C9A23C084B1876084B9239885B18960CD
:1027300085B99D9AA59A19C084B1876084B92398F8
:1027400085B1896085B9E1E0F1E0808180628083B4
:10275000E2E0F1E080818062808307C084B187601D
:1027600084B9239885B1896085B98CB580658CBDA5
:102770008DB58EB58091740690917506892B89F47C
:1027800081E00E94750A9093750680937406009705
:1027900041F000E020E030E0A90160E070E00E943C
:1027A000D1090F9108959CB59C7F282F2370922BFF
:1027B0009CBD9DB582FB882780F99E7F892B8DBDAE
:1027C0000895811104C08CB580628CBD08958CB5CC
:1027D0008F7D8CBD08959CB5937F892B8CBD08950A
:1027E000CF93C82F48EE53E060E070E0809174060C
:1027F000909175060E948F0B8130B1F4C13039F091
:1028000018F0C23039F00DC02C9881E00EC0A598A8
:1028100081E00BC0E2E0F1E080818F7D808381E088
:1028200004C0289881E001C080E0CF9108950F9303
:10283000813031F018F0823029F00AC02C9A09C09A
:10284000A59A07C0E2E0F1E080818062808301C048
:10285000289A00E020E030E0A90160E070E080917B
:102860007406909175060E94D1090F910895282F42
:102870009CB5892F807496FF17C00CB404FC08C067
:102880008CB580618CBD9CB5892F807194FF0CC084
:102890002EBD000005C09CB5892F807194FF04C037
:1028A0000DB407FEF8CF8EB50895E091AC06F09117
:1028B000AD06808181110CC08FEF9FEFDC0180930A
:1028C000790690937A06A0937B06B0937C060895D0
:1028D000E091AC06F091AD060780F085E02D008414
:1028E000F185E02D82819381A481B5818093790661
:1028F00090937A06A0937B06B0937C0608958F92FE
:102900009F92AF92BF92CF92DF92EF92FF92CF93BE
:102910006B017C01C42F8090830690908406A09068
:102920008506B09086068091F0069091F106029699
:102930000E9475088FEFC816D806E806F80669F4F5
:10294000CC2359F06091F0067091F1066E5F7F4FD5
:1029500088E896E00E9417083FC0C80CD91CEA1C02
:10296000FB1CE091F006F091F106C282D382E48272
:10297000F582C814D904EA04FB0468F46091F006F7
:102980007091F1068091AA069091AB066E5F7F4F21
:102990000E94380821C06091F0067091F106809184
:1029A000AC069091AD066E5F7F4F0E943808809113
:1029B000790690917A06A0917B06B0917C06C816A4
:1029C000D906EA06FB0640F4C0927906D0927A0650
:1029D000E0927B06F0927C06CF91FF90EF90DF9023
:1029E000CF90BF90AF909F908F9008954F925F923D
:1029F0006F927F928F929F92AF92BF92CF92DF920F
:102A0000EF92FF920F93CF93DF934C016B015A012A
:102A10002901CA010E94C3053C01892B09F4ECC0BD
:102A200083E390E00E94C305EC01892BB1F07C8E1A
:102A30006B8EA50165EA70E0C3010E94875B21E00F
:102A4000A21AB1088B8D9C8DA80EB91ED6018C914F
:102A50008D8F8C91811105C018C0C3010E94D505CE
:102A6000CBC0AE01425E5F4FF6013196BFE0CB0EA8
:102A7000D11CCF012191DA012D93AD01DC018C91A4
:102A8000882319F0EC15FD05A1F71BA6043008F00A
:102A900003E00A8F0CA71DA66E01B2E0CB0ED11C7D
:102AA000C6010E941308CE010E960E941308DB8710
:102AB000CA8784E090E0A0E0B0E0801B9109A10902
:102AC000B1098E879F87A88BB98BDF8BCE8B1EA613
:102AD0001FA618AA19AA1AAAA201B401C5010E9428
:102AE000E40599838883E114F10419F0F701D18397
:102AF000C0830FB6F8940F92809187068F5F809302
:102B000087068091F0069091F106892BD1F5D0933C
:102B1000F106C093F00680918706813009F041C02C
:102B200084EC96E00E9402088FEC96E00E94020876
:102B30008AED96E00E94020885EE96E00E94020867
:102B400089EB96E00E9402088EEA96E00E94020855
:102B50008FE996E00E94020884E996E00E9402084C
:102B600088E896E00E94020889EB96E09093AD0613
:102B70008093AC068EEA96E09093AB068093AA060B
:102B800010C08091810681110CC0E091F006F09197
:102B9000F106928D8A8D891720F0D093F106C093AB
:102BA000F00680917D068F5F80937D068A8D9091DF
:102BB0008206981710F480938206FBE08F9FC00175
:102BC0001124B6018C53994F0E9417080F900FBE25
:102BD00080918106882361F0E091F006F091F10682
:102BE000928D8A8D981730F40E94A80681E005C066
:102BF00081E003C081E001C08FEFDF91CF910F91A1
:102C0000FF90EF90DF90CF90BF90AF909F908F900C
:102C10007F906F905F904F9008950F931F93CF9385
:102C2000DF93009709F43DC02091F0063091F10642
:102C30008217930709F435C00FB6F8940F92FC0180
:102C4000248535852858364051F5FC01208D318D7D
:102C5000F6E02F393F0719F1232B09F5EC018C0120
:102C60000E5F1F4FC8010E9475088A8D90918206E1
:102C7000981710F4809382062BE0829FC0011124E4
:102C8000B8018C53994F0E941708E091F006F0911B
:102C9000F1069A8D828D981710F00E94A8060F9069
:102CA0000FBEDF91CF911F910F910895EF92FF9288
:102CB0000F930F2EF7E7EF2EF6E0FF2EF02D00E03A
:102CC00020E030E040E850E066E172E088E395E023
:102CD0008DDE8130E1F4CED48130C9F4F8948FEFE9
:102CE0009FEFDC018093790690937A06A0937B0690
:102CF000B0937C0681E08093810610928306109247
:102D0000840610928506109286060E9456060F9140
:102D1000FF90EF900895809176068F5F80937606FE
:102D200008950FB6F8940F9260918306709184060F
:102D300080918506909186060F900FBE08959F9210
:102D4000AF92BF92CF92DF92EF92FF920F931F93B9
:102D5000CF93DF93809176068111ADC0C09083063A
:102D6000D0908406E0908506F09086068FEFC81A12
:102D7000D80AE80AF80AC0928306D0928406E09244
:102D80008506F0928606C114D104E104F104B1F481
:102D90008091AC069091AD062091AA063091AB06C9
:102DA0003093AD062093AC069093AB068093AA06B1
:102DB00080917E068F5F80937E0677DD8091790615
:102DC00090917A06A0917B06B0917C06C816D90630
:102DD000EA06FB0610F4B12C5DC0B12C0F2EFBE00F
:102DE000AF2EF02D99249394E091AC06F091AD06AE
:102DF000808181110CC08FEF9FEFDC0180937906F9
:102E000090937A06A0937B06B0937C0643C0E09132
:102E1000AC06F091AD060780F085E02DC085D18528
:102E20008A819B81AC81BD81C816D906EA06FB0662
:102E300048F48093790690937A06A0937B06B0932A
:102E40007C0628C08E010E5F1F4FC8010E947508C6
:102E5000888D998D892B21F0CE010E960E947508E0
:102E60008A8D90918206981710F480938206A89E0E
:102E7000C0011124B8018C53994F0E941708E091AA
:102E8000F006F091F1069A8D828D981708F4ACCF78
:102E9000B92CAACFE091F006F091F106E28D8BE01B
:102EA000E89FF0011124EC53F94F8081823048F003
:102EB000BB24B39406C0809180068F5F8093800608
:102EC000B12C80917F06882311F0BB24B3948B2D05
:102ED000DF91CF911F910F91FF90EF90DF90CF90F6
:102EE000BF90AF909F900895CF92DF92EF92FF92A4
:102EF0000F931F93CF93DF930FB6F8940F928091A7
:102F000076068150809376068091760681115AC0AC
:102F10008091870681112CC058C0D7011796ED917A
:102F2000FC911897C085D185CE010E960E94750838
:102F30008E010E5F1F4FC8010E9475088A8D909107
:102F40008206981710F480938206D89EC00111243F
:102F5000B8018C53994F0E941708E091F006F09148
:102F6000F1069A8D828D981788F0C0927F060EC068
:102F7000C0E0D0E00F2EFFE9EF2EF6E0FF2EF02D9F
:102F80000F2EFBE0DF2EF02DCC24C394F7018081BF
:102F90008111C3CFCD2B09F088DCC0918006CC23F2
:102FA00049F0D1E0CCDE8111D0937F06C150D1F73A
:102FB0001092800680917F06882331F00E94A80637
:102FC00081E003C080E001C080E00F900FBEDF9180
:102FD000CF911F910F91FF90EF90DF90CF900895C8
:102FE000CF92DF92EF92FF926B017C01672B682BEF
:102FF000692B41F090DE40E0C701B60180DC74DF50
:10300000811102C00E94A806FF90EF90DF90CF9040
:10301000089580917606882321F081E080937F06D1
:10302000089510927F06A091F006B091F106E0910C
:10303000F006F091F1062D913C91838D948D8217CD
:10304000930760F06091F0067091F1068091F006B0
:103050009091F106635E7F4F0E94FD07809182068A
:10306000282F30E09BE0899FF0011124EC53F94FA9
:10307000908191110EC04BE08150282F30E0429F8B
:10308000F001439FF00D1124EC53F94F90819923E7
:1030900099F39BE0929FA001939F500D1124DA01B8
:1030A000AC53B94F1196ED91FC9112970480F581C4
:1030B000E02D1296FC93EE9311974953594FE41764
:1030C000F50729F444815581FD01528341839BE03A
:1030D000929FF001939FF00D1124EC53F94F018062
:1030E000F281E02D208531853093F1062093F006A2
:1030F0008093820608950F931F93CF93DF93EC0183
:103100000FB6F8940F92892B21F4C091F006D0915C
:10311000F1068E010E5F1F4FC8010E947508888D51
:10312000998D892B21F0CE010E960E947508B80169
:1031300088E896E00E9417088AA9813009F41AAA43
:103140000F900FBE80918106882331F00FB6F8945E
:103150000F92ABDB0F900FBE8091F0069091F106BD
:10316000C817D90799F480918106882319F00E9425
:10317000A8060CC09091880680918706981305C018
:103180001092F1061092F00601C043DFDF91CF915B
:103190001F910F910895CF92DF92EF92FF926A01F3
:1031A0007B016091F0067091F106625F7F4F0E9493
:1031B000380841E0C701B601A2DBFF90EF90DF9035
:1031C000CF900895CF92DF92EF92FF92CF936A0152
:1031D0007B01C22F6091F0067091F106625F7F4F14
:1031E0000E941708CC2321F0CC24CA94DC2C760151
:1031F0004C2FC701B60183DBCF91FF90EF90DF909A
:10320000CF9008950F931F93CF93DF93DC01179610
:10321000ED91FC911897C085D1858E01025F1F4FFB
:10322000C8010E94750880917606811116C00C5065
:103230001109C8010E9475088A8D9091820698171D
:1032400010F480938206BBE08B9FC0011124B8016B
:103250008C53994F0E94170805C0B8018FE996E07A
:103260000E941708E091F006F091F1069A8D828D88
:10327000891720F481E080937F0601C080E0DF9110
:10328000CF911F910F91089520917E06FC0120831C
:103290004091830650918406609185067091860660
:1032A00041835283638374830895CF92DF92EF92B8
:1032B000FF920F931F93CF93DF93FB010FB6F89408
:1032C0000F9240918306509184066091850670911B
:1032D000860600811181228133810F3FAFEF1A07EB
:1032E0002A073A0749F1EC01C980DA80EB80FC80BB
:1032F000A0917E06B881BA1729F04C155D056E05C0
:103300007F05E0F44C195D096E097F0940175107EC
:103310006207730758F4041B150B260B370B008349
:10332000118322833383B0DF80E009C010821182D1
:103330001282138281E003C080E001C081E00F901F
:103340000FBEDF91CF911F910F91FF90EF90DF9013
:10335000CF90089581E080937F0608958091810643
:10336000882331F080917606882321F080E008954B
:1033700081E0089582E008950F931F93CF93DF9328
:10338000FC01892B09F460C0828DA091F006B091F8
:10339000F1065A969C91891708F04AC046855785D0
:1033A00060897189772394F0A091F006B091F106BD
:1033B0005A969C9144E050E060E070E0491B51094E
:1033C0006109710946875787608B718B2BE0829F5B
:1033D000C00111248C53994F24853585281739074E
:1033E000F1F48F01EF012296CE010E947508E09161
:1033F000F006F091F106828DF801828F909182069D
:10340000981710F480938206FBE08F9FC00111246F
:10341000BE018C53994F0E94170881E016C0A091FD
:10342000F006B091F1065A968C91828F81E00DC022
:10343000A091F006B091F10681E024A55A969C91E6
:10344000291718F080E001C080E0DF91CF911F9133
:103450000F9108950F931F93CF93DF93FC01892B56
:1034600079F185A5815085A7228D94A5291751F161
:1034700081112AC0EF018F010E5F1F4FC8010E940A
:1034800075088CA58A8F44E050E060E070E0481B2E
:103490005109610971094E875F87688B798B90911B
:1034A0008206981710F4809382062BE0829FC00159
:1034B0001124B8018C53994F0E94170881E005C070
:1034C00080E003C080E001C080E0DF91CF911F91D8
:1034D0000F9108950F931F93CF93DF93FC01892BD6
:1034E00009F43FC084A5861708F4862F928D98179B
:1034F000C1F125A52130A9F5828F468557856089C0
:103500007189772364F044E050E060E070E0481B8C
:1035100051096109710946875787608B718B2BE0D0
:10352000929FC00111248C53994F2485358528170B
:103530003907B9F4EF018F010E5F1F4FC8010E94D8
:1035400075088A8D90918206981710F480938206F0
:103550002BE0829FC0011124B8018C53994F0E9427
:103560001708DF91CF911F910F9108958091F00678
:103570009091F106892B39F0E091F006F091F10677
:1035800085A58F5F85A78091F0069091F10608953B
:10359000CF92DF92EF92FF920F931F93FC01428331
:1035A00053836483758393878287041715072607DF
:1035B0003707C0F00C191D092E093F09868597852C
:1035C000A089B189081719072A073B0700F5BF0131
:1035D0006E5F7F4F8091FA069091FB060E9438083B
:1035E00080E018C00C151D052E053F0528F44C156C
:1035F0005D056E057F0568F4BF016E5F7F4F8091AA
:10360000FC069091FD060E94380880E003C081E02E
:1036100001C081E01F910F91FF90EF90DF90CF905C
:1036200008950FB6F8940F928091F8069091F906DC
:10363000892BE9F489E097E00E9402088EEF96E07A
:103640000E94020889E097E09093FD068093FC06B3
:103650008EEF96E09093FB068093FA0640E067E0D9
:103660008AE00E94A7099093F9068093F8060F90CC
:103670000FBE0895EF92FF920F93D3DF8091F8066B
:103680009091F906892B89F00F2EF6EFEF2EF6E0D8
:10369000FF2EF02D03E020E030E040E850E06BE149
:1036A00072E085E89CE1A2D901C080E00F91FF9013
:1036B000EF9008957F928F929F92AF92BF92CF9298
:1036C000DF92EF92FF920F931F93CF93DF936C01E2
:1036D0004A015B01722E87E190E00E94C305EC0174
:1036E000892B81F09EDFD982C8828E869F86A88A28
:1036F000B98A7A8A1C8B0B8BFE8AED8ACE010296E0
:103700000E941308CE01DF91CF911F910F91FF907E
:10371000EF90DF90CF90BF90AF909F908F907F9071
:1037200008958F929F92AF92BF92CF92DF92EF92C5
:10373000FF920F931F93CF93DF93CDB7DEB72797F9
:103740000FB6F894DEBF0FBECDBFE091F806F09142
:10375000F906309781F169832A833B834C835D832B
:103760009F838E836630F4F4F9DD823069F400E0E3
:10377000A7019601BE016F5F7F4F8091F80690917F
:10378000F9060E94D10918C000E020E030E0A9014C
:10379000BE016F5F7F4F8091F8069091F9060E94FD
:1037A000D1090AC020E0A801BE016F5F7F4FCF01A1
:1037B0000E94900A01C080E027960FB6F894DEBF01
:1037C0000FBECDBFDF91CF911F910F91FF90EF9072
:1037D000DF90CF90BF90AF909F908F9008952F92E1
:1037E0003F924F925F926F927F928F929F92AF9291
:1037F000BF92CF92DF92EF92FF920F931F93CF93DE
:10380000DF931C018EDA2B013C018091F20690912E
:10381000F306A091F406B091F506481659066A061B
:103820007B0608F053C03BC00780F085E02D808008
:103830009180A280B380C085D1858E010E5F1F4F1D
:10384000C8010E947508ED89FE89CE0119958A8903
:10385000813029F58E859F85A889B989880D991DA4
:10386000AA1DBB1D88169906AA06BB0670F48A839A
:103870009B83AC83BD83DB87CA87B8018091FC063C
:103880009091FD060E9438080AC0C12CD12C760107
:1038900000E010E0A501940160E0CE0142DFE0917C
:1038A000FC06F091FD0680818111BECF8091FA0661
:1038B0009091FB069093FD068093FC06F093FB0627
:1038C000E093FA0681E0F101808302C0F1011082E9
:1038D0004092F2065092F3066092F4067092F5065A
:1038E000C301B201DF91CF911F910F91FF90EF9033
:1038F000DF90CF90BF90AF909F908F907F906F9010
:103900005F904F903F902F900895CF93DF93CDB766
:10391000DEB760970FB6F894DEBF0FBECDBFCE0105
:1039200001969A878987812C912CA12CB12C6984CE
:103930007A84E091FC06F091FD068081882309F4E9
:10394000F2C00780F085E02D2080318042805380D6
:10395000E2D9CE01019643DF6B877C878D879E87F6
:10396000898181115DC08B859C85AD85BE85821561
:103970009305A405B50508F43CC0B6DAE091FC0651
:10398000F091FD060780F085E02DA085B185B88B0C
:10399000AF87CD0102960E947508EF85F88982896C
:1039A0008130F1F44685578560897189420D531D38
:1039B000641D751D720161010B851C852D853E8579
:1039C000CF01E6DD882361F0C82CD92CEA2CFB2C32
:1039D00000E010E0A201910160E08F859889A1DEEE
:1039E000AF85B8895596ED91FC915697CD01199503
:1039F0008BC020E0B201A1018B859C85AD85BE8581
:103A0000481B590B6A0B7B0B8091F8069091F906C5
:103A10000E94610C69DA811177C00E94A80674C007
:103A200063DA72C0898188230CF46EC04E805F8097
:103A3000D2011C968D919C911D97892B21F0C2017A
:103A400002960E947508CE010896C9DE8B019C0182
:103A50008981082E000C990BAA0BBB0B8A309105AB
:103A600008F052C0FC018827EE56FF4F8F4F0C9490
:103A70006359CA80DB80EC80FD80F2014685578562
:103A8000608971894C0D5D1D6E1D7F1DC20180DD39
:103A90008823D1F1D2015596ED91FC915697C20140
:103AA0001995F2018289813079F54A815B816C81B7
:103AB0007D8186859785A089B1899A01AB01280F00
:103AC000391F4A1F5B1FC82CD92CEA2CFB2C00E0A5
:103AD00010E060E0C20125DE17C04A815B816C8185
:103AE0007D81D2011E964D935D936D937C9351978A
:103AF000400F511F621F731F68017901C20148DD29
:103B000003C0C2010E94D505282D392D4A2D5B2DF9
:103B1000662D772D8091F8069091F9060E94F20AA1
:103B2000811180CF06CFF7D8CE01019658DE6B8782
:103B30007C878D879E878981811172CFE091FA06FB
:103B4000F091FB06808121E0811120E0282C392CA6
:103B50004A2C5B2C4FCFFC010FB6F8940F9281E0FA
:103B600024853585232B09F480E00F900FBE08953E
:103B70000FB6F8940F92FC01838994890F900FBEC1
:103B80000895CCE0D9E00CE619E00F2EFEE3CF2E2D
:103B9000F2E0DF2EF02D0F2EFAEAEF2EF7E0FF2EE7
:103BA000F02D0F2EFAEB8F2EF9E09F2EF02D3324FF
:103BB00033940F2EF3E2AF2EF2E0BF2EF02DA89536
:103BC0008F8D813009F0D1C080911507813091F43B
:103BD000BE01C8010E94DB33F8013186109215073F
:103BE000BF92AF92FF92EF920E94340D0F900F9010
:103BF0000F900F90F801818581114AC092D84090B2
:103C0000ED085090EE086090EF087090F0089B016E
:103C1000AC01241935094609570929013A012AA19D
:103C200030E0A0E6BAEE0E946B5964157505860572
:103C3000970548F56AA57BA5072E000C880B990B04
:103C40000E9429549B01AC01F40160817181828141
:103C500093810E948A538823B4F4809115078111BF
:103C600012C0BE01C8010E94DB33F801318623E394
:103C700032E03F932F93FF92EF920E94340D0F900A
:103C80000F900F900F90F8018185882309F46DC083
:103C900048D84090ED085090EE086090EF08709082
:103CA000F0089B01AC01241935094609570929017F
:103CB0003A0129A130E0A0E6BAEE0E946B596415E2
:103CC000750586059705F8F4F80182858823D9F0F3
:103CD000BE01C8010E94F633F8011186128621D870
:103CE0006093ED087093EE088093EF089093F008CE
:103CF000DF92CF92FF92EF920E94340D0F900F90BF
:103D00000F900F9032C0F8018185882371F16CA566
:103D10007DA5072E000C880B990B0E9429549B014E
:103D2000AC01F80162A973A984A995A90E94D9548C
:103D30001816DCF4BE01C8010E94F633F8011186A2
:103D400012860E9491166093ED087093EE0880939E
:103D5000EF089093F008DF92CF92FF92EF920E94CB
:103D6000340D0F900F900F900F9060ED77E080E092
:103D700090E036D924CFCCE0D9E00F2EF4E58F2E99
:103D8000F9E09F2EF02D0F2EF2E66F2EFAE07F2E37
:103D9000F02D0F2EF6E6CF2EFAE0DF2EF02D0F2EAF
:103DA000F6E5EF2EF2E0FF2EF02D0AEA17E055249B
:103DB00053940F2EF8E4AF2EF2E0BF2EF02DA8950D
:103DC000809123079091240796D90FB6F8940F920B
:103DD00086EF99E00E94144C0F900FBE809123074C
:103DE000909124070E940D168CA18130A9F4809136
:103DF000FC0981113AC08091F609811174C050927A
:103E0000FC09BF92AF921F930F930E94340D0F9045
:103E10000F900F900F9024C0811122C08091FC0957
:103E2000882309F460C0E6EFF9E01682D6011D92FE
:103E30001C921092B20A1092B10A118AFF92EF926C
:103E40001F930F930E94340D86EF99E00E94C55096
:103E500086EF99E00E9464370F900F900F900F90BB
:103E60008091FC09882309F43EC08091070A8330C1
:103E7000D0F5BE0186EF99E0FFD29093B20A80930D
:103E8000B10ABE0186EF99E00E946E388091F70971
:103E9000882349F10E9491162091190730911A0741
:103EA00040911B0750911C07DC01CB01821B930B37
:103EB000A40BB50B81319742A105B105A0F0D40147
:103EC0006D917C9186EF99E00E941451F3019183EA
:103ED00080830E9491166093190770931A0780934C
:103EE0001B0790931C0768EE73E080E090E078D8A1
:103EF00066CFCCE0D9E0772473940F2EF8ED8F2EA7
:103F0000F9E09F2EF02D0F2EFCEDCF2EF9E0DF2EE5
:103F1000F02D0F2EF3E7EF2EF2E0FF2EF02D0AEA40
:103F200017E00F2EF5E6AF2EF2E0BF2EF02DA8958C
:103F30008091210790912207DED80FB6F8940F9256
:103F40008CE699E00E94144C0F900FBE88A182303D
:103F500061F480912107909122070E940D16109222
:103F6000C20A88A1813069F406C0813051F4809181
:103F7000C20A811106C07092C20A86EF99E00E94BF
:103F800064378CA18130F9F480917209811146C0A7
:103F900080916C09811188C0709272090E949116FB
:103FA0006093ED087093EE088093EF089093F0080B
:103FB000BF92AF921F930F930E94340D0F900F90FA
:103FC0000F900F9026C0811124C080917209882320
:103FD00009F46AC0ECE6F9E0168282B112B8D601A3
:103FE0001D921C9210927F0A10927E0A118AFF92F3
:103FF000EF921F930F930E94340D8CE699E00E947C
:10400000C5508CE699E00E9464370F900F900F9096
:104010000F9080917209882309F446C080917D0930
:10402000833008F041C080919E0A81110AC0BE0110
:104030008CE699E021D290937F0A80937E0A19D270
:1040400002C010929E0ABE018CE699E00E946E3872
:1040500080916D09882341F10E94911620911D07DE
:1040600030911E0740911F0750912007DC01CB01C2
:10407000821B930BA40BB50B81319742A105B105AF
:1040800098F06AA97BA98CE699E00E941451D401AA
:104090008D939C930E94911660931D0770931E0749
:1040A00080931F079093200768EE73E080E090E014
:1040B0000E94F0173CCF4FEF5FEFBA0180919F0A4B
:1040C0009091A00A0E948F0B8130A9F733D780917D
:1040D000B90A882349F083E697E00E945F0D1092A9
:1040E000B90A1092A907E7CF80910B09882319F329
:1040F0008AEA97E00E945F0D10920B091092A907BF
:10410000DACFCDB7DEB7A297DEBFCDBF0E94BB3DF1
:1041100093D1B3D381E090E09093DF098093DE09DF
:1041200082E090E09093690A8093680A80E090E0D2
:104130000E94940560930709709308098093090908
:1041400090930A09EE24EA94F12C0FEF10E020E896
:1041500035E240E050E060E0CE0101960E94530E4F
:1041600082E2FE013196A3E6B7E001900D928A95B6
:10417000E1F720E835E240E050E066E0CE0101964C
:104180000E94530E82E2FE013196AAEAB7E0019046
:104190000D928A95E1F743E060E081E00E94A70973
:1041A0009093A00A80939F0A009741F000E020E0DE
:1041B00030E0A90160E070E00E94D10940E650E0E3
:1041C00060E070E08CE099E00E946B5C8CE699E026
:1041D0000E94F03186EF99E00E94F0318CE699E080
:1041E0000E944F5086EF99E00E944F5081E08093EB
:1041F0009E0A80913E0990913F099093850A809391
:10420000840A80915409909155099093F5098093FF
:10421000F4098CE099E00E94E0348093060A8093D0
:104220007C0999E288E10FB6F894A8958093600024
:104230000FBE909360007894E12CF12C02E020E016
:1042400030E040E051E062E872E08BE590E20E94ED
:10425000F6140F2EF3E2EF2EF7E0FF2EF02D00E024
:1042600020E030E040E052E069E872E089E79FE159
:104270000E94F6140F2EF1E2EF2EF7E0FF2EF02D44
:1042800020E030E040E052E062E972E08BEB9EE13A
:104290000E94F614E12CF12C20E030E040E051E0E7
:1042A0006BE972E081EC9DE10E94F6140E945616C3
:1042B00080E090E0A2960FB6F894DEBF0FBECDBFAF
:1042C00008951F920F920FB60F9211240BB60F9202
:1042D0002F933F934F935F936F937F938F939F930E
:1042E000AF93BF93EF93FF93109214078091B50A99
:1042F0009091B60AA091B70AB091B80A0196A11D93
:10430000B11D8093B50A9093B60AA093B70AB093F3
:10431000B80A8091B50A9091B60AA091B70AB091F7
:10432000B80A0797A105B10589F497D21092B50A8A
:104330001092B60A1092B70A1092B80A64E177E0B8
:1043400080919F0A9091A00A0E94C90AFF91EF9163
:10435000BF91AF919F918F917F916F915F914F919D
:104360003F912F910F900BBE0F900FBE0F901F909B
:1043700018951F93CF93DF93C82F0FB6F8940F9221
:1043800084E00E94F0138C2F0E94371480E00E947A
:104390003714182F80E00E943714C82F80E00E9445
:1043A0003714D82F84E00E9417140F900FBE8C2F63
:1043B00090E0A0E0B0E0BA2FA92F982F8827A12B7A
:1043C000BC01CD016D2BDF91CF911F910895CF934B
:1043D000DF93D82FC62F0FB6F8940F9284E00E9477
:1043E000F0138D2F80680E9437148C2F0E94371491
:1043F00084E00E9417140F900FBEDF91CF910895B3
:10440000682F83E1E4CF0895682F85E1E0CF089518
:10441000682F87E1DCCF0895CF93DF93D62FC42F89
:10442000682F82E4D4DF6D2F83E4D1DF6C2F84E426
:10443000CEDFDF91CF91089588E00E94EB1386E0F4
:104440000E94D31381E00E94E11384E00E94811353
:1044500080E0DEDF60E083E2BADF42E062E082E03B
:10446000DBDF84E0CDDF80E1CFCF089589E181CF2C
:1044700008958AE17ECF08954F925F926F927F9266
:104480008F929F92AF92BF92CF92DF92EF92FF9264
:104490000F931F93CF93DF93EC018B0120E030E06B
:1044A00048EC52EC6A897B898C899D890E948A53E9
:1044B000882334F4CE58DF4F888199810A96B1C1A0
:1044C00020E030E048EC52EC6E897F89888D998D30
:1044D0000E948A53882334F4CE58DF4F8881998113
:1044E00044969FC1CAA4DBA4ECA4FDA420E030E064
:1044F00048EC52ECC701B6010E948A53882334F479
:10450000CE58DF4F888199814E968BC18EA49FA48F
:10451000A8A8B9A820E030E048EC52ECC501B401ED
:104520000E948A53882334F4CE58DF4F88819981C2
:10453000889677C120E030E048EC52EC6AA97BA96C
:104540008CA99DA90E948A53882334F4CE58DF4F4A
:1045500088819981C29665C120E030E048EC52EC38
:104560006EA97FA988AD99AD0E948A53882334F43F
:10457000CE58DF4F88819981CC9653C14AAC5BAC51
:104580006CAC7DAC20E030E048EC52ECC301B201F1
:104590000E948A5388233CF4CE58DF4F888199814A
:1045A0008A5B9F4F3EC120E030E048EC52ECFE01B8
:1045B000FE9660817181828193810E948A53882353
:1045C0003CF4CE58DF4F88819981805B9F4F29C191
:1045D00020E030E048EC52ECFE01EE5BFF4F6081E2
:1045E0007181828193810E948A5388233CF4CE5842
:1045F000DF4F88819981865A9F4F13C14A9B0CC017
:104600008F85813049F4FE01EE58FF4F8081918102
:10461000019709F0F5C0D3C04B9B0DC08F85813049
:1046200009F0FCC0FE01EE58FF4F80819181029796
:1046300009F0E9C0C7C0659B0DC08F85813009F0C6
:10464000E5C0FE01EE58FF4F80819181019709F08E
:10465000DFC0BBC0659B0BC08F85813041F4FE017C
:10466000EE58FF4F80819181029709F4B1C0F801A3
:10467000E45AFF4F20813181428153816E8D7F8DBD
:1046800088A199A10E948A5388233CF4CE58DF4F19
:104690008881998188589F4FC4C0F801668170E075
:1046A00080E090E00E9429549B01AC016A8D7B8DD3
:1046B0008C8D9D8D0E94D95418163CF4CE58DF4F36
:1046C0008881998184579F4FACC0F801668570E05E
:1046D00080E090E00E9429549B01AC01C301B2012B
:1046E0000E94D95418160CF476C0A7019601C50192
:1046F000B4010E9425530E94F6539B01772324F4B2
:1047000022273327261B370BC901F801248930E003
:104710002817390754F48D818823B9F0CE58DF4F1C
:104720008881998186509F4F7CC0F801238930E0B1
:104730008217930754F48D81882339F0CE58DF4FC8
:10474000888199818C5F9E4F6CC090DE71FD0BC09B
:10475000F80181A5813039F4FE01EE58FF4F8081C8
:1047600091810197D9F182DE72FD0BC0F80181A51C
:10477000813039F4FE01EE58FF4F8081918101971D
:1047800081F174DE73FD0BC0F80181A5813039F42D
:10479000FE01EE58FF4F80819181019729F166DE7D
:1047A00083FD25C0F80181A5813021F5CE58DF4F6A
:1047B00088819981019709F58DE291E032C085E603
:1047C00090E02FC086E690E02CC08FE690E029C0F4
:1047D00080E790E026C08CED90E023C08FE091E070
:1047E00020C089E191E01DC083E291E01AC080E021
:1047F00090E017C080E090E014C080E090E011C02D
:104800004B9910CF08C065991CCF24CF8CB12FCF06
:10481000659925CF2CCF659914CF1CCF6599F6CF1C
:1048200019CFDF91CF911F910F91FF90EF90DF9003
:10483000CF90BF90AF909F908F907F906F905F9040
:104840004F900895EFE6F0E0808182608083E1E898
:10485000F0E08081826080830895E1E8F0E080816B
:104860008E7F80831092850010928400EFE6F0E046
:1048700080818D7F8083B19A089588E08093810044
:104880008EE98093890080E680938800E6CF0895C2
:10489000CF93DF93FA013A97E73D41E0F40708F040
:1048A00011C2EB01DC018827E456FF4F8F4F0C94B7
:1048B00063591B966C91262F30E004C21F966C91B1
:1048C000262F30E0FFC11C966C91262F30E0FAC1F4
:1048D0001E966C91262F30E0F5C11D966C91262F07
:1048E00030E0F0C1A259BF4F2D913C91EBC120E0C7
:1048F00030E040E251E456966D917D918D919C910E
:1049000059970E9422550E94F6539B01DBC120E07B
:1049100030E040E251E452966D917D918D919C91F1
:1049200055970E9422550E94F6539B01CBC120E06F
:1049300030E040E251E4D2966D917D918D919C9151
:10494000D5970E9422550E94F6539B01BBC120E0DF
:1049500030E040E251E4D6966D917D918D919C912D
:10496000D9970E9422550E94F6539B01ABC1A059D2
:10497000BF4F2D913C91A6C1AE5BBF4F20E030E010
:1049800040E251E46D917D918D919C910E94225560
:104990000E94F6539B0196C1DE9620E030E040E293
:1049A00051E46D917D918D919C910E9422550E94C0
:1049B000F6539B0187C1A65BBF4F20E030E040E289
:1049C00051E46D917D918D919C910E9422550E94A0
:1049D000F6539B0177C1AA5BBF4F20E030E040E275
:1049E00051E46D917D918D919C910E9422550E9480
:1049F000F6539B0167C120E030E040E251E49E960F
:104A00006D917D918D919C91D1970E9422550E942C
:104A1000F6539B0157C120E030E040E251E49A9602
:104A20006D917D918D919C919D970E9422550E9440
:104A3000F6539B0147C120E030E040E251E45A9632
:104A40006D917D918D919C915D970E9422550E9460
:104A5000F6539B0137C120E030E040E251E45E961E
:104A60006D917D918D919C9191970E9422550E940C
:104A7000F6539B0127C1DA966D917D918D919C91A2
:104A8000DD970E94F6539B011DC16881262F30E0FF
:104A900019C16B81262F30E015C16981262F30E0C6
:104AA00011C16A81262F30E00DC16C81262F30E0C4
:104AB00009C16C85262F30E005C16D85262F30E0B9
:104AC00001C16985262F30E0FDC06A85262F30E0C0
:104AD000F9C06C89262F30E0F5C06B89262F30E0B5
:104AE000F1C06E89262F30E0EDC06D89262F30E0B1
:104AF000E9C06D8D262F30E0E5C06E8D262F30E0A9
:104B0000E1C06C8D262F30E0DDC06F8D262F30E0A8
:104B1000D9C06E85262F30E0D5C06FA1262F30E09A
:104B2000D1C06EA1262F30E0CDC06DA1262F30E080
:104B3000C9C06E81262F30E0C5C06885262F30E0C1
:104B4000C1C06F81262F30E0BDC0FB01E45AFF4F8A
:104B500060817181828193810E94F6539B01B2C072
:104B60006A89262F30E0AEC06989262F30E0AAC0BE
:104B70006889262F30E0A6C06F85262F30E0A2C0BE
:104B8000FB01EA5BFF4F208131819CC06CA1262F85
:104B900030E098C06A8D262F30E094C06B8D262FB0
:104BA00030E090C0698D262F30E08CC02AA53BA54F
:104BB00089C069A1262F30E085C02EA53FA582C0FF
:104BC0002CA53DA57FC02CAD3DAD7CC068A1262F96
:104BD00030E078C068A5262F30E074C06D81262FA4
:104BE00030E070C06B85262F30E06CC028A939A951
:104BF00069C0688D262F30E065C06F89262F30E0B0
:104C000061C069A5262F30E05DC06AA1262F30E083
:104C100059C02EAD3FAD56C0FB01EE5BFF4F20816A
:104C2000318150C0FB01EC5BFF4F208131814AC0D4
:104C3000FB01E05CFF4F2081318144C02AAD3BADD8
:104C400041C02CA93DA93EC02EA93FA93BC028AD1B
:104C500039AD38C02AA93BA935C0FB01EE5AFF4F38
:104C6000208131812FC0FB01EA5AFF4F2081318121
:104C700029C0FB01E85AFF4F2081318123C0FB018D
:104C8000EC5AFF4F208131811DC0FB01E05BFF4FDB
:104C90002081318117C0FB01E65BFF4F208131810C
:104CA00011C0FB01E45BFF4F208131810BC0FB0190
:104CB000E25BFF4F2081318105C0FB01E85BFF4FC4
:104CC00020813181C901DF91CF910895CF93DF9386
:104CD000DC01FB013A97E73D81E0F80708F0BBC033
:104CE0008827ED58FD4F8F4F0C9463594C93B3C0F8
:104CF00013964C93B0C011964C93ADC012964C9342
:104D0000AAC014964C93A7C01C964C93A4C01D96A1
:104D10004C93A1C019964C939EC01A964C939BC07D
:104D200054964C9398C053964C9395C056964C937A
:104D300092C055964C938FC05D964C938CC05E96F6
:104D40004C9389C05C964C9386C05F964C9383C00D
:104D50001E964C9380C097964C937DC096964C932C
:104D60007AC095964C9377C016964C9374C018965B
:104D70004C9371C017964C936EC0ED01C45ADF4F2F
:104D8000BA0180E090E00E942754688379838A8387
:104D90009B8361C052964C935EC051964C935BC00E
:104DA00050964C9358C01F964C9355C0AA5BBF4F6A
:104DB0004D935C9350C094964C934DC05A964C932F
:104DC0004AC05B964C9347C059964C9344C09B96FF
:104DD0005C934E939A973FC091964C933CC09F969C
:104DE0005C934E939E9737C09D965C934E939C9791
:104DF00032C0DD965C934E93DC972DC090964C9319
:104E00002AC098964C9327C015964C9324C01B96A5
:104E10004C9321C0D1965C934E93D0971CC058966A
:104E20004C9319C057964C9316C099964C9313C047
:104E300092964C9310C0D3965C934E93D2970BC02E
:104E4000A85BBF4F4D935C9306C05F968C918130F9
:104E500011F440931507DF91CF910895882309F14C
:104E6000AFEFA80FB0E0119660E070E08FEF9FEF1A
:104E7000FB01E453F84F2081822728E0AC01417008
:104E8000552796958795452B21F031E0832730EA09
:104E90009327215099F76F5F7F4F6A177B0741F780
:104EA00002C08FEF9FEF9827892798270895EF92E8
:104EB000FF920F931F93CF93DF93882371F181505B
:104EC000082F10E00F5F1F4FC0E0D0E00F2EF5E07D
:104ED000EF2EFF24F394F02D8091B90A882349F036
:104EE000FE01E453F84F608183E697E00E94C50D10
:104EF00010C080910B09882361F0F70180818460E4
:104F00008083FE01E453F84F60818AEA97E00E94B3
:104F1000C50D2196C017D107F9F6E5E0F1E08081D3
:104F2000847080830000DF91CF911F910F91FF90DB
:104F3000EF900895AF92BF92CF92DF92EF92FF92DF
:104F40000F931F93CF93DF938091B90A882329F0A1
:104F500083E697E00E94BC0D09C080910B0988236D
:104F600009F4DAC08AEA97E00E94BC0D90918507A7
:104F70009111D7C09FEF980F973008F4D2C090914D
:104F8000CC07913009F0CDC0282F30E0F901E6536D
:104F9000F84FD081F901E553F84FC08182505EDFB0
:104FA0002C2F30E03D2B2817390709F0BAC0ECEC64
:104FB000F7E02181209386078281C381D0E0D82B3E
:104FC0008481458150E0582B7A01EE0CFF1CCA0108
:104FD000880F991F880F991F880F991FE80EF91ED7
:104FE000EC0EFD1E233009F065C09E01ADECBCEC5B
:104FF0000E946B5996958795969587959695879576
:105000009C01220F331F880F991F880F991F880F4B
:10501000991F820F931F9E01281B390B21303105E8
:1050200051F02230310571F40F2EF6EFCF2EF9E05A
:10503000DF2EF02D09C00F2EFCE6CF2EF9E0DF2E7B
:10504000F02D02C0C12CD12CA42EAA0C0F2EF5E0FD
:10505000BF2EF02DBA0CECECF7E081E0808383E00A
:105060008183A282CE15DF05A8F403E010E0AE0133
:105070006CE079E0C6010CDCF801E453F84F908352
:10508000F801E353F84F80830E5F1F4F2A96CE1529
:10509000DF0568F383E08A0DE1DE2B2D30E0F901B6
:1050A000E653F84F9083F901E553F84F80838B2D39
:1050B000FEDE37C0203109F034C0CE15DF05B0F474
:1050C00007E010E0F801E453F84F8081F801E35362
:1050D000F84F408150E0582BBE018CE099E0F6DD9E
:1050E0000E5F1F4F2A96CE15DF0560F30FB6F894BA
:1050F0000F9240E650E060E070E08CE099E00E94A2
:105100009C5C0F900FBE86E0A9DEECECF7E0968386
:10511000878388E0CCDE05C080918507882309F469
:105120002ECFDF91CF911F910F91FF90EF90DF90E5
:10513000CF90BF90AF9008958F929F92AF92BF9201
:10514000CF92DF92EF92FF920F931F930E94B81DB0
:10515000FC0120910C0930E0A8EEB3E00E946B59ED
:105160004B015C018081823009F040C083EA92E00B
:105170009F938F938AEA97E09F938F930E94340DB9
:10518000809100010F900F900F900F9083FD70C0E1
:1051900081E080937809E2E0F1E08081886080839B
:1051A00087E099E00E9494056093800A7093810AD9
:1051B0008093820A9093830AEEE4F9E080819181E2
:1051C0000196918380830F2EF4E6CF2ED12CE12C13
:1051D000F12CF02D00E010E0A501940164E0809135
:1051E0008A0A90918B0A0E94911B42C08F3009F06D
:1051F0003FC085EB92E09F938F938AEA97E09F935D
:105200008F930E94340D809100010F900F900F90AA
:105210000F9084FD2DC082E08093020AE2E0F1E06D
:1052200080818061808387E099E00E94940560938B
:10523000940A7093950A8093960A9093970AE2E6EF
:10524000F9E0808191810196918380830F2EF4E6AD
:10525000CF2ED12CE12CF12CF02D00E010E0A50197
:10526000940164E080919C0A90919D0A0E94911B98
:105270001F910F91FF90EF90DF90CF90BF90AF9074
:105280009F908F9008958F929F92AF92BF92CF92EE
:10529000DF92EF92FF920F931F93CF93DF93AC01B6
:1052A00020910F0930E0A8EEB3E00E946B594B014A
:1052B0005C01CA010E94B81DEC0188818D3029F57E
:1052C00087EC92E09F938F938AEA97E09F938F9366
:1052D0000E94340D0F900F900F900F90949902C080
:1052E000A49A01C0A4980F2EF4E6CF2ED12CE12C65
:1052F000F12CF02D00E010E0A501940164E0809114
:10530000F9089091FA080E94911B88818931B9F4BB
:10531000939902C0A39A01C0A3980F2EF4E6CF2E52
:10532000D12CE12CF12CF02D00E010E0A50194012E
:1053300064E080917A0A90917B0A0E94911BDF9130
:10534000CF911F910F91FF90EF90DF90CF90BF9082
:10535000AF909F908F9008950E94B81DFC018081AE
:105360008730A1F4ECE6F9E0118A81E085838AEDCB
:1053700092E09F938F938AEA97E09F938F930E9486
:10538000340D0F900F900F900F900895843199F481
:10539000E6EFF9E0118A81E085838FEE92E09F933A
:1053A0008F938AEA97E09F938F930E94340D0F901A
:1053B0000F900F900F9008950E94B81DFC018081FE
:1053C000863091F481E080936D0984E093E09F93AF
:1053D0008F938AEA97E09F938F930E94340D0F90EA
:1053E0000F900F900F900895833189F481E080939E
:1053F000F70986E193E09F938F938AEA97E09F9362
:105400008F930E94340D0F900F900F900F9008957E
:105410008F929F92AF92BF92CF92DF92EF92FF92C4
:105420000F931F930E94B81DFC018081843009F006
:105430003AC12091100930E0A8EEB3E00E946B5908
:105440004B015C01F0E18F0EF7E29F1EA11CB11C25
:1054500080916F09882309F486C0949B59C080917C
:105460003409813009F054C0A49888E293E09F93F6
:105470008F938AEA97E09F938F930E94340D109246
:105480007A09C090A30AD090A40AE090A50AF090EF
:10549000A60A87E099E00E949405A70196010E9460
:1054A0008F05C0905107D0905207E0905307F090BD
:1054B0005407DC01CB018C0D9D1DAE1DBF1D8093DB
:1054C000510790935207A0935307B09354070F903E
:1054D0000F900F900F9081319E40A105B10508F407
:1054E00042C0ECE0F9E080AD91AD019691AF80AFA4
:1054F00040E650E060E070E0CF010E947B5C1092DB
:1055000051071092520710925307109254072BC064
:10551000949929C080913409811125C0A49A81E011
:1055200080937A0989E393E09F938F938AEA97E0C7
:105530009F938F930E94340D87E099E00E94940519
:105540006093A30A7093A40A8093A50A9093A60A75
:10555000E0E5F9E0808191810196918380830F904D
:105560000F900F900F9080917009811105C080916C
:105570006E09882309F484C0949B58C08091340933
:10558000811154C0A49888E293E09F938F938AEA94
:1055900097E09F938F930E94340D10927A09C090E8
:1055A000A30AD090A40AE090A50AF090A60A87E08A
:1055B00099E00E949405A70196010E948F05C09072
:1055C0005107D0905207E0905307F0905407DC0148
:1055D000CB018C0D9D1DAE1DBF1D80935107909377
:1055E0005207A0935307B09354070F900F900F905A
:1055F0000F9081319E40A105B10508F441C0ECE057
:10560000F9E080AD91AD019691AF80AF40E650E0FA
:1056100060E070E0CF010E947B5C10925107109215
:10562000520710925307109254072AC0949928C029
:1056300080913409813021F5A49A80937A0988E217
:1056400093E09F938F938AEA97E09F938F930E94B2
:10565000340D87E099E00E9494056093A30A70934B
:10566000A40A8093A50A9093A60AE0E5F9E0808158
:1056700091810196918380830F900F900F900F90EE
:105680000F2EF4E6CF2ED12CE12CF12CF02D00E0E2
:1056900010E0A501940164E08091E4099091E5098E
:1056A0000E94911B34C1813109F031C120910F0951
:1056B00030E0A8EEB3E00E946B594B015C01809191
:1056C000F909882309F487C0939B5AC08091340953
:1056D000813009F055C0A3988AE493E09F938F939B
:1056E0008AEA97E09F938F930E94340D1092040AE8
:1056F000C090BE0AD090BF0AE090C00AF090C10AE4
:1057000087E099E00E949405A70196010E948F0509
:10571000C0904D07D0904E07E0904F07F090500793
:10572000DC01CB018C0D9D1DAE1DBF1D80934D076F
:1057300090934E07A0934F07B09350070F900F9090
:105740000F900F9081319E40A105B10508F443C030
:10575000EAE5F9E08081918101969183808340E6BA
:1057600050E060E070E08CE099E00E947B5C109279
:105770004D0710924E0710924F07109250072BC002
:10578000939929C080913409811125C0A39A81E0A1
:1057900080937A098BE593E09F938F938AEA97E051
:1057A0009F938F930E94340D87E099E00E949405A7
:1057B0006093BE0A7093BF0A8093C00A9093C10A97
:1057C000E4E6F9E0808191810196918380830F90D6
:1057D0000F900F900F908091F809882309F485C0ED
:1057E000939B59C080913409811155C0A3988AE4D4
:1057F00093E09F938F938AEA97E09F938F930E9401
:10580000340D1092040AC090BE0AD090BF0AE090F6
:10581000C00AF090C10A87E099E00E949405A701B0
:1058200096010E948F05C0904D07D0904E07E090E2
:105830004F07F0905007DC01CB018C0D9D1DAE1D74
:10584000BF1D80934D0790934E07A0934F07B093D1
:1058500050070F900F900F900F9081319E40A1053F
:10586000B10508F442C0EAE5F9E080819181019632
:105870009183808340E650E060E070E08CE099E046
:105880000E947B5C10924D0710924E0710924F07BA
:10589000109250072AC0939928C080913409813012
:1058A00021F5A39A8093040A8AE493E09F938F934F
:1058B0008AEA97E09F938F930E94340D87E099E0E6
:1058C0000E9494056093BE0A7093BF0A8093C00A39
:1058D0009093C10AE4E6F9E0808191810196918379
:1058E00080830F900F900F900F900F2EF4E6CF2E25
:1058F000D12CE12CF12CF02D00E010E0A501940159
:1059000064E08091E6099091E7090E94911B1F9144
:105910000F91FF90EF90DF90CF90BF90AF909F904E
:105920008F9008958F929F92AF92BF92CF92DF9205
:10593000EF92FF920F931F9320910F0930E0A8EE92
:10594000B3E00E946B594B015C018CE693E09F939E
:105950008F938AEA97E09F938F930E94340D0F9064
:105960000F900F900F9080917009882371F18091B2
:1059700000018823E4F0E2E0F1E080818068808328
:1059800081E08093790987E099E00E949405609313
:10599000980A7093990A80939A0A90939B0AE2E579
:1059A000F9E0808191810196918380830EC08CE71C
:1059B00093E09F938F938AEA97E09F938F930E943F
:1059C000340D0F900F900F900F9080916E09811100
:1059D00005C080916F09882309F44DC080910001B2
:1059E00088230CF048C0E2E0F1E080818F7780836B
:1059F00010927909C090980AD090990AE0909A0A7A
:105A0000F0909B0A87E099E00E949405A701960117
:105A10000E948F05C0904907D0904A07E0904B073D
:105A2000F0904C07DC01CB018C0D9D1DAE1DBF1D00
:105A30008093490790934A07A0934B07B0934C0774
:105A400081319E40A105B105B0F0ECE0F9E084ADF4
:105A500095AD019695AF84AF40E650E060E070E010
:105A6000CF010E947B5C1092490710924A07109266
:105A70004B0710924C070F2EF4E6CF2ED12CE12CC1
:105A8000F12CF02D00E010E0A501940164E080917C
:105A9000880A9091890A0E94911B1F910F91FF9093
:105AA000EF90DF90CF90BF90AF909F908F90089530
:105AB0008F929F92AF92BF92CF92DF92EF92FF921E
:105AC0000F931F930E94B81DFC018081883009F05C
:105AD00076C02091100930E0A8EEB3E00E946B5927
