S01500006D656761323536305F52746F732E73726563A1
S11300006CC500008BC5000089C5000087C50000D1
S113001085C5000083C5000081C500007FC50000C0
S11300207DC500007BC5000079C5000077C50000D0
S113003075C5000073C5000071C500006FC50000E0
S11300406DC500000C94C62169C5000067C5000099
S113005065C5000063C5000061C500005FC5000000
S11300605DC500000C948F100C94171157C5000047
S113007055C5000053C5000051C500004FC5000020
S113008055C700004BC5000049C5000047C5000026
S11300900C9460110C94BF1141C500003FC50000D1
S11300A03DC500003BC5000039C5000037C5000050
S11300B035C5000033C5000031C500002FC5000060
S11300C02DC500002BC5000029C500000C940812A2
S11300D00C94671223C500000C94B0120C943813CE
S11300E01DC500000C0D0C0D110D110D160D160D76
S11300F01B0D1B0D7D0D7D0D780D780D730D730D8E
S11301006E0D6E0D310E310E380E380E3F0E3F0E51
S1130110460E460EBD0EEE0E280F590F930FC40F58
S113012002103310391D391D391D841D6D1D811DAB
S1130130391D391D841D6D1D2B263F253F2548275C
S11301404827482748274827482748272F26442553
S11301504425482748274827482748274827482729
S1130160332649254925482748274827482748272B
S11301704827482737264E254E254827482748270D
S113018048274827482748273B26532553254827EF
S11301904827482748274827482748273F265825DF
S11301A058254827482748274827482748274827C5
S11301B043265D255D2548274827482748274827A3
S11301C04827482747266D256D254827482748276F
S11301D048274827482748274B267D257D2548273B
S11301E04827482748274827482748274F268D254A
S11301F08D25482748274827482748274827482740
S113020053269D259D2548274827482748274827C2
S1130210482748275726A225A225482748274827A4
S113022048274827482748275B26B225B225482770
S11302304827482748274827482748275F26C125B5
S1130240C1254827482748274827482748274827BB
S11302506326D125D12548274827482748274827FA
S1130260482748276726E125E125482748274827C6
S113027048274827482748276B26F125F125482792
S11302804827482748274827482748276F26012614
S1130290012648274827482748274827482748272A
S11302A07326112611264827482748274827482718
S11302B048274827772621262126482748274827E4
S11302C048274827482748277B2648274827482780
S11302D04827482748274827482748277F2648276C
S11302E04827482748274827482748274827482792
S11302F08326482748274827482748274827482748
S11303004827482787264827482748274827482733
S113031048274827482748278B264827482748271F
S11303204827482748274827482748279626482704
S11303304827482748274827482748274827482741
S11303409A264827482748274827482748274827E0
S1130350482748279E2648274827482748274827CC
S11303604827482748274827A226482748274827B8
S1130370482748274827482748274827A626EF26FE
S11303801327482748274827482748274827482726
S1130390AC26F22619274827482748274827482704
S11303A048274827B026F8261F27482748274827E4
S11303B04827482748274827B426FE2625274827C4
S11303C0482748274827482748274827B826042786
S11303D02B274827482748274827482748274827BE
S11303E0BC26072731274827482748274827482776
S11303F048274827BF26482748274827482748270B
S11304004827482748274827C3260A273727482745
S1130410482748274827482748274827C6260D271E
S11304203D2748274827482748274827482748275B
S1130430C9261027432748274827482748274827FD
S113044048274827CC2648274827482748274827AD
S11304504827482748274827D02648274827482799
S1130460482748274827482748274827D426482785
S11304704827482748274827482748274827482700
S1130480D826482748274827482748274827482761
S113049048274827DC26482748274827482748274D
S11304A04827482748274827DF264827482748273A
S11304B0482748274827482748274827E326482726
S11304C048274827482748274827482748274827B0
S11304D0E726482748274827482748274827482702
S11304E048274827EB265C271128112811281128B2
S11304F0112811281128112811285E2711281128E4
S113050011281128112811281128112811286127D0
S1130510112811281128112811281128112811280F
S113052011286427112811281128112811281128AD
S1130530112811281128672711281128112811289A
S1130540112811281128112811286A271128112887
S113055011281128112811281128112811286D2774
S113056011281128112811281128112811281128BF
S11305701128702711281128112811281128112851
S1130580112811281128732711281128112811283E
S1130590112811281128112811287627112811282B
S11305A01128112811281128112811281128792718
S11305B0112811281128112811281128112811286F
S11305C011287C27112811281128112811281128F5
S11305D01128112811287F271128112811281128E2
S11305E011281128112811281128822711281128CF
S11305F011281128112811281128112811288527BC
S1130600112811281128112811281128112811281E
S11306101128882711281128112811281128112898
S11306201128112811288B27112811281128112885
S1130630112811281128112811288E271128112872
S1130640112811281128112811281128112891275F
S113065011281128112811281128112811281128CE
S1130660112894271128112811281128112811283C
S11306701128112811289727112811281128112829
S1130680112811281128112811289A271128112816
S113069011281128112811281128112811289D2703
S11306A0112811281128112811281128112811287E
S11306B01128A027112811281128112811281128E0
S11306C0112811281128A3271128112811281128CD
S11306D011281128112811281128B02711281128B0
S11306E01128112811281128112811281128B3279D
S11306F0112811281128112811281128112811282E
S11307001128B62711281128112811281128112879
S1130710112811281128B927112811281128112866
S113072011281128112811281128BC271128112853
S11307301128112811281128112811281128C1273E
S113074011281128112811281128112811281128DD
S11307501128C4271128112811281128112811281B
S1130760112811281128C727112811281128112808
S113077011281128112811281128CA2711281128F5
S11307801128112811281128112811281128CD27E2
S1130790112811281128112811281128112811288D
S11307A01128D227112811281128112811281128BD
S11307B0112811281128D5271128112811281128AA
S11307C011281128112811281128DA271128112895
S11307D01128112811281128112811281128DF2780
S11307E0012806280B28112811281128112811285E
S11307F01128E4271128112811281128112811285B
S1130800112811281128E727112811281128112847
S113081011281128112811281128EA271128112834
S11308201128112811281128112811281128ED2721
S113083011281128112811281128112811281128EC
S11308401128F027112811281128112811281128FE
S1130850112811281128F5271128112811281128E9
S113086011281128112811281128F82711281128D6
S11308701128112811281128112811281128FB27C3
S1130880112811281128112811281128112811289C
S11308901128FE2708000000BE922449123EABAA8C
S11308A0AA2ABECDCCCC4C3E00000080BEABAAAA86
S11308B0AA3E00000000BF000000803F00000000CE
S11308C000084178D3BB4387D1133D190E3CC3BD07
S11308D04282AD2B3E68EC8276BED98FE1A93E4CB4
S11308E080EFFFBE01C4FF7F3F00000000006E6187
S11308F06E00696E660000407A10F35A00A0724ED2
S113090018090010A5D4E80000E87648170000E4B0
S11309100B54020000CA9A3B000000E1F5050000F8
S113092080969800000040420F000000A08601005D
S11309300000102700000000E8030000000064002D
S1130940000000000A000000000001000000000098
S11309502C76D888DC674F0823DFC1DFAE59E1B1BC
S1130960B796E5E3E453C63AE651997696E8E6C2CB
S11309708426EB898C9B62ED407C6FFCEFBC9C9FD2
S113098040F2BAA56FA5F490055A2AF75C936B6CF4
S1130990F9676DC11BFCE0E40D47FEF520E6B500E8
S11309A0D0ED902E0300943577050080841E080056
S11309B000204E0A000000C80C333333330F986E06
S11309C012831141EF8D2114893BE65516CFFEE6C3
S11309D0DB18D1844B381BF77C1D901DA4BBE42489
S11309E0203284725E228100C9F124ECA1E53D2706
S11309F09A99C9C133336BC13333D3C0CDCCCC3D09
S1130A0048E1A24066662E41000078419A999D41D2
S1130A100000BC41CDCCD8413333F3416666064275
S1130A20666612429A991D4266662842CDCC3242CD
S1130A30CDCC2842666646429A994F426666584231
S1130A40333361429A9969429A99714233337942B4
S1130A509A99804233338442CDCC874266668B4276
S1130A6000008F42666692429A999542CDCC984294
S1130A700CE217E00F2EFCE5EF2EF7E0FF2EF02D31
S1130A8080912B07882311F10FB6F8940F92D801A7
S1130A901796ED91FC911897C085D185CE010296E9
S1130AA024D380911F07815080931F0780912B07C7
S1130AB0815080932B070F900FBE8B8D9C8D75D02A
S1130AC0CE0173D080912B078111DECFF701808195
S1130AD0823008F03DD173D2D3CF11241FBECFEFA3
S1130AE0D1E2DEBFCDBF00E00CBF17E0A0E0B2E072
S1130AF0ECE2F7EB00E00BBF02C007900D92AC30C4
S1130B00B107D9F72BE0ACE0B7E001C01D92A335E3
S1130B10B207E1F70E94E6200C94945B71CA621B51
S1130B20730B840B950B0895FC010FB6F894609138
S1130B304F0B7091500B8091510B9091520B0FBE43
S1130B40309721F0608371838283938308958F9318
S1130B508FB78F93F89480914F0B8F5F80934F0BD7
S1130B608091500B8F4F8093500B8091510B8F4F7E
S1130B708093510B8091520B8F4F8093520B8F9126
S1130B808FBF8F910895CF93DF93EC010E948B1652
S1130B90CE010E945B58EC010E947417209709F45F
S1130BA027D2CE01DF91CF910895CF93DF930097A1
S1130BB041F0EC010E948B16CE010E94F3580E9472
S1130BC07417DF91CF91089531E1FC01308331979F
S1130BD022E220833197A3E3A08331976083319786
S1130BE070833197108231971082319760E8608367
S1130BF0319710823197108231971082319762E0D9
S1130C006083319763E06083319764E06083319758
S1130C1065E06083319766E06083319767E06083C5
S1130C20319768E06083319769E06083319760E1D0
S1130C30608331973083319732E13083319733E1E8
S1130C403083319734E13083319735E13083319704
S1130C5036E13083319737E13083319738E130839F
S1130C60319739E13083319730E23083319731E283
S1130C70308331972083319723E220833197408357
S1130C8031975083319726E22083319727E22083DE
S1130C90319728E22083319729E22083319720E39A
S1130CA02083319721E320838997089588EE93E088
S1130CB0A0E0B0E08093E3079093E407A093E507F6
S1130CC0B093E6078093E7079093E807A093E907BA
S1130CD0B093EA071092990089EF809398008BE013
S1130CE080939100E1E7F0E0808182608083A091AD
S1130CF08807B0918907CD91CDBFDD91DEBFFF910B
S1130D00EF91DF91CF91BF91AF919F918F917F919F
S1130D106F915F914F913F912F911F910F91FF9090
S1130D20EF90DF90CF90BF90AF909F908F907F9087
S1130D306F905F904F903F902F901F900F900CBE3C
S1130D400F900BBE0F900FBE0F90089581E0089591
S1130D500F920FB6F8940F920BB60F920CB60F9237
S1130D601F9211242F923F924F925F926F927F9223
S1130D708F929F92AF92BF92CF92DF92EF92FF92A7
S1130D800F931F932F933F934F935F936F937F938F
S1130D908F939F93AF93BF93CF93DF93EF93FF937F
S1130DA0A0918807B09189070DB60D920EB60D92E9
S1130DB00E940918A0918807B0918907CD91CDBFF1
S1130DC0DD91DEBFFF91EF91DF91CF91BF91AF91A4
S1130DD09F918F917F916F915F914F913F912F914F
S1130DE01F910F91FF90EF90DF90CF90BF90AF9045
S1130DF09F908F907F906F905F904F903F902F9037
S1130E001F900F900CBE0F900BBE0F900FBE0F9053
S1130E1008950F920FB6F8940F920BB60F920CB67A
S1130E200F921F9211242F923F924F925F926F92D2
S1130E307F928F929F92AF92BF92CF92DF92EF9266
S1130E40FF920F931F932F933F934F935F936F934F
S1130E507F938F939F93AF93BF93CF93DF93EF933E
S1130E60FF93A0918807B09189070DB60D920EB635
S1130E700D9213BE8091E7079091E807A091E907CE
S1130E80B091EA070197A109B1098093E70790930C
S1130E90E807A093E907B093EA07892B8A2B8B2BE9
S1130EA089F455DE8091E3079091E407A091E5076A
S1130EB0B091E6078093E7079093E807A093E907CA
S1130EC0B093EA070E949F1681110E940918A0910D
S1130ED08807B0918907CD91CDBFDD91DEBFFF9129
S1130EE0EF91DF91CF91BF91AF919F918F917F91BE
S1130EF06F915F914F913F912F911F910F91FF90AF
S1130F00EF90DF90CF90BF90AF909F908F907F90A5
S1130F106F905F904F903F902F901F900F900CBE5A
S1130F200F900BBE0F900FBE0F90089572DF1895AF
S1130F30811106C0ECE7F0E080818F7D8083089505
S1130F40ECE7F0E0808180628083089580917A00EC
S1130F5086FB882780F90895803218F597E89093E6
S1130F607A0090917C00662311F0906C02C09F7708
S1130F709064907E883040F0EBE7F0E020812860B8
S1130F8020838850892B06C0EBE7F0E02081277F7F
S1130F902083892B80937C00EAE7F0E080818064E1
S1130FA08083089580917C0085FF04C0809179003E
S1130FB090E00895809178009091790008958FEFE2
S1130FC080937E0080937D0080B7877F80BF80B749
S1130FD0806880BF83B7817F83BF0FB6F8940F9278
S1130FE083B7816083BF0F900FBE889513BE0895A9
S1130FF0279A2F9A00001F9AFDCF279A2F9A00C094
S11310001F9AFDCFFC010396928381834FEF5FEF1C
S1131010BA01438354836583768390878783928759
S1131020818710820895FC01138612860895CF9358
S1131030DF939C01FB01DC011196CD91DC911297A9
S1131040D583C4838E819F81978386838E819F817C
S1131050DC0115967C936E9314977F836E8333879C
S11310602287F90180818F5F8083DF91CF9108957A
S11310700F931F93CF93DF93EB01088119812A818A
S11310803B810F3F4FEF14072407340721F4FC0181
S1131090A185B28511C0DC01139601C0DF0114964D
S11310A0ED91FC9115974081518162817381041700
S11310B015072607370790F71496ED91FC911597BD
S11310C0FD83EC83D783C683BF83AE831596DC93FD
S11310D0CE9314979B878A87FC0120812F5F2083FE
S11310E0DF91CF911F910F910895CF93DF93FC016E
S11310F0A285B385C481D581868197819F838E83A0
S1131100C681D781848195819D838C8311968D912D
S11311109C911297E817F90731F48681978112960A
S11311209C938E931197138612868C9181508C9385
S11311308C91DF91CF9108950FB6F8940F92FC0132
S1131140968D0F900FBE81E0911180E008950F936A
S11311501F93CF93DF93EC01042F1E8D48A14111FF
S11311600CC088819981892B09F042C08A819B81B6
S11311700E942A1A1B821A8242C0011117C050E031
S11311808C819D810E945F5A28A18C819D81820F50
S1131190911D9D838C832A813B818217930750F193
S11311A0888199819D838C8380E029C050E08E8161
S11311B09F810E945F5A88A190E091958195910941
S11311C02E813F81280F391F3F832E834881598107
S11311D02417350730F42A813B81820F931F9F83A4
S11311E08E83023049F4112349F0115080E007C086
S11311F080E005C080E003C080E001C080E01F5FA4
S11312001E8FDF91CF911F910F910895FC0140A192
S11312104423A9F050E026813781240F351F3783FA
S11312202683828193812817390720F08081918158
S113123097838683CB01668177810C945F5A0895E6
S1131240EF92FF920F931F93CF938C010FB6F894F4
S11312500F92FC01C2A11C16ACF48389811106C053
S113126011C0F8018389811105C00CC07801F3E134
S1131270EF0EF11CC7010E94021981110E94AA19E4
S1131280C15079F78FEFF80182A30F900FBE0FB60C
S1131290F8940F92C1A11C16ACF48085811106C08C
S11312A011C0F8018085811105C00CC07801F8E0F7
S11312B0EF0EF11CC7010E94021981110E94AA19A4
S11312C0C15079F78FEFF80181A30F900FBECF9132
S11312D01F910F91FF90EF900895CF93DF93EC014E
S11312E00FB6F8940F924881598128A130E07F8D80
S11312F0729FC001739F900D1124FA01E80FF91F2A
S1131300FB83EA831E8E5D834C83821B930B840FC5
S1131310951F9F838E838FEF89A38AA361110BC0CE
S11313208885882371F0CE0108960E9402198823CB
S113133041F00EDD06C0CE01089664DECE01439670
S113134061DE0F900FBE81E0DF91CF9108950F937E
S11313501F93CF93DF93082F162F6623B1F0869F38
S1131360C001112483960FDCEC01009739F413C0FB
S11313700F8F18A361E0CE01B0DF0DC0839699836F
S11313808883F6CFD983C883F3CF83E290E0FBDB75
S1131390EC01892BB9F7CE01DF91CF911F910F9109
S11313A008959F92AF92BF92CF92DF92EF92FF92F5
S11313B00F931F93CF93DF93CDB7DEB729970FB663
S11313C0F894DEBF0FBECDBF7C015B012E833F834B
S11313D04887598710E0992493946C0188E0C80EDB
S11313E0D11C0FB6F8940F92F701968D878D98173C
S11313F010F00230B1F4402FB501C701A8DEF701A7
S11314009389992341F0C70143960E9402198823C6
S113141021F09EDC02C081119BDC0F900FBE81E0A5
S113142052C08E819F81A885B985892B8A2B8B2BED
S113143021F40F900FBE80E046C0111105C0CE010B
S113144001960E944419192D0F900FBE0E948B160D
S11314500FB6F8940F92F70181A18F3F09F411A2FE
S1131460F70182A18F3F09F412A20F900FBEBE01B3
S11314706A5F7F4FCE0101960E94551981111EC0EB
S11314800FB6F8940F92F701968D878D0F900FBECB
S113149098130FC04E815F8168857985C6010E94CB
S11314A0CB18C701CDDE0E94741781119ACF50DC8E
S11314B098CFC701C5DE0E94741793CFC701C0DE61
S11314C00E94741780E029960FB6F894DEBF0FBE11
S11314D0CDBFDF91CF911F910F91FF90EF90DF90DF
S11314E0CF90BF90AF909F9008950F93CF93DF93C9
S11314F0482F60E081E02BDFEC01009761F01B8254
S11315001A82198218821E8200E020E030E0A901CC
S113151060E070E046DFCE01DF91CF910F91089536
S1131520EF92FF920F931F93CF93DF938A01FC01F5
S1131530568D378D531710F02230E9F4422F78017D
S1131540EC011AA104DE1F3F81F48B898823A9F0E2
S1131550CE0143960E940219882389F0E114F10414
S113156081F081E0F70180830DC0FF24F394F10E34
S1131570FAA281E007C080E005C081E003C081E0F9
S113158001C081E0DF91CF911F910F91FF90EF9007
S11315900895CF93DF93FC01868D978D8917C0F44E
S11315A092A18F5F868F9F3F79F48389882391F07E
S11315B0EB01CF0143960E940219882369F020971A
S11315C069F081E088830BC09F5F92A381E007C02C
S11315D080E005C081E003C081E001C081E0DF91CB
S11315E0CF9108959F92AF92BF92CF92DF92EF92E4
S11315F0FF920F931F93CF93DF93CDB7DEB7299755
S11316000FB6F894DEBF0FBECDBF8C015B012E83F5
S11316103F8348875987E12C992493946C0183E193
S1131620C80ED11C0FB6F8940F92F801F68CFF2067
S113163099F0B501C801EADDFA94F801F68E8085C7
S1131640882331F0C80108960E940219811180DBB9
S11316500F900FBE81E051C08E819F81A885B9850E
S1131660892B8A2B8B2B21F40F900FBE80E045C071
S1131670E11005C0CE0101960E944419E92C0F9097
S11316800FBE0E948B160FB6F8940F92F80181A139
S11316908F3F09F411A2F80182A18F3F09F412A22D
S11316A00F900FBEBE016A5F7F4FCE0101960E946C
S11316B05519811118C0C8013FDD882379F04E8186
S11316C05F8168857985C6010E94CB18C801B8DDA1
S11316D00E9474178111A6CF3BDBA4CFC801B0DDF3
S11316E00E9474179FCFC801ABDD0E947417C80114
S11316F023DD882309F496CF80E029960FB6F89469
S1131700DEBF0FBECDBFDF91CF911F910F91FF9030
S1131710EF90DF90CF90BF90AF909F900895BF92CD
S1131720CF92DF92EF92FF920F931F93CF93DF93A9
S1131730CDB7DEB729970FB6F894DEBF0FBECDBF85
S11317408C014E835F8368877987B12CD12CCC249C
S1131750C3947C0183E1E80EF11C0FB6F8940F9258
S1131760D8015E968C915E978823E1F081505E9655
S11317708C935E978D919C91892B29F40E94B61AC3
S1131780F80193838283D80118968C91882331F0D1
S1131790C80108960E9402198111DADA0F900FBE6F
S11317A081E07FC08E819F81A885B985892B8A2B92
S11317B08B2B21F40F900FBE80E073C0D11005C0B5
S11317C0CE0101960E944419DC2C0F900FBE0E949A
S11317D08B160FB6F8940F92F80181A18F3F09F48C
S11317E011A2D80192968C9192978F3F11F4929600
S11317F01C920F900FBEBE016A5F7F4FCE0101960F
S11318000E945519811127C0C80196DC8823F1F084
S1131810F80180819181892B51F40FB6F8940F92CD
S1131820828193810E94BC19B82E0F900FBE4E8105
S11318305F8168857985C7010E94CB18C80100DDE6
S11318400E947417811189CF83DA87CFC801F8DC2D
S11318500E94741782CFC801F3DC0E947417C80178
S11318606BDC882309F479CFBB20D1F00FB6F89450
S11318700F92F8018389882339F0028CF38DE02DCF
S1131880808164E0681B01C060E0D80112968D91EC
S11318909C9113970E946A1A0F900FBE80E001C0BA
S11318A080E029960FB6F894DEBF0FBECDBFDF915E
S11318B0CF911F910F91FF90EF90DF90CF90BF9049
S11318C00895CF93DF93EC010FB6F8940F9289A19A
S11318D08F3F09F419A28AA18F3F09F41AA20F902D
S11318E00FBE8E8D811104C0CE0143960E94E21872
S11318F0CE01A6DCDF91CF9108954F925F926F9253
S11319007F928F929F92AF92BF92CF92DF92EF928B
S1131910FF920F931F93CF93DF93EC01FB01019090
S11319200020E9F74B019F01215031090F2EF1E30B
S1131930EF2EFF24F394F02D01ED10E069EC70E03C
S113194041EC50E05C018DE0A80EB11C78C0D401DC
S1131950DD904D010FB6F8940F92ED85FE850F9042
S11319600FBE8F89988DE817F907F1F0F501828190
S11319709381DC01DC92828193810196938382833B
S1131980C084D1848C159D0521F48681978193832D
S113199082830FB6F8940F9280819181019691838E
S11319A080830F900FBE2BC000000FB6F8940F92E7
S11319B0ED85FE850F900FBE8F89988DE817F90786
S11319C009F43DC0F50182819381DC01DC928281BE
S11319D09381019693838283C084D1848C159D0561
S11319E021F486819781938382830FB6F8940F92B2
S11319F0808191810196918380830F900FBE4880EE
S1131A00512CB8E04B165104D0F4F2018827EE585B
S1131A10FF4F8F4F0C944458FA0180818062808379
S1131A200EC0DB018C9180628C9309C0F801808127
S1131A308062808304C0D7018C9180628C9382166B
S1131A40930609F084CFDF91CF911F910F91FF90FE
S1131A50EF90DF90CF90BF90AF909F908F907F904A
S1131A606F905F904F9008950F931F93CF93DF93E0
S1131A70CDB7DEB708851985F801858D813029F445
S1131A8067D9F801858D8130D9F381E0F801858F1C
S1131A90638D748D9E01245F3F4F4A855B85818DE4
S1131AA0928D0E94B65AF801618D728DC80125DFAE
S1131AB0F801158EDF91CF911F910F910895CF9367
S1131AC0DF93DC014C9150E048305105E8F5FA0110
S1131AD08827E658FF4F8F4F0C944458809130016B
S1131AE0882354F131C08091D0008823E4F02CC0C5
S1131AF08091C800882374F027C08091C000882397
S1131B001CF5C6ECD0E0E0ECF0E08881808188230D
S1131B10E4F31AC0CEECD0E0E8ECF0E088818081F8
S1131B208823E4F311C0C6EDD0E0E0EDF0E0888155
S1131B3080818823E4F308C0C6E3D1E0E0E3F1E068
S1131B40888180818823E4F30FB6F8940F9212966B
S1131B501C921E92119717968D919C91189714962A
S1131B609C938E93139716969C938E9315970F9030
S1131B700FBEDF91CF9108950FB6F8940F92FC0138
S1131B80818192810F900FBE0895CF93DF93DC0182
S1131B900FB6F8940F921D962D913C911E970F90BD
S1131BA00FBE57968D919C91589728173907F1F0DD
S1131BB0FD013D96C281D381688382819381019620
S1131BC093838283208531858217930721F486814C
S1131BD09781938382830FB6F8940F9280819181C9
S1131BE00196918380830F900FBE2FC000000FB623
S1131BF0F8940F921D962D913C911E970F900FBE55
S1131C0057968D919C9158972817390709F445C028
S1131C10FD013D96C281D3816883828193810196BF
S1131C2093838283208531858217930721F48681EB
S1131C309781938382830FB6F8940F928081918168
S1131C400196918380830F900FBE8C9190E0883031
S1131C50910528F5FC018827EE57FF4F8F4F0C9410
S1131C604458E1ECF0E080818062808381E018C018
S1131C70E9ECF0E080818062808381E011C0E1EDD5
S1131C80F0E080818062808381E00AC0E1E3F1E0DA
S1131C9080818062808381E003C080E001C081E0B4
S1131CA0DF91CF9108957F928F929F92AF92BF92CE
S1131CB0CF92DF92EF92FF920F931F93CF93DF9314
S1131CC0CDB7DEB7A2970FB6F894DEBF0FBECDBF77
S1131CD06C01762E49015A01C7010E94C305009781
S1131CE0A9F0FE0132960FB6F8940F921182108279
S1131CF09383828395838483978386838E0D9F1D2C
S1131D0091878087F386E2860F900FBEC8010E94F8
S1131D10C3050097A9F0FE013E960FB6F8940F9202
S1131D20118210829383828395838483978386832D
S1131D30800F911F91878087138702870F900FBEB2
S1131D40C8010E94C3059B8F8A8F79821D8F0C8FD7
S1131D501E8E8F8E98A2A9A2BAA20FB6F8940F92E3
S1131D60898190E08830910508F0BAC1FC01882788
S1131D70E657FF4F8F4F0C944458D501C401975F29
S1131D80A24CBF4FBC01CD01660F771F881F991F5E
S1131D90660F771F881F991F95018401000F111F7B
S1131DA0221F331F000F111F221F331FA901980187
S1131DB0220F331F441F551F0E94225821503109FE
S1131DC03093C5002093C40082E08093C00088E96A
S1131DD08093C1008EE08093C20082C104EC10E0C5
S1131DE0F801118210826A9A80EC8093C20088E91B
S1131DF08093C100D501C40180589B47A14EBF4FB9
S1131E00880F991FAA1FBB1F880F991FAA1FBB1FEA
S1131E10BC01CD01660F771F881F991F880C991C80
S1131E20AA1CBB1C880C991CAA1CBB1CA5019401F0
S1131E30220F331F441F551F220F331F441F551FEA
S1131E400E94225821503109F8013183208348C16E
S1131E50D501C401975FA24CBF4FBC01CD01660FF1
S1131E60771F881F991F660F771F881F991F950179
S1131E708401000F111F221F331F000F111F221F87
S1131E80331FA9019801220F331F441F551F0E94BD
S1131E902258215031093093CD002093CC0082E0A8
S1131EA08093C80088E98093C9008EE08093CA00BB
S1131EB017C10CEC10E0F80111821082559A80ECE5
S1131EC08093CA0088E98093C900D501C401805871
S1131ED09B47A14EBF4F880F991FAA1FBB1F880F96
S1131EE0991FAA1FBB1FBC01CD01660F771F881F56
S1131EF0991F880C991CAA1CBB1C880C991CAA1C31
S1131F00BB1CA5019401220F331F441F551F220F30
S1131F10331F441F551F0E94225821503109F801D4
S1131F2031832083DDC0D501C401975FA24CBF4F2C
S1131F30BC01CD01660F771F881F991F660F771F9D
S1131F40881F991F95018401000F111F221F331F41
S1131F50000F111F221F331FA9019801220F331FE5
S1131F60441F551F0E942258215031093093D50037
S1131F702093D40082E08093D00088E98093D1003C
S1131F808EE08093D200ACC004ED10E0F801118221
S1131F901082E1E0F1E080818460808380EC8093B2
S1131FA0D20088E98093D100D501C40180589B47B1
S1131FB0A14EBF4F880F991FAA1FBB1F880F991FDF
S1131FC0AA1FBB1FBC01CD01660F771F881F991F75
S1131FD0880C991CAA1CBB1C880C991CAA1CBB1C31
S1131FE0A5019401220F331F441F551F220F331FD5
S1131FF0441F551F0E94225821503109F801318392
S113200020836EC0D501C401975FA24CBF4FBC01B1
S1132010CD01660F771F881F991F660F771F881FD2
S1132020991F95018401000F111F221F331F000FF8
S1132030111F221F331FA9019801220F331F441FB0
S1132040551F0E94225821503109309335012093A5
S1132050340182E08093300188E9809331018EE07D
S1132060809332013DC004E311E0F8011182108233
S1132070E4E0F1E080818460808380EC809332012D
S113208088E980933101D501C40180589B47A14E52
S1132090BF4F880F991FAA1FBB1F880F991FAA1F24
S11320A0BB1FBC01CD01660F771F881F991F880CC9
S11320B0991CAA1CBB1C880C991CAA1CBB1CA5013E
S11320C09401220F331F441F551F220F331F441F37
S11320D0551F0E94225821503109F8013183208371
S11320E00F900FBE82E2FE013196D60101900D924F
S11320F08A95E1F7C601A2960FB6F894DEBF0FBE2B
S1132100CDBFDF91CF911F910F91FF90EF90DF90A2
S1132110CF90BF90AF909F908F907F9008951F9223
S11321200F920FB60F9211240BB60F922F933F9379
S11321304F935F936F937F938F939F93AF93BF93CB
S1132140CF93EF93FF938091C0008C7171F08091D5
S1132150C00088230CF057C0A6ECB0E0E0ECF0E03F
S11321608C9180818823E4F34EC0C091C600809195
S1132170930981111DC081E08093410B0E941325B6
S11321801092850010928400E0913108F0E0EC5A3E
S1132190F74FC083809131088F5F8093310880911D
S11321A031088F3F19F481E080930D080E940825BF
S11321B00FB6F8940F92EBEEF7E0218132810F9085
S11321C00FBE8385948528173907E9F0ECEEF7E014
S11321D0A281B381CC93828193810196938382837C
S11321E0208531858217930721F486819781938313
S11321F082830FB6F8940F92808191810196918326
S113220080830F900FBEFF91EF91CF91BF91AF915B
S11322109F918F917F916F915F914F913F912F91FA
S11322200F900BBE0F900FBE0F901F9018951F922A
S11322300F920FB60F9211240BB60F922F938F9318
S11322409F93AF93BF93EF93FF930FB6F8940F92BE
S11322508091F8079091F9070F900FBE892B31F404
S1132260E1ECF0E080818F7D80831CC0E8EFF7E033
S1132270A481B5812D91B583A48380859185A81708
S1132280B90721F486819781958384830FB6F894E6
S11322900F92808191810197918380830F900FBE6B
S11322A02093C600FF91EF91BF91AF919F918F91C1
S11322B02F910F900BBE0F900FBE0F901F9018958B
S11322C01F920F920FB60F9211240BB60F922F93F9
S11322D03F934F938F939F93AF93BF93EF93FF934A
S11322E08091C8008C7171F08091C80088230CF033
S11322F036C0AEECB0E0E8ECF0E08C91808188234D
S1132300E4F32DC04091CE000FB6F8940F92E3E5AC
S1132310F9E0218132810F900FBE838594852817BF
S11323203907E9F0E4E5F9E0A281B3814C938281B5
S11323309381019693838283208531858217930745
S113234021F486819781938382830FB6F8940F9248
S1132350808191810196918380830F900FBEFF91BC
S1132360EF91BF91AF919F918F914F913F912F9199
S11323700F900BBE0F900FBE0F901F9018951F92D9
S11323800F920FB60F9211240BB60F922F938F93C7
S11323909F93AF93BF93EF93FF930FB6F8940F926D
S11323A080916009909161090F900FBE892B31F4DF
S11323B0E9ECF0E080818F7D80831CC0E0E6F9E0E9
S11323C0A481B5812D91B583A48380859185A817B7
S11323D0B90721F486819781958384830FB6F89495
S11323E00F92808191810197918380830F900FBE1A
S11323F02093CE00FF91EF91BF91AF919F918F9168
S11324002F910F900BBE0F900FBE0F901F90189539
S11324101F920F920FB60F9211240BB60F922F93A7
S11324203F934F938F939F93AF93BF93EF93FF93F8
S11324308091D0008C7171F08091D00088230CF0D1
S113244036C0A6EDB0E0E0EDF0E08C918081882309
S1132450E4F32DC04091D6000FB6F8940F92EFE04C
S1132460F8E0218132810F900FBE8385948528176F
S11324703907E9F0E0E1F8E0A281B3814C9382816D
S113248093810196938382832085318582179307F4
S113249021F486819781938382830FB6F8940F92F7
S11324A0808191810196918380830F900FBEFF916B
S11324B0EF91BF91AF919F918F914F913F912F9148
S11324C00F900BBE0F900FBE0F901F9018951F9288
S11324D00F920FB60F9211240BB60F922F938F9376
S11324E09F93AF93BF93EF93FF930FB6F8940F921C
S11324F080911C0890911D080F900FBE892B31F418
S1132500E1EDF0E080818F7D80831CC0ECE1F8E098
S1132510A481B5812D91B583A48380859185A81765
S1132520B90721F486819781958384830FB6F89443
S11325300F92808191810197918380830F900FBEC8
S11325402093D600FF91EF91BF91AF919F918F910E
S11325502F910F900BBE0F900FBE0F901F901895E8
S11325601F920F920FB60F9211240BB60F922F9356
S11325703F934F935F936F937F938F939F93AF9307
S1132580BF93CF93EF93FF93809130018C7171F0DF
S11325908091300188230CF057C0A6E3B1E0E0E35A
S11325A0F1E08C9180818823E4F34EC0C091360120
S11325B08091410B81111DC081E0809393090E9499
S11325C013251092850010928400E0913108F0E008
S11325D0EC5AF74FC083809131088F5F80933108A4
S11325E0809131088F3F19F481E080930D080E9497
S11325F008250FB6F8940F92E2E3F8E021813281C6
S11326000F900FBE8385948528173907E9F0E3E31B
S1132610F8E0A281B381CC93828193810196938364
S11326208283208531858217930721F486819781DF
S1132630938382830FB6F8940F92808191810196DF
S1132640918380830F900FBEFF91EF91CF91BF9143
S1132650AF919F918F917F916F915F914F913F9136
S11326602F910F900BBE0F900FBE0F901F901895D7
S11326701F920F920FB60F9211240BB60F922F9345
S11326808F939F93AF93BF93EF93FF930FB6F894F9
S11326900F9280913F08909140080F900FBE892BB4
S11326A031F4E1E3F1E080818F7D80831CC0EFE3AE
S11326B0F8E0A481B5812D91B583A48380859185AB
S11326C0A817B90721F486819781958384830FB66F
S11326D0F8940F92808191810197918380830F9068
S11326E00FBE20933601FF91EF91BF91AF919F915F
S11326F08F912F910F900BBE0F900FBE0F901F90D4
S113270018950F93813071F018F08230A9F026C02B
S113271084B1876084B9239885B1896085B9249A86
S11327202C9A23C084B1876084B9239885B18960C9
S113273085B99D9AA59A19C084B1876084B92398F4
S113274085B1896085B9E1E0F1E0808180628083B0
S1132750E2E0F1E080818062808307C084B1876019
S113276084B9239885B1896085B98CB580658CBDA1
S11327708DB58EB580910C0790910D07892B89F446
S113278081E00E94750A90930D0780930C070097CF
S113279041F000E020E030E0A90160E070E00E9438
S11327A0D1090F9108959CB59C7F282F2370922BFB
S11327B09CBD9DB582FB882780F99E7F892B8DBDAA
S11327C00895811104C08CB580628CBD08958CB5C8
S11327D08F7D8CBD08959CB5937F892B8CBD089506
S11327E0CF93C82F48EE53E060E070E080910C076F
S11327F090910D070E948F0B8130B1F4C13039F0F4
S113280018F0C23039F00DC02C9881E00EC0A598A4
S113281081E00BC0E2E0F1E080818F7D808381E084
S113282004C0289881E001C080E0CF9108950F93FF
S1132830813031F018F0823029F00AC02C9A09C096
S1132840A59A07C0E2E0F1E080818062808301C044
S1132850289A00E020E030E0A90160E070E0809177
S11328600C0790910D070E94D1090F910895282F0C
S11328709CB5892F807496FF17C00CB404FC08C063
S11328808CB580618CBD9CB5892F807194FF0CC080
S11328902EBD000005C09CB5892F807194FF04C033
S11328A00DB407FEF8CF8EB50895E0914407F0917A
S11328B04507808181110CC08FEF9FEFDC0180936D
S11328C0110790931207A0931307B0931407089568
S11328D0E0914407F09145070780F085E02D0084DE
S11328E0F185E02D82819381A481B58180931107C4
S11328F090931207A0931307B093140708958F922F
S11329009F92AF92BF92CF92DF92EF92FF92CF93BA
S11329106B017C01C42F80901B0790901C07A09032
S11329201D07B0901E078091880790918907029631
S11329300E9475088FEFC816D806E806F80669F4F1
S1132940CC2359F060918807709189076E5F7F4F9F
S113295080E297E00E9417083FC0C80CD91CEA1C0B
S1132960FB1CE0918807F0918907C282D382E4823C
S1132970F582C814D904EA04FB0468F4609188075A
S11329807091890780914207909143076E5F7F4F52
S11329900E94380821C0609188077091890780914E
S11329A04407909145076E5F7F4F0E9438088091DD
S11329B0110790911207A0911307B0911407C8163C
S11329C0D906EA06FB0640F4C0921107D09212071A
S11329D0E0921307F0921407CF91FF90EF90DF90ED
S11329E0CF90BF90AF909F908F9008954F925F9239
S11329F06F927F928F929F92AF92BF92CF92DF920B
S1132A00EF92FF920F93CF93DF934C016B015A0126
S1132A102901CA010E94C3053C01892B09F4ECC0B9
S1132A2083E390E00E94C305EC01892BB1F07C8E16
S1132A306B8EA50165EA70E0C3010E94685A21E02B
S1132A40A21AB1088B8D9C8DA80EB91ED6018C914B
S1132A508D8F8C91811105C018C0C3010E94D505CA
S1132A60CBC0AE01425E5F4FF6013196BFE0CB0EA4
S1132A70D11CCF012191DA012D93AD01DC018C91A0
S1132A80882319F0EC15FD05A1F71BA6043008F006
S1132A9003E00A8F0CA71DA66E01B2E0CB0ED11C79
S1132AA0C6010E941308CE010E960E941308DB870C
S1132AB0CA8784E090E0A0E0B0E0801B9109A109FE
S1132AC0B1098E879F87A88BB98BDF8BCE8B1EA60F
S1132AD01FA618AA19AA1AAAA201B401C5010E9424
S1132AE0E40599838883E114F10419F0F701D18393
S1132AF0C0830FB6F8940F9280911F078F5F809365
S1132B001F078091880790918907892BD1F5D0936D
S1132B108907C093880780911F07813009F041C05D
S1132B208CE597E00E94020887E697E00E9402087D
S1132B3082E797E00E9402088DE797E00E9402086E
S1132B4081E597E00E94020886E497E00E9402086B
S1132B5087E397E00E9402088CE297E00E94020853
S1132B6080E297E00E94020881E597E09093450790
S1132B708093440786E497E0909343078093420749
S1132B8010C08091190781110CC0E0918807F09161
S1132B908907928D8A8D891720F0D0938907C09375
S1132BA08807809115078F5F809315078A8D909110
S1132BB01A07981710F480931A07FBE08F9FC0013F
S1132BC01124B601845A984F0E9417080F900FBE23
S1132BD080911907882361F0E0918807F0918907B3
S1132BE0928D8A8D981730F40E94A80681E005C062
S1132BF081E003C081E001C08FEFDF91CF910F919D
S1132C00FF90EF90DF90CF90BF90AF909F908F9008
S1132C107F906F905F904F9008950F931F93CF9381
S1132C20DF93009709F43DC020918807309189070C
S1132C308217930709F435C00FB6F8940F92FC017C
S1132C40248535852052374051F5FC01208D318D86
S1132C50F7E027333F0719F1232B09F5EC018C0129
S1132C600E5F1F4FC8010E9475088A8D90911A0744
S1132C70981710F480931A072BE0829FC001112447
S1132C80B801845A984F0E941708E0918807F09180
S1132C9089079A8D828D981710F00E94A8060F90CC
S1132CA00FBEDF91CF911F910F910895EF92FF9284
S1132CB00F930F2EFFE0EF2EF7E0FF2EF02D00E034
S1132CC020E030E040E850E066E172E088E395E01F
S1132CD08DDE8130E1F4CED48130C9F4F8948FEFE5
S1132CE09FEFDC018093110790931207A0931307C1
S1132CF0B093140781E08093190710921B07109278
S1132D001C0710921D0710921E070E9456060F9171
S1132D10FF90EF90089580910E078F5F80930E07C8
S1132D2008950FB6F8940F9260911B0770911C07D9
S1132D3080911D0790911E070F900FBE08959F92DA
S1132D40AF92BF92CF92DF92EF92FF920F931F93B5
S1132D50CF93DF9380910E078111ADC0C0901B0704
S1132D60D0901C07E0901D07F0901E078FEFC81A43
S1132D70D80AE80AF80AC0921B07D0921C07E0920E
S1132D801D07F0921E07C114D104E104F104B1F44B
S1132D908091440790914507209142073091430761
S1132DA03093450720934407909343078093420749
S1132DB0809116078F5F8093160777DD8091110746
S1132DC090911207A0911307B0911407C816D90661
S1132DD0EA06FB0610F4B12C5DC0B12C0F2EFBE00B
S1132DE0AF2EF02D99249394E0914407F091450778
S1132DF0808181110CC08FEF9FEFDC01809311075C
S1132E0090931207A0931307B093140743C0E09163
S1132E104407F09145070780F085E02DC085D185F2
S1132E208A819B81AC81BD81C816D906EA06FB065E
S1132E3048F48093110790931207A0931307B0935B
S1132E40140728C08E010E5F1F4FC8010E94750829
S1132E50888D998D892B21F0CE010E960E947508DC
S1132E608A8D90911A07981710F480931A07A89ED8
S1132E70C0011124B801845A984F0E941708E091A8
S1132E808807F09189079A8D828D981708F4ACCF42
S1132E90B92CAACFE0918807F0918907E28D8BE0E5
S1132EA0E89FF0011124E45AF84F8081823048F001
S1132EB0BB24B39406C0809118078F5F80931807D2
S1132EC0B12C80911707882311F0BB24B3948B2D68
S1132ED0DF91CF911F910F91FF90EF90DF90CF90F2
S1132EE0BF90AF909F900895CF92DF92EF92FF92A0
S1132EF00F931F93CF93DF930FB6F8940F928091A3
S1132F000E07815080930E0780910E0781115AC0DD
S1132F1080911F0781112CC058C0D7011796ED91DD
S1132F20FC911897C085D185CE010E960E94750834
S1132F308E010E5F1F4FC8010E9475088A8D909103
S1132F401A07981710F480931A07D89EC001112409
S1132F50B801845A984F0E941708E0918807F091AD
S1132F6089079A8D828D981788F0C09217070EC032
S1132F70C0E0D0E00F2EF7E3EF2EF7E0FF2EF02DA8
S1132F800F2EFBE0DF2EF02DCC24C394F7018081BB
S1132F908111C3CFCD2B09F088DCC0911807CC2355
S1132FA049F0D1E0CCDE8111D0931707C150D1F79D
S1132FB01092180780911707882331F00E94A80601
S1132FC081E003C080E001C080E00F900FBEDF917C
S1132FD0CF911F910F91FF90EF90DF90CF900895C4
S1132FE0CF92DF92EF92FF926B017C01672B682BEB
S1132FF0692B41F090DE40E0C701B60180DC74DF4C
S1133000811102C00E94A806FF90EF90DF90CF903C
S1133010089580910E07882321F081E0809317079B
S1133020089510921707A0918807B0918907E0913D
S11330308807F09189072D913C91838D948D821797
S1133040930760F0609188077091890780918807E1
S113305090918907635E7F4F0E94FD0780911A0754
S1133060282F30E09BE0899FF0011124E45AF84FA7
S1133070908191110EC04BE08150282F30E0429F87
S1133080F001439FF00D1124E45AF84F90819923E5
S113309099F39BE0929FA001939F500D1124DA01B4
S11330A0A45AB84F1196ED91FC9112970480F581C2
S11330B0E02D1296FC93EE931197415A584FE41762
S11330C0F50729F444815581FD01528341839BE036
S11330D0929FF001939FF00D1124E45AF84F018060
S11330E0F281E02D2085318530938907209388076C
S11330F080931A0708950F931F93CF93DF93EC01E6
S11331000FB6F8940F92892B21F4C0918807D091BF
S113311089078E010E5F1F4FC8010E947508888DB4
S1133120998D892B21F0CE010E960E947508B80165
S113313080E297E00E9417088AA9813009F41AAA4C
S11331400F900FBE80911907882331F00FB6F894C1
S11331500F92ABDB0F900FBE809188079091890787
S1133160C817D90799F480911907882319F00E9488
S1133170A8060CC09091200780911F07981305C0E2
S1133180109289071092880701C043DFDF91CF9125
S11331901F910F910895CF92DF92EF92FF926A01EF
S11331A07B016091880770918907625F7F4F0E945D
S11331B0380841E0C701B601A2DBFF90EF90DF9031
S11331C0CF900895CF92DF92EF92FF92CF936A014E
S11331D07B01C22F6091880770918907625F7F4FDE
S11331E00E941708CC2321F0CC24CA94DC2C76014D
S11331F04C2FC701B60183DBCF91FF90EF90DF9096
S1133200CF9008950F931F93CF93DF93DC0117960C
S1133210ED91FC911897C085D1858E01025F1F4FF7
S1133220C8010E94750880910E07811116C00C50C8
S11332301109C8010E9475088A8D90911A07981780
S113324010F480931A07BBE08B9FC0011124B801CE
S1133250845A984F0E94170805C0B80187E397E085
S11332600E941708E0918807F09189079A8D828D52
S1133270891720F481E08093170701C080E0DF9173
S1133280CF911F910F91089520911607FC0120837F
S113329040911B0750911C0760911D0770911E07F8
S11332A041835283638374830895CF92DF92EF92B4
S11332B0FF920F931F93CF93DF93FB010FB6F89404
S11332C00F9240911B0750911C0760911D0770914C
S11332D01E0700811181228133810F3FAFEF1A074E
S11332E02A073A0749F1EC01C980DA80EB80FC80B7
S11332F0A0911607B881BA1729F04C155D056E0523
S11333007F05E0F44C195D096E097F0940175107E8
S11333106207730758F4041B150B260B370B008345
S1133320118322833383B0DF80E009C010821182CD
S11333301282138281E003C080E001C081E00F901B
S11333400FBEDF91CF911F910F91FF90EF90DF900F
S1133350CF90089581E0809317070895809119070D
S1133360882331F080910E07882321F080E00895AE
S113337081E0089582E008950F931F93CF93DF9324
S1133380FC01892B09F460C0828DA0918807B0915B
S113339089075A969C91891708F04AC04685578533
S11333A060897189772394F0A0918807B091890787
S11333B05A969C9144E050E060E070E0491B51094A
S11333C06109710946875787608B718B2BE0829F57
S11333D0C0011124845A984F24853585281739074C
S11333E0F1F48F01EF012296CE010E947508E0915D
S11333F08807F0918907828DF801828F90911A07CE
S1133400981710F480931A07FBE08F9FC0011124D2
S1133410BE01845A984F0E94170881E016C0A091FB
S11334208807B09189075A968C91828F81E00DC0EC
S1133430A0918807B091890781E024A55A969C91B0
S1133440291718F080E001C080E0DF91CF911F912F
S11334500F9108950F931F93CF93DF93FC01892B52
S113346079F185A5815085A7228D94A5291751F15D
S113347081112AC0EF018F010E5F1F4FC8010E9406
S113348075088CA58A8F44E050E060E070E0481B2A
S11334905109610971094E875F87688B798B909117
S11334A01A07981710F480931A072BE0829FC00123
S11334B01124B801845A984F0E94170881E005C06E
S11334C080E003C080E001C080E0DF91CF911F91D4
S11334D00F9108950F931F93CF93DF93FC01892BD2
S11334E009F43FC084A5861708F4862F928D981797
S11334F0C1F125A52130A9F5828F468557856089BC
S11335007189772364F044E050E060E070E0481B88
S113351051096109710946875787608B718B2BE0CC
S1133520929FC0011124845A984F24853585281709
S11335303907B9F4EF018F010E5F1F4FC8010E94D4
S113354075088A8D90911A07981710F480931A07BA
S11335502BE0829FC0011124B801845A984F0E9425
S11335601708DF91CF911F910F91089580918807DB
S113357090918907892B39F0E0918807F0918907A8
S113358085A58F5F85A78091880790918907089505
S1133590CF92DF92EF92FF920F931F93FC0142832D
S11335A053836483758393878287041715072607DB
S11335B03707C0F00C191D092E093F098685978528
S11335C0A089B189081719072A073B0700F5BF012D
S11335D06E5F7F4F80919207909193070E94380805
S11335E080E018C00C151D052E053F0528F44C1568
S11335F05D056E057F0568F4BF016E5F7F4F8091A6
S11336009407909195070E94380880E003C081E0F8
S113361001C081E01F910F91FF90EF90DF90CF9058
S113362008950FB6F8940F928091900790919107A6
S1133630892BE9F481EA97E00E94020886E997E081
S11336400E94020881EA97E090939507809394077B
S113365086E997E0909393078093920740E067E0B0
S11336608AE00E94A70990939107809390070F9096
S11336700FBE0895EF92FF920F93D3DF80919007CE
S113368090919107892B89F00F2EFEE8EF2EF7E039
S1133690FF2EF02D03E020E030E040E850E06BE145
S11336A072E085E89CE1A2D901C080E00F91FF900F
S11336B0EF9008957F928F929F92AF92BF92CF9294
S11336C0DF92EF92FF920F931F93CF93DF936C01DE
S11336D04A015B01722E87E190E00E94C305EC0170
S11336E0892B81F09EDFD982C8828E869F86A88A24
S11336F0B98A7A8A1C8B0B8BFE8AED8ACE010296DC
S11337000E941308CE01DF91CF911F910F91FF907A
S1133710EF90DF90CF90BF90AF909F908F907F906D
S113372008958F929F92AF92BF92CF92DF92EF92C1
S1133730FF920F931F93CF93DF93CDB7DEB72797F5
S11337400FB6F894DEBF0FBECDBFE0919007F091A5
S11337509107309781F169832A833B834C835D838E
S11337609F838E836630F4F4F9DD823069F400E0DF
S1133770A7019601BE016F5F7F4F809190079091E2
S113378091070E94D10918C000E020E030E0A901AF
S1133790BE016F5F7F4F80919007909191070E94C7
S11337A0D1090AC020E0A801BE016F5F7F4FCF019D
S11337B00E94900A01C080E027960FB6F894DEBFFD
S11337C00FBECDBFDF91CF911F910F91FF90EF906E
S11337D0DF90CF90BF90AF909F908F9008952F92DD
S11337E03F924F925F926F927F928F929F92AF928D
S11337F0BF92CF92DF92EF92FF920F931F93CF93DA
S1133800DF931C018EDA2B013C0180918A07909191
S11338108B07A0918C07B0918D07481659066A064C
S11338207B0608F053C03BC00780F085E02D808004
S11338309180A280B380C085D1858E010E5F1F4F19
S1133840C8010E947508ED89FE89CE0119958A89FF
S1133850813029F58E859F85A889B989880D991DA0
S1133860AA1DBB1D88169906AA06BB0670F48A8396
S11338709B83AC83BD83DB87CA87B801809194079F
S1133880909195070E9438080AC0C12CD12C76016A
S113389000E010E0A501940160E0CE0142DFE09178
S11338A09407F091950780818111BECF8091920792
S11338B0909193079093950780939407F0939307BF
S11338C0E093920781E0F101808302C0F10110824C
S11338D040928A0750928B0760928C0770928D07F2
S11338E0C301B201DF91CF911F910F91FF90EF902F
S11338F0DF90CF90BF90AF909F908F907F906F900C
S11339005F904F903F902F900895CF93DF93CDB762
S1133910DEB760970FB6F894DEBF0FBECDBFCE0101
S113392001969A878987812C912CA12CB12C6984CA
S11339307A84E0919407F09195078081882309F4B3
S1133940F2C00780F085E02D2080318042805380D2
S1133950E2D9CE01019643DF6B877C878D879E87F2
S1133960898181115DC08B859C85AD85BE8582155D
S11339709305A405B50508F43CC0B6DAE0919407B4
S1133980F09195070780F085E02DA085B185B88B6F
S1133990AF87CD0102960E947508EF85F889828968
S11339A08130F1F44685578560897189420D531D34
S11339B0641D751D720161010B851C852D853E8575
S11339C0CF01E6DD882361F0C82CD92CEA2CFB2C2E
S11339D000E010E0A201910160E08F859889A1DEEA
S11339E0AF85B8895596ED91FC915697CD011995FF
S11339F08BC020E0B201A1018B859C85AD85BE857D
S1133A00481B590B6A0B7B0B80919007909191078F
S1133A100E94610C69DA811177C00E94A80674C003
S1133A2063DA72C0898188230CF46EC04E805F8093
S1133A30D2011C968D919C911D97892B21F0C20176
S1133A4002960E947508CE010896C9DE8B019C017E
S1133A508981082E000C990BAA0BBB0B8A309105A7
S1133A6008F052C0FC018827EE56FF4F8F4F0C948C
S1133A704458CA80DB80EC80FD80F201468557857E
S1133A80608971894C0D5D1D6E1D7F1DC20180DD35
S1133A908823D1F1D2015596ED91FC915697C2013C
S1133AA01995F2018289813079F54A815B816C81B3
S1133AB07D8186859785A089B1899A01AB01280FFC
S1133AC0391F4A1F5B1FC82CD92CEA2CFB2C00E0A1
S1133AD010E060E0C20125DE17C04A815B816C8181
S1133AE07D81D2011E964D935D936D937C93519786
S1133AF0400F511F621F731F68017901C20148DD25
S1133B0003C0C2010E94D505282D392D4A2D5B2DF5
S1133B10662D772D80919007909191070E94F20A6B
S1133B20811180CF06CFF7D8CE01019658DE6B877E
S1133B307C878D879E878981811172CFE09192075E
S1133B40F0919307808121E0811120E0282C392C09
S1133B504A2C5B2C4FCFFC010FB6F8940F9281E0F6
S1133B6024853585232B09F480E00F900FBE08953A
S1133B700FB6F8940F92FC01838994890F900FBEBD
S1133B800895C4E9D9E004EF19E00F2EFEE3CF2E27
S1133B90F2E0DF2EF02D0F2EF2E3EF2EF8E0FF2EF1
S1133BA0F02D0F2EF2E48F2EFAE09F2EF02D332409
S1133BB033940F2EF3E2AF2EF2E0BF2EF02DA89532
S1133BC08F8D813009F0D1C08091AD07813091F49F
S1133BD0BE01C8010E94BE32F80131861092AD07C1
S1133BE0BF92AF92FF92EF920E94340D0F900F900C
S1133BF00F900F90F801818581114AC092D84090AE
S1133C0075095090760960907709709078099B0146
S1133C10AC01241935094609570929013A012AA199
S1133C2030E0A0E6BAEE0E944C586415750586058E
S1133C30970548F56AA57BA5072E000C880B990B00
S1133C400E940A539B01AC01F4016081718182815D
S1133C5093810E946B528823B4F48091AD07811143
S1133C6012C0BE01C8010E94BE32F801318623E3AE
S1133C7032E03F932F93FF92EF920E94340D0F9006
S1133C800F900F900F90F8018185882309F46DC07F
S1133C9048D84090750950907609609077097090E3
S1133CA078099B01AC0124193509460957092901F2
S1133CB03A0129A130E0A0E6BAEE0E944C586415FE
S1133CC0750586059705F8F4F80182858823D9F0EF
S1133CD0BE01C8010E94D932F8011186128621D88A
S1133CE060937509709376098093770990937809A6
S1133CF0DF92CF92FF92EF920E94340D0F900F90BB
S1133D000F900F9032C0F8018185882371F16CA562
S1133D107DA5072E000C880B990B0E940A539B016A
S1133D20AC01F80162A973A984A995A90E94BA53A8
S1133D301816DCF4BE01C8010E94D932F8011186BC
S1133D4012860E9491166093750970937609809388
S1133D50770990937809DF92CF92FF92EF920E94B5
S1133D60340D0F900F900F900F9060ED77E080E08E
S1133D7090E036D924CFC4E9D9E00F2EFCED4F2EC4
S1133D80F9E05F2EF02D0F2EFAEEAF2EFAE0BF2EE3
S1133D90F02D0F2EFEEEEF2EFAE0FF2EF02D0F2E5B
S1133DA0F5E66F2EF2E07F2EF02D02E318E00F2EE1
S1133DB0F6E5CF2EF2E0DF2EF02D332433940F2ED0
S1133DC0F8E48F2EF2E09F2EF02DA8958091BB078A
S1133DD09091BC0790D90FB6F8940F928EE79AE0B1
S1133DE00E94F54A0F900FBE8091BB079091BC07CB
S1133DF00E940D168CA18130A9F48091840A81114E
S1133E003AC080917E0A81119FC03092840A9F92A9
S1133E108F921F930F930E94340D0F900F900F9069
S1133E200F9024C0811122C08091840A882309F450
S1133E308BC0EEE7FAE01682D7011D921C92109215
S1133E403A0B1092390B118ADF92CF921F930F9382
S1133E500E94340D8EE79AE00E94A64F8EE79AE006
S1133E600E9447360F900F900F900F908091840A14
S1133E70882309F469C080918F0A833008F064C0F4
S1133E80BE018EE79AE05DD390933A0B8093390B91
S1133E90181619063CF5F70120813181232B11F501
S1133EA0EEE7FAE0D7018D939C9381898F5F818B34
S1133EB0F501118210828EE79AE00E944736D701FD
S1133EC011968C9111978F938C918F937F926F920F
S1133ED01F930F930E94340D0F900F900F900F902B
S1133EE00F900F90BE018EE79AE00E944F378091A9
S1133EF07F0A882349F10E9491162091B1073091DD
S1133F00B2074091B3075091B407DC01CB01821B87
S1133F10930BA40BB50B81319742A105B105A0F019
S1133F20D2016D917C918EE79AE00E94F54FF501E4
S1133F30918380830E9491166093B1077093B207B6
S1133F408093B3079093B40768EE73E080E090E049
S1133F5047D83BCFC4E9D9E0552453940F2EF0E65B
S1133F60AF2EFAE0BF2EF02D04E61AE00F2EF0E992
S1133F708F2EF2E09F2EF02D0F2EF2E3EF2EF8E0BD
S1133F80FF2EF02D0F2EF1E8CF2EF2E0DF2EF02DD4
S1133F900F2EF3E76F2EF2E07F2EF02DA89580917F
S1133FA0B9079091BA07A7D80FB6F8940F9284EF87
S1133FB099E00E94F54A0F900FBE88A1823061F407
S1133FC08091B9079091BA070E940D1610924A0B7E
S1133FD088A1813069F406C0813051F480914A0B84
S1133FE0811106C050924A0B8EE79AE00E94473630
S1133FF08CA18130F9F48091FA09811146C0809135
S1134000F4098111B6C05092FA090E949116609386
S113401075097093760980937709909378097F9254
S11340206F92FF92EF920E94340D0F900F900F90B9
S11340300F9026C0811124C08091FA09882309F4C5
S113404098C0E4EFF9E0168282B112B8D8011D924B
S11340501C921092070B1092060B118ADF92CF92DA
S1134060FF92EF920E94340D84EF99E00E94A64FD4
S113407084EF99E00E9447360F900F900F900F90B5
S11340808091FA09882309F474C08091050A833069
S113409008F06FC08091260B81110AC0BE0184EF25
S11340A099E04FD29093070B8093060B47D202C03E
S11340B01092260B8091060B9091070B1816190687
S11340C03CF5F80120813181232B11F5E4EFF9E06F
S11340D0D8018D939C9381898F5F818BF501118227
S11340E0108284EF99E00E944736D80111968C9192
S11340F011978F938C918F939F928F92FF92EF924F
S11341000E94340D0F900F900F900F900F900F900E
S1134110BE0184EF99E00E944F378091F50988230E
S113412041F10E9491162091B5073091B607409154
S1134130B7075091B807DC01CB01821B930BA40B8A
S1134140B50B81319742A105B10598F06AA97BA905
S113415084EF99E00E94F54FD5018D939C930E94C2
S113416091166093B5077093B6078093B707909341
S1134170B80768EE73E080E090E00E94F0170ECF7D
S11341804FEF5FEFBA018091270B9091280B0E94AB
S11341908F0B8130A9F7B4D78091410B882349F064
S11341A08BEE97E00E945F0D1092410B1092310844
S11341B0E7CF80919309882319F382E398E00E9462
S11341C05F0D1092930910923108DACFCDB7DEB7A4
S11341D0A297DEBFCDBF0E949C3C93D134D481E032
S11341E090E09093670A8093660A82E090E090934F
S11341F0F10A8093F00A80E090E00E9494056093B5
S11342008F09709390098093910990939209EE24F9
S1134210EA94F12C0FEF10E020E835E240E050E0A2
S113422060E0CE0101960E94530E82E2FE013196B7
S1134230ABEEB7E001900D928A95E1F720E835E204
S113424040E050E066E0CE0101960E94530E82E207
S1134250FE013196A2E3B8E001900D928A95E1F750
S113426043E060E081E00E94A7099093280B8093CB
S1134270270B009741F000E020E030E0A90160E066
S113428070E00E94D10940E650E060E070E084E90B
S113429099E00E944C5B84EF99E00E94D3308EE752
S11342A09AE00E94D33084EF99E00E94304F8EE769
S11342B09AE00E94304F81E08093260B8091C609DA
S11342C09091C70990930D0B80930C0B8091DC099E
S11342D09091DD0990937D0A80937C0A84E999E0AA
S11342E00E94C33380938E0A8093040A99E288E182
S11342F00FB6F894A895809360000FBE9093600069
S11343007894E12CF12C02E020E030E040E051E030
S11343106EE972E080EC90E20E94F6140F2EFBEB43
S1134320EF2EF7E0FF2EF02D00E020E030E040E03B
S113433052E065EA72E08AEA9FE10E94F6140F2EC9
S1134340F9EBEF2EF7E0FF2EF02D20E030E040E017
S113435052E06EEA72E08BEB9EE10E94F614E12CCF
S1134360F12C20E030E040E051E067EB72E081ECBA
S11343709DE10E94F6140E94561680E090E0A296F9
S11343800FB6F894DEBF0FBECDBF08951F920F92F3
S11343900FB60F9211240BB60F922F933F934F93A6
S11343A05F936F937F938F939F93AF93BF93EF9399
S11343B0FF931092AC0780913D0B90913E0BA0911E
S11343C03F0BB091400B0196A11DB11D80933D0B95
S11343D090933E0BA0933F0BB093400B80913D0B09
S11343E090913E0BA0913F0BB091400B0797A10514
S11343F0B10589F418D310923D0B10923E0B109224
S11344003F0B1092400B6CEA77E08091270B909160
S1134410280B0E94C90AFF91EF91BF91AF919F9120
S11344208F917F916F915F914F913F912F910F9059
S11344300BBE0F900FBE0F901F9018951F93CF9334
S1134440DF93C82F0FB6F8940F9284E00E94F01304
S11344508C2F0E94371480E00E943714182F80E0BC
S11344600E943714C82F80E00E943714D82F84E0AC
S11344700E9417140F900FBE8C2F90E0A0E0B0E0C4
S1134480BA2FA92F982F8827A12BBC01CD016D2B02
S1134490DF91CF911F910895CF93DF93D82FC62F2B
S11344A00FB6F8940F9284E00E94F0138D2F806869
S11344B00E9437148C2F0E94371484E00E94171432
S11344C00F900FBEDF91CF910895682F83E1E4CF61
S11344D00895682F85E1E0CF0895682F87E1DCCF48
S11344E00895CF93DF93D62FC42F682F82E4D4DFAF
S11344F06D2F83E4D1DF6C2F84E4CEDFDF91CF9185
S1134500089588E00E94EB1386E00E94D31381E0B3
S11345100E94E11384E00E94811380E0DEDF60E00A
S113452083E2BADF42E062E082E0DBDF84E0CDDFF9
S113453080E1CFCF089589E181CF08958AE17ECFCC
S113454008954F925F926F927F928F929F92AF9253
S1134550BF92CF92DF92EF92FF920F931F93CF936C
S1134560DF9300D000D0CDB7DEB79E838D838B015F
S113457020E030E048EC52ECDC0152966D917D91E4
S11345808D919C9155970E946B52882344F4ED8140
S1134590FE81EE58FF4F808191810A9622C2AD813F
S11345A0BE815696CD90DD90ED90FC90599720E019
S11345B030E048EC52ECC701B6010E946B528823EC
S11345C044F4ED81FE81EE58FF4F80819181449641
S11345D008C2AD81BE819A964D905D906D907C909D
S11345E09D9720E030E048EC52ECC301B2010E94F8
S11345F06B52882344F4ED81FE81EE58FF4F808195
S113460091814E96EEC1AD81BE819E968D909D9016
S1134610AD90BC90D19720E030E048EC52ECC5015D
S1134620B4010E946B52882344F4ED81FE81EE585C
S1134630FF4F808191818896D4C120E030E048EC1E
S113464052ECAD81BE81D2966D917D918D919C91FC
S1134650D5970E946B52882344F4ED81FE81EE5875
S1134660FF4F80819181C296BCC120E030E048ECCC
S113467052ECAD81BE81D6966D917D918D919C91C8
S1134680D9970E946B52882344F4ED81FE81EE5841
S1134690FF4F80819181CC96A4C1AD81BE81DA9611
S11346A08D919D910D90BC91A02D89839A83AB83AC
S11346B0BC8320E030E048EC52ECBC01CD010E9408
S11346C06B5288234CF4ED81FE81EE58FF4F8081BC
S11346D091818A5B9F4F85C120E030E048EC52EC29
S11346E0ED81FE81FE9660817181828193810E94B9
S11346F06B52882354F48D819E818E589F4FDC0128
S11347008D919C91805B9F4F6CC120E030E048EC20
S113471052ECED81FE81EE5BFF4F608171818281FD
S113472093810E946B5288234CF4ED81FE81EE58F4
S1134730FF4F80819181865A9F4F53C14A9B10C07D
S1134740AD81BE811F968C911F97813049F4FD0184
S1134750EE58FF4F80819181019709F031C112C158
S11347604B9B10C0ED81FE818785813009F036C1F5
S1134770ED81FE81EE58FF4F80819181029709F00F
S113478022C103C1659B11C0AD81BE811F968C916E
S1134790813009F01BC1ED81FE81EE58FF4F80810D
S11347A09181019709F014C1F3C0659B0EC0ED819E
S11347B0FE818785813049F4ED81FE81EE58FF4FFB
S11347C080819181029709F4E6C0F801E45AFF4F11
S11347D02081318142815381AD81BE815E966D918C
S11347E07D918D919C9191970E946B5288234CF4FA
S11347F0ED81FE81EE58FF4F8081918188589F4F53
S1134800F0C0D80116966C9170E080E090E00E94B0
S11348100A539B01AC01ED81FE81628D738D848D01
S1134820958D0E94BA53181654F48D819E818E582A
S11348309F4FDC018D919C9184579F4FD2C0F8010A
S1134840618570E080E090E00E940A539B01AC0116
S1134850C701B6010E94BA53181674F4AD81BE8123
S113486012968C911297882339F0AE58BF4F8D91D0
S11348709C9180569F4FB5C0F801658570E080E03B
S113488090E00E940A539B01AC01C701B6010E944B
S11348906B52882374F4AD81BE8113968C91139767
S11348A0882339F0AE58BF4F8D919C9186559F4F08
S11348B098C0F801668570E080E090E00E940A5399
S11348C09B01AC0169817A818B819C810E94BA53DE
S11348D018160CF463C0A3019201C501B4010E942F
S11348E006520E94D7529B01772324F422273327B0
S11348F0261B370BC901D80154962C9130E0281798
S1134900390764F4ED81FE8185818823D1F0EE5866
S1134910FF4F8081918186509F4F63C0D801539689
S11349202C9130E08217930764F4ED81FE81858138
S1134930882339F0EE58FF4F808191818C5F9E4F20
S113494050C0F9DD71FD05C0D80199968C91813074
S113495041F1F1DD72FD04C0F80181A5813021F13E
S1134960EADD73FD05C0D80199968C918130F9F088
S1134970E2DD83FD1FC0F80181A58130F1F48DE2F1
S113498091E02FC085E690E02CC086E690E029C037
S11349908FE690E026C080E790E023C08CED90E0A5
S11349A020C08FE091E01DC089E191E01AC083E24C
S11349B091E017C080E090E014C080E090E011C066
S11349C04B99D6CE08C06599E6CEEFCE8CB1FDCE1C
S11349D06599F2CEFACE6599DECEE7CE6599F6CF2B
S11349E0E4CE26960FB6F894DEBF0FBECDBFDF919E
S11349F0CF911F910F91FF90EF90DF90CF90BF90D8
S1134A00AF909F908F907F906F905F904F9008959C
S1134A10EFE6F0E0808182608083E1E8F0E080816D
S1134A20826080830895E1E8F0E080818E7F808356
S1134A301092850010928400EFE6F0E080818D7F73
S1134A408083B19A089588E0809381008EE98093F1
S1134A50890080E680938800E6CF0895CF93DF93A2
S1134A60FA013A97E73D41E0F40708F011C2EB017F
S1134A70DC018827E456FF4F8F4F0C9444581B9653
S1134A806C91262F30E004C21F966C91262F30E0E3
S1134A90FFC11C966C91262F30E0FAC11E966C91D2
S1134AA0262F30E0F5C11D966C91262F30E0F0C121
S1134AB0A259BF4F2D913C91EBC120E030E040E280
S1134AC051E456966D917D918D919C9159970E94D8
S1134AD003540E94D7529B01DBC120E030E040E246
S1134AE051E452966D917D918D919C9155970E94C0
S1134AF003540E94D7529B01CBC120E030E040E236
S1134B0051E4D2966D917D918D919C91D5970E949F
S1134B1003540E94D7529B01BBC120E030E040E225
S1134B2051E4D6966D917D918D919C91D9970E9477
S1134B3003540E94D7529B01ABC1A059BF4F2D9182
S1134B403C91A6C1AE5BBF4F20E030E040E251E4AF
S1134B506D917D918D919C910E9403540E94D75236
S1134B609B0196C1DE9620E030E040E251E46D9175
S1134B707D918D919C910E9403540E94D7529B0178
S1134B8087C1A65BBF4F20E030E040E251E46D9165
S1134B907D918D919C910E9403540E94D7529B0158
S1134BA077C1AA5BBF4F20E030E040E251E46D9151
S1134BB07D918D919C910E9403540E94D7529B0138
S1134BC067C120E030E040E251E49E966D917D9112
S1134BD08D919C91D1970E9403540E94D7529B01BE
S1134BE057C120E030E040E251E49A966D917D9106
S1134BF08D919C919D970E9403540E94D7529B01D2
S1134C0047C120E030E040E251E45A966D917D9135
S1134C108D919C915D970E9403540E94D7529B01F1
S1134C2037C120E030E040E251E45E966D917D9121
S1134C308D919C9191970E9403540E94D7529B019D
S1134C4027C1DA966D917D918D919C91DD970E949B
S1134C50D7529B011DC16881262F30E019C16B8199
S1134C60262F30E015C16981262F30E011C16A81F9
S1134C70262F30E00DC16C81262F30E009C16C85F0
S1134C80262F30E005C16D85262F30E001C16985EE
S1134C90262F30E0FDC06A85262F30E0F9C06C89EC
S1134CA0262F30E0F5C06B89262F30E0F1C06E89E5
S1134CB0262F30E0EDC06D89262F30E0E9C06D8DE0
S1134CC0262F30E0E5C06E8D262F30E0E1C06C8DDC
S1134CD0262F30E0DDC06F8D262F30E0D9C06E85E1
S1134CE0262F30E0D5C06FA1262F30E0D1C06EA1B1
S1134CF0262F30E0CDC06DA1262F30E0C9C06E81D3
S1134D00262F30E0C5C06885262F30E0C1C06F81F2
S1134D10262F30E0BDC0FB01E45AFF4F6081718152
S1134D20828193810E94D7529B01B2C06A89262F47
S1134D3030E0AEC06989262F30E0AAC06889262FEA
S1134D4030E0A6C06F85262F30E0A2C0FB01EA5BED
S1134D50FF4F208131819CC06CA1262F30E098C088
S1134D606A8D262F30E094C06B8D262F30E090C0E2
S1134D70698D262F30E08CC02AA53BA589C069A186
S1134D80262F30E085C02EA53FA582C02CA53DA5C9
S1134D907FC02CAD3DAD7CC068A1262F30E078C02B
S1134DA068A5262F30E074C06D81262F30E070C0D6
S1134DB06B85262F30E06CC028A939A969C0688D9D
S1134DC0262F30E065C06F89262F30E061C069A5C9
S1134DD0262F30E05DC06AA1262F30E059C02EADE9
S1134DE03FAD56C0FB01EE5BFF4F2081318150C0C7
S1134DF0FB01EC5BFF4F208131814AC0FB01E05C89
S1134E00FF4F2081318144C02AAD3BAD41C02CA964
S1134E103DA93EC02EA93FA93BC028AD39AD38C03D
S1134E202AA93BA935C0FB01EE5AFF4F20813181ED
S1134E302FC0FB01EA5AFF4F2081318129C0FB01B9
S1134E40E85AFF4F2081318123C0FB01EC5AFF4F08
S1134E50208131811DC0FB01E05BFF4F2081318146
S1134E6017C0FB01E65BFF4F2081318111C0FB01BC
S1134E70E45BFF4F208131810BC0FB01E25BFF4FFC
S1134E802081318105C0FB01E85BFF4F2081318126
S1134E90C901DF91CF910895CF93DF93DC01FB012A
S1134EA03A97E73D81E0F80708F0BBC08827ED5842
S1134EB0FD4F8F4F0C9444584C93B3C013964C93AE
S1134EC0B0C011964C93ADC012964C93AAC01496E0
S1134ED04C93A7C01C964C93A4C01D964C93A1C0A0
S1134EE019964C939EC01A964C939BC054964C931F
S1134EF098C053964C9395C056964C9392C0559631
S1134F004C938FC05D964C938CC05E964C9389C035
S1134F105C964C9386C05F964C9383C01E964C93CC
S1134F2080C097964C937DC096964C937AC0959684
S1134F304C9377C016964C9374C018964C9371C0DA
S1134F4017964C936EC0ED01C45ADF4FBA0180E04E
S1134F5090E00E940853688379838A839B8361C0AD
S1134F6052964C935EC051964C935BC050964C93B2
S1134F7058C01F964C9355C0AA5BBF4F4D935C938A
S1134F8050C094964C934DC05A964C934AC05B962D
S1134F904C9347C059964C9344C09B965C934E9354
S1134FA09A973FC091964C933CC09F965C934E93C6
S1134FB09E9737C09D965C934E939C9732C0DD9626
S1134FC05C934E93DC972DC090964C932AC0989690
S1134FD04C9327C015964C9324C01B964C9321C028
S1134FE0D1965C934E93D0971CC058964C9319C09D
S1134FF057964C9316C099964C9313C092964C9323
S113500010C0D3965C934E93D2970BC0A85BBF4F4E
S11350104D935C9306C05F968C91813011F440935C
S1135020AD07DF91CF910895882309F1AFEFA80F61
S1135030B0E0119660E070E08FEF9FEFFB01EC5A57
S1135040F74F2081822728E0AC01417055279695BF
S11350508795452B21F031E0832730EA93272150AF
S113506099F76F5F7F4F6A177B0741F702C08FEF95
S11350709FEF9827892798270895EF92FF920F931F
S11350801F93CF93DF93882371F18150082F10E091
S11350900F5F1F4FC0E0D0E00F2EF5E0EF2EFF248E
S11350A0F394F02D8091410B882349F0FE01EC5AD2
S11350B0F74F60818BEE97E00E94C50D10C0809180
S11350C09309882361F0F701808184608083FE0165
S11350D0EC5AF74F608182E398E00E94C50D219657
S11350E0C017D107F9F6E5E0F1E080818470808390
S11350F00000DF91CF911F910F91FF90EF900895E1
S1135100AF92BF92CF92DF92EF92FF920F931F93D1
S1135110CF93DF938091410B882329F08BEE97E0A6
S11351200E94BC0D09C080919309882309F4DAC058
S113513082E398E00E94BC0D90910D089111D7C0B4
S11351409FEF980F973008F4D2C090915408913093
S113515009F0CDC0282F30E0F901EE5AF74FD08185
S1135160F901ED5AF74FC08182505EDF2C2F30E0F9
S11351703D2B2817390709F0BAC0E4E5F8E021818E
S113518020930E088281C381D0E0D82B848145818D
S113519050E0582B7A01EE0CFF1CCA01880F991FAE
S11351A0880F991F880F991FE80EF91EEC0EFD1E3B
S11351B0233009F065C09E01ADECBCEC0E944C5854
S11351C09695879596958795969587959C01220F38
S11351D0331F880F991F880F991F880F991F820FFB
S11351E0931F9E01281B390B2130310551F02230C9
S11351F0310571F40F2EFEE7CF2EFAE0DF2EF02DED
S113520009C00F2EF4EFCF2EF9E0DF2EF02D02C0EF
S1135210C12CD12CA42EAA0C0F2EF5E0BF2EF02DFC
S1135220BA0CE4E5F8E081E0808383E08183A28224
S1135230CE15DF05A8F403E010E0AE0164E979E0DF
S1135240C6010CDCF801EC5AF74F9083F801EB5AD5
S1135250F74F80830E5F1F4F2A96CE15DF0568F344
S113526083E08A0DE1DE2B2D30E0F901EE5AF74F91
S11352709083F901ED5AF74F80838B2DFEDE37C002
S1135280203109F034C0CE15DF05B0F407E010E09A
S1135290F801EC5AF74F8081F801EB5AF74F40813F
S11352A050E0582BBE0184E999E0F6DD0E5F1F4FF4
S11352B02A96CE15DF0560F30FB6F8940F9240E6F8
S11352C050E060E070E084E999E00E947D5B0F901B
S11352D00FBE86E0A9DEE4E5F8E09683878388E0E4
S11352E0CCDE05C080910D08882309F42ECFDF9110
S11352F0CF911F910F91FF90EF90DF90CF90BF90CF
S1135300AF9008958F929F92AF92BF92CF92DF9207
S1135310EF92FF920F931F93CF93DF930E94B81DD8
S1135320EC018FEB92E09F938F9382E398E09F933D
S11353308F930E94340D88810F900F900F900F90DF
S1135340843009F073C02091980930E0A8EEB3E0EE
S11353500E944C584B015C0120E1820E27E2921E10
S1135360A11CB11C80ED92E09F938F9382E398E09F
S11353709F938F930E94340D0F900F900F900F9076
S11353808091F7098823E1F088EE92E09F938F9350
S113539082E398E09F938F930E94340D8091BC091F
S11353A00F900F900F900F90813021F4A4981092D9
S11353B0020A06C0811104C0A49A81E08093020A03
S11353C08091F809811104C08091F6098823D9F0ED
S11353D08FEF92E09F938F9382E398E09F938F9354
S11353E00E94340D8091BC090F900F900F900F9084
S11353F0811104C0A4981092020A05C0813019F4E6
S1135400A49A8093020A0F2EF4E6CF2ED12CE12C1D
S1135410F12CF02D00E010E0A501940164E08091EE
S11354206C0A90916D0A0E94911B6BC0813109F046
S113543068C02091970930E0A8EEB3E00E944C5870
S11354404B015C0187E193E09F938F9382E398E0A3
S11354509F938F930E94340D0F900F900F900F9095
S11354608091810A8823E1F08FE293E09F938F93E8
S113547082E398E09F938F930E94340D8091BC093E
S11354800F900F900F900F90813021F4A3981092F9
S11354908C0A06C0811104C0A39A81E08093020A99
S11354A08091800A8823D9F086E493E09F938F93B8
S11354B082E398E09F938F930E94340D8091BC09FE
S11354C00F900F900F900F90811104C0A398109229
S11354D08C0A05C0813019F4A39A80938C0A0F2E8C
S11354E0F4E6CF2ED12CE12CF12CF02D00E010E0CD
S11354F0A501940164E080916E0A90916F0A0E9464
S1135500911BDF91CF911F910F91FF90EF90DF904E
S1135510CF90BF90AF909F908F9008958F929F925D
S1135520AF92BF92CF92DF92EF92FF920F931F93AD
S11355300E94B81DFC012091940930E0A8EEB3E06C
S11355400E944C584B015C018081823009F040C0BC
S11355508DE593E09F938F9382E398E09F938F93DD
S11355600E94340D809100010F900F900F900F90C6
S113557083FD70C081E08093000AE2E0F1E0808165
S1135580886080838FE899E00E9494056093080BFB
S11355907093090B80930A0B90930B0BE6EDF9E0E3
S11355A0808191810196918380830F2EF4E6CF2E22
S11355B0D12CE12CF12CF02D00E010E0A501940198
S11355C064E08091120B9091130B0E94911B42C0D6
S11355D08F3009F03FC08FE693E09F938F9382E36F
S11355E098E09F938F930E94340D809100010F9057
S11355F00F900F900F9084FD2DC082E080938A0A53
S1135600E2E0F1E08081806180838FE899E00E948C
S1135610940560931C0B70931D0B80931E0B909349
S11356201F0BEAEEF9E080819181019691838083DA
S11356300F2EF4E6CF2ED12CE12CF12CF02D00E02E
S113564010E0A501940164E08091240B9091250B56
S11356500E94911B1F910F91FF90EF90DF90CF90CC
S1135660BF90AF909F908F9008958F929F92AF922A
S1135670BF92CF92DF92EF92FF920F931F93CF933B
S1135680DF93AC012091970930E0A8EEB3E00E94CB
S11356904C584B015C01CA010E94B81DEC01888181
S11356A08D3029F581E893E09F938F9382E398E00E
S11356B09F938F930E94340D0F900F900F900F9033
S11356C0949902C0A49A01C0A4980F2EF4E6CF2E98
S11356D0D12CE12CF12CF02D00E010E0A501940177
S11356E064E080918109909182090E94911B8881D4
S11356F08931B9F4939902C0A39A01C0A3980F2EDB
S1135700F4E6CF2ED12CE12CF12CF02D00E010E0AA
S1135710A501940164E08091020B9091030B0E9417
S1135720911BDF91CF911F910F91FF90EF90DF902C
S1135730CF90BF90AF909F908F9008958F929F923B
S1135740AF92BF92CF92DF92EF92FF920F931F938B
S1135750AC012091950930E0A8EEB3E00E944C58CA
S11357604B015C01CA010E94B81DFC0180818A3092
S113577031F5949B11C0A49884E993E09F938F938F
S113578082E398E09F938F930E94340D1092020A53
S11357900F900F900F900F900F2EF4E6CF2ED12C78
S11357A0E12CF12CF02D00E010E0A501940164E05F
S11357B080918B0990918C090E94911B27C087319D
S11357C029F5939B11C085EA93E09F938F9382E31D
S11357D098E09F938F930E94340DA39810928C0AA3
S11357E00F900F900F900F900F2EF4E6CF2ED12C28
S11357F0E12CF12CF02D00E010E0A501940164E00F
S11358008091F20A9091F30A0E94911B1F910F91CB
S1135810FF90EF90DF90CF90BF90AF909F908F90CC
S113582008950E94B81DFC0180818730A1F4E4EF43
S1135830F9E0118A81E0858386EB93E09F938F934F
S113584082E398E09F938F930E94340D0F900F9002
S11358500F900F900895843199F4EEE7FAE0118ADD
S113586081E085838BEC93E09F938F9382E398E0B0
S11358709F938F930E94340D0F900F900F900F9071
S113588008950E94B81DFC018081863091F481E066
S11358908093F50980EE93E09F938F9382E398E0E1
S11358A09F938F930E94340D0F900F900F900F9041
S11358B00895833189F481E080937F0A82EF93E035
S11358C09F938F9382E398E09F938F930E94340D6C
S11358D00F900F900F900F9008958F929F92AF9218
S11358E0BF92CF92DF92EF92FF920F931F9320917A
S11358F0970930E0A8EEB3E00E944C584B015C01DC
S113590084E094E09F938F9382E398E09F938F9336
S11359100E94340D0F900F900F900F908091F80912
S1135920882371F1809100018823E4F0E2E0F1E042
S113593080818068808381E08093010A8FE899E008
S11359400E9494056093200B7093210B8093220B8B
S11359509093230BEAEDF9E0808191810196918384
S113596080830EC084E194E09F938F9382E398E058
S11359709F938F930E94340D0F900F900F900F9070
S11359808091F609811105C08091F709882309F4F3
S11359904DC08091000188230CF048C0E2E0F1E0A2
S11359A080818F7780831092010AC090200BD09061
S11359B0210BE090220BF090230B8FE899E00E94DA
S11359C09405A70196010E948F05C090D907D09035
S11359D0DA07E090DB07F090DC07DC01CB018C0DEB
S11359E09D1DAE1DBF1D8093D9079093DA07A09328
S11359F0DB07B093DC0781319E40A105B105B0F00F
S1135A00E4E9F9E084AD95AD019695AF84AF40E645
S1135A1050E060E070E0CF010E945C5B1092D90717
S1135A201092DA071092DB071092DC070F2EF4E6CF
S1135A30CF2ED12CE12CF12CF02D00E010E0A501AB
S1135A40940164E08091100B9091110B0E94911BC2
S1135A501F910F91FF90EF90DF90CF90BF90AF9088
S1135A609F908F9008958F929F92AF92BF92CF9202
S1135A70DF92EF92FF920F931F930E94B81DFC01D7
S1135A808081883009F076C02091980930E0A8EE32
S1135A90B3E00E944C584B015C018091000183FFEC
S1135AA056C0E2E0F1E08081877F808383E294E066
S1135AB09F938F9382E398E09F938F930E94340D7A
S1135AC01092000AC090080BD090090BE0900A0BCA
S1135AD0F0900B0B8FE899E00E949405A7019601C2
S1135AE00E948F05C090CD07D090CE07E090CF07DD
S1135AF0F090D007DC01CB018C0D9D1DAE1DBF1DA8
S1135B008093CD079093CE07A093CF07B093D0078F
S1135B100F900F900F900F9081319E40A105B10519
S1135B20B0F0E4E9F9E084A995A9019695AB84ABBA
S1135B3040E650E060E070E0CF010E945C5B1092B0
S1135B40CD071092CE071092CF071092D0070F2ED8
S1135B50F4E6CF2ED12CE12CF12CF02D00E010E056
S1135B60A501940164E080916A0A90916B0A0E94F5
S1135B70911B7BC0853109F078C084E394E09F9346
S1135B808F9382E398E09F938F930E94340D8091CA
S1135B9000010F900F900F900F9084FF49C0E2E036
S1135BA0F1E080818F7E808310928A0AC0901C0B62
S1135BB0D0901D0BE0901E0BF0901F0B8FE899E026
S1135BC00E949405A70196010E948F05C090C90701
S1135BD0D090CA07E090CB07F090CC07DC01CB0152
S1135BE08C0D9D1DAE1DBF1D8093C9079093CA07E0
S1135BF0A093CB07B093CC0781319E40A105B1059A
S1135C00B8F0EEEDF9E08081918101969183808373
S1135C1040E650E060E070E084E999E00E945C5B5B
S1135C201092C9071092CA071092CB071092CC07A2
S1135C304091960988EE93E0489F9001499F300D6A
S1135C401124032E000C440B550B0F2EF4E6CF2E1B
S1135C50D12CE12CF12CF02D00E010E064E08091D7
S1135C60890990918A090E94911B1F910F91FF90BD
S1135C70EF90DF90CF90BF90AF909F908F9008955A
S1135C808F929F92AF92BF92CF92DF92EF92FF9248
S1135C900F931F932091960930E0A8EEB3E00E9481
S1135CA04C584B015C0185E494E09F938F9382E30D
S1135CB098E09F938F930E94340D809100010F9080
S1135CC00F900F900F9088230CF048C0E2E0F1E0B1
S1135CD080818F7780831092010AC090200BD0902E
S1135CE0210BE090220BF090230B8FE899E00E94A7
