:100000006CC500008BC5000089C5000087C50000D5
:1000100085C5000083C5000081C500007FC50000C4
:100020007DC500007BC5000079C5000077C50000D4
:1000300075C5000073C5000071C500006FC50000E4
:100040006DC500000C94A02269C5000067C50000C2
:1000500065C5000063C5000061C500005FC5000004
:100060005DC500000C948F100C94171157C500004B
:1000700055C5000053C5000051C500004FC5000024
:1000800055C700004BC5000049C5000047C500002A
:100090000C9460110C94BF1141C500003FC50000D5
:1000A0003DC500003BC5000039C5000037C5000054
:1000B00035C5000033C5000031C500002FC5000064
:1000C0002DC500002BC5000029C500000C940812A6
:1000D0000C94671223C500000C94B0120C943813D2
:1000E0001DC500000C0D0C0D110D110D160D160D7A
:1000F0001B0D1B0D7D0D7D0D780D780D730D730D92
:100100006E0D6E0D310E310E380E380E3F0E3F0E55
:10011000460E460EBD0EEE0E280F590F930FC40F5C
:1001200002103310391D391D391D841D6D1D811DAF
:10013000391D391D841D6D1D2A273E263E26472860
:100140004728472847284728472847282E27432657
:10015000432647284728472847284728472847282D
:10016000322748264826472847284728472847282F
:100170004728472836274D264D2647284728472811
:1001800047284728472847283A27522652264728F3
:100190004728472847284728472847283E275726E3
:1001A00057264728472847284728472847284728C9
:1001B00042275C265C2647284728472847284728A7
:1001C0004728472846276C266C2647284728472873
:1001D00047284728472847284A277C267C2647283F
:1001E0004728472847284728472847284E278C264E
:1001F0008C26472847284728472847284728472844
:1002000052279C269C2647284728472847284728C6
:10021000472847285627A126A126472847284728A8
:1002200047284728472847285A27B126B126472874
:100230004728472847284728472847285E27C026B9
:10024000C0264728472847284728472847284728BF
:100250006227D026D02647284728472847284728FE
:10026000472847286627E026E026472847284728CA
:1002700047284728472847286A27F026F026472896
:100280004728472847284728472847286E27002718
:10029000002747284728472847284728472847282E
:1002A000722710271027472847284728472847281C
:1002B00047284728762720272027472847284728E8
:1002C00047284728472847287A2747284728472884
:1002D0004728472847284728472847287E27472870
:1002E0004728472847284728472847284728472896
:1002F000822747284728472847284728472847284C
:100300004728472886274728472847284728472837
:1003100047284728472847288A2747284728472823
:100320004728472847284728472847289527472808
:100330004728472847284728472847284728472845
:1003400099274728472847284728472847284728E4
:10035000472847289D2747284728472847284728D0
:100360004728472847284728A127472847284728BC
:10037000472847284728472847284728A527EE2702
:10038000122847284728472847284728472847282A
:10039000AB27F12718284728472847284728472808
:1003A00047284728AF27F7271E28472847284728E8
:1003B0004728472847284728B327FD2724284728C8
:1003C000472847284728472847284728B72703288A
:1003D0002A284728472847284728472847284728C2
:1003E000BB2706283028472847284728472847287A
:1003F00047284728BE27472847284728472847280F
:100400004728472847284728C22709283628472849
:10041000472847284728472847284728C5270C2822
:100420003C2847284728472847284728472847285F
:10043000C8270F2842284728472847284728472801
:1004400047284728CB2747284728472847284728B1
:100450004728472847284728CF274728472847289D
:10046000472847284728472847284728D327472889
:100470004728472847284728472847284728472804
:10048000D727472847284728472847284728472865
:1004900047284728DB274728472847284728472851
:1004A0004728472847284728DE274728472847283E
:1004B000472847284728472847284728E22747282A
:1004C00047284728472847284728472847284728B4
:1004D000E627472847284728472847284728472806
:1004E00047284728EA275B281029102910291029B6
:1004F000102910291029102910295D2810291029E8
:1005000010291029102910291029102910296028D4
:100510001029102910291029102910291029102913
:1005200010296328102910291029102910291029B1
:10053000102910291029662810291029102910299E
:10054000102910291029102910296928102910298B
:1005500010291029102910291029102910296C2878
:1005600010291029102910291029102910291029C3
:1005700010296F2810291029102910291029102955
:100580001029102910297228102910291029102942
:10059000102910291029102910297528102910292F
:1005A000102910291029102910291029102978281C
:1005B0001029102910291029102910291029102973
:1005C00010297B28102910291029102910291029F9
:1005D0001029102910297E281029102910291029E6
:1005E00010291029102910291029812810291029D3
:1005F00010291029102910291029102910298428C0
:100600001029102910291029102910291029102922
:10061000102987281029102910291029102910299C
:100620001029102910298A28102910291029102989
:10063000102910291029102910298D281029102976
:100640001029102910291029102910291029902863
:1006500010291029102910291029102910291029D2
:100660001029932810291029102910291029102940
:10067000102910291029962810291029102910292D
:10068000102910291029102910299928102910291A
:1006900010291029102910291029102910299C2807
:1006A0001029102910291029102910291029102982
:1006B00010299F28102910291029102910291029E4
:1006C000102910291029A2281029102910291029D1
:1006D00010291029102910291029AF2810291029B4
:1006E0001029102910291029102910291029B228A1
:1006F0001029102910291029102910291029102932
:100700001029B5281029102910291029102910297D
:10071000102910291029B82810291029102910296A
:1007200010291029102910291029BB281029102957
:100730001029102910291029102910291029C02842
:1007400010291029102910291029102910291029E1
:100750001029C3281029102910291029102910291F
:10076000102910291029C62810291029102910290C
:1007700010291029102910291029C92810291029F9
:100780001029102910291029102910291029CC28E6
:100790001029102910291029102910291029102991
:1007A0001029D128102910291029102910291029C1
:1007B000102910291029D4281029102910291029AE
:1007C00010291029102910291029D9281029102999
:1007D0001029102910291029102910291029DE2884
:1007E000002905290A291029102910291029102962
:1007F0001029E3281029102910291029102910295F
:10080000102910291029E62810291029102910294B
:1008100010291029102910291029E9281029102938
:100820001029102910291029102910291029EC2825
:1008300010291029102910291029102910291029F0
:100840001029EF2810291029102910291029102902
:10085000102910291029F4281029102910291029ED
:1008600010291029102910291029F72810291029DA
:100870001029102910291029102910291029FA28C7
:1008800010291029102910291029102910291029A0
:100890001029FD2808000000BE922449123EABAA90
:1008A000AA2ABECDCCCC4C3E00000080BEABAAAA8A
:1008B000AA3E00000000BF000000803F00000000D2
:1008C00000084178D3BB4387D1133D190E3CC3BD0B
:1008D0004282AD2B3E68EC8276BED98FE1A93E4CB8
:1008E00080EFFFBE01C4FF7F3F00000000006E618B
:1008F0006E00696E660000407A10F35A00A0724ED6
:1009000018090010A5D4E80000E87648170000E4B4
:100910000B54020000CA9A3B000000E1F5050000FC
:1009200080969800000040420F000000A086010061
:100930000000102700000000E80300000000640031
:10094000000000000A00000000000100000000009C
:100950002C76D888DC674F0823DFC1DFAE59E1B1C0
:10096000B796E5E3E453C63AE651997696E8E6C2CF
:100970008426EB898C9B62ED407C6FFCEFBC9C9FD6
:1009800040F2BAA56FA5F490055A2AF75C936B6CF8
:10099000F9676DC11BFCE0E40D47FEF520E6B500EC
:1009A000D0ED902E0300943577050080841E08005A
:1009B00000204E0A000000C80C333333330F986E0A
:1009C00012831141EF8D2114893BE65516CFFEE6C7
:1009D000DB18D1844B381BF77C1D901DA4BBE4248D
:1009E000203284725E228100C9F124ECA1E53D270A
:1009F0009A99C9C133336BC13333D3C0CDCCCC3D0D
:100A000048E1A24066662E41000078419A999D41D6
:100A10000000BC41CDCCD8413333F3416666064279
:100A2000666612429A991D4266662842CDCC3242D1
:100A3000CDCC2842666646429A994F426666584235
:100A4000333361429A9969429A99714233337942B8
:100A50009A99804233338442CDCC874266668B427A
:100A600000008F42666692429A999542CDCC984298
:100A70000AE816E00F2EFAEBEF2EF6E0FF2EF02D2F
:100A800080918906882311F10FB6F8940F92D8014E
:100A90001796ED91FC911897C085D185CE010296ED
:100AA00024D380917D06815080937D0680918906B4
:100AB0008150809389060F900FBE8B8D9C8D75D0D1
:100AC000CE0173D0809189068111DECFF70180813C
:100AD000823008F03DD173D2D3CF11241FBECFEFA7
:100AE000D1E2DEBFCDBF00E00CBF16E0A0E0B2E077
:100AF000E6E7FCEB00E00BBF02C007900D92AA36C0
:100B0000B107D9F72AE0AAE6B6E001C01D92A93BD9
:100B1000B207E1F70E94C0210C94395E71CA621BD2
:100B2000730B840B950B0895FC010FB6F89460913C
:100B3000B50A7091B60A8091B70A9091B80A0FBEB3
:100B4000309721F0608371838283938308958F931C
:100B50008FB78F93F8948091B50A8F5F8093B50A11
:100B60008091B60A8F4F8093B60A8091B70A8F4F53
:100B70008093B70A8091B80A8F4F8093B80A8F91FB
:100B80008FBF8F910895CF93DF93EC010E948B1656
:100B9000CE010E94005BEC010E947417209709F4BB
:100BA00027D2CE01DF91CF910895CF93DF930097A5
:100BB00041F0EC010E948B16CE010E94985B0E94CE
:100BC0007417DF91CF91089531E1FC0130833197A3
:100BD00022E220833197A3E3A0833197608331978A
:100BE00070833197108231971082319760E860836B
:100BF000319710823197108231971082319762E0DD
:100C00006083319763E06083319764E0608331975C
:100C100065E06083319766E06083319767E06083C9
:100C2000319768E06083319769E06083319760E1D4
:100C3000608331973083319732E13083319733E1EC
:100C40003083319734E13083319735E13083319708
:100C500036E13083319737E13083319738E13083A3
:100C6000319739E13083319730E23083319731E287
:100C7000308331972083319723E22083319740835B
:100C800031975083319726E22083319727E22083E2
:100C9000319728E22083319729E22083319720E39E
:100CA0002083319721E320838997089588EE93E08C
:100CB000A0E0B0E08093510790935207A0935307B0
:100CC000B09354078093550790935607A093570706
:100CD000B09358071092990089EF809398008BE0A9
:100CE00080939100E1E7F0E0808182608083A091B1
:100CF000E606B091E706CD91CDBFDD91DEBFFF9155
:100D0000EF91DF91CF91BF91AF919F918F917F91A3
:100D10006F915F914F913F912F911F910F91FF9094
:100D2000EF90DF90CF90BF90AF909F908F907F908B
:100D30006F905F904F903F902F901F900F900CBE40
:100D40000F900BBE0F900FBE0F90089581E0089595
:100D50000F920FB6F8940F920BB60F920CB60F923B
:100D60001F9211242F923F924F925F926F927F9227
:100D70008F929F92AF92BF92CF92DF92EF92FF92AB
:100D80000F931F932F933F934F935F936F937F9393
:100D90008F939F93AF93BF93CF93DF93EF93FF9383
:100DA000A091E606B091E7060DB60D920EB60D9233
:100DB0000E940918A091E606B091E706CD91CDBF3B
:100DC000DD91DEBFFF91EF91DF91CF91BF91AF91A8
:100DD0009F918F917F916F915F914F913F912F9153
:100DE0001F910F91FF90EF90DF90CF90BF90AF9049
:100DF0009F908F907F906F905F904F903F902F903B
:100E00001F900F900CBE0F900BBE0F900FBE0F9057
:100E100008950F920FB6F8940F920BB60F920CB67E
:100E20000F921F9211242F923F924F925F926F92D6
:100E30007F928F929F92AF92BF92CF92DF92EF926A
:100E4000FF920F931F932F933F934F935F936F9353
:100E50007F938F939F93AF93BF93CF93DF93EF9342
:100E6000FF93A091E606B091E7060DB60D920EB67F
:100E70000D9213BE8091550790915607A091570788
:100E8000B09158070197A109B10980935507909334
:100E90005607A0935707B0935807892B8A2B8B2BA3
:100EA00089F455DE8091510790915207A091530724
:100EB000B09154078093550790935607A093570716
:100EC000B09358070E949F1681110E940918A091A3
:100ED000E606B091E706CD91CDBFDD91DEBFFF9173
:100EE000EF91DF91CF91BF91AF919F918F917F91C2
:100EF0006F915F914F913F912F911F910F91FF90B3
:100F0000EF90DF90CF90BF90AF909F908F907F90A9
:100F10006F905F904F903F902F901F900F900CBE5E
:100F20000F900BBE0F900FBE0F90089572DF1895B3
:100F3000811106C0ECE7F0E080818F7D8083089509
:100F4000ECE7F0E0808180628083089580917A00F0
:100F500086FB882780F90895803218F597E89093EA
:100F60007A0090917C00662311F0906C02C09F770C
:100F70009064907E883040F0EBE7F0E020812860BC
:100F800020838850892B06C0EBE7F0E02081277F83
:100F90002083892B80937C00EAE7F0E080818064E5
:100FA0008083089580917C0085FF04C08091790042
:100FB00090E00895809178009091790008958FEFE6
:100FC00080937E0080937D0080B7877F80BF80B74D
:100FD000806880BF83B7817F83BF0FB6F8940F927C
:100FE00083B7816083BF0F900FBE889513BE0895AD
:100FF000279A2F9A00001F9AFDCF279A2F9A00C098
:101000001F9AFDCFFC010396928381834FEF5FEF20
:10101000BA0143835483658376839087878392875D
:10102000818710820895FC01138612860895CF935C
:10103000DF939C01FB01DC011196CD91DC911297AD
:10104000D583C4838E819F81978386838E819F8180
:10105000DC0115967C936E9314977F836E833387A0
:101060002287F90180818F5F8083DF91CF9108957E
:101070000F931F93CF93DF93EB01088119812A818E
:101080003B810F3F4FEF14072407340721F4FC0185
:10109000A185B28511C0DC01139601C0DF01149651
:1010A000ED91FC9115974081518162817381041704
:1010B00015072607370790F71496ED91FC911597C1
:1010C000FD83EC83D783C683BF83AE831596DC9301
:1010D000CE9314979B878A87FC0120812F5F208302
:1010E000DF91CF911F910F910895CF93DF93FC0172
:1010F000A285B385C481D581868197819F838E83A4
:10110000C681D781848195819D838C8311968D9131
:101110009C911297E817F90731F48681978112960E
:101120009C938E931197138612868C9181508C9389
:101130008C91DF91CF9108950FB6F8940F92FC0136
:10114000968D0F900FBE81E0911180E008950F936E
:101150001F93CF93DF93EC01042F1E8D48A1411103
:101160000CC088819981892B09F042C08A819B81BA
:101170000E942A1A1B821A8242C0011117C050E035
:101180008C819D810E94045D28A18C819D81820FAC
:10119000911D9D838C832A813B818217930750F197
:1011A000888199819D838C8380E029C050E08E8165
:1011B0009F810E94045D88A190E09195819591099D
:1011C0002E813F81280F391F3F832E83488159810B
:1011D0002417350730F42A813B81820F931F9F83A8
:1011E0008E83023049F4112349F0115080E007C08A
:1011F00080E005C080E003C080E001C080E01F5FA8
:101200001E8FDF91CF911F910F910895FC0140A196
:101210004423A9F050E026813781240F351F3783FE
:101220002683828193812817390720F0808191815C
:1012300097838683CB01668177810C94045D089542
:10124000EF92FF920F931F93CF938C010FB6F894F8
:101250000F92FC01C2A11C16ACF48389811106C057
:1012600011C0F8018389811105C00CC07801F3E138
:10127000EF0EF11CC7010E94021981110E94AA19E8
:10128000C15079F78FEFF80182A30F900FBE0FB610
:10129000F8940F92C1A11C16ACF48085811106C090
:1012A00011C0F8018085811105C00CC07801F8E0FB
:1012B000EF0EF11CC7010E94021981110E94AA19A8
:1012C000C15079F78FEFF80181A30F900FBECF9136
:1012D0001F910F91FF90EF900895CF93DF93EC0152
:1012E0000FB6F8940F924881598128A130E07F8D84
:1012F000729FC001739F900D1124FA01E80FF91F2E
:10130000FB83EA831E8E5D834C83821B930B840FC9
:10131000951F9F838E838FEF89A38AA361110BC0D2
:101320008885882371F0CE0108960E9402198823CF
:1013300041F00EDD06C0CE01089664DECE01439674
:1013400061DE0F900FBE81E0DF91CF9108950F9382
:101350001F93CF93DF93082F162F6623B1F0869F3C
:10136000C001112483960FDCEC01009739F413C0FF
:101370000F8F18A361E0CE01B0DF0DC08396998373
:101380008883F6CFD983C883F3CF83E290E0FBDB79
:10139000EC01892BB9F7CE01DF91CF911F910F910D
:1013A00008959F92AF92BF92CF92DF92EF92FF92F9
:1013B0000F931F93CF93DF93CDB7DEB729970FB667
:1013C000F894DEBF0FBECDBF7C015B012E833F834F
:1013D0004887598710E0992493946C0188E0C80EDF
:1013E000D11C0FB6F8940F92F701968D878D981740
:1013F00010F00230B1F4402FB501C701A8DEF701AB
:101400009389992341F0C70143960E9402198823CA
:1014100021F09EDC02C081119BDC0F900FBE81E0A9
:1014200052C08E819F81A885B985892B8A2B8B2BF1
:1014300021F40F900FBE80E046C0111105C0CE010F
:1014400001960E944419192D0F900FBE0E948B1611
:101450000FB6F8940F92F70181A18F3F09F411A202
:10146000F70182A18F3F09F412A20F900FBEBE01B7
:101470006A5F7F4FCE0101960E94551981111EC0EF
:101480000FB6F8940F92F701968D878D0F900FBECF
:1014900098130FC04E815F8168857985C6010E94CF
:1014A000CB18C701CDDE0E94741781119ACF50DC92
:1014B00098CFC701C5DE0E94741793CFC701C0DE65
:1014C0000E94741780E029960FB6F894DEBF0FBE15
:1014D000CDBFDF91CF911F910F91FF90EF90DF90E3
:1014E000CF90BF90AF909F9008950F93CF93DF93CD
:1014F000482F60E081E02BDFEC01009761F01B8258
:101500001A82198218821E8200E020E030E0A901D0
:1015100060E070E046DFCE01DF91CF910F9108953A
:10152000EF92FF920F931F93CF93DF938A01FC01F9
:10153000568D378D531710F02230E9F4422F780181
:10154000EC011AA104DE1F3F81F48B898823A9F0E6
:10155000CE0143960E940219882389F0E114F10418
:1015600081F081E0F70180830DC0FF24F394F10E38
:10157000FAA281E007C080E005C081E003C081E0FD
:1015800001C081E0DF91CF911F910F91FF90EF900B
:101590000895CF93DF93FC01868D978D8917C0F452
:1015A00092A18F5F868F9F3F79F48389882391F082
:1015B000EB01CF0143960E940219882369F020971E
:1015C00069F081E088830BC09F5F92A381E007C030
:1015D00080E005C081E003C081E001C081E0DF91CF
:1015E000CF9108959F92AF92BF92CF92DF92EF92E8
:1015F000FF920F931F93CF93DF93CDB7DEB7299759
:101600000FB6F894DEBF0FBECDBF8C015B012E83F9
:101610003F8348875987E12C992493946C0183E197
:10162000C80ED11C0FB6F8940F92F801F68CFF206B
:1016300099F0B501C801EADDFA94F801F68E8085CB
:10164000882331F0C80108960E940219811180DBBD
:101650000F900FBE81E051C08E819F81A885B98512
:10166000892B8A2B8B2B21F40F900FBE80E045C075
:10167000E11005C0CE0101960E944419E92C0F909B
:101680000FBE0E948B160FB6F8940F92F80181A13D
:101690008F3F09F411A2F80182A18F3F09F412A231
:1016A0000F900FBEBE016A5F7F4FCE0101960E9470
:1016B0005519811118C0C8013FDD882379F04E818A
:1016C0005F8168857985C6010E94CB18C801B8DDA5
:1016D0000E9474178111A6CF3BDBA4CFC801B0DDF7
:1016E0000E9474179FCFC801ABDD0E947417C80118
:1016F00023DD882309F496CF80E029960FB6F8946D
:10170000DEBF0FBECDBFDF91CF911F910F91FF9034
:10171000EF90DF90CF90BF90AF909F900895BF92D1
:10172000CF92DF92EF92FF920F931F93CF93DF93AD
:10173000CDB7DEB729970FB6F894DEBF0FBECDBF89
:101740008C014E835F8368877987B12CD12CCC24A0
:10175000C3947C0183E1E80EF11C0FB6F8940F925C
:10176000D8015E968C915E978823E1F081505E9659
:101770008C935E978D919C91892B29F40E94B61AC7
:10178000F80193838283D80118968C91882331F0D5
:10179000C80108960E9402198111DADA0F900FBE73
:1017A00081E07FC08E819F81A885B985892B8A2B96
:1017B0008B2B21F40F900FBE80E073C0D11005C0B9
:1017C000CE0101960E944419DC2C0F900FBE0E949E
:1017D0008B160FB6F8940F92F80181A18F3F09F490
:1017E00011A2D80192968C9192978F3F11F4929604
:1017F0001C920F900FBEBE016A5F7F4FCE01019613
:101800000E945519811127C0C80196DC8823F1F088
:10181000F80180819181892B51F40FB6F8940F92D1
:10182000828193810E94BC19B82E0F900FBE4E8109
:101830005F8168857985C7010E94CB18C80100DDEA
:101840000E947417811189CF83DA87CFC801F8DC31
:101850000E94741782CFC801F3DC0E947417C8017C
:101860006BDC882309F479CFBB20D1F00FB6F89454
:101870000F92F8018389882339F0028CF38DE02DD3
:10188000808164E0681B01C060E0D80112968D91F0
:101890009C9113970E946A1A0F900FBE80E001C0BE
:1018A00080E029960FB6F894DEBF0FBECDBFDF9162
:1018B000CF911F910F91FF90EF90DF90CF90BF904D
:1018C0000895CF93DF93EC010FB6F8940F9289A19E
:1018D0008F3F09F419A28AA18F3F09F41AA20F9031
:1018E0000FBE8E8D811104C0CE0143960E94E21876
:1018F000CE01A6DCDF91CF9108954F925F926F9257
:101900007F928F929F92AF92BF92CF92DF92EF928F
:10191000FF920F931F93CF93DF93EC01FB01019094
:101920000020E9F74B019F01215031090F2EF1E30F
:10193000EF2EFF24F394F02D01ED10E069EC70E040
:1019400041EC50E05C018DE0A80EB11C78C0D401E0
:10195000DD904D010FB6F8940F92ED85FE850F9046
:101960000FBE8F89988DE817F907F1F0F501828194
:101970009381DC01DC92828193810196938382833F
:10198000C084D1848C159D0521F486819781938331
:1019900082830FB6F8940F92808191810196918392
:1019A00080830F900FBE2BC000000FB6F8940F92EB
:1019B000ED85FE850F900FBE8F89988DE817F9078A
:1019C00009F43DC0F50182819381DC01DC928281C2
:1019D0009381019693838283C084D1848C159D0565
:1019E00021F486819781938382830FB6F8940F92B6
:1019F000808191810196918380830F900FBE4880F2
:101A0000512CB8E04B165104D0F4F2018827EE585F
:101A1000FF4F8F4F0C94E95AFA01808180628083D6
:101A20000EC0DB018C9180628C9309C0F80180812B
:101A30008062808304C0D7018C9180628C9382166F
:101A4000930609F084CFDF91CF911F910F91FF9002
:101A5000EF90DF90CF90BF90AF909F908F907F904E
:101A60006F905F904F9008950F931F93CF93DF93E4
:101A7000CDB7DEB708851985F801858D813029F449
:101A800067D9F801858D8130D9F381E0F801858F20
:101A9000638D748D9E01245F3F4F4A855B85818DE8
:101AA000928D0E945B5DF801618D728DC80125DF0A
:101AB000F801158EDF91CF911F910F910895CF936B
:101AC000DF93DC014C9150E048305105E8F5FA0114
:101AD0008827E658FF4F8F4F0C94E95A80913001C8
:101AE000882354F131C08091D0008823E4F02CC0C9
:101AF0008091C800882374F027C08091C00088239B
:101B00001CF5C6ECD0E0E0ECF0E088818081882311
:101B1000E4F31AC0CEECD0E0E8ECF0E088818081FC
:101B20008823E4F311C0C6EDD0E0E0EDF0E0888159
:101B300080818823E4F308C0C6E3D1E0E0E3F1E06C
:101B4000888180818823E4F30FB6F8940F9212966F
:101B50001C921E92119717968D919C91189714962E
:101B60009C938E93139716969C938E9315970F9034
:101B70000FBEDF91CF9108950FB6F8940F92FC013C
:101B8000818192810F900FBE0895CF93DF93DC0186
:101B90000FB6F8940F921D962D913C911E970F90C1
:101BA0000FBE57968D919C91589728173907F1F0E1
:101BB000FD013D96C281D381688382819381019624
:101BC00093838283208531858217930721F4868150
:101BD0009781938382830FB6F8940F9280819181CD
:101BE0000196918380830F900FBE2FC000000FB627
:101BF000F8940F921D962D913C911E970F900FBE59
:101C000057968D919C9158972817390709F445C02C
:101C1000FD013D96C281D3816883828193810196C3
:101C200093838283208531858217930721F48681EF
:101C30009781938382830FB6F8940F92808191816C
:101C40000196918380830F900FBE8C9190E0883035
:101C5000910528F5FC018827EE57FF4F8F4F0C9414
:101C6000E95AE1ECF0E080818062808381E018C075
:101C7000E9ECF0E080818062808381E011C0E1EDD9
:101C8000F0E080818062808381E00AC0E1E3F1E0DE
:101C900080818062808381E003C080E001C081E0B8
:101CA000DF91CF9108957F928F929F92AF92BF92D2
:101CB000CF92DF92EF92FF920F931F93CF93DF9318
:101CC000CDB7DEB7A2970FB6F894DEBF0FBECDBF7B
:101CD0006C01762E49015A01C7010E94C305009785
:101CE000A9F0FE0132960FB6F8940F92118210827D
:101CF0009383828395838483978386838E0D9F1D30
:101D000091878087F386E2860F900FBEC8010E94FC
:101D1000C3050097A9F0FE013E960FB6F8940F9206
:101D20001182108293838283958384839783868331
:101D3000800F911F91878087138702870F900FBEB6
:101D4000C8010E94C3059B8F8A8F79821D8F0C8FDB
:101D50001E8E8F8E98A2A9A2BAA20FB6F8940F92E7
:101D6000898190E08830910508F0BAC1FC0188278C
:101D7000E657FF4F8F4F0C94E95AD501C401975F86
:101D8000A24CBF4FBC01CD01660F771F881F991F62
:101D9000660F771F881F991F95018401000F111F7F
:101DA000221F331F000F111F221F331FA90198018B
:101DB000220F331F441F551F0E94C75A215031095B
:101DC0003093C5002093C40082E08093C00088E96E
:101DD0008093C1008EE08093C20082C104EC10E0C9
:101DE000F801118210826A9A80EC8093C20088E91F
:101DF0008093C100D501C40180589B47A14EBF4FBD
:101E0000880F991FAA1FBB1F880F991FAA1FBB1FEE
:101E1000BC01CD01660F771F881F991F880C991C84
:101E2000AA1CBB1C880C991CAA1CBB1CA5019401F4
:101E3000220F331F441F551F220F331F441F551FEE
:101E40000E94C75A21503109F8013183208348C1CB
:101E5000D501C401975FA24CBF4FBC01CD01660FF5
:101E6000771F881F991F660F771F881F991F95017D
:101E70008401000F111F221F331F000F111F221F8B
:101E8000331FA9019801220F331F441F551F0E94C1
:101E9000C75A215031093093CD002093CC0082E005
:101EA0008093C80088E98093C9008EE08093CA00BF
:101EB00017C10CEC10E0F80111821082559A80ECE9
:101EC0008093CA0088E98093C900D501C401805875
:101ED0009B47A14EBF4F880F991FAA1FBB1F880F9A
:101EE000991FAA1FBB1FBC01CD01660F771F881F5A
:101EF000991F880C991CAA1CBB1C880C991CAA1C35
:101F0000BB1CA5019401220F331F441F551F220F34
:101F1000331F441F551F0E94C75A21503109F80131
:101F200031832083DDC0D501C401975FA24CBF4F30
:101F3000BC01CD01660F771F881F991F660F771FA1
:101F4000881F991F95018401000F111F221F331F45
:101F5000000F111F221F331FA9019801220F331FE9
:101F6000441F551F0E94C75A215031093093D50094
:101F70002093D40082E08093D00088E98093D10040
:101F80008EE08093D200ACC004ED10E0F801118225
:101F90001082E1E0F1E080818460808380EC8093B6
:101FA000D20088E98093D100D501C40180589B47B5
:101FB000A14EBF4F880F991FAA1FBB1F880F991FE3
:101FC000AA1FBB1FBC01CD01660F771F881F991F79
:101FD000880C991CAA1CBB1C880C991CAA1CBB1C35
:101FE000A5019401220F331F441F551F220F331FD9
:101FF000441F551F0E94C75A21503109F8013183EF
:1020000020836EC0D501C401975FA24CBF4FBC01B5
:10201000CD01660F771F881F991F660F771F881FD6
:10202000991F95018401000F111F221F331F000FFC
:10203000111F221F331FA9019801220F331F441FB4
:10204000551F0E94C75A2150310930933501209302
:10205000340182E08093300188E9809331018EE081
:10206000809332013DC004E311E0F8011182108237
:10207000E4E0F1E080818460808380EC8093320131
:1020800088E980933101D501C40180589B47A14E56
:10209000BF4F880F991FAA1FBB1F880F991FAA1F28
:1020A000BB1FBC01CD01660F771F881F991F880CCD
:1020B000991CAA1CBB1C880C991CAA1CBB1CA50142
:1020C0009401220F331F441F551F220F331F441F3B
:1020D000551F0E94C75A21503109F80131832083CE
:1020E0000F900FBE82E2FE013196D60101900D9253
:1020F0008A95E1F7C601A2960FB6F894DEBF0FBE2F
:10210000CDBFDF91CF911F910F91FF90EF90DF90A6
:10211000CF90BF90AF909F908F907F9008951F9227
:102120000F920FB60F9211240BB60F922F933F937D
:102130004F935F936F937F938F939F93AF93BF93CF
:10214000CF93EF93FF938091C0008C7171F08091D9
:10215000C00088230CF057C0A6ECB0E0E0ECF0E043
:102160008C9180818823E4F34EC0C091C600809199
:10217000010981111DC081E08093A70A0E941226E7
:102180001092850010928400E0919F07F0E0EE53DA
:10219000F84FC08380919F078F5F80939F07809146
:1021A0009F078F3F19F481E080937B070E940726E9
:1021B0000FB6F8940F92E9E5F7E0218132810F9094
:1021C0000FBE8385948528173907E9F0EAE5F7E023
:1021D000A281B381CC938281938101969383828380
:1021E000208531858217930721F486819781938317
:1021F00082830FB6F8940F9280819181019691832A
:1022000080830F900FBEFF91EF91CF91BF91AF915F
:102210009F918F917F916F915F914F913F912F91FE
:102220000F900BBE0F900FBE0F901F9018951F922E
:102230000F920FB60F9211240BB60F922F938F931C
:102240009F93AF93BF93EF93FF930FB6F8940F92C2
:1022500080916607909167070F900FBE892B31F42C
:10226000E1ECF0E080818F7D80831CC0E6E6F7E042
:10227000A481B5812D91B583A48380859185A8170C
:10228000B90721F486819781958384830FB6F894EA
:102290000F92808191810197918380830F900FBE6F
:1022A0002093C600FF91EF91BF91AF919F918F91C5
:1022B0002F910F900BBE0F900FBE0F901F9018958F
:1022C0001F920F920FB60F9211240BB60F922F93FD
:1022D0003F934F938F939F93AF93BF93EF93FF934E
:1022E0008091C8008C7171F08091C80088230CF037
:1022F00036C0AEECB0E0E8ECF0E08C918081882351
:10230000E4F32DC04091CE000FB6F8940F92E1ECAB
:10231000F8E0218132810F900FBE838594852817C4
:102320003907E9F0E2ECF8E0A281B3814C938281B5
:102330009381019693838283208531858217930749
:1023400021F486819781938382830FB6F8940F924C
:10235000808191810196918380830F900FBEFF91C0
:10236000EF91BF91AF919F918F914F913F912F919D
:102370000F900BBE0F900FBE0F901F9018951F92DD
:102380000F920FB60F9211240BB60F922F938F93CB
:102390009F93AF93BF93EF93FF930FB6F8940F9271
:1023A0008091CE089091CF080F900FBE892B31F409
:1023B000E9ECF0E080818F7D80831CC0EEECF8E0DA
:1023C000A481B5812D91B583A48380859185A817BB
:1023D000B90721F486819781958384830FB6F89499
:1023E0000F92808191810197918380830F900FBE1E
:1023F0002093CE00FF91EF91BF91AF919F918F916C
:102400002F910F900BBE0F900FBE0F901F9018953D
:102410001F920F920FB60F9211240BB60F922F93AB
:102420003F934F938F939F93AF93BF93EF93FF93FC
:102430008091D0008C7171F08091D00088230CF0D5
:1024400036C0A6EDB0E0E0EDF0E08C91808188230D
:10245000E4F32DC04091D6000FB6F8940F92EDE74B
:10246000F7E0218132810F900FBE83859485281774
:102470003907E9F0EEE7F7E0A281B3814C9382815E
:1024800093810196938382832085318582179307F8
:1024900021F486819781938382830FB6F8940F92FB
:1024A000808191810196918380830F900FBEFF916F
:1024B000EF91BF91AF919F918F914F913F912F914C
:1024C0000F900BBE0F900FBE0F901F9018951F928C
:1024D0000F920FB60F9211240BB60F922F938F937A
:1024E0009F93AF93BF93EF93FF930FB6F8940F9220
:1024F00080918A0790918B070F900FBE892B31F442
:10250000E1EDF0E080818F7D80831CC0EAE8F7E098
:10251000A481B5812D91B583A48380859185A81769
:10252000B90721F486819781958384830FB6F89447
:102530000F92808191810197918380830F900FBECC
:102540002093D600FF91EF91BF91AF919F918F9112
:102550002F910F900BBE0F900FBE0F901F901895EC
:102560001F920F920FB60F9211240BB60F922F935A
:102570003F934F935F936F937F938F939F93AF930B
:10258000BF93CF93EF93FF93809130018C7171F0E3
:102590008091300188230CF057C0A6E3B1E0E0E35E
:1025A000F1E08C9180818823E4F34EC0C091360124
:1025B0008091A70A81111DC081E0809301090E94CA
:1025C00012261092850010928400E0919F07F0E09F
:1025D000EE53F84FC08380919F078F5F80939F07D2
:1025E00080919F078F3F19F481E080937B070E94C1
:1025F00007260FB6F8940F92E0EAF7E021813281C6
:102600000F900FBE8385948528173907E9F0E1EA1A
:10261000F7E0A281B381CC93828193810196938369
:102620008283208531858217930721F486819781E3
:10263000938382830FB6F8940F92808191810196E3
:10264000918380830F900FBEFF91EF91CF91BF9147
:10265000AF919F918F917F916F915F914F913F913A
:102660002F910F900BBE0F900FBE0F901F901895DB
:102670001F920F920FB60F9211240BB60F922F9349
:102680008F939F93AF93BF93EF93FF930FB6F894FD
:102690000F928091AD079091AE070F900FBE892BDE
:1026A00031F4E1E3F1E080818F7D80831CC0EDEAAD
:1026B000F7E0A481B5812D91B583A48380859185B0
:1026C000A817B90721F486819781958384830FB673
:1026D000F8940F92808191810197918380830F906C
:1026E0000FBE20933601FF91EF91BF91AF919F9163
:1026F0008F912F910F900BBE0F900FBE0F901F90D8
:1027000018950F93813071F018F08230A9F026C02F
:1027100084B1876084B9239885B1896085B9249A8A
:102720002C9A23C084B1876084B9239885B18960CD
:1027300085B99D9AA59A19C084B1876084B92398F8
:1027400085B1896085B9E1E0F1E0808180628083B4
:10275000E2E0F1E080818062808307C084B187601D
:1027600084B9239885B1896085B98CB580658CBDA5
:102770008DB58EB580916A0690916B06892B89F490
:1027800081E00E94750A90936B0680936A06009719
:1027900041F000E020E030E0A90160E070E00E943C
:1027A000D1090F9108959CB59C7F282F2370922BFF
:1027B0009CBD9DB582FB882780F99E7F892B8DBDAE
:1027C0000895811104C08CB580628CBD08958CB5CC
:1027D0008F7D8CBD08959CB5937F892B8CBD08950A
:1027E000CF93C82F48EE53E060E070E080916A0616
:1027F00090916B060E948F0B8130B1F4C13039F09B
:1028000018F0C23039F00DC02C9881E00EC0A598A8
:1028100081E00BC0E2E0F1E080818F7D808381E088
:1028200004C0289881E001C080E0CF9108950F9303
:10283000813031F018F0823029F00AC02C9A09C09A
:10284000A59A07C0E2E0F1E080818062808301C048
:10285000289A00E020E030E0A90160E070E080917B
:102860006A0690916B060E94D1090F910895282F56
:102870009CB5892F807496FF17C00CB404FC08C067
:102880008CB580618CBD9CB5892F807194FF0CC084
:102890002EBD000005C09CB5892F807194FF04C037
:1028A0000DB407FEF8CF8EB50895E091A206F09121
:1028B000A306808181110CC08FEF9FEFDC01809314
:1028C0006F0690937006A0937106B09372060895F8
:1028D000E091A206F091A3060780F085E02D008428
:1028E000F185E02D82819381A481B58180936F066B
:1028F00090937006A0937106B093720608958F921C
:102900009F92AF92BF92CF92DF92EF92FF92CF93BE
:102910006B017C01C42F8090790690907A06A0907C
:102920007B06B0907C068091E6069091E7060296C1
:102930000E9475088FEFC816D806E806F80669F4F5
:10294000CC2359F06091E6067091E7066E5F7F4FE9
:102950008EE796E00E9417083FC0C80CD91CEA1CFD
:10296000FB1CE091E606F091E706C282D382E48286
:10297000F582C814D904EA04FB0468F46091E60601
:102980007091E7068091A0069091A1066E5F7F4F3F
:102990000E94380821C06091E6067091E706809198
:1029A000A2069091A3066E5F7F4F0E943808809127
:1029B0006F0690917006A0917106B0917206C816CC
:1029C000D906EA06FB0640F4C0926F06D092700664
:1029D000E0927106F0927206CF91FF90EF90DF9037
:1029E000CF90BF90AF909F908F9008954F925F923D
:1029F0006F927F928F929F92AF92BF92CF92DF920F
:102A0000EF92FF920F93CF93DF934C016B015A012A
:102A10002901CA010E94C3053C01892B09F4ECC0BD
:102A200083E390E00E94C305EC01892BB1F07C8E1A
:102A30006B8EA50165EA70E0C3010E940D5D21E087
:102A4000A21AB1088B8D9C8DA80EB91ED6018C914F
:102A50008D8F8C91811105C018C0C3010E94D505CE
:102A6000CBC0AE01425E5F4FF6013196BFE0CB0EA8
:102A7000D11CCF012191DA012D93AD01DC018C91A4
:102A8000882319F0EC15FD05A1F71BA6043008F00A
:102A900003E00A8F0CA71DA66E01B2E0CB0ED11C7D
:102AA000C6010E941308CE010E960E941308DB8710
:102AB000CA8784E090E0A0E0B0E0801B9109A10902
:102AC000B1098E879F87A88BB98BDF8BCE8B1EA613
:102AD0001FA618AA19AA1AAAA201B401C5010E9428
:102AE000E40599838883E114F10419F0F701D18397
:102AF000C0830FB6F8940F9280917D068F5F80930C
:102B00007D068091E6069091E706892BD1F5D0935A
:102B1000E706C093E60680917D06813009F041C04A
:102B20008AEB96E00E94020885EC96E00E9402087B
:102B300080ED96E00E9402088BED96E00E9402086C
:102B40008FEA96E00E94020884EA96E00E9402085A
:102B500085E996E00E9402088AE896E00E94020851
:102B60008EE796E00E9402088FEA96E09093A30613
:102B70008093A20684EA96E09093A1068093A00633
:102B800010C08091770681110CC0E091E606F091AB
:102B9000E706928D8A8D891720F0D093E706C093BF
:102BA000E606809173068F5F809373068A8D9091FD
:102BB0007806981710F480937806FBE08F9FC00189
:102BC0001124B6018654994F0E9417080F900FBE2A
:102BD00080917706882361F0E091E606F091E706A0
:102BE000928D8A8D981730F40E94A80681E005C066
:102BF00081E003C081E001C08FEFDF91CF910F91A1
:102C0000FF90EF90DF90CF90BF90AF909F908F900C
:102C10007F906F905F904F9008950F931F93CF9385
:102C2000DF93009709F43DC02091E6063091E70656
:102C30008217930709F435C00FB6F8940F92FC0180
:102C4000248535852E57364051F5FC01208D318D78
:102C5000F6E025393F0719F1232B09F5EC018C012A
:102C60000E5F1F4FC8010E9475088A8D90917806EB
:102C7000981710F4809378062BE0829FC0011124EE
:102C8000B8018654994F0E941708E091E606F0912A
:102C9000E7069A8D828D981710F00E94A8060F9073
:102CA0000FBEDF91CF911F910F910895EF92FF9288
:102CB0000F930F2EFDE6EF2EF6E0FF2EF02D00E035
:102CC00020E030E040E850E066E172E088E395E023
:102CD0008DDE8130E1F4CED48130C9F4F8948FEFE9
:102CE0009FEFDC0180936F0690937006A0937106AE
:102CF000B093720681E08093770610927906109265
:102D00007A0610927B0610927C060E9456060F915E
:102D1000FF90EF90089580916C068F5F80936C0612
:102D200008950FB6F8940F926091790670917A0623
:102D300080917B0690917C060F900FBE08959F9224
:102D4000AF92BF92CF92DF92EF92FF920F931F93B9
:102D5000CF93DF9380916C068111ADC0C09079064E
:102D6000D0907A06E0907B06F0907C068FEFC81A30
:102D7000D80AE80AF80AC0927906D0927A06E09258
:102D80007B06F0927C06C114D104E104F104B1F495
:102D90008091A2069091A3062091A0063091A106F1
:102DA0003093A3062093A2069093A1068093A006D9
:102DB000809174068F5F8093740677DD80916F0633
:102DC00090917006A0917106B0917206C816D9064E
:102DD000EA06FB0610F4B12C5DC0B12C0F2EFBE00F
:102DE000AF2EF02D99249394E091A206F091A306C2
:102DF000808181110CC08FEF9FEFDC0180936F0603
:102E000090937006A0937106B093720643C0E09150
:102E1000A206F091A3060780F085E02DC085D1853C
:102E20008A819B81AC81BD81C816D906EA06FB0662
:102E300048F480936F0690937006A0937106B09348
:102E4000720628C08E010E5F1F4FC8010E947508D0
:102E5000888D998D892B21F0CE010E960E947508E0
:102E60008A8D90917806981710F480937806A89E22
:102E7000C0011124B8018654994F0E941708E091AF
:102E8000E606F091E7069A8D828D981708F4ACCF8C
:102E9000B92CAACFE091E606F091E706E28D8BE02F
:102EA000E89FF0011124E654F94F8081823048F008
:102EB000BB24B39406C0809176068F5F809376061C
:102EC000B12C80917506882311F0BB24B3948B2D0F
:102ED000DF91CF911F910F91FF90EF90DF90CF90F6
:102EE000BF90AF909F900895CF92DF92EF92FF92A4
:102EF0000F931F93CF93DF930FB6F8940F928091A7
:102F00006C06815080936C0680916C0681115AC0CA
:102F100080917D0681112CC058C0D7011796ED9184
:102F2000FC911897C085D185CE010E960E94750838
:102F30008E010E5F1F4FC8010E9475088A8D909107
:102F40007806981710F480937806D89EC001112453
:102F5000B8018654994F0E941708E091E606F09157
:102F6000E7069A8D828D981788F0C09275060EC07C
:102F7000C0E0D0E00F2EF5E9EF2EF6E0FF2EF02DA9
:102F80000F2EFBE0DF2EF02DCC24C394F7018081BF
:102F90008111C3CFCD2B09F088DCC0917606CC23FC
:102FA00049F0D1E0CCDE8111D0937506C150D1F744
:102FB0001092760680917506882331F00E94A8064B
:102FC00081E003C080E001C080E00F900FBEDF9180
:102FD000CF911F910F91FF90EF90DF90CF900895C8
:102FE000CF92DF92EF92FF926B017C01672B682BEF
:102FF000692B41F090DE40E0C701B60180DC74DF50
:10300000811102C00E94A806FF90EF90DF90CF9040
:10301000089580916C06882321F081E080937506E5
:10302000089510927506A091E606B091E706E0912A
:10303000E606F091E7062D913C91838D948D8217E1
:10304000930760F06091E6067091E7068091E606CE
:103050009091E706635E7F4F0E94FD07809178069E
:10306000282F30E09BE0899FF0011124E654F94FAE
:10307000908191110EC04BE08150282F30E0429F8B
:10308000F001439FF00D1124E654F94F90819923EC
:1030900099F39BE0929FA001939F500D1124DA01B8
:1030A000A654B94F1196ED91FC9112970480F581C9
:1030B000E02D1296FC93EE9311974354594FE41769
:1030C000F50729F444815581FD01528341839BE03A
:1030D000929FF001939FF00D1124E654F94F018067
:1030E000F281E02D208531853093E7062093E606B6
:1030F0008093780608950F931F93CF93DF93EC018D
:103100000FB6F8940F92892B21F4C091E606D09166
:10311000E7068E010E5F1F4FC8010E947508888D5B
:10312000998D892B21F0CE010E960E947508B80169
:103130008EE796E00E9417088AA9813009F41AAA3E
:103140000F900FBE80917706882331F00FB6F89468
:103150000F92ABDB0F900FBE8091E6069091E706D1
:10316000C817D90799F480917706882319F00E942F
:10317000A8060CC090917E0680917D06981305C02C
:103180001092E7061092E60601C043DFDF91CF916F
:103190001F910F910895CF92DF92EF92FF926A01F3
:1031A0007B016091E6067091E706625F7F4F0E94A7
:1031B000380841E0C701B601A2DBFF90EF90DF9035
:1031C000CF900895CF92DF92EF92FF92CF936A0152
:1031D0007B01C22F6091E6067091E706625F7F4F28
:1031E0000E941708CC2321F0CC24CA94DC2C760151
:1031F0004C2FC701B60183DBCF91FF90EF90DF909A
:10320000CF9008950F931F93CF93DF93DC01179610
:10321000ED91FC911897C085D1858E01025F1F4FFB
:10322000C8010E94750880916C06811116C00C506F
:103230001109C8010E9475088A8D90917806981727
:1032400010F480937806BBE08B9FC0011124B80175
:103250008654994F0E94170805C0B80185E996E089
:103260000E941708E091E606F091E7069A8D828D9C
:10327000891720F481E08093750601C080E0DF911A
:10328000CF911F910F91089520917406FC01208326
:103290004091790650917A0660917B0670917C0688
:1032A00041835283638374830895CF92DF92EF92B8
:1032B000FF920F931F93CF93DF93FB010FB6F89408
:1032C0000F924091790650917A0660917B06709139
:1032D0007C0600811181228133810F3FAFEF1A07F5
:1032E0002A073A0749F1EC01C980DA80EB80FC80BB
:1032F000A0917406B881BA1729F04C155D056E05CA
:103300007F05E0F44C195D096E097F0940175107EC
:103310006207730758F4041B150B260B370B008349
:10332000118322833383B0DF80E009C010821182D1
:103330001282138281E003C080E001C081E00F901F
:103340000FBEDF91CF911F910F91FF90EF90DF9013
:10335000CF90089581E08093750608958091770657
:10336000882331F080916C06882321F080E0089555
:1033700081E0089582E008950F931F93CF93DF9328
:10338000FC01892B09F460C0828DA091E606B09102
:10339000E7065A969C91891708F04AC046855785DA
:1033A00060897189772394F0A091E606B091E706D1
:1033B0005A969C9144E050E060E070E0491B51094E
:1033C0006109710946875787608B718B2BE0829F5B
:1033D000C00111248654994F248535852817390753
:1033E000F1F48F01EF012296CE010E947508E09161
:1033F000E606F091E706828DF801828F90917806BB
:10340000981710F480937806FBE08F9FC001112479
:10341000BE018654994F0E94170881E016C0A09102
:10342000E606B091E7065A968C91828F81E00DC036
:10343000A091E606B091E70681E024A55A969C91FA
:10344000291718F080E001C080E0DF91CF911F9133
:103450000F9108950F931F93CF93DF93FC01892B56
:1034600079F185A5815085A7228D94A5291751F161
:1034700081112AC0EF018F010E5F1F4FC8010E940A
:1034800075088CA58A8F44E050E060E070E0481B2E
:103490005109610971094E875F87688B798B90911B
:1034A0007806981710F4809378062BE0829FC0016D
:1034B0001124B8018654994F0E94170881E005C075
:1034C00080E003C080E001C080E0DF91CF911F91D8
:1034D0000F9108950F931F93CF93DF93FC01892BD6
:1034E00009F43FC084A5861708F4862F928D98179B
:1034F000C1F125A52130A9F5828F468557856089C0
:103500007189772364F044E050E060E070E0481B8C
:1035100051096109710946875787608B718B2BE0D0
:10352000929FC00111248654994F24853585281710
:103530003907B9F4EF018F010E5F1F4FC8010E94D8
:1035400075088A8D90917806981710F48093780604
:103550002BE0829FC0011124B8018654994F0E942C
:103560001708DF91CF911F910F9108958091E60682
:103570009091E706892B39F0E091E606F091E70695
:1035800085A58F5F85A78091E6069091E70608954F
:10359000CF92DF92EF92FF920F931F93FC01428331
:1035A00053836483758393878287041715072607DF
:1035B0003707C0F00C191D092E093F09868597852C
:1035C000A089B189081719072A073B0700F5BF0131
:1035D0006E5F7F4F8091F0069091F1060E9438084F
:1035E00080E018C00C151D052E053F0528F44C156C
:1035F0005D056E057F0568F4BF016E5F7F4F8091AA
:10360000F2069091F3060E94380880E003C081E042
:1036100001C081E01F910F91FF90EF90DF90CF905C
:1036200008950FB6F8940F928091EE069091EF06F0
:10363000892BE9F48FEF96E00E94020884EF96E070
:103640000E9402088FEF96E09093F3068093F206B3
:1036500084EF96E09093F1068093F00640E067E0F7
:103660008AE00E94A7099093EF068093EE060F90E0
:103670000FBE0895EF92FF920F93D3DF8091EE0675
:103680009091EF06892B89F00F2EFCEEEF2EF6E0DD
:10369000FF2EF02D03E020E030E040E850E06BE149
:1036A00072E085E89CE1A2D901C080E00F91FF9013
:1036B000EF9008957F928F929F92AF92BF92CF9298
:1036C000DF92EF92FF920F931F93CF93DF936C01E2
:1036D0004A015B01722E87E190E00E94C305EC0174
:1036E000892B81F09EDFD982C8828E869F86A88A28
:1036F000B98A7A8A1C8B0B8BFE8AED8ACE010296E0
:103700000E941308CE01DF91CF911F910F91FF907E
:10371000EF90DF90CF90BF90AF909F908F907F9071
:1037200008958F929F92AF92BF92CF92DF92EF92C5
:10373000FF920F931F93CF93DF93CDB7DEB72797F9
:103740000FB6F894DEBF0FBECDBFE091EE06F0914C
:10375000EF06309781F169832A833B834C835D8335
:103760009F838E836630F4F4F9DD823069F400E0E3
:10377000A7019601BE016F5F7F4F8091EE06909189
:10378000EF060E94D10918C000E020E030E0A90156
:10379000BE016F5F7F4F8091EE069091EF060E9411
:1037A000D1090AC020E0A801BE016F5F7F4FCF01A1
:1037B0000E94900A01C080E027960FB6F894DEBF01
:1037C0000FBECDBFDF91CF911F910F91FF90EF9072
:1037D000DF90CF90BF90AF909F908F9008952F92E1
:1037E0003F924F925F926F927F928F929F92AF9291
:1037F000BF92CF92DF92EF92FF920F931F93CF93DE
:10380000DF931C018EDA2B013C018091E806909138
:10381000E906A091EA06B091EB06481659066A0639
:103820007B0608F053C03BC00780F085E02D808008
:103830009180A280B380C085D1858E010E5F1F4F1D
:10384000C8010E947508ED89FE89CE0119958A8903
:10385000813029F58E859F85A889B989880D991DA4
:10386000AA1DBB1D88169906AA06BB0670F48A839A
:103870009B83AC83BD83DB87CA87B8018091F20646
:103880009091F3060E9438080AC0C12CD12C760111
:1038900000E010E0A501940160E0CE0142DFE0917C
:1038A000F206F091F30680818111BECF8091F0067F
:1038B0009091F1069093F3068093F206F093F1064F
:1038C000E093F00681E0F101808302C0F1011082F3
:1038D0004092E8065092E9066092EA067092EB0682
:1038E000C301B201DF91CF911F910F91FF90EF9033
:1038F000DF90CF90BF90AF909F908F907F906F9010
:103900005F904F903F902F900895CF93DF93CDB766
:10391000DEB760970FB6F894DEBF0FBECDBFCE0105
:1039200001969A878987812C912CA12CB12C6984CE
:103930007A84E091F206F091F3068081882309F4FD
:10394000F2C00780F085E02D2080318042805380D6
:10395000E2D9CE01019643DF6B877C878D879E87F6
:10396000898181115DC08B859C85AD85BE85821561
:103970009305A405B50508F43CC0B6DAE091F2065B
:10398000F091F3060780F085E02DA085B185B88B16
:10399000AF87CD0102960E947508EF85F88982896C
:1039A0008130F1F44685578560897189420D531D38
:1039B000641D751D720161010B851C852D853E8579
:1039C000CF01E6DD882361F0C82CD92CEA2CFB2C32
:1039D00000E010E0A201910160E08F859889A1DEEE
:1039E000AF85B8895596ED91FC915697CD01199503
:1039F0008BC020E0B201A1018B859C85AD85BE8581
:103A0000481B590B6A0B7B0B8091EE069091EF06D9
:103A10000E94610C69DA811177C00E94A80674C007
:103A200063DA72C0898188230CF46EC04E805F8097
:103A3000D2011C968D919C911D97892B21F0C2017A
:103A400002960E947508CE010896C9DE8B019C0182
:103A50008981082E000C990BAA0BBB0B8A309105AB
:103A600008F052C0FC018827EE56FF4F8F4F0C9490
:103A7000E95ACA80DB80EC80FD80F20146855785DB
:103A8000608971894C0D5D1D6E1D7F1DC20180DD39
:103A90008823D1F1D2015596ED91FC915697C20140
:103AA0001995F2018289813079F54A815B816C81B7
:103AB0007D8186859785A089B1899A01AB01280F00
:103AC000391F4A1F5B1FC82CD92CEA2CFB2C00E0A5
:103AD00010E060E0C20125DE17C04A815B816C8185
:103AE0007D81D2011E964D935D936D937C9351978A
:103AF000400F511F621F731F68017901C20148DD29
:103B000003C0C2010E94D505282D392D4A2D5B2DF9
:103B1000662D772D8091EE069091EF060E94F20AB5
:103B2000811180CF06CFF7D8CE01019658DE6B8782
:103B30007C878D879E878981811172CFE091F00605
:103B4000F091F106808121E0811120E0282C392CB0
:103B50004A2C5B2C4FCFFC010FB6F8940F9281E0FA
:103B600024853585232B09F480E00F900FBE08953E
:103B70000FB6F8940F92FC01838994890F900FBEC1
:103B80000895C2E0D9E002E619E00F2EFEE3CF2E41
:103B9000F2E0DF2EF02D0F2EF0EAEF2EF7E0FF2EF1
:103BA000F02D332433940F2EF3E38F2EF2E09F2E6B
:103BB000F02D0F2EF3E2AF2EF2E0BF2EF02DA895E0
:103BC0008F8D813009F0CFC080910B07813091F447
:103BD000BE01C8010E94C035F801318610920B0762
:103BE000BF92AF92FF92EF920E94340D0F900F9010
:103BF0000F900F90F8018185811148C092D84090B4
:103C0000E3085090E4086090E5087090E6089B0196
:103C1000AC01241935094609570929013A012AA19D
:103C200030E0A0E6BAEE0E94F15A641575058605EB
:103C3000970538F56AA57BA5072E000C880B990B14
:103C40000E94AF559B01AC01F80162A973A984A938
:103C500095A90E9410558823A4F480910B07811127
:103C600010C0BE01C8010E94C035F80131869F9284
:103C70008F92FF92EF920E94340D0F900F900F9051
:103C80000F90F8018185882309F46DC04AD84090CF
:103C9000E3085090E4086090E5087090E6089B0106
:103CA000AC01241935094609570929013A0129A10E
:103CB00030E0A0E6BAEE0E94F15A6415750586055B
:103CC0009705F8F4F80182858823D9F0BE01C80170
:103CD0000E94DB35F8011186128623D86093E30831
:103CE0007093E4088093E5089093E608DF92CF9202
:103CF000FF92EF920E94340D0F900F900F900F9053
:103D000032C0F8018185882371F16CA57DA5072E4D
:103D1000000C880B990B0E94AF559B01AC01F80178
:103D200062A973A984A995A90E945F561816DCF4AC
:103D3000BE01C8010E94DB35F801118612860E947F
:103D400091166093E3087093E4088093E5089093DC
:103D5000E608DF92CF92FF92EF920E94340D0F900F
:103D60000F900F900F9060ED77E080E090E038D9F1
:103D700026CFC2E0D9E00F2EFAE44F2EF9E05F2EF5
:103D8000F02D0F2EF0E58F2EFAE09F2EF02D0F2E46
:103D9000FEECAF2EF9E0BF2EF02D0F2EF4E5CF2E66
:103DA000FAE0DF2EF02D0F2EF6E5EF2EF2E0FF2EDB
:103DB000F02D00EA17E0332433940F2EF8E46F2E31
:103DC000F2E07F2EF02DA8958091190790911A07A7
:103DD00092D90FB6F8940F9288EE99E00E94F24DB6
:103DE0000F900FBE8091190790911A070E940D162F
:103DF0008CA18130A9F48091EE0981113AC08091A3
:103E0000E80981118CC03092EE097F926F921F9366
:103E10000F930E94340D0F900F900F900F9024C0BD
:103E2000811122C08091EE09882309F478C0E8EE60
:103E3000F9E01682D6011D921C921092A00A1092EF
:103E40009F0A118AFF92EF921F930F930E94340DE5
:103E500088EE99E00E94725288EE99E00E944939FA
:103E60000F900F900F900F908091EE09882309F426
:103E700056C08091F909833008F051C0BE0188EE28
:103E800099E039D49093A00A80939F0A18161906D6
:103E9000A4F4F50120813181232B79F4E8EEF9E0D7
:103EA000D6018D939C9381898F5F818BF401118260
:103EB000108288EE99E00E944939BE0188EE99E0AF
:103EC0000E94533A8091E909882349F10E94911692
:103ED00020910F0730911007409111075091120760
:103EE000DC01CB01821B930BA40BB50B81319742F4
:103EF000A105B105A0F0D2016D917C9188EE99E009
:103F00000E94C152F401918380830E9491166093B4
:103F10000F0770931007809311079093120768EEB4
:103F200073E080E090E05CD84ECFC2E0D9E0772427
:103F300073940F2EFEECEF2EF9E0FF2EF02D0F2ED6
:103F4000F2E8AF2EF2E0BF2EF02D00EA17E00F2EC0
:103F5000F3E7CF2EF2E0DF2EF02D0F2EF5E68F2EB9
:103F6000F2E09F2EF02DA8958091170790911807E9
:103F7000C2D80FB6F8940F9282E699E00E94F24DF3
:103F80000F900FBE88A1823061F480911707909145
:103F900018070E940D161092B00A88A1813069F4AA
:103FA00006C0813051F48091B00A811106C0709230
:103FB000B00A88EE99E00E9449398CA18130F9F469
:103FC00080916809811146C08091620981119EC16A
:103FD000709268090E9491166093E3087093E40858
:103FE0008093E5089093E6089F928F921F930F931A
:103FF0000E94340D0F900F900F900F9026C08111EA
:1040000024C080916809882309F480C1E2E6F9E0C0
:10401000168282B112B8D7011D921C9210926D0ABD
:1040200010926C0A118ADF92CF921F930F930E9415
:10403000340D82E699E00E94725282E699E00E9475
:1040400049390F900F900F900F9080916809882345
:1040500009F45CC180917309833008F057C18F8DDA
:10406000813009F0E2C080910B078130A9F4BE01D4
:1040700082E699E00E94C03570926B0910920B079E
:10408000E3E2F2E0FF93EF931F930F930E94340D4E
:104090000F900F900F900F9080916B0981114DC080
:1040A0000E9491162091E3083091E4084091E508C0
:1040B0005091E6081B012C01221A330A440A550AC2
:1040C0002AA130E0A0E6BAEE0E94F15A621573050B
:1040D0008405950568F56AA57BA5072E000C880B5D
:1040E000990B0E94AF559B01AC01609194097091AE
:1040F000950980919609909197090E9410558823FF
:10410000BCF480910B07811113C0BE0182E699E0D7
:104110000E94C03570926B0983E392E09F938F9366
:104120001F930F930E94340D0F900F900F900F90DC
:1041300080916B09882309F478C00E949116209120
:10414000E3083091E4084091E5085091E6081B012E
:104150002C01221A330A440A550A29A130E0A0E6AC
:10416000BAEE0E94F15A621573058405950520F593
:1041700080916C09882301F1BE0182E699E00E94DA
:10418000DB35E2E6F9E0118612860E949116609313
:10419000E3087093E4088093E5089093E608EEE363
:1041A000F2E0FF93EF931F930F930E94340D0F9053
:1041B0000F900F900F9039C080916B098823A9F15F
:1041C0006CA57DA5072E000C880B990B0E94AF559E
:1041D0009B01AC01609194097091950980919609B9
:1041E000909197090E945F561816FCF4BE0182E672
:1041F00099E00E94DB35E2E6F9E0118612860E9422
:1042000091166093E3087093E4088093E508909317
:10421000E6088EE392E09F938F931F930F930E9483
:10422000340D0F900F900F900F9080918C0A811198
:104230000AC0BE0182E699E05ED290936D0A809337
:104240006C0A56D202C010928C0A80916C0A90912E
:104250006D0A1816190644F5F70120813181232BC8
:1042600019F5E2E6F9E0D7018D939C9381898F5F80
:10427000818BEAECF9E01182108282E699E00E94DB
:104280004939D70111968C9111978F938C918F9307
:10429000BF92AF921F930F930E94340D0F900F9017
:1042A0000F900F900F900F90BE0182E699E00E9450
:1042B000533A80916309882349F10E949116209115
:1042C0001307309114074091150750911607DC0130
:1042D000CB01821B930BA40BB50B81319742A10537
:1042E000B105A0F06AA97BA982E699E00E94C152BB
:1042F000AAECB9E08D939C930E94911660931307EA
:1043000070931407809315079093160768EE73E077
:1043100080E090E00E94F01726CE0EE812E0C0EA9E
:10432000D7E01F930F93DF93CF930E94340D4FEF8D
:104330005FEFBA0180918D0A90918E0A0E948F0BD7
:104340000F900F900F900F90813059F7D8D7809130
:10435000A70A882349F089E597E00E945F0D109233
:10436000A70A10929F07DDCF809101098823C9F227
:10437000CE010E945F0D1092010910929F07D1CFCC
:10438000CDB7DEB7A297DEBFCDBF0E94A03F93D1CD
:1043900059D481E090E09093D1098093D00982E0D4
:1043A00090E09093570A8093560A80E090E00E9434
:1043B00094056093FD087093FE088093FF08909326
:1043C0000009EE24EA94F12C0FEF10E020E835E22A
:1043D00040E050E060E0CE0101960E94530E82E280
:1043E000FE013196A9E5B7E001900D928A95E1F7BB
:1043F00020E835E240E050E066E0CE0101960E9400
:10440000530E82E2FE013196A0EAB7E001900D92D0
:104410008A95E1F743E060E081E00E94A70990936C
:104420008E0A80938D0A009741F000E020E030E092
:10443000A90160E070E00E94D10940E650E060E030
:1044400070E082E099E00E94F15D82E699E00E94CE
:10445000D53388EE99E00E94D53382E699E00E9438
:10446000FC5188EE99E00E94FC5181E080938C0A17
:1044700080913409909135099093730A8093720A60
:1044800080914A0990914B099093E7098093E6093E
:1044900082E099E00E94C5368093F8098093720902
:1044A00099E288E10FB6F894A895809360000FBE5A
:1044B000909360007894E12CF12C02E020E030E051
:1044C00040E051E06CE972E08DE891E20E94F61460
:1044D0000F2EF9E1EF2EF7E0FF2EF02D00E020E0A7
:1044E00030E040E052E063EA72E085E99FE10E943B
:1044F000F6140F2EF7E1EF2EF7E0FF2EF02D20E05F
:1045000030E040E052E06CEA72E089EB9EE10E940C
:10451000F614E12CF12C20E030E040E051E065EBB6
:1045200072E081EC9DE10E94F6140E94561680E034
:1045300090E0A2960FB6F894DEBF0FBECDBF0895EF
:104540001F920F920FB60F9211240BB60F922F935A
:104550003F934F935F936F937F938F939F93AF930B
:10456000BF93EF93FF9310920A078091A30A909153
:10457000A40AA091A50AB091A60A0196A11DB11D99
:104580008093A30A9093A40AA093A50AB093A60AC5
:104590008091A30A9091A40AA091A50AB091A60ABD
:1045A0000797A105B10589F43DD31092A30A109293
:1045B000A40A1092A50A1092A60A6AE077E08091F8
:1045C0008D0A90918E0A0E94C90AFF91EF91BF91C6
:1045D000AF919F918F917F916F915F914F913F919B
:1045E0002F910F900BBE0F900FBE0F901F9018953C
:1045F0001F93CF93DF93C82F0FB6F8940F9284E0E8
:104600000E94F0138C2F0E94371480E00E94371410
:10461000182F80E00E943714C82F80E00E943714C2
:10462000D82F84E00E9417140F900FBE8C2F90E0BB
:10463000A0E0B0E0BA2FA92F982F8827A12BBC01AA
:10464000CD016D2BDF91CF911F910895CF93DF9313
:10465000D82FC62F0FB6F8940F9284E00E94F01363
:104660008D2F80680E9437148C2F0E94371484E0AD
:104670000E9417140F900FBEDF91CF910895682FFD
:1046800083E1E4CF0895682F85E1E0CF0895682F96
:1046900087E1DCCF0895CF93DF93D62FC42F682F07
:1046A00082E4D4DF6D2F83E4D1DF6C2F84E4CEDF8E
:1046B000DF91CF91089588E00E94EB1386E00E947D
:1046C000D31381E00E94E11384E00E94811380E013
:1046D000DEDF60E083E2BADF42E062E082E0DBDF5F
:1046E00084E0CDDF80E1CFCF089589E181CF0895C7
:1046F0008AE17ECF08954F925F926F927F928F9260
:104700009F92AF92BF92CF92DF92EF92FF920F9360
:104710001F93CF93DF9300D000D0CDB7DEB79E8339
:104720008D838B0120E030E048EC52ECDC015296A6
:104730006D917D918D919C9155970E941055882384
:1047400044F4ED81FE81E259FF4F808191810A9608
:1047500047C2AD81BE815696CD90DD90ED90FC9024
:10476000599720E030E048EC52ECC701B6010E94B6
:104770001055882344F4ED81FE81E259FF4F80817A
:10478000918144962DC2AD81BE819A964D905D90E7
:104790006D907C909D9720E030E048EC52ECC30196
:1047A000B2010E941055882344F4ED81FE81E25944
:1047B000FF4F808191814E9613C2AD81BE819E963E
:1047C0008D909D90AD90BC90D19720E030E048EC6A
:1047D00052ECC501B4010E941055882344F4ED81C8
:1047E000FE81E259FF4F808191818896F9C120E0D6
:1047F00030E048EC52ECAD81BE81D2966D917D9156
:104800008D919C91D5970E941055882344F4ED8199
:10481000FE81E259FF4F80819181C296E1C120E083
:1048200030E048EC52ECAD81BE81D6966D917D9121
:104830008D919C91D9970E941055882344F4ED8165
:10484000FE81E259FF4F80819181CC96C9C1AD8133
:10485000BE81DA968D919D910D90BC91A02D89839A
:104860009A83AB83BC8320E030E048EC52ECBC017F
:10487000CD010E94105588234CF4ED81FE81E25950
:10488000FF4F808191818A5B9F4FAAC120E030E079
:1048900048EC52ECED81FE81FE966081718182814F
:1048A00093810E941055882354F48D819E818259F2
:1048B0009F4FDC018D919C91805B9F4F91C120E0C7
:1048C00030E048EC52ECED81FE81EE5BFF4F608101
:1048D0007181828193810E94105588234CF4ED816F
:1048E000FE81E259FF4F80819181865A9F4F78C1A6
:1048F0004A9B10C0AD81BE811F968C911F9781305D
:1049000049F4FD01E259FF4F80819181019709F03F
:1049100056C134C14B9B10C0ED81FE81878581302B
:1049200009F05BC1ED81FE81E259FF4F80819181E9
:10493000029709F047C125C1659B11C0AD81BE81B9
:104940001F968C91813009F040C1ED81FE81E259C2
:10495000FF4F80819181019709F039C115C1659B95
:104960000EC0ED81FE818785813049F4ED81FE81A5
:10497000E259FF4F80819181029709F408C1F80143
:10498000E45AFF4F2081318142815381AD81BE8144
:104990005E966D917D918D919C9191970E9410559D
:1049A00088234CF4ED81FE81E259FF4F8081918193
:1049B00088589F4F15C1D80116966C9170E080E021
:1049C00090E00E94AF559B01AC01ED81FE81628DAC
:1049D000738D848D958D0E945F56181654F48D81C9
:1049E0009E8182599F4FDC018D919C9184579F4FEE
:1049F000F7C0F801618570E080E090E00E94AF555B
:104A00009B01AC01C701B6010E945F56181674F4F1
:104A1000AD81BE8112968C911297882339F0A259EC
:104A2000BF4F8D919C9180569F4FDAC0F8016285EF
:104A300070E080E090E00E94AF559B01AC01C7019F
:104A4000B6010E941055882374F4AD81BE8113967F
:104A50008C911397882339F0A259BF4F8D919C9167
:104A600086559F4FBDC0F801668570E080E090E0FC
:104A70000E94AF559B01AC0169817A818B819C8139
:104A80000E945F5618160CF485C0A3019201C5015F
:104A9000B4010E94AB540E947C559B01772324F4FF
:104AA00022273327261B370BC901D80154962C9196
:104AB00030E02817390764F4ED81FE818581882371
:104AC000D1F0E259FF4F8081918186509F4F88C07D
:104AD000D80153962C9130E08217930764F4ED814E
:104AE000FE818581882339F0E259FF4F80819181D1
:104AF0008C5F9E4F75C0F9DD71FD0EC0D80199968F
:104B00008C91813049F4ED81FE81E259FF4F808123
:104B10009181019709F441C0E8DD72FD0CC0F801F4
:104B200081A5813041F4ED81FE81E259FF4F808102
:104B300091810197A9F1D9DD73FD0DC0D801999636
:104B40008C91813041F4ED81FE81E259FF4F8081EB
:104B50009181019741F1C9DD83FD28C0F80181A54C
:104B6000813039F58D819E8182599F4FDC018D9175
:104B70009C91019709F58DE291E032C085E690E0C5
:104B80002FC086E690E02CC08FE690E029C080E739
:104B900090E026C08CED90E023C08FE091E020C033
:104BA00089E191E01DC083E291E01AC080E090E0CD
:104BB00017C080E090E014C080E090E011C04B99F5
:104BC000B1CE08C06599C1CECACE8CB1D8CE659998
:104BD000CDCED5CE6599B9CEC2CE6599F6CFBFCE32
:104BE00026960FB6F894DEBF0FBECDBFDF91CF91F2
:104BF0001F910F91FF90EF90DF90CF90BF90AF90FB
:104C00009F908F907F906F905F904F900895EFE608
:104C1000F0E0808182608083E1E8F0E08081826062
:104C200080830895E1E8F0E080818E7F8083109298
:104C3000850010928400EFE6F0E080818D7F808314
:104C4000B19A089588E0809381008EE9809389006D
:104C500080E680938800E6CF0895CF93DF93FA0132
:104C60003A97E73D41E0F40708F011C2EB01DC019F
:104C70008827E456FF4F8F4F0C94E95A1B966C918E
:104C8000262F30E004C21F966C91262F30E0FFC122
:104C90001C966C91262F30E0FAC11E966C91262F3F
:104CA00030E0F5C11D966C91262F30E0F0C1A65979
:104CB000BF4F2D913C91EBC120E030E040E251E448
:104CC00056966D917D918D919C9159970E94A85611
:104CD0000E947C559B01DBC120E030E040E251E4C2
:104CE00052966D917D918D919C9155970E94A856F9
:104CF0000E947C559B01CBC120E030E040E251E4B2
:104D0000D2966D917D918D919C91D5970E94A856D8
:104D10000E947C559B01BBC120E030E040E251E4A1
:104D2000D6966D917D918D919C91D9970E94A856B0
:104D30000E947C559B01ABC1A459BF4F2D913C9162
:104D4000A6C1AE5BBF4F20E030E040E251E46D9180
:104D50007D918D919C910E94A8560E947C559B014B
:104D600096C1DE9620E030E040E251E46D917D9105
:104D70008D919C910E94A8560E947C559B0187C1F1
:104D8000A65BBF4F20E030E040E251E46D917D91A1
:104D90008D919C910E94A8560E947C559B0177C1E1
:104DA000AA5BBF4F20E030E040E251E46D917D917D
:104DB0008D919C910E94A8560E947C559B0167C1D1
:104DC00020E030E040E251E49E966D917D918D911E
:104DD0009C91D1970E94A8560E947C559B0157C177
:104DE00020E030E040E251E49A966D917D918D9102
:104DF0009C919D970E94A8560E947C559B0147C19B
:104E000020E030E040E251E45A966D917D918D9121
:104E10009C915D970E94A8560E947C559B0137C1CA
:104E200020E030E040E251E45E966D917D918D91FD
:104E30009C9191970E94A8560E947C559B0127C186
:104E4000DA966D917D918D919C91DD970E947C55B4
:104E50009B011DC16881262F30E019C16B81262F6F
:104E600030E015C16981262F30E011C16A81262FFB
:104E700030E00DC16C81262F30E009C16C85262FF2
:104E800030E005C16D85262F30E001C16985262FF0
:104E900030E0FDC06A85262F30E0F9C06C89262FEE
:104EA00030E0F5C06B89262F30E0F1C06E89262FE7
:104EB00030E0EDC06D89262F30E0E9C06D8D262FE2
:104EC00030E0E5C06E8D262F30E0E1C06C8D262FDE
:104ED00030E0DDC06F8D262F30E0D9C06E85262FE3
:104EE00030E0D5C06FA1262F30E0D1C06EA1262FB3
:104EF00030E0CDC06DA1262F30E0C9C06E81262FD5
:104F000030E0C5C06885262F30E0C1C06F81262FF4
:104F100030E0BDC0FB01E45AFF4F608171818281A6
:104F200093810E947C559B01B2C06A89262F30E094
:104F3000AEC06989262F30E0AAC06889262F30E0EC
:104F4000A6C06F85262F30E0A2C0FB01EA5BFF4FB1
:104F5000208131819CC06CA1262F30E098C06A8DE1
:104F6000262F30E094C06B8D262F30E090C0698DE5
:104F7000262F30E08CC02AA53BA589C069A1262F29
:104F800030E085C02EA53FA582C02CA53DA57FC0E1
:104F90002CAD3DAD7CC068A1262F30E078C068A55F
:104FA000262F30E074C06D81262F30E070C06B85F5
:104FB000262F30E06CC028A939A969C0688D262F3A
:104FC00030E065C06F89262F30E061C069A5262FCB
:104FD00030E05DC06AA1262F30E059C02EAD3FAD54
:104FE00056C0FB01EE5BFF4F2081318150C0FB01B9
:104FF000EC5BFF4F208131814AC0FB01E05CFF4F39
:105000002081318144C02AAD3BAD41C02CA93DA9CE
:105010003EC02EA93FA93BC028AD39AD38C02AA952
:105020003BA935C0FB01EE5AFF4F208131812FC0D3
:10503000FB01EA5AFF4F2081318129C0FB01E85A68
:10504000FF4F2081318123C0FB01EC5AFF4F2081AB
:1050500031811DC0FB01E05BFF4F2081318117C012
:10506000FB01E65BFF4F2081318111C0FB01E45B56
:10507000FF4F208131810BC0FB01E25BFF4F20819C
:10508000318105C0FB01E85BFF4F20813181C901FF
:10509000DF91CF910895CF93DF93DC01FB013A9725
:1050A000E73D81E0F80708F0BBC08827ED58FD4FC9
:1050B0008F4F0C94E95A4C93B3C013964C93B0C0E5
:1050C00011964C93ADC012964C93AAC014964C9373
:1050D000A7C01C964C93A4C01D964C93A1C01996D2
:1050E0004C939EC01A964C939BC054964C9398C078
:1050F00053964C9395C056964C9392C055964C93AC
:105100008FC05D964C938CC05E964C9389C05C9624
:105110004C9386C05F964C9383C01E964C9380C080
:1051200097964C937DC096964C937AC095964C93E7
:1051300077C016964C9374C018964C9371C017960E
:105140004C936EC0ED01C45ADF4FBA0180E090E08D
:105150000E94AD55688379838A839B8361C0529690
:105160004C935EC051964C935BC050964C9358C084
:105170001F964C9355C0AA5BBF4F4D935C9350C094
:1051800094964C934DC05A964C934AC05B964C9360
:1051900047C059964C9344C09B965C934E939A9704
:1051A0003FC091964C933CC09F965C934E939E97C4
:1051B00037C09D965C934E939C9732C0DD965C936E
:1051C0004E93DC972DC090964C932AC098964C93A2
:1051D00027C015964C9324C01B964C9321C0D196A2
:1051E0005C934E93D0971CC058964C9319C0579619
:1051F0004C9316C099964C9313C092964C9310C042
:10520000D3965C934E93D2970BC0A85BBF4F4D9340
:105210005C9306C05F968C91813011F440930B072C
:10522000DF91CF910895882309F1AFEFA80FB0E087
:10523000119660E070E08FEF9FEFFB01EE53F84FA7
:105240002081822728E0AC014170552796958795EB
:10525000452B21F031E0832730EA9327215099F73D
:105260006F5F7F4F6A177B0741F702C08FEF9FEF99
:105270009827892798270895EF92FF920F931F93FD
:10528000CF93DF93882371F18150082F10E00F5FD7
:105290001F4FC0E0D0E00F2EF5E0EF2EFF24F39477
:1052A000F02D8091A70A882349F0FE01EE53F84FB4
:1052B000608189E597E00E94C50D10C080910109C9
:1052C000882361F0F701808184608083FE01EE53C2
:1052D000F84F608180EA97E00E94C50D2196C017C3
:1052E000D107F9F6E5E0F1E0808184708083000069
:1052F000DF91CF911F910F91FF90EF900895AF92A2
:10530000BF92CF92DF92EF92FF920F931F93CF93B2
:10531000DF938091A70A882329F089E597E00E940E
:10532000BC0D09C080910109882309F4DAC080EA24
:1053300097E00E94BC0D90917B079111D7C09FEF21
:10534000980F973008F4D2C09091C207913009F0BD
:10535000CDC0282F30E0F901E054F84FD081F90199
:10536000EF53F84FC08182505EDF2C2F30E03D2B91
:105370002817390709F0BAC0E2ECF7E02181209341
:105380007C078281C381D0E0D82B8481458150E0A5
:10539000582B7A01EE0CFF1CCA01880F991F880F49
:1053A000991F880F991FE80EF91EEC0EFD1E233081
:1053B00009F065C09E01ADECBCEC0E94F15A9695D7
:1053C000879596958795969587959C01220F331F13
:1053D000880F991F880F991F880F991F820F931F9D
:1053E0009E01281B390B2130310551F02230310547
:1053F00071F40F2EF8EECF2EF9E0DF2EF02D09C05C
:105400000F2EF2E6CF2EF9E0DF2EF02D02C0C12CD8
:10541000D12CA42EAA0C0F2EF5E0BF2EF02DBA0C25
:10542000E2ECF7E081E0808383E08183A282CE1505
:10543000DF05A8F403E010E0AE0162E079E0C60108
:105440000CDCF801EE53F84F9083F801ED53F84F60
:1054500080830E5F1F4F2A96CE15DF0568F383E029
:105460008A0DE1DE2B2D30E0F901E054F84F9083F6
:10547000F901EF53F84F80838B2DFEDE37C02031CA
:1054800009F034C0CE15DF05B0F407E010E0F801F4
:10549000EE53F84F8081F801ED53F84F408150E012
:1054A000582BBE0182E099E0F6DD0E5F1F4F2A9671
:1054B000CE15DF0560F30FB6F8940F9240E650E08A
:1054C00060E070E082E099E00E94225E0F900FBEE3
:1054D00086E0A9DEE2ECF7E09683878388E0CCDE05
:1054E00005C080917B07882309F42ECFDF91CF91EF
:1054F0001F910F91FF90EF90DF90CF90BF90AF90F2
:1055000008958F929F92AF92BF92CF92DF92EF92C7
:10551000FF920F931F930E94B81DFC012091020976
:1055200030E0A8EEB3E00E94F15A4B015C018081AB
:10553000823009F040C08DEB92E09F938F9380EA18
:1055400097E09F938F930E94340D809100010F90FC
:105550000F900F900F9083FD70C081E080936E09D3
:10556000E2E0F1E08081886080838DEF98E00E9426
:10557000940560936E0A70936F0A8093700A9093FB
:10558000710AE4E4F9E0808191810196918380833E
:105590000F2EF4E6CF2ED12CE12CF12CF02D00E0D3
:1055A00010E0A501940164E08091780A9091790A55
:1055B0000E94911B42C08F3009F03FC08FEC92E0F7
:1055C0009F938F9380EA97E09F938F930E94340D6F
:1055D000809100010F900F900F900F9084FD2DC0CF
:1055E00082E08093F409E2E0F1E0808180618083D1
:1055F0008DEF98E00E9494056093820A7093830A6D
:105600008093840A9093850AE8E5F9E0808191818E
:105610000196918380830F2EF4E6CF2ED12CE12CBE
:10562000F12CF02D00E010E0A501940164E08091E0
:105630008A0A90918B0A0E94911B1F910F91FF90F3
:10564000EF90DF90CF90BF90AF909F908F90089594
:105650008F929F92AF92BF92CF92DF92EF92FF9282
:105660000F931F93CF93DF93AC012091050930E096
:10567000A8EEB3E00E94F15A4B015C01CA010E94FE
:10568000B81DEC0188818D3029F581EE92E09F9361
:105690008F9380EA97E09F938F930E94340D0F9031
:1056A0000F900F900F90949902C0A49A01C0A498F3
:1056B0000F2EF4E6CF2ED12CE12CF12CF02D00E0B2
:1056C00010E0A501940164E08091EF089091F0084A
:1056D0000E94911B88818931B9F4939902C0A39AE1
:1056E00001C0A3980F2EF4E6CF2ED12CE12CF12C83
:1056F000F02D00E010E0A501940164E08091680ABB
:105700009091690A0E94911BDF91CF911F910F9197
:10571000FF90EF90DF90CF90BF90AF909F908F90D1
:1057200008950E94B81DFC0180818730A1F4E2E653
:10573000F9E0118A81E0858384EF92E09F938F9353
:1057400080EA97E09F938F930E94340D0F900F9003
:105750000F900F900895843199F4E8EEF9E0118AE2
:1057600081E0858389E093E09F938F9380EA97E0BF
:105770009F938F930E94340D0F900F900F900F9076
:1057800008950E94B81DFC018081863091F481E06B
:10579000809363098EE193E09F938F9380EA97E073
:1057A0009F938F930E94340D0F900F900F900F9046
:1057B0000895833189F481E08093E90980E393E0DF
:1057C0009F938F9380EA97E09F938F930E94340D6D
:1057D0000F900F900F900F9008958F929F92AF921D
:1057E000BF92CF92DF92EF92FF920F931F930E948E
:1057F000B81DFC018081843009F03AC1209106096E
:1058000030E0A8EEB3E00E94F15A4B015C01F0E1F8
:105810008F0EF7E29F1EA11CB11C809165098823A1
:1058200009F486C0949B59C080912A09813009F0FF
:1058300054C0A49882E493E09F938F9380EA97E00A
:105840009F938F930E94340D10927009C090910A1B
:10585000D090920AE090930AF090940A8DEF98E02D
:105860000E949405A70196010E948F05C0904707EA
:10587000D0904807E0904907F0904A07DC01CB013F
:105880008C0D9D1DAE1DBF1D80934707909348074B
:10589000A0934907B0934A070F900F900F900F9075
:1058A00081319E40A105B10508F442C0E2E0F9E073
:1058B00080AD91AD019691AF80AF40E650E060E0E1
:1058C00070E0CF010E94015E1092470710924807D6
:1058D0001092490710924A072BC0949929C08091D1
:1058E0002A09811125C0A49A81E08093700983E57B
:1058F00093E09F938F9380EA97E09F938F930E940A
:10590000340D8DEF98E00E9494056093910A709396
:10591000920A8093930A9093940AE6E4F9E08081D6
:1059200091810196918380830F900F900F900F903B
:1059300080916609811105C080916409882309F46A
:1059400084C0949B58C080912A09811154C0A498A6
:1059500082E493E09F938F9380EA97E09F938F93E5
:105960000E94340D10927009C090910AD090920A52
:10597000E090930AF090940A8DEF98E00E949405CD
:10598000A70196010E948F05C0904707D090480755
:10599000E0904907F0904A07DC01CB018C0D9D1D7A
:1059A000AE1DBF1D8093470790934807A0934907FA
:1059B000B0934A070F900F900F900F9081319E4047
:1059C000A105B10508F441C0E2E0F9E080AD91AD78
:1059D000019691AF80AF40E650E060E070E0CF010B
:1059E0000E94015E109247071092480710924907E3
:1059F00010924A072AC0949928C080912A098130C0
:105A000021F5A49A8093700982E493E09F938F9389
:105A100080EA97E09F938F930E94340D8DEF98E07A
:105A20000E9494056093910A7093920A8093930A5E
:105A30009093940AE6E4F9E0808191810196918344
:105A400080830F900F900F900F900F2EF4E6CF2EC3
:105A5000D12CE12CF12CF02D00E010E0A5019401F7
:105A600064E08091D6099091D7090E94911B34C1BE
:105A7000813109F031C12091050930E0A8EEB3E091
:105A80000E94F15A4B015C018091EB09882309F4D3
:105A900087C0939B5AC080912A09813009F055C074
:105AA000A39884E693E09F938F9380EA97E09F9377
:105AB0008F930E94340D1092F609C090AC0AD090DA
:105AC000AD0AE090AE0AF090AF0A8DEF98E00E9428
:105AD0009405A70196010E948F05C0904307D090BE
